{"contracts/OzcarGovernance.sol":{"OzcarGovernance":{"abi":[{"inputs":[{"internalType":"address","name":"initialOwner","type":"address"},{"internalType":"address","name":"_ozcToken","type":"address"},{"internalType":"address","name":"_reputation","type":"address"}],"stateMutability":"nonpayable","type":"constructor"},{"inputs":[{"internalType":"address","name":"owner","type":"address"}],"name":"OwnableInvalidOwner","type":"error"},{"inputs":[{"internalType":"address","name":"account","type":"address"}],"name":"OwnableUnauthorizedAccount","type":"error"},{"anonymous":false,"inputs":[{"indexed":true,"internalType":"address","name":"juror","type":"address"},{"indexed":false,"internalType":"uint256","name":"newAccuracy","type":"uint256"}],"name":"AccuracyUpdated","type":"event"},{"anonymous":false,"inputs":[{"indexed":true,"internalType":"bytes32","name":"caseId","type":"bytes32"},{"indexed":false,"internalType":"uint256","name":"score","type":"uint256"}],"name":"AnomalyDetected","type":"event"},{"anonymous":false,"inputs":[{"indexed":true,"internalType":"bytes32","name":"caseId","type":"bytes32"},{"indexed":false,"internalType":"bool","name":"finalDecision","type":"bool"},{"indexed":false,"internalType":"uint256","name":"validVotes","type":"uint256"},{"indexed":false,"internalType":"uint256","name":"invalidVotes","type":"uint256"}],"name":"CaseFinalized","type":"event"},{"anonymous":false,"inputs":[{"indexed":true,"internalType":"bytes32","name":"caseId","type":"bytes32"},{"indexed":false,"internalType":"enum OzcarGovernance.CaseType","name":"caseType","type":"uint8"},{"indexed":true,"internalType":"address","name":"submitter","type":"address"}],"name":"CaseSubmitted","type":"event"},{"anonymous":false,"inputs":[{"indexed":true,"internalType":"address","name":"juror","type":"address"},{"indexed":false,"internalType":"enum OzcarGovernance.JuryTier","name":"tier","type":"uint8"}],"name":"JurorRegistered","type":"event"},{"anonymous":false,"inputs":[{"indexed":true,"internalType":"address","name":"juror","type":"address"},{"indexed":false,"internalType":"enum OzcarGovernance.JuryTier","name":"oldTier","type":"uint8"},{"indexed":false,"internalType":"enum OzcarGovernance.JuryTier","name":"newTier","type":"uint8"}],"name":"JurorUpgraded","type":"event"},{"anonymous":false,"inputs":[{"indexed":true,"internalType":"address","name":"previousOwner","type":"address"},{"indexed":true,"internalType":"address","name":"newOwner","type":"address"}],"name":"OwnershipTransferred","type":"event"},{"anonymous":false,"inputs":[{"indexed":true,"internalType":"address","name":"juror","type":"address"},{"indexed":false,"internalType":"uint256","name":"amount","type":"uint256"}],"name":"RewardDistributed","type":"event"},{"anonymous":false,"inputs":[{"indexed":true,"internalType":"bytes32","name":"caseId","type":"bytes32"},{"indexed":true,"internalType":"address","name":"juror","type":"address"},{"indexed":false,"internalType":"bool","name":"decision","type":"bool"}],"name":"Voted","type":"event"},{"inputs":[],"name":"ANOMALY_THRESHOLD","outputs":[{"internalType":"uint256","name":"","type":"uint256"}],"stateMutability":"view","type":"function"},{"inputs":[],"name":"CASE_DURATION","outputs":[{"internalType":"uint256","name":"","type":"uint256"}],"stateMutability":"view","type":"function"},{"inputs":[],"name":"CITIZEN_MIN_STAKE","outputs":[{"internalType":"uint256","name":"","type":"uint256"}],"stateMutability":"view","type":"function"},{"inputs":[],"name":"CITIZEN_VOTING_POWER","outputs":[{"internalType":"uint256","name":"","type":"uint256"}],"stateMutability":"view","type":"function"},{"inputs":[],"name":"EXPERT_MIN_STAKE","outputs":[{"internalType":"uint256","name":"","type":"uint256"}],"stateMutability":"view","type":"function"},{"inputs":[],"name":"EXPERT_VOTING_POWER","outputs":[{"internalType":"uint256","name":"","type":"uint256"}],"stateMutability":"view","type":"function"},{"inputs":[],"name":"GRAND_JURY_MIN_STAKE","outputs":[{"internalType":"uint256","name":"","type":"uint256"}],"stateMutability":"view","type":"function"},{"inputs":[],"name":"GRAND_JURY_VOTING_POWER","outputs":[{"internalType":"uint256","name":"","type":"uint256"}],"stateMutability":"view","type":"function"},{"inputs":[],"name":"REWARD_POOL_PER_CASE","outputs":[{"internalType":"uint256","name":"","type":"uint256"}],"stateMutability":"view","type":"function"},{"inputs":[],"name":"TARGET_CITIZEN_RATIO","outputs":[{"internalType":"uint256","name":"","type":"uint256"}],"stateMutability":"view","type":"function"},{"inputs":[],"name":"TARGET_EXPERT_RATIO","outputs":[{"internalType":"uint256","name":"","type":"uint256"}],"stateMutability":"view","type":"function"},{"inputs":[],"name":"TARGET_GRAND_JURY_RATIO","outputs":[{"internalType":"uint256","name":"","type":"uint256"}],"stateMutability":"view","type":"function"},{"inputs":[{"internalType":"uint256","name":"","type":"uint256"}],"name":"activeCases","outputs":[{"internalType":"bytes32","name":"","type":"bytes32"}],"stateMutability":"view","type":"function"},{"inputs":[{"internalType":"uint256","name":"","type":"uint256"}],"name":"activeJurors","outputs":[{"internalType":"address","name":"","type":"address"}],"stateMutability":"view","type":"function"},{"inputs":[{"internalType":"bytes32","name":"","type":"bytes32"},{"internalType":"uint256","name":"","type":"uint256"}],"name":"caseVotes","outputs":[{"internalType":"address","name":"juror","type":"address"},{"internalType":"enum OzcarGovernance.JuryTier","name":"tier","type":"uint8"},{"internalType":"bool","name":"decision","type":"bool"},{"internalType":"uint256","name":"votingPower","type":"uint256"},{"internalType":"uint256","name":"timestamp","type":"uint256"}],"stateMutability":"view","type":"function"},{"inputs":[{"internalType":"bytes32","name":"","type":"bytes32"}],"name":"cases","outputs":[{"internalType":"bytes32","name":"id","type":"bytes32"},{"internalType":"enum OzcarGovernance.CaseType","name":"caseType","type":"uint8"},{"internalType":"address","name":"submitter","type":"address"},{"internalType":"string","name":"ipfsHash","type":"string"},{"internalType":"uint256","name":"createdAt","type":"uint256"},{"internalType":"uint256","name":"deadline","type":"uint256"},{"internalType":"enum OzcarGovernance.CaseStatus","name":"status","type":"uint8"},{"internalType":"bool","name":"finalized","type":"bool"},{"internalType":"uint256","name":"anomalyScore","type":"uint256"}],"stateMutability":"view","type":"function"},{"inputs":[{"internalType":"uint256","name":"_amount","type":"uint256"}],"name":"emergencyWithdraw","outputs":[],"stateMutability":"nonpayable","type":"function"},{"inputs":[{"internalType":"bytes32","name":"_caseId","type":"bytes32"},{"internalType":"uint256","name":"_anomalyScore","type":"uint256"}],"name":"finalizeCase","outputs":[],"stateMutability":"nonpayable","type":"function"},{"inputs":[{"internalType":"bytes32","name":"_caseId","type":"bytes32"}],"name":"getCaseVotes","outputs":[{"components":[{"internalType":"address","name":"juror","type":"address"},{"internalType":"enum OzcarGovernance.JuryTier","name":"tier","type":"uint8"},{"internalType":"bool","name":"decision","type":"bool"},{"internalType":"uint256","name":"votingPower","type":"uint256"},{"internalType":"uint256","name":"timestamp","type":"uint256"}],"internalType":"struct OzcarGovernance.Vote[]","name":"","type":"tuple[]"}],"stateMutability":"view","type":"function"},{"inputs":[{"internalType":"address","name":"_juror","type":"address"}],"name":"getJurorStats","outputs":[{"internalType":"enum OzcarGovernance.JuryTier","name":"tier","type":"uint8"},{"internalType":"uint256","name":"votingPower","type":"uint256"},{"internalType":"uint256","name":"accuracy","type":"uint256"},{"internalType":"uint256","name":"totalVotes","type":"uint256"},{"internalType":"uint256","name":"correctVotes","type":"uint256"},{"internalType":"bool","name":"isTrial","type":"bool"}],"stateMutability":"view","type":"function"},{"inputs":[],"name":"getPendingCases","outputs":[{"internalType":"bytes32[]","name":"","type":"bytes32[]"}],"stateMutability":"view","type":"function"},{"inputs":[{"internalType":"address","name":"_juror","type":"address"}],"name":"getWeightedVotingPower","outputs":[{"internalType":"uint256","name":"","type":"uint256"}],"stateMutability":"view","type":"function"},{"inputs":[{"internalType":"bytes32","name":"","type":"bytes32"},{"internalType":"address","name":"","type":"address"}],"name":"hasVoted","outputs":[{"internalType":"bool","name":"","type":"bool"}],"stateMutability":"view","type":"function"},{"inputs":[{"internalType":"address","name":"","type":"address"}],"name":"jurors","outputs":[{"internalType":"address","name":"wallet","type":"address"},{"internalType":"enum OzcarGovernance.JuryTier","name":"tier","type":"uint8"},{"internalType":"uint256","name":"votingPower","type":"uint256"},{"internalType":"uint256","name":"accuracy","type":"uint256"},{"internalType":"uint256","name":"totalVotes","type":"uint256"},{"internalType":"uint256","name":"correctVotes","type":"uint256"},{"internalType":"uint256","name":"ownedVehicles","type":"uint256"},{"internalType":"uint256","name":"stakingAmount","type":"uint256"},{"internalType":"bool","name":"isActive","type":"bool"},{"internalType":"bool","name":"isTrial","type":"bool"},{"internalType":"uint256","name":"joinedAt","type":"uint256"}],"stateMutability":"view","type":"function"},{"inputs":[],"name":"owner","outputs":[{"internalType":"address","name":"","type":"address"}],"stateMutability":"view","type":"function"},{"inputs":[],"name":"ozcToken","outputs":[{"internalType":"contract IERC20","name":"","type":"address"}],"stateMutability":"view","type":"function"},{"inputs":[{"internalType":"uint256","name":"_ownedVehicles","type":"uint256"}],"name":"registerAsJuror","outputs":[],"stateMutability":"nonpayable","type":"function"},{"inputs":[],"name":"renounceOwnership","outputs":[],"stateMutability":"nonpayable","type":"function"},{"inputs":[],"name":"reputation","outputs":[{"internalType":"contract OzcarReputation","name":"","type":"address"}],"stateMutability":"view","type":"function"},{"inputs":[{"internalType":"enum OzcarGovernance.CaseType","name":"_caseType","type":"uint8"},{"internalType":"string","name":"_ipfsHash","type":"string"}],"name":"submitCase","outputs":[{"internalType":"bytes32","name":"","type":"bytes32"}],"stateMutability":"nonpayable","type":"function"},{"inputs":[{"internalType":"address","name":"newOwner","type":"address"}],"name":"transferOwnership","outputs":[],"stateMutability":"nonpayable","type":"function"},{"inputs":[{"internalType":"enum OzcarGovernance.JuryTier","name":"_newTier","type":"uint8"}],"name":"upgradeTier","outputs":[],"stateMutability":"nonpayable","type":"function"},{"inputs":[{"internalType":"bytes32","name":"_caseId","type":"bytes32"},{"internalType":"bool","name":"_decision","type":"bool"}],"name":"vote","outputs":[],"stateMutability":"nonpayable","type":"function"}],"evm":{"bytecode":{"linkReferences":{},"object":"60806040523480156200001157600080fd5b506040516200481238038062004812833981810160405281019062000037919062000278565b82600073ffffffffffffffffffffffffffffffffffffffff168173ffffffffffffffffffffffffffffffffffffffff1603620000ad5760006040517f1e4fbdf7000000000000000000000000000000000000000000000000000000008152600401620000a49190620002e5565b60405180910390fd5b620000be816200014a60201b60201c565b5081600160006101000a81548173ffffffffffffffffffffffffffffffffffffffff021916908373ffffffffffffffffffffffffffffffffffffffff16021790555080600260006101000a81548173ffffffffffffffffffffffffffffffffffffffff021916908373ffffffffffffffffffffffffffffffffffffffff16021790555050505062000302565b60008060009054906101000a900473ffffffffffffffffffffffffffffffffffffffff169050816000806101000a81548173ffffffffffffffffffffffffffffffffffffffff021916908373ffffffffffffffffffffffffffffffffffffffff1602179055508173ffffffffffffffffffffffffffffffffffffffff168173ffffffffffffffffffffffffffffffffffffffff167f8be0079c531659141344cd1fd0a4f28419497f9722a3daafe3b4186f6b6457e060405160405180910390a35050565b600080fd5b600073ffffffffffffffffffffffffffffffffffffffff82169050919050565b6000620002408262000213565b9050919050565b620002528162000233565b81146200025e57600080fd5b50565b600081519050620002728162000247565b92915050565b6000806000606084860312156200029457620002936200020e565b5b6000620002a48682870162000261565b9350506020620002b78682870162000261565b9250506040620002ca8682870162000261565b9150509250925092565b620002df8162000233565b82525050565b6000602082019050620002fc6000830184620002d4565b92915050565b61450080620003126000396000f3fe608060405234801561001057600080fd5b50600436106101fb5760003560e01c80638da5cb5b1161011a578063c52164c6116100ad578063e737341e1161007c578063e737341e146105f9578063ed8d71e014610617578063f19c7d6414610635578063f2fde38b14610653578063fa814b751461066f576101fb565b8063c52164c614610553578063dca5f6b014610571578063ddd9fa48146105ab578063e2da844d146105c9576101fb565b8063af95040c116100e9578063af95040c146104c9578063b01b9128146104f9578063bb6846e614610517578063c4a2976014610535576101fb565b80638da5cb5b146104435780639f2ce67814610461578063a2949dd71461047d578063aadc3b7214610499576101fb565b806349cc6615116101925780635c1a58b5116101615780635c1a58b5146103b75780636636411e146103d5578063715018a6146104095780637e7d8d3a14610413576101fb565b806349cc66151461033157806351724eca1461034f5780635312ea8e1461037f5780635b7c6d7e1461039b576101fb565b806338edf777116101ce57806338edf777146102a15780633bc70ec0146102bf57806348ea1c23146102db578063492cbd7414610313576101fb565b80631513bdb1146102005780631ddde4281461023057806321885ea614610265578063381af86f14610283575b600080fd5b61021a60048036038101906102159190612bb5565b61068d565b6040516102279190612de5565b60405180910390f35b61024a60048036038101906102459190612e33565b6107bf565b60405161025c96959493929190612e8d565b60405180910390f35b61026d61095d565b60405161027a9190612eee565b60405180910390f35b61028b610962565b6040516102989190612eee565b60405180910390f35b6102a9610967565b6040516102b69190612eee565b60405180910390f35b6102d960048036038101906102d49190612f35565b61096c565b005b6102f560048036038101906102f09190612bb5565b610e5e565b60405161030a999897969594939291906130a0565b60405180910390f35b61031b610f7b565b6040516103289190612eee565b60405180910390f35b610339610f80565b6040516103469190612eee565b60405180910390f35b6103696004803603810190610364919061328e565b610f86565b60405161037691906132ea565b60405180910390f35b61039960048036038101906103949190612f35565b6111e1565b005b6103b560048036038101906103b09190613305565b611294565b005b6103bf6116ab565b6040516103cc9190612eee565b60405180910390f35b6103ef60048036038101906103ea9190613305565b6116b0565b604051610400959493929190613345565b60405180910390f35b61041161173d565b005b61042d60048036038101906104289190612e33565b611751565b60405161043a9190612eee565b60405180910390f35b61044b6118d0565b6040516104589190613398565b60405180910390f35b61047b600480360381019061047691906133df565b6118f9565b005b61049760048036038101906104929190613444565b611ec5565b005b6104b360048036038101906104ae9190613471565b6122b7565b6040516104c091906134b1565b60405180910390f35b6104e360048036038101906104de9190612f35565b6122e6565b6040516104f091906132ea565b60405180910390f35b61050161230a565b60405161050e9190612eee565b60405180910390f35b61051f612317565b60405161052c919061352b565b60405180910390f35b61053d61233d565b60405161054a9190612eee565b60405180910390f35b61055b612344565b6040516105689190613567565b60405180910390f35b61058b60048036038101906105869190612e33565b61236a565b6040516105a29b9a99989796959493929190613582565b60405180910390f35b6105b361240b565b6040516105c09190612eee565b60405180910390f35b6105e360048036038101906105de9190612f35565b612410565b6040516105f09190613398565b60405180910390f35b61060161244f565b60405161060e9190612eee565b60405180910390f35b61061f612454565b60405161062c9190612eee565b60405180910390f35b61063d612459565b60405161064a91906136eb565b60405180910390f35b61066d60048036038101906106689190612e33565b612631565b005b6106776126b7565b6040516106849190612eee565b60405180910390f35b606060056000838152602001908152602001600020805480602002602001604051908101604052809291908181526020016000905b828210156107b457838290600052602060002090600302016040518060a00160405290816000820160009054906101000a900473ffffffffffffffffffffffffffffffffffffffff1673ffffffffffffffffffffffffffffffffffffffff1673ffffffffffffffffffffffffffffffffffffffff1681526020016000820160149054906101000a900460ff1660028111156107605761075f612c4f565b5b600281111561077257610771612c4f565b5b81526020016000820160159054906101000a900460ff1615151515815260200160018201548152602001600282015481525050815260200190600101906106c2565b505050509050919050565b6000806000806000806000600360008973ffffffffffffffffffffffffffffffffffffffff1673ffffffffffffffffffffffffffffffffffffffff168152602001908152602001600020604051806101600160405290816000820160009054906101000a900473ffffffffffffffffffffffffffffffffffffffff1673ffffffffffffffffffffffffffffffffffffffff1673ffffffffffffffffffffffffffffffffffffffff1681526020016000820160149054906101000a900460ff1660028111156108905761088f612c4f565b5b60028111156108a2576108a1612c4f565b5b81526020016001820154815260200160028201548152602001600382015481526020016004820154815260200160058201548152602001600682015481526020016007820160009054906101000a900460ff161515151581526020016007820160019054906101000a900460ff161515151581526020016008820154815250509050806020015161093289611751565b826060015183608001518460a001518561012001519650965096509650965096505091939550919395565b604681565b600081565b600181565b600360003373ffffffffffffffffffffffffffffffffffffffff1673ffffffffffffffffffffffffffffffffffffffff16815260200190815260200160002060070160009054906101000a900460ff16156109fc576040517f08c379a00000000000000000000000000000000000000000000000000000000081526004016109f390613759565b60405180910390fd5b6001811015610a40576040517f08c379a0000000000000000000000000000000000000000000000000000000008152600401610a37906137c5565b60405180910390fd5b60008081600160009054906101000a900473ffffffffffffffffffffffffffffffffffffffff1673ffffffffffffffffffffffffffffffffffffffff166370a08231336040518263ffffffff1660e01b8152600401610a9f9190613398565b602060405180830381865afa158015610abc573d6000803e3d6000fd5b505050506040513d601f19601f82011682018060405250810190610ae091906137fa565b1015610aef5760009150600190505b6000821115610bda57600160009054906101000a900473ffffffffffffffffffffffffffffffffffffffff1673ffffffffffffffffffffffffffffffffffffffff166323b872dd3330856040518463ffffffff1660e01b8152600401610b5793929190613827565b6020604051808303816000875af1158015610b76573d6000803e3d6000fd5b505050506040513d601f19601f82011682018060405250810190610b9a9190613873565b610bd9576040517f08c379a0000000000000000000000000000000000000000000000000000000008152600401610bd0906138ec565b60405180910390fd5b5b6040518061016001604052803373ffffffffffffffffffffffffffffffffffffffff16815260200160006002811115610c1657610c15612c4f565b5b815260200182610c27576001610c2a565b60015b8152602001600081526020016000815260200160008152602001848152602001838152602001600115158152602001821515815260200142815250600360003373ffffffffffffffffffffffffffffffffffffffff1673ffffffffffffffffffffffffffffffffffffffff16815260200190815260200160002060008201518160000160006101000a81548173ffffffffffffffffffffffffffffffffffffffff021916908373ffffffffffffffffffffffffffffffffffffffff16021790555060208201518160000160146101000a81548160ff02191690836002811115610d1657610d15612c4f565b5b021790555060408201518160010155606082015181600201556080820151816003015560a0820151816004015560c0820151816005015560e082015181600601556101008201518160070160006101000a81548160ff0219169083151502179055506101208201518160070160016101000a81548160ff02191690831515021790555061014082015181600801559050506007339080600181540180825580915050600190039060005260206000200160009091909190916101000a81548173ffffffffffffffffffffffffffffffffffffffff021916908373ffffffffffffffffffffffffffffffffffffffff1602179055503373ffffffffffffffffffffffffffffffffffffffff167f7855ba29ca8454697607aa251043ef55a210106ef4adccc63b1c8bfeb55b6e676000604051610e51919061390c565b60405180910390a2505050565b60046020528060005260406000206000915090508060000154908060010160009054906101000a900460ff16908060010160019054906101000a900473ffffffffffffffffffffffffffffffffffffffff1690806002018054610ec090613956565b80601f0160208091040260200160405190810160405280929190818152602001828054610eec90613956565b8015610f395780601f10610f0e57610100808354040283529160200191610f39565b820191906000526020600020905b815481529060010190602001808311610f1c57829003601f168201915b5050505050908060030154908060040154908060050160009054906101000a900460ff16908060050160019054906101000a900460ff16908060060154905089565b601481565b6102bc81565b600080334284604051602001610f9e93929190613a2c565b604051602081830303815290604052805190602001209050604051806101200160405280828152602001856006811115610fdb57610fda612c4f565b5b81526020013373ffffffffffffffffffffffffffffffffffffffff16815260200184815260200142815260200162015180426110179190613a94565b8152602001600060038111156110305761102f612c4f565b5b81526020016000151581526020016000815250600460008381526020019081526020016000206000820151816000015560208201518160010160006101000a81548160ff0219169083600681111561108b5761108a612c4f565b5b021790555060408201518160010160016101000a81548173ffffffffffffffffffffffffffffffffffffffff021916908373ffffffffffffffffffffffffffffffffffffffff16021790555060608201518160020190816110ec9190613c6a565b506080820151816003015560a0820151816004015560c08201518160050160006101000a81548160ff0219169083600381111561112c5761112b612c4f565b5b021790555060e08201518160050160016101000a81548160ff021916908315150217905550610100820151816006015590505060088190806001815401808255809150506001900390600052602060002001600090919091909150553373ffffffffffffffffffffffffffffffffffffffff16817ffdd8847731ab35ac10a0f03462f1a89d583ff8db9353b7e775a0bbb8e490ac7d866040516111cf9190613d3c565b60405180910390a38091505092915050565b6111e96126bc565b600160009054906101000a900473ffffffffffffffffffffffffffffffffffffffff1673ffffffffffffffffffffffffffffffffffffffff1663a9059cbb61122f6118d0565b836040518363ffffffff1660e01b815260040161124d929190613d57565b6020604051808303816000875af115801561126c573d6000803e3d6000fd5b505050506040513d601f19601f820116820180604052508101906112909190613873565b5050565b61129c6126bc565b60006004600084815260200190815260200160002090508060050160019054906101000a900460ff1615611305576040517f08c379a00000000000000000000000000000000000000000000000000000000081526004016112fc90613dcc565b60405180910390fd5b806004015442101561134c576040517f08c379a000000000000000000000000000000000000000000000000000000000815260040161134390613e38565b60405180910390fd5b8181600601819055506102bc82106113e65760028160050160006101000a81548160ff0219169083600381111561138657611385612c4f565b5b021790555060018160050160016101000a81548160ff021916908315150217905550827f82049ab1a1dded6f9505013e08965dc100a583bee68009fc7632982add3b9be9836040516113d89190612eee565b60405180910390a2506116a7565b600060056000858152602001908152602001600020805480602002602001604051908101604052809291908181526020016000905b8282101561150d57838290600052602060002090600302016040518060a00160405290816000820160009054906101000a900473ffffffffffffffffffffffffffffffffffffffff1673ffffffffffffffffffffffffffffffffffffffff1673ffffffffffffffffffffffffffffffffffffffff1681526020016000820160149054906101000a900460ff1660028111156114b9576114b8612c4f565b5b60028111156114cb576114ca612c4f565b5b81526020016000820160159054906101000a900460ff16151515158152602001600182015481526020016002820154815250508152602001906001019061141b565b5050505090506000815111611557576040517f08c379a000000000000000000000000000000000000000000000000000000000815260040161154e90613ea4565b60405180910390fd5b60008060005b83518110156115fb5783818151811061157957611578613ec4565b5b602002602001015160400151156115bb5783818151811061159d5761159c613ec4565b5b602002602001015160600151836115b49190613a94565b92506115e8565b8381815181106115ce576115cd613ec4565b5b602002602001015160600151826115e59190613a94565b91505b80806115f390613ef3565b91505061155d565b50600081831190508061160f576002611612565b60015b8560050160006101000a81548160ff0219169083600381111561163857611637612c4f565b5b021790555060018560050160016101000a81548160ff021916908315150217905550611665878286612743565b867f7dfd85b4f8d09e161eb4f72d683098ee1573b08082d2298bdcf70e7e8ddd0f8882858560405161169993929190613f3b565b60405180910390a250505050505b5050565b600081565b600560205281600052604060002081815481106116cc57600080fd5b9060005260206000209060030201600091509150508060000160009054906101000a900473ffffffffffffffffffffffffffffffffffffffff16908060000160149054906101000a900460ff16908060000160159054906101000a900460ff16908060010154908060020154905085565b6117456126bc565b61174f60006129d0565b565b6000600360008373ffffffffffffffffffffffffffffffffffffffff1673ffffffffffffffffffffffffffffffffffffffff16815260200190815260200160002060070160009054906101000a900460ff166117b057600090506118cb565b6000600260009054906101000a900473ffffffffffffffffffffffffffffffffffffffff1673ffffffffffffffffffffffffffffffffffffffff166398bf9a5d846040518263ffffffff1660e01b815260040161180d9190613398565b60c060405180830381865afa15801561182a573d6000803e3d6000fd5b505050506040513d601f19601f8201168201806040525081019061184e9190613f72565b509450505050506000600360008573ffffffffffffffffffffffffffffffffffffffff1673ffffffffffffffffffffffffffffffffffffffff16815260200190815260200160002060010154905060008260326118ab9190613a94565b9050606481836118bb9190613fff565b6118c59190614070565b93505050505b919050565b60008060009054906101000a900473ffffffffffffffffffffffffffffffffffffffff16905090565b600360003373ffffffffffffffffffffffffffffffffffffffff1673ffffffffffffffffffffffffffffffffffffffff16815260200190815260200160002060070160009054906101000a900460ff16611988576040517f08c379a000000000000000000000000000000000000000000000000000000000815260040161197f906140ed565b60405180910390fd5b6006600083815260200190815260200160002060003373ffffffffffffffffffffffffffffffffffffffff1673ffffffffffffffffffffffffffffffffffffffff16815260200190815260200160002060009054906101000a900460ff1615611a26576040517f08c379a0000000000000000000000000000000000000000000000000000000008152600401611a1d90614159565b60405180910390fd5b60006003811115611a3a57611a39612c4f565b5b6004600084815260200190815260200160002060050160009054906101000a900460ff166003811115611a7057611a6f612c4f565b5b14611ab0576040517f08c379a0000000000000000000000000000000000000000000000000000000008152600401611aa7906141c5565b60405180910390fd5b60046000838152602001908152602001600020600401544210611b08576040517f08c379a0000000000000000000000000000000000000000000000000000000008152600401611aff90614231565b60405180910390fd5b6000600360003373ffffffffffffffffffffffffffffffffffffffff1673ffffffffffffffffffffffffffffffffffffffff168152602001908152602001600020604051806101600160405290816000820160009054906101000a900473ffffffffffffffffffffffffffffffffffffffff1673ffffffffffffffffffffffffffffffffffffffff1673ffffffffffffffffffffffffffffffffffffffff1681526020016000820160149054906101000a900460ff166002811115611bd057611bcf612c4f565b5b6002811115611be257611be1612c4f565b5b81526020016001820154815260200160028201548152602001600382015481526020016004820154815260200160058201548152602001600682015481526020016007820160009054906101000a900460ff161515151581526020016007820160019054906101000a900460ff1615151515815260200160088201548152505090506000611c6f33611751565b9050600560008581526020019081526020016000206040518060a001604052803373ffffffffffffffffffffffffffffffffffffffff16815260200184602001516002811115611cc257611cc1612c4f565b5b8152602001851515815260200183815260200142815250908060018154018082558091505060019003906000526020600020906003020160009091909190915060008201518160000160006101000a81548173ffffffffffffffffffffffffffffffffffffffff021916908373ffffffffffffffffffffffffffffffffffffffff16021790555060208201518160000160146101000a81548160ff02191690836002811115611d7457611d73612c4f565b5b021790555060408201518160000160156101000a81548160ff0219169083151502179055506060820151816001015560808201518160020155505060016006600086815260200190815260200160002060003373ffffffffffffffffffffffffffffffffffffffff1673ffffffffffffffffffffffffffffffffffffffff16815260200190815260200160002060006101000a81548160ff021916908315150217905550600360003373ffffffffffffffffffffffffffffffffffffffff1673ffffffffffffffffffffffffffffffffffffffff1681526020019081526020016000206003016000815480929190611e6b90613ef3565b91905055503373ffffffffffffffffffffffffffffffffffffffff16847f16efd9a5766ad43ca179f5ef58b8748c48ddedd2dd2a228460465bfa90d4d06985604051611eb791906134b1565b60405180910390a350505050565b6000600360003373ffffffffffffffffffffffffffffffffffffffff1673ffffffffffffffffffffffffffffffffffffffff16815260200190815260200160002090508060070160009054906101000a900460ff16611f59576040517f08c379a0000000000000000000000000000000000000000000000000000000008152600401611f509061429d565b60405180910390fd5b8060000160149054906101000a900460ff166002811115611f7d57611f7c612c4f565b5b826002811115611f9057611f8f612c4f565b5b11611fd0576040517f08c379a0000000000000000000000000000000000000000000000000000000008152600401611fc790614309565b60405180910390fd5b60008060016002811115611fe757611fe6612c4f565b5b846002811115611ffa57611ff9612c4f565b5b03612073576002836005015410158061201857506055836002015410155b612057576040517f08c379a000000000000000000000000000000000000000000000000000000000815260040161204e90614375565b60405180910390fd5b826006015460006120689190614395565b91506003905061210f565b60028081111561208657612085612c4f565b5b84600281111561209957612098612c4f565b5b0361210e57600383600501541015806120b75750605f836002015410155b6120f6576040517f08c379a00000000000000000000000000000000000000000000000000000000081526004016120ed90614415565b60405180910390fd5b826006015460006121079190614395565b9150600590505b5b600082111561221557600160009054906101000a900473ffffffffffffffffffffffffffffffffffffffff1673ffffffffffffffffffffffffffffffffffffffff166323b872dd3330856040518463ffffffff1660e01b815260040161217793929190613827565b6020604051808303816000875af1158015612196573d6000803e3d6000fd5b505050506040513d601f19601f820116820180604052508101906121ba9190613873565b6121f9576040517f08c379a00000000000000000000000000000000000000000000000000000000081526004016121f090614481565b60405180910390fd5b8183600601600082825461220d9190613a94565b925050819055505b60008360000160149054906101000a900460ff169050848460000160146101000a81548160ff0219169083600281111561225257612251612c4f565b5b02179055508184600101819055503373ffffffffffffffffffffffffffffffffffffffff167ffdab712786afc3b366bdb70e1353d20cf7d17170e663bd0349b1a1c06c44d95882876040516122a89291906144a1565b60405180910390a25050505050565b60066020528160005260406000206020528060005260406000206000915091509054906101000a900460ff1681565b600881815481106122f657600080fd5b906000526020600020016000915090505481565b683635c9adc5dea0000081565b600160009054906101000a900473ffffffffffffffffffffffffffffffffffffffff1681565b6201518081565b600260009054906101000a900473ffffffffffffffffffffffffffffffffffffffff1681565b60036020528060005260406000206000915090508060000160009054906101000a900473ffffffffffffffffffffffffffffffffffffffff16908060000160149054906101000a900460ff16908060010154908060020154908060030154908060040154908060050154908060060154908060070160009054906101000a900460ff16908060070160019054906101000a900460ff1690806008015490508b565b600081565b6007818154811061242057600080fd5b906000526020600020016000915054906101000a900473ffffffffffffffffffffffffffffffffffffffff1681565b600a81565b600381565b60606000805b6008805490508110156124fb57600060038111156124805761247f612c4f565b5b600460006008848154811061249857612497613ec4565b5b9060005260206000200154815260200190815260200160002060050160009054906101000a900460ff1660038111156124d4576124d3612c4f565b5b036124e85781806124e490613ef3565b9250505b80806124f390613ef3565b91505061245f565b5060008167ffffffffffffffff81111561251857612517613163565b5b6040519080825280602002602001820160405280156125465781602001602082028036833780820191505090505b5090506000805b600880549050811015612627576000600381111561256e5761256d612c4f565b5b600460006008848154811061258657612585613ec4565b5b9060005260206000200154815260200190815260200160002060050160009054906101000a900460ff1660038111156125c2576125c1612c4f565b5b0361261457600881815481106125db576125da613ec4565b5b90600052602060002001548383815181106125f9576125f8613ec4565b5b602002602001018181525050818061261090613ef3565b9250505b808061261f90613ef3565b91505061254d565b5081935050505090565b6126396126bc565b600073ffffffffffffffffffffffffffffffffffffffff168173ffffffffffffffffffffffffffffffffffffffff16036126ab5760006040517f1e4fbdf70000000000000000000000000000000000000000000000000000000081526004016126a29190613398565b60405180910390fd5b6126b4816129d0565b50565b600581565b6126c4612a94565b73ffffffffffffffffffffffffffffffffffffffff166126e26118d0565b73ffffffffffffffffffffffffffffffffffffffff161461274157612705612a94565b6040517f118cdaa70000000000000000000000000000000000000000000000000000000081526004016127389190613398565b60405180910390fd5b565b6000805b82518110156127b95783151583828151811061276657612765613ec4565b5b6020026020010151604001511515036127a65782818151811061278c5761278b613ec4565b5b602002602001015160600151826127a39190613a94565b91505b80806127b190613ef3565b915050612747565b50600081036127c857506129cb565b60005b82518110156129c85760008382815181106127e9576127e8613ec4565b5b602002602001015160000151905084151584838151811061280d5761280c613ec4565b5b6020026020010151604001511515036129ab5760008385848151811061283657612835613ec4565b5b602002602001015160600151683635c9adc5dea000006128569190613fff565b6128609190614070565b9050600160009054906101000a900473ffffffffffffffffffffffffffffffffffffffff1673ffffffffffffffffffffffffffffffffffffffff1663a9059cbb83836040518363ffffffff1660e01b81526004016128bf929190613d57565b6020604051808303816000875af11580156128de573d6000803e3d6000fd5b505050506040513d601f19601f820116820180604052508101906129029190613873565b50600360008373ffffffffffffffffffffffffffffffffffffffff1673ffffffffffffffffffffffffffffffffffffffff168152602001908152602001600020600401600081548092919061295690613ef3565b91905055508173ffffffffffffffffffffffffffffffffffffffff167fe34918ff1c7084970068b53fd71ad6d8b04e9f15d3886cbf006443e6cdc52ea6826040516129a19190612eee565b60405180910390a2505b6129b481612a9c565b5080806129c090613ef3565b9150506127cb565b50505b505050565b60008060009054906101000a900473ffffffffffffffffffffffffffffffffffffffff169050816000806101000a81548173ffffffffffffffffffffffffffffffffffffffff021916908373ffffffffffffffffffffffffffffffffffffffff1602179055508173ffffffffffffffffffffffffffffffffffffffff168173ffffffffffffffffffffffffffffffffffffffff167f8be0079c531659141344cd1fd0a4f28419497f9722a3daafe3b4186f6b6457e060405160405180910390a35050565b600033905090565b6000600360008373ffffffffffffffffffffffffffffffffffffffff1673ffffffffffffffffffffffffffffffffffffffff1681526020019081526020016000209050600081600301541115612b6757806003015460648260040154612b029190613fff565b612b0c9190614070565b81600201819055508173ffffffffffffffffffffffffffffffffffffffff167f16d0848e499fa9fd0f755c0563c69a05617a0663a704dabd1933f6f75fa3f2198260020154604051612b5e9190612eee565b60405180910390a25b5050565b6000604051905090565b600080fd5b600080fd5b6000819050919050565b612b9281612b7f565b8114612b9d57600080fd5b50565b600081359050612baf81612b89565b92915050565b600060208284031215612bcb57612bca612b75565b5b6000612bd984828501612ba0565b91505092915050565b600081519050919050565b600082825260208201905092915050565b6000819050602082019050919050565b600073ffffffffffffffffffffffffffffffffffffffff82169050919050565b6000612c3982612c0e565b9050919050565b612c4981612c2e565b82525050565b7f4e487b7100000000000000000000000000000000000000000000000000000000600052602160045260246000fd5b60038110612c8f57612c8e612c4f565b5b50565b6000819050612ca082612c7e565b919050565b6000612cb082612c92565b9050919050565b612cc081612ca5565b82525050565b60008115159050919050565b612cdb81612cc6565b82525050565b6000819050919050565b612cf481612ce1565b82525050565b60a082016000820151612d106000850182612c40565b506020820151612d236020850182612cb7565b506040820151612d366040850182612cd2565b506060820151612d496060850182612ceb565b506080820151612d5c6080850182612ceb565b50505050565b6000612d6e8383612cfa565b60a08301905092915050565b6000602082019050919050565b6000612d9282612be2565b612d9c8185612bed565b9350612da783612bfe565b8060005b83811015612dd8578151612dbf8882612d62565b9750612dca83612d7a565b925050600181019050612dab565b5085935050505092915050565b60006020820190508181036000830152612dff8184612d87565b905092915050565b612e1081612c2e565b8114612e1b57600080fd5b50565b600081359050612e2d81612e07565b92915050565b600060208284031215612e4957612e48612b75565b5b6000612e5784828501612e1e565b91505092915050565b612e6981612ca5565b82525050565b612e7881612ce1565b82525050565b612e8781612cc6565b82525050565b600060c082019050612ea26000830189612e60565b612eaf6020830188612e6f565b612ebc6040830187612e6f565b612ec96060830186612e6f565b612ed66080830185612e6f565b612ee360a0830184612e7e565b979650505050505050565b6000602082019050612f036000830184612e6f565b92915050565b612f1281612ce1565b8114612f1d57600080fd5b50565b600081359050612f2f81612f09565b92915050565b600060208284031215612f4b57612f4a612b75565b5b6000612f5984828501612f20565b91505092915050565b612f6b81612b7f565b82525050565b60078110612f8257612f81612c4f565b5b50565b6000819050612f9382612f71565b919050565b6000612fa382612f85565b9050919050565b612fb381612f98565b82525050565b612fc281612c2e565b82525050565b600081519050919050565b600082825260208201905092915050565b60005b83811015613002578082015181840152602081019050612fe7565b60008484015250505050565b6000601f19601f8301169050919050565b600061302a82612fc8565b6130348185612fd3565b9350613044818560208601612fe4565b61304d8161300e565b840191505092915050565b6004811061306957613068612c4f565b5b50565b600081905061307a82613058565b919050565b600061308a8261306c565b9050919050565b61309a8161307f565b82525050565b6000610120820190506130b6600083018c612f62565b6130c3602083018b612faa565b6130d0604083018a612fb9565b81810360608301526130e2818961301f565b90506130f16080830188612e6f565b6130fe60a0830187612e6f565b61310b60c0830186613091565b61311860e0830185612e7e565b613126610100830184612e6f565b9a9950505050505050505050565b6007811061314157600080fd5b50565b60008135905061315381613134565b92915050565b600080fd5b600080fd5b7f4e487b7100000000000000000000000000000000000000000000000000000000600052604160045260246000fd5b61319b8261300e565b810181811067ffffffffffffffff821117156131ba576131b9613163565b5b80604052505050565b60006131cd612b6b565b90506131d98282613192565b919050565b600067ffffffffffffffff8211156131f9576131f8613163565b5b6132028261300e565b9050602081019050919050565b82818337600083830152505050565b600061323161322c846131de565b6131c3565b90508281526020810184848401111561324d5761324c61315e565b5b61325884828561320f565b509392505050565b600082601f83011261327557613274613159565b5b813561328584826020860161321e565b91505092915050565b600080604083850312156132a5576132a4612b75565b5b60006132b385828601613144565b925050602083013567ffffffffffffffff8111156132d4576132d3612b7a565b5b6132e085828601613260565b9150509250929050565b60006020820190506132ff6000830184612f62565b92915050565b6000806040838503121561331c5761331b612b75565b5b600061332a85828601612ba0565b925050602061333b85828601612f20565b9150509250929050565b600060a08201905061335a6000830188612fb9565b6133676020830187612e60565b6133746040830186612e7e565b6133816060830185612e6f565b61338e6080830184612e6f565b9695505050505050565b60006020820190506133ad6000830184612fb9565b92915050565b6133bc81612cc6565b81146133c757600080fd5b50565b6000813590506133d9816133b3565b92915050565b600080604083850312156133f6576133f5612b75565b5b600061340485828601612ba0565b9250506020613415858286016133ca565b9150509250929050565b6003811061342c57600080fd5b50565b60008135905061343e8161341f565b92915050565b60006020828403121561345a57613459612b75565b5b60006134688482850161342f565b91505092915050565b6000806040838503121561348857613487612b75565b5b600061349685828601612ba0565b92505060206134a785828601612e1e565b9150509250929050565b60006020820190506134c66000830184612e7e565b92915050565b6000819050919050565b60006134f16134ec6134e784612c0e565b6134cc565b612c0e565b9050919050565b6000613503826134d6565b9050919050565b6000613515826134f8565b9050919050565b6135258161350a565b82525050565b6000602082019050613540600083018461351c565b92915050565b6000613551826134f8565b9050919050565b61356181613546565b82525050565b600060208201905061357c6000830184613558565b92915050565b600061016082019050613598600083018e612fb9565b6135a5602083018d612e60565b6135b2604083018c612e6f565b6135bf606083018b612e6f565b6135cc608083018a612e6f565b6135d960a0830189612e6f565b6135e660c0830188612e6f565b6135f360e0830187612e6f565b613601610100830186612e7e565b61360f610120830185612e7e565b61361d610140830184612e6f565b9c9b505050505050505050505050565b600081519050919050565b600082825260208201905092915050565b6000819050602082019050919050565b61366281612b7f565b82525050565b60006136748383613659565b60208301905092915050565b6000602082019050919050565b60006136988261362d565b6136a28185613638565b93506136ad83613649565b8060005b838110156136de5781516136c58882613668565b97506136d083613680565b9250506001810190506136b1565b5085935050505092915050565b60006020820190508181036000830152613705818461368d565b905092915050565b7f416c726561647920726567697374657265640000000000000000000000000000600082015250565b6000613743601283612fd3565b915061374e8261370d565b602082019050919050565b6000602082019050818103600083015261377281613736565b9050919050565b7f4d757374206f776e206174206c6561737420312076656869636c650000000000600082015250565b60006137af601b83612fd3565b91506137ba82613779565b602082019050919050565b600060208201905081810360008301526137de816137a2565b9050919050565b6000815190506137f481612f09565b92915050565b6000602082840312156138105761380f612b75565b5b600061381e848285016137e5565b91505092915050565b600060608201905061383c6000830186612fb9565b6138496020830185612fb9565b6138566040830184612e6f565b949350505050565b60008151905061386d816133b3565b92915050565b60006020828403121561388957613888612b75565b5b60006138978482850161385e565b91505092915050565b7f5374616b65207472616e73666572206661696c65640000000000000000000000600082015250565b60006138d6601583612fd3565b91506138e1826138a0565b602082019050919050565b60006020820190508181036000830152613905816138c9565b9050919050565b60006020820190506139216000830184612e60565b92915050565b7f4e487b7100000000000000000000000000000000000000000000000000000000600052602260045260246000fd5b6000600282049050600182168061396e57607f821691505b60208210810361398157613980613927565b5b50919050565b60008160601b9050919050565b600061399f82613987565b9050919050565b60006139b182613994565b9050919050565b6139c96139c482612c2e565b6139a6565b82525050565b6000819050919050565b6139ea6139e582612ce1565b6139cf565b82525050565b600081905092915050565b6000613a0682612fc8565b613a1081856139f0565b9350613a20818560208601612fe4565b80840191505092915050565b6000613a3882866139b8565b601482019150613a4882856139d9565b602082019150613a5882846139fb565b9150819050949350505050565b7f4e487b7100000000000000000000000000000000000000000000000000000000600052601160045260246000fd5b6000613a9f82612ce1565b9150613aaa83612ce1565b9250828201905080821115613ac257613ac1613a65565b5b92915050565b60008190508160005260206000209050919050565b60006020601f8301049050919050565b600082821b905092915050565b600060088302613b2a7fffffffffffffffffffffffffffffffffffffffffffffffffffffffffffffffff82613aed565b613b348683613aed565b95508019841693508086168417925050509392505050565b6000613b67613b62613b5d84612ce1565b6134cc565b612ce1565b9050919050565b6000819050919050565b613b8183613b4c565b613b95613b8d82613b6e565b848454613afa565b825550505050565b600090565b613baa613b9d565b613bb5818484613b78565b505050565b5b81811015613bd957613bce600082613ba2565b600181019050613bbb565b5050565b601f821115613c1e57613bef81613ac8565b613bf884613add565b81016020851015613c07578190505b613c1b613c1385613add565b830182613bba565b50505b505050565b600082821c905092915050565b6000613c4160001984600802613c23565b1980831691505092915050565b6000613c5a8383613c30565b9150826002028217905092915050565b613c7382612fc8565b67ffffffffffffffff811115613c8c57613c8b613163565b5b613c968254613956565b613ca1828285613bdd565b600060209050601f831160018114613cd45760008415613cc2578287015190505b613ccc8582613c4e565b865550613d34565b601f198416613ce286613ac8565b60005b82811015613d0a57848901518255600182019150602085019450602081019050613ce5565b86831015613d275784890151613d23601f891682613c30565b8355505b6001600288020188555050505b505050505050565b6000602082019050613d516000830184612faa565b92915050565b6000604082019050613d6c6000830185612fb9565b613d796020830184612e6f565b9392505050565b7f416c72656164792066696e616c697a6564000000000000000000000000000000600082015250565b6000613db6601183612fd3565b9150613dc182613d80565b602082019050919050565b60006020820190508181036000830152613de581613da9565b9050919050565b7f566f74696e6720706572696f64206e6f7420656e646564000000000000000000600082015250565b6000613e22601783612fd3565b9150613e2d82613dec565b602082019050919050565b60006020820190508181036000830152613e5181613e15565b9050919050565b7f4e6f20766f746573000000000000000000000000000000000000000000000000600082015250565b6000613e8e600883612fd3565b9150613e9982613e58565b602082019050919050565b60006020820190508181036000830152613ebd81613e81565b9050919050565b7f4e487b7100000000000000000000000000000000000000000000000000000000600052603260045260246000fd5b6000613efe82612ce1565b91507fffffffffffffffffffffffffffffffffffffffffffffffffffffffffffffffff8203613f3057613f2f613a65565b5b600182019050919050565b6000606082019050613f506000830186612e7e565b613f5d6020830185612e6f565b613f6a6040830184612e6f565b949350505050565b60008060008060008060c08789031215613f8f57613f8e612b75565b5b6000613f9d89828a016137e5565b9650506020613fae89828a016137e5565b9550506040613fbf89828a016137e5565b9450506060613fd089828a016137e5565b9350506080613fe189828a016137e5565b92505060a0613ff289828a0161385e565b9150509295509295509295565b600061400a82612ce1565b915061401583612ce1565b925082820261402381612ce1565b9150828204841483151761403a57614039613a65565b5b5092915050565b7f4e487b7100000000000000000000000000000000000000000000000000000000600052601260045260246000fd5b600061407b82612ce1565b915061408683612ce1565b92508261409657614095614041565b5b828204905092915050565b7f4e6f7420616e20616374697665206a75726f7200000000000000000000000000600082015250565b60006140d7601383612fd3565b91506140e2826140a1565b602082019050919050565b60006020820190508181036000830152614106816140ca565b9050919050565b7f416c726561647920766f74656400000000000000000000000000000000000000600082015250565b6000614143600d83612fd3565b915061414e8261410d565b602082019050919050565b6000602082019050818103600083015261417281614136565b9050919050565b7f43617365206e6f742070656e64696e6700000000000000000000000000000000600082015250565b60006141af601083612fd3565b91506141ba82614179565b602082019050919050565b600060208201905081810360008301526141de816141a2565b9050919050565b7f566f74696e6720656e6465640000000000000000000000000000000000000000600082015250565b600061421b600c83612fd3565b9150614226826141e5565b602082019050919050565b6000602082019050818103600083015261424a8161420e565b9050919050565b7f4e6f742061206a75726f72000000000000000000000000000000000000000000600082015250565b6000614287600b83612fd3565b915061429282614251565b602082019050919050565b600060208201905081810360008301526142b68161427a565b9050919050565b7f43616e206f6e6c79207570677261646500000000000000000000000000000000600082015250565b60006142f3601083612fd3565b91506142fe826142bd565b602082019050919050565b60006020820190508181036000830152614322816142e6565b9050919050565b7f4e6f7420656c696769626c6520666f7220457870657274000000000000000000600082015250565b600061435f601783612fd3565b915061436a82614329565b602082019050919050565b6000602082019050818103600083015261438e81614352565b9050919050565b60006143a082612ce1565b91506143ab83612ce1565b92508282039050818111156143c3576143c2613a65565b5b92915050565b7f4e6f7420656c696769626c6520666f72204772616e64204a7572790000000000600082015250565b60006143ff601b83612fd3565b915061440a826143c9565b602082019050919050565b6000602082019050818103600083015261442e816143f2565b9050919050565b7f4164646974696f6e616c207374616b65207472616e73666572206661696c6564600082015250565b600061446b602083612fd3565b915061447682614435565b602082019050919050565b6000602082019050818103600083015261449a8161445e565b9050919050565b60006040820190506144b66000830185612e60565b6144c36020830184612e60565b939250505056fea2646970667358221220b9539d768338a1fd87facf557c6f53bb38ec97cac5508e36c3bf7ba1ce5e627d64736f6c63430008140033","opcodes":"PUSH1 0x80 PUSH1 0x40 MSTORE CALLVALUE DUP1 ISZERO PUSH3 0x11 JUMPI PUSH1 0x0 DUP1 REVERT JUMPDEST POP PUSH1 0x40 MLOAD PUSH3 0x4812 CODESIZE SUB DUP1 PUSH3 0x4812 DUP4 CODECOPY DUP2 DUP2 ADD PUSH1 0x40 MSTORE DUP2 ADD SWAP1 PUSH3 0x37 SWAP2 SWAP1 PUSH3 0x278 JUMP JUMPDEST DUP3 PUSH1 0x0 PUSH20 0xFFFFFFFFFFFFFFFFFFFFFFFFFFFFFFFFFFFFFFFF AND DUP2 PUSH20 0xFFFFFFFFFFFFFFFFFFFFFFFFFFFFFFFFFFFFFFFF AND SUB PUSH3 0xAD JUMPI PUSH1 0x0 PUSH1 0x40 MLOAD PUSH32 0x1E4FBDF700000000000000000000000000000000000000000000000000000000 DUP2 MSTORE PUSH1 0x4 ADD PUSH3 0xA4 SWAP2 SWAP1 PUSH3 0x2E5 JUMP JUMPDEST PUSH1 0x40 MLOAD DUP1 SWAP2 SUB SWAP1 REVERT JUMPDEST PUSH3 0xBE DUP2 PUSH3 0x14A PUSH1 0x20 SHL PUSH1 0x20 SHR JUMP JUMPDEST POP DUP2 PUSH1 0x1 PUSH1 0x0 PUSH2 0x100 EXP DUP2 SLOAD DUP2 PUSH20 0xFFFFFFFFFFFFFFFFFFFFFFFFFFFFFFFFFFFFFFFF MUL NOT AND SWAP1 DUP4 PUSH20 0xFFFFFFFFFFFFFFFFFFFFFFFFFFFFFFFFFFFFFFFF AND MUL OR SWAP1 SSTORE POP DUP1 PUSH1 0x2 PUSH1 0x0 PUSH2 0x100 EXP DUP2 SLOAD DUP2 PUSH20 0xFFFFFFFFFFFFFFFFFFFFFFFFFFFFFFFFFFFFFFFF MUL NOT AND SWAP1 DUP4 PUSH20 0xFFFFFFFFFFFFFFFFFFFFFFFFFFFFFFFFFFFFFFFF AND MUL OR SWAP1 SSTORE POP POP POP POP PUSH3 0x302 JUMP JUMPDEST PUSH1 0x0 DUP1 PUSH1 0x0 SWAP1 SLOAD SWAP1 PUSH2 0x100 EXP SWAP1 DIV PUSH20 0xFFFFFFFFFFFFFFFFFFFFFFFFFFFFFFFFFFFFFFFF AND SWAP1 POP DUP2 PUSH1 0x0 DUP1 PUSH2 0x100 EXP DUP2 SLOAD DUP2 PUSH20 0xFFFFFFFFFFFFFFFFFFFFFFFFFFFFFFFFFFFFFFFF MUL NOT AND SWAP1 DUP4 PUSH20 0xFFFFFFFFFFFFFFFFFFFFFFFFFFFFFFFFFFFFFFFF AND MUL OR SWAP1 SSTORE POP DUP2 PUSH20 0xFFFFFFFFFFFFFFFFFFFFFFFFFFFFFFFFFFFFFFFF AND DUP2 PUSH20 0xFFFFFFFFFFFFFFFFFFFFFFFFFFFFFFFFFFFFFFFF AND PUSH32 0x8BE0079C531659141344CD1FD0A4F28419497F9722A3DAAFE3B4186F6B6457E0 PUSH1 0x40 MLOAD PUSH1 0x40 MLOAD DUP1 SWAP2 SUB SWAP1 LOG3 POP POP JUMP JUMPDEST PUSH1 0x0 DUP1 REVERT JUMPDEST PUSH1 0x0 PUSH20 0xFFFFFFFFFFFFFFFFFFFFFFFFFFFFFFFFFFFFFFFF DUP3 AND SWAP1 POP SWAP2 SWAP1 POP JUMP JUMPDEST PUSH1 0x0 PUSH3 0x240 DUP3 PUSH3 0x213 JUMP JUMPDEST SWAP1 POP SWAP2 SWAP1 POP JUMP JUMPDEST PUSH3 0x252 DUP2 PUSH3 0x233 JUMP JUMPDEST DUP2 EQ PUSH3 0x25E JUMPI PUSH1 0x0 DUP1 REVERT JUMPDEST POP JUMP JUMPDEST PUSH1 0x0 DUP2 MLOAD SWAP1 POP PUSH3 0x272 DUP2 PUSH3 0x247 JUMP JUMPDEST SWAP3 SWAP2 POP POP JUMP JUMPDEST PUSH1 0x0 DUP1 PUSH1 0x0 PUSH1 0x60 DUP5 DUP7 SUB SLT ISZERO PUSH3 0x294 JUMPI PUSH3 0x293 PUSH3 0x20E JUMP JUMPDEST JUMPDEST PUSH1 0x0 PUSH3 0x2A4 DUP7 DUP3 DUP8 ADD PUSH3 0x261 JUMP JUMPDEST SWAP4 POP POP PUSH1 0x20 PUSH3 0x2B7 DUP7 DUP3 DUP8 ADD PUSH3 0x261 JUMP JUMPDEST SWAP3 POP POP PUSH1 0x40 PUSH3 0x2CA DUP7 DUP3 DUP8 ADD PUSH3 0x261 JUMP JUMPDEST SWAP2 POP POP SWAP3 POP SWAP3 POP SWAP3 JUMP JUMPDEST PUSH3 0x2DF DUP2 PUSH3 0x233 JUMP JUMPDEST DUP3 MSTORE POP POP JUMP JUMPDEST PUSH1 0x0 PUSH1 0x20 DUP3 ADD SWAP1 POP PUSH3 0x2FC PUSH1 0x0 DUP4 ADD DUP5 PUSH3 0x2D4 JUMP JUMPDEST SWAP3 SWAP2 POP POP JUMP JUMPDEST PUSH2 0x4500 DUP1 PUSH3 0x312 PUSH1 0x0 CODECOPY PUSH1 0x0 RETURN INVALID PUSH1 0x80 PUSH1 0x40 MSTORE CALLVALUE DUP1 ISZERO PUSH2 0x10 JUMPI PUSH1 0x0 DUP1 REVERT JUMPDEST POP PUSH1 0x4 CALLDATASIZE LT PUSH2 0x1FB JUMPI PUSH1 0x0 CALLDATALOAD PUSH1 0xE0 SHR DUP1 PUSH4 0x8DA5CB5B GT PUSH2 0x11A JUMPI DUP1 PUSH4 0xC52164C6 GT PUSH2 0xAD JUMPI DUP1 PUSH4 0xE737341E GT PUSH2 0x7C JUMPI DUP1 PUSH4 0xE737341E EQ PUSH2 0x5F9 JUMPI DUP1 PUSH4 0xED8D71E0 EQ PUSH2 0x617 JUMPI DUP1 PUSH4 0xF19C7D64 EQ PUSH2 0x635 JUMPI DUP1 PUSH4 0xF2FDE38B EQ PUSH2 0x653 JUMPI DUP1 PUSH4 0xFA814B75 EQ PUSH2 0x66F JUMPI PUSH2 0x1FB JUMP JUMPDEST DUP1 PUSH4 0xC52164C6 EQ PUSH2 0x553 JUMPI DUP1 PUSH4 0xDCA5F6B0 EQ PUSH2 0x571 JUMPI DUP1 PUSH4 0xDDD9FA48 EQ PUSH2 0x5AB JUMPI DUP1 PUSH4 0xE2DA844D EQ PUSH2 0x5C9 JUMPI PUSH2 0x1FB JUMP JUMPDEST DUP1 PUSH4 0xAF95040C GT PUSH2 0xE9 JUMPI DUP1 PUSH4 0xAF95040C EQ PUSH2 0x4C9 JUMPI DUP1 PUSH4 0xB01B9128 EQ PUSH2 0x4F9 JUMPI DUP1 PUSH4 0xBB6846E6 EQ PUSH2 0x517 JUMPI DUP1 PUSH4 0xC4A29760 EQ PUSH2 0x535 JUMPI PUSH2 0x1FB JUMP JUMPDEST DUP1 PUSH4 0x8DA5CB5B EQ PUSH2 0x443 JUMPI DUP1 PUSH4 0x9F2CE678 EQ PUSH2 0x461 JUMPI DUP1 PUSH4 0xA2949DD7 EQ PUSH2 0x47D JUMPI DUP1 PUSH4 0xAADC3B72 EQ PUSH2 0x499 JUMPI PUSH2 0x1FB JUMP JUMPDEST DUP1 PUSH4 0x49CC6615 GT PUSH2 0x192 JUMPI DUP1 PUSH4 0x5C1A58B5 GT PUSH2 0x161 JUMPI DUP1 PUSH4 0x5C1A58B5 EQ PUSH2 0x3B7 JUMPI DUP1 PUSH4 0x6636411E EQ PUSH2 0x3D5 JUMPI DUP1 PUSH4 0x715018A6 EQ PUSH2 0x409 JUMPI DUP1 PUSH4 0x7E7D8D3A EQ PUSH2 0x413 JUMPI PUSH2 0x1FB JUMP JUMPDEST DUP1 PUSH4 0x49CC6615 EQ PUSH2 0x331 JUMPI DUP1 PUSH4 0x51724ECA EQ PUSH2 0x34F JUMPI DUP1 PUSH4 0x5312EA8E EQ PUSH2 0x37F JUMPI DUP1 PUSH4 0x5B7C6D7E EQ PUSH2 0x39B JUMPI PUSH2 0x1FB JUMP JUMPDEST DUP1 PUSH4 0x38EDF777 GT PUSH2 0x1CE JUMPI DUP1 PUSH4 0x38EDF777 EQ PUSH2 0x2A1 JUMPI DUP1 PUSH4 0x3BC70EC0 EQ PUSH2 0x2BF JUMPI DUP1 PUSH4 0x48EA1C23 EQ PUSH2 0x2DB JUMPI DUP1 PUSH4 0x492CBD74 EQ PUSH2 0x313 JUMPI PUSH2 0x1FB JUMP JUMPDEST DUP1 PUSH4 0x1513BDB1 EQ PUSH2 0x200 JUMPI DUP1 PUSH4 0x1DDDE428 EQ PUSH2 0x230 JUMPI DUP1 PUSH4 0x21885EA6 EQ PUSH2 0x265 JUMPI DUP1 PUSH4 0x381AF86F EQ PUSH2 0x283 JUMPI JUMPDEST PUSH1 0x0 DUP1 REVERT JUMPDEST PUSH2 0x21A PUSH1 0x4 DUP1 CALLDATASIZE SUB DUP2 ADD SWAP1 PUSH2 0x215 SWAP2 SWAP1 PUSH2 0x2BB5 JUMP JUMPDEST PUSH2 0x68D JUMP JUMPDEST PUSH1 0x40 MLOAD PUSH2 0x227 SWAP2 SWAP1 PUSH2 0x2DE5 JUMP JUMPDEST PUSH1 0x40 MLOAD DUP1 SWAP2 SUB SWAP1 RETURN JUMPDEST PUSH2 0x24A PUSH1 0x4 DUP1 CALLDATASIZE SUB DUP2 ADD SWAP1 PUSH2 0x245 SWAP2 SWAP1 PUSH2 0x2E33 JUMP JUMPDEST PUSH2 0x7BF JUMP JUMPDEST PUSH1 0x40 MLOAD PUSH2 0x25C SWAP7 SWAP6 SWAP5 SWAP4 SWAP3 SWAP2 SWAP1 PUSH2 0x2E8D JUMP JUMPDEST PUSH1 0x40 MLOAD DUP1 SWAP2 SUB SWAP1 RETURN JUMPDEST PUSH2 0x26D PUSH2 0x95D JUMP JUMPDEST PUSH1 0x40 MLOAD PUSH2 0x27A SWAP2 SWAP1 PUSH2 0x2EEE JUMP JUMPDEST PUSH1 0x40 MLOAD DUP1 SWAP2 SUB SWAP1 RETURN JUMPDEST PUSH2 0x28B PUSH2 0x962 JUMP JUMPDEST PUSH1 0x40 MLOAD PUSH2 0x298 SWAP2 SWAP1 PUSH2 0x2EEE JUMP JUMPDEST PUSH1 0x40 MLOAD DUP1 SWAP2 SUB SWAP1 RETURN JUMPDEST PUSH2 0x2A9 PUSH2 0x967 JUMP JUMPDEST PUSH1 0x40 MLOAD PUSH2 0x2B6 SWAP2 SWAP1 PUSH2 0x2EEE JUMP JUMPDEST PUSH1 0x40 MLOAD DUP1 SWAP2 SUB SWAP1 RETURN JUMPDEST PUSH2 0x2D9 PUSH1 0x4 DUP1 CALLDATASIZE SUB DUP2 ADD SWAP1 PUSH2 0x2D4 SWAP2 SWAP1 PUSH2 0x2F35 JUMP JUMPDEST PUSH2 0x96C JUMP JUMPDEST STOP JUMPDEST PUSH2 0x2F5 PUSH1 0x4 DUP1 CALLDATASIZE SUB DUP2 ADD SWAP1 PUSH2 0x2F0 SWAP2 SWAP1 PUSH2 0x2BB5 JUMP JUMPDEST PUSH2 0xE5E JUMP JUMPDEST PUSH1 0x40 MLOAD PUSH2 0x30A SWAP10 SWAP9 SWAP8 SWAP7 SWAP6 SWAP5 SWAP4 SWAP3 SWAP2 SWAP1 PUSH2 0x30A0 JUMP JUMPDEST PUSH1 0x40 MLOAD DUP1 SWAP2 SUB SWAP1 RETURN JUMPDEST PUSH2 0x31B PUSH2 0xF7B JUMP JUMPDEST PUSH1 0x40 MLOAD PUSH2 0x328 SWAP2 SWAP1 PUSH2 0x2EEE JUMP JUMPDEST PUSH1 0x40 MLOAD DUP1 SWAP2 SUB SWAP1 RETURN JUMPDEST PUSH2 0x339 PUSH2 0xF80 JUMP JUMPDEST PUSH1 0x40 MLOAD PUSH2 0x346 SWAP2 SWAP1 PUSH2 0x2EEE JUMP JUMPDEST PUSH1 0x40 MLOAD DUP1 SWAP2 SUB SWAP1 RETURN JUMPDEST PUSH2 0x369 PUSH1 0x4 DUP1 CALLDATASIZE SUB DUP2 ADD SWAP1 PUSH2 0x364 SWAP2 SWAP1 PUSH2 0x328E JUMP JUMPDEST PUSH2 0xF86 JUMP JUMPDEST PUSH1 0x40 MLOAD PUSH2 0x376 SWAP2 SWAP1 PUSH2 0x32EA JUMP JUMPDEST PUSH1 0x40 MLOAD DUP1 SWAP2 SUB SWAP1 RETURN JUMPDEST PUSH2 0x399 PUSH1 0x4 DUP1 CALLDATASIZE SUB DUP2 ADD SWAP1 PUSH2 0x394 SWAP2 SWAP1 PUSH2 0x2F35 JUMP JUMPDEST PUSH2 0x11E1 JUMP JUMPDEST STOP JUMPDEST PUSH2 0x3B5 PUSH1 0x4 DUP1 CALLDATASIZE SUB DUP2 ADD SWAP1 PUSH2 0x3B0 SWAP2 SWAP1 PUSH2 0x3305 JUMP JUMPDEST PUSH2 0x1294 JUMP JUMPDEST STOP JUMPDEST PUSH2 0x3BF PUSH2 0x16AB JUMP JUMPDEST PUSH1 0x40 MLOAD PUSH2 0x3CC SWAP2 SWAP1 PUSH2 0x2EEE JUMP JUMPDEST PUSH1 0x40 MLOAD DUP1 SWAP2 SUB SWAP1 RETURN JUMPDEST PUSH2 0x3EF PUSH1 0x4 DUP1 CALLDATASIZE SUB DUP2 ADD SWAP1 PUSH2 0x3EA SWAP2 SWAP1 PUSH2 0x3305 JUMP JUMPDEST PUSH2 0x16B0 JUMP JUMPDEST PUSH1 0x40 MLOAD PUSH2 0x400 SWAP6 SWAP5 SWAP4 SWAP3 SWAP2 SWAP1 PUSH2 0x3345 JUMP JUMPDEST PUSH1 0x40 MLOAD DUP1 SWAP2 SUB SWAP1 RETURN JUMPDEST PUSH2 0x411 PUSH2 0x173D JUMP JUMPDEST STOP JUMPDEST PUSH2 0x42D PUSH1 0x4 DUP1 CALLDATASIZE SUB DUP2 ADD SWAP1 PUSH2 0x428 SWAP2 SWAP1 PUSH2 0x2E33 JUMP JUMPDEST PUSH2 0x1751 JUMP JUMPDEST PUSH1 0x40 MLOAD PUSH2 0x43A SWAP2 SWAP1 PUSH2 0x2EEE JUMP JUMPDEST PUSH1 0x40 MLOAD DUP1 SWAP2 SUB SWAP1 RETURN JUMPDEST PUSH2 0x44B PUSH2 0x18D0 JUMP JUMPDEST PUSH1 0x40 MLOAD PUSH2 0x458 SWAP2 SWAP1 PUSH2 0x3398 JUMP JUMPDEST PUSH1 0x40 MLOAD DUP1 SWAP2 SUB SWAP1 RETURN JUMPDEST PUSH2 0x47B PUSH1 0x4 DUP1 CALLDATASIZE SUB DUP2 ADD SWAP1 PUSH2 0x476 SWAP2 SWAP1 PUSH2 0x33DF JUMP JUMPDEST PUSH2 0x18F9 JUMP JUMPDEST STOP JUMPDEST PUSH2 0x497 PUSH1 0x4 DUP1 CALLDATASIZE SUB DUP2 ADD SWAP1 PUSH2 0x492 SWAP2 SWAP1 PUSH2 0x3444 JUMP JUMPDEST PUSH2 0x1EC5 JUMP JUMPDEST STOP JUMPDEST PUSH2 0x4B3 PUSH1 0x4 DUP1 CALLDATASIZE SUB DUP2 ADD SWAP1 PUSH2 0x4AE SWAP2 SWAP1 PUSH2 0x3471 JUMP JUMPDEST PUSH2 0x22B7 JUMP JUMPDEST PUSH1 0x40 MLOAD PUSH2 0x4C0 SWAP2 SWAP1 PUSH2 0x34B1 JUMP JUMPDEST PUSH1 0x40 MLOAD DUP1 SWAP2 SUB SWAP1 RETURN JUMPDEST PUSH2 0x4E3 PUSH1 0x4 DUP1 CALLDATASIZE SUB DUP2 ADD SWAP1 PUSH2 0x4DE SWAP2 SWAP1 PUSH2 0x2F35 JUMP JUMPDEST PUSH2 0x22E6 JUMP JUMPDEST PUSH1 0x40 MLOAD PUSH2 0x4F0 SWAP2 SWAP1 PUSH2 0x32EA JUMP JUMPDEST PUSH1 0x40 MLOAD DUP1 SWAP2 SUB SWAP1 RETURN JUMPDEST PUSH2 0x501 PUSH2 0x230A JUMP JUMPDEST PUSH1 0x40 MLOAD PUSH2 0x50E SWAP2 SWAP1 PUSH2 0x2EEE JUMP JUMPDEST PUSH1 0x40 MLOAD DUP1 SWAP2 SUB SWAP1 RETURN JUMPDEST PUSH2 0x51F PUSH2 0x2317 JUMP JUMPDEST PUSH1 0x40 MLOAD PUSH2 0x52C SWAP2 SWAP1 PUSH2 0x352B JUMP JUMPDEST PUSH1 0x40 MLOAD DUP1 SWAP2 SUB SWAP1 RETURN JUMPDEST PUSH2 0x53D PUSH2 0x233D JUMP JUMPDEST PUSH1 0x40 MLOAD PUSH2 0x54A SWAP2 SWAP1 PUSH2 0x2EEE JUMP JUMPDEST PUSH1 0x40 MLOAD DUP1 SWAP2 SUB SWAP1 RETURN JUMPDEST PUSH2 0x55B PUSH2 0x2344 JUMP JUMPDEST PUSH1 0x40 MLOAD PUSH2 0x568 SWAP2 SWAP1 PUSH2 0x3567 JUMP JUMPDEST PUSH1 0x40 MLOAD DUP1 SWAP2 SUB SWAP1 RETURN JUMPDEST PUSH2 0x58B PUSH1 0x4 DUP1 CALLDATASIZE SUB DUP2 ADD SWAP1 PUSH2 0x586 SWAP2 SWAP1 PUSH2 0x2E33 JUMP JUMPDEST PUSH2 0x236A JUMP JUMPDEST PUSH1 0x40 MLOAD PUSH2 0x5A2 SWAP12 SWAP11 SWAP10 SWAP9 SWAP8 SWAP7 SWAP6 SWAP5 SWAP4 SWAP3 SWAP2 SWAP1 PUSH2 0x3582 JUMP JUMPDEST PUSH1 0x40 MLOAD DUP1 SWAP2 SUB SWAP1 RETURN JUMPDEST PUSH2 0x5B3 PUSH2 0x240B JUMP JUMPDEST PUSH1 0x40 MLOAD PUSH2 0x5C0 SWAP2 SWAP1 PUSH2 0x2EEE JUMP JUMPDEST PUSH1 0x40 MLOAD DUP1 SWAP2 SUB SWAP1 RETURN JUMPDEST PUSH2 0x5E3 PUSH1 0x4 DUP1 CALLDATASIZE SUB DUP2 ADD SWAP1 PUSH2 0x5DE SWAP2 SWAP1 PUSH2 0x2F35 JUMP JUMPDEST PUSH2 0x2410 JUMP JUMPDEST PUSH1 0x40 MLOAD PUSH2 0x5F0 SWAP2 SWAP1 PUSH2 0x3398 JUMP JUMPDEST PUSH1 0x40 MLOAD DUP1 SWAP2 SUB SWAP1 RETURN JUMPDEST PUSH2 0x601 PUSH2 0x244F JUMP JUMPDEST PUSH1 0x40 MLOAD PUSH2 0x60E SWAP2 SWAP1 PUSH2 0x2EEE JUMP JUMPDEST PUSH1 0x40 MLOAD DUP1 SWAP2 SUB SWAP1 RETURN JUMPDEST PUSH2 0x61F PUSH2 0x2454 JUMP JUMPDEST PUSH1 0x40 MLOAD PUSH2 0x62C SWAP2 SWAP1 PUSH2 0x2EEE JUMP JUMPDEST PUSH1 0x40 MLOAD DUP1 SWAP2 SUB SWAP1 RETURN JUMPDEST PUSH2 0x63D PUSH2 0x2459 JUMP JUMPDEST PUSH1 0x40 MLOAD PUSH2 0x64A SWAP2 SWAP1 PUSH2 0x36EB JUMP JUMPDEST PUSH1 0x40 MLOAD DUP1 SWAP2 SUB SWAP1 RETURN JUMPDEST PUSH2 0x66D PUSH1 0x4 DUP1 CALLDATASIZE SUB DUP2 ADD SWAP1 PUSH2 0x668 SWAP2 SWAP1 PUSH2 0x2E33 JUMP JUMPDEST PUSH2 0x2631 JUMP JUMPDEST STOP JUMPDEST PUSH2 0x677 PUSH2 0x26B7 JUMP JUMPDEST PUSH1 0x40 MLOAD PUSH2 0x684 SWAP2 SWAP1 PUSH2 0x2EEE JUMP JUMPDEST PUSH1 0x40 MLOAD DUP1 SWAP2 SUB SWAP1 RETURN JUMPDEST PUSH1 0x60 PUSH1 0x5 PUSH1 0x0 DUP4 DUP2 MSTORE PUSH1 0x20 ADD SWAP1 DUP2 MSTORE PUSH1 0x20 ADD PUSH1 0x0 KECCAK256 DUP1 SLOAD DUP1 PUSH1 0x20 MUL PUSH1 0x20 ADD PUSH1 0x40 MLOAD SWAP1 DUP2 ADD PUSH1 0x40 MSTORE DUP1 SWAP3 SWAP2 SWAP1 DUP2 DUP2 MSTORE PUSH1 0x20 ADD PUSH1 0x0 SWAP1 JUMPDEST DUP3 DUP3 LT ISZERO PUSH2 0x7B4 JUMPI DUP4 DUP3 SWAP1 PUSH1 0x0 MSTORE PUSH1 0x20 PUSH1 0x0 KECCAK256 SWAP1 PUSH1 0x3 MUL ADD PUSH1 0x40 MLOAD DUP1 PUSH1 0xA0 ADD PUSH1 0x40 MSTORE SWAP1 DUP2 PUSH1 0x0 DUP3 ADD PUSH1 0x0 SWAP1 SLOAD SWAP1 PUSH2 0x100 EXP SWAP1 DIV PUSH20 0xFFFFFFFFFFFFFFFFFFFFFFFFFFFFFFFFFFFFFFFF AND PUSH20 0xFFFFFFFFFFFFFFFFFFFFFFFFFFFFFFFFFFFFFFFF AND PUSH20 0xFFFFFFFFFFFFFFFFFFFFFFFFFFFFFFFFFFFFFFFF AND DUP2 MSTORE PUSH1 0x20 ADD PUSH1 0x0 DUP3 ADD PUSH1 0x14 SWAP1 SLOAD SWAP1 PUSH2 0x100 EXP SWAP1 DIV PUSH1 0xFF AND PUSH1 0x2 DUP2 GT ISZERO PUSH2 0x760 JUMPI PUSH2 0x75F PUSH2 0x2C4F JUMP JUMPDEST JUMPDEST PUSH1 0x2 DUP2 GT ISZERO PUSH2 0x772 JUMPI PUSH2 0x771 PUSH2 0x2C4F JUMP JUMPDEST JUMPDEST DUP2 MSTORE PUSH1 0x20 ADD PUSH1 0x0 DUP3 ADD PUSH1 0x15 SWAP1 SLOAD SWAP1 PUSH2 0x100 EXP SWAP1 DIV PUSH1 0xFF AND ISZERO ISZERO ISZERO ISZERO DUP2 MSTORE PUSH1 0x20 ADD PUSH1 0x1 DUP3 ADD SLOAD DUP2 MSTORE PUSH1 0x20 ADD PUSH1 0x2 DUP3 ADD SLOAD DUP2 MSTORE POP POP DUP2 MSTORE PUSH1 0x20 ADD SWAP1 PUSH1 0x1 ADD SWAP1 PUSH2 0x6C2 JUMP JUMPDEST POP POP POP POP SWAP1 POP SWAP2 SWAP1 POP JUMP JUMPDEST PUSH1 0x0 DUP1 PUSH1 0x0 DUP1 PUSH1 0x0 DUP1 PUSH1 0x0 PUSH1 0x3 PUSH1 0x0 DUP10 PUSH20 0xFFFFFFFFFFFFFFFFFFFFFFFFFFFFFFFFFFFFFFFF AND PUSH20 0xFFFFFFFFFFFFFFFFFFFFFFFFFFFFFFFFFFFFFFFF AND DUP2 MSTORE PUSH1 0x20 ADD SWAP1 DUP2 MSTORE PUSH1 0x20 ADD PUSH1 0x0 KECCAK256 PUSH1 0x40 MLOAD DUP1 PUSH2 0x160 ADD PUSH1 0x40 MSTORE SWAP1 DUP2 PUSH1 0x0 DUP3 ADD PUSH1 0x0 SWAP1 SLOAD SWAP1 PUSH2 0x100 EXP SWAP1 DIV PUSH20 0xFFFFFFFFFFFFFFFFFFFFFFFFFFFFFFFFFFFFFFFF AND PUSH20 0xFFFFFFFFFFFFFFFFFFFFFFFFFFFFFFFFFFFFFFFF AND PUSH20 0xFFFFFFFFFFFFFFFFFFFFFFFFFFFFFFFFFFFFFFFF AND DUP2 MSTORE PUSH1 0x20 ADD PUSH1 0x0 DUP3 ADD PUSH1 0x14 SWAP1 SLOAD SWAP1 PUSH2 0x100 EXP SWAP1 DIV PUSH1 0xFF AND PUSH1 0x2 DUP2 GT ISZERO PUSH2 0x890 JUMPI PUSH2 0x88F PUSH2 0x2C4F JUMP JUMPDEST JUMPDEST PUSH1 0x2 DUP2 GT ISZERO PUSH2 0x8A2 JUMPI PUSH2 0x8A1 PUSH2 0x2C4F JUMP JUMPDEST JUMPDEST DUP2 MSTORE PUSH1 0x20 ADD PUSH1 0x1 DUP3 ADD SLOAD DUP2 MSTORE PUSH1 0x20 ADD PUSH1 0x2 DUP3 ADD SLOAD DUP2 MSTORE PUSH1 0x20 ADD PUSH1 0x3 DUP3 ADD SLOAD DUP2 MSTORE PUSH1 0x20 ADD PUSH1 0x4 DUP3 ADD SLOAD DUP2 MSTORE PUSH1 0x20 ADD PUSH1 0x5 DUP3 ADD SLOAD DUP2 MSTORE PUSH1 0x20 ADD PUSH1 0x6 DUP3 ADD SLOAD DUP2 MSTORE PUSH1 0x20 ADD PUSH1 0x7 DUP3 ADD PUSH1 0x0 SWAP1 SLOAD SWAP1 PUSH2 0x100 EXP SWAP1 DIV PUSH1 0xFF AND ISZERO ISZERO ISZERO ISZERO DUP2 MSTORE PUSH1 0x20 ADD PUSH1 0x7 DUP3 ADD PUSH1 0x1 SWAP1 SLOAD SWAP1 PUSH2 0x100 EXP SWAP1 DIV PUSH1 0xFF AND ISZERO ISZERO ISZERO ISZERO DUP2 MSTORE PUSH1 0x20 ADD PUSH1 0x8 DUP3 ADD SLOAD DUP2 MSTORE POP POP SWAP1 POP DUP1 PUSH1 0x20 ADD MLOAD PUSH2 0x932 DUP10 PUSH2 0x1751 JUMP JUMPDEST DUP3 PUSH1 0x60 ADD MLOAD DUP4 PUSH1 0x80 ADD MLOAD DUP5 PUSH1 0xA0 ADD MLOAD DUP6 PUSH2 0x120 ADD MLOAD SWAP7 POP SWAP7 POP SWAP7 POP SWAP7 POP SWAP7 POP SWAP7 POP POP SWAP2 SWAP4 SWAP6 POP SWAP2 SWAP4 SWAP6 JUMP JUMPDEST PUSH1 0x46 DUP2 JUMP JUMPDEST PUSH1 0x0 DUP2 JUMP JUMPDEST PUSH1 0x1 DUP2 JUMP JUMPDEST PUSH1 0x3 PUSH1 0x0 CALLER PUSH20 0xFFFFFFFFFFFFFFFFFFFFFFFFFFFFFFFFFFFFFFFF AND PUSH20 0xFFFFFFFFFFFFFFFFFFFFFFFFFFFFFFFFFFFFFFFF AND DUP2 MSTORE PUSH1 0x20 ADD SWAP1 DUP2 MSTORE PUSH1 0x20 ADD PUSH1 0x0 KECCAK256 PUSH1 0x7 ADD PUSH1 0x0 SWAP1 SLOAD SWAP1 PUSH2 0x100 EXP SWAP1 DIV PUSH1 0xFF AND ISZERO PUSH2 0x9FC JUMPI PUSH1 0x40 MLOAD PUSH32 0x8C379A000000000000000000000000000000000000000000000000000000000 DUP2 MSTORE PUSH1 0x4 ADD PUSH2 0x9F3 SWAP1 PUSH2 0x3759 JUMP JUMPDEST PUSH1 0x40 MLOAD DUP1 SWAP2 SUB SWAP1 REVERT JUMPDEST PUSH1 0x1 DUP2 LT ISZERO PUSH2 0xA40 JUMPI PUSH1 0x40 MLOAD PUSH32 0x8C379A000000000000000000000000000000000000000000000000000000000 DUP2 MSTORE PUSH1 0x4 ADD PUSH2 0xA37 SWAP1 PUSH2 0x37C5 JUMP JUMPDEST PUSH1 0x40 MLOAD DUP1 SWAP2 SUB SWAP1 REVERT JUMPDEST PUSH1 0x0 DUP1 DUP2 PUSH1 0x1 PUSH1 0x0 SWAP1 SLOAD SWAP1 PUSH2 0x100 EXP SWAP1 DIV PUSH20 0xFFFFFFFFFFFFFFFFFFFFFFFFFFFFFFFFFFFFFFFF AND PUSH20 0xFFFFFFFFFFFFFFFFFFFFFFFFFFFFFFFFFFFFFFFF AND PUSH4 0x70A08231 CALLER PUSH1 0x40 MLOAD DUP3 PUSH4 0xFFFFFFFF AND PUSH1 0xE0 SHL DUP2 MSTORE PUSH1 0x4 ADD PUSH2 0xA9F SWAP2 SWAP1 PUSH2 0x3398 JUMP JUMPDEST PUSH1 0x20 PUSH1 0x40 MLOAD DUP1 DUP4 SUB DUP2 DUP7 GAS STATICCALL ISZERO DUP1 ISZERO PUSH2 0xABC JUMPI RETURNDATASIZE PUSH1 0x0 DUP1 RETURNDATACOPY RETURNDATASIZE PUSH1 0x0 REVERT JUMPDEST POP POP POP POP PUSH1 0x40 MLOAD RETURNDATASIZE PUSH1 0x1F NOT PUSH1 0x1F DUP3 ADD AND DUP3 ADD DUP1 PUSH1 0x40 MSTORE POP DUP2 ADD SWAP1 PUSH2 0xAE0 SWAP2 SWAP1 PUSH2 0x37FA JUMP JUMPDEST LT ISZERO PUSH2 0xAEF JUMPI PUSH1 0x0 SWAP2 POP PUSH1 0x1 SWAP1 POP JUMPDEST PUSH1 0x0 DUP3 GT ISZERO PUSH2 0xBDA JUMPI PUSH1 0x1 PUSH1 0x0 SWAP1 SLOAD SWAP1 PUSH2 0x100 EXP SWAP1 DIV PUSH20 0xFFFFFFFFFFFFFFFFFFFFFFFFFFFFFFFFFFFFFFFF AND PUSH20 0xFFFFFFFFFFFFFFFFFFFFFFFFFFFFFFFFFFFFFFFF AND PUSH4 0x23B872DD CALLER ADDRESS DUP6 PUSH1 0x40 MLOAD DUP5 PUSH4 0xFFFFFFFF AND PUSH1 0xE0 SHL DUP2 MSTORE PUSH1 0x4 ADD PUSH2 0xB57 SWAP4 SWAP3 SWAP2 SWAP1 PUSH2 0x3827 JUMP JUMPDEST PUSH1 0x20 PUSH1 0x40 MLOAD DUP1 DUP4 SUB DUP2 PUSH1 0x0 DUP8 GAS CALL ISZERO DUP1 ISZERO PUSH2 0xB76 JUMPI RETURNDATASIZE PUSH1 0x0 DUP1 RETURNDATACOPY RETURNDATASIZE PUSH1 0x0 REVERT JUMPDEST POP POP POP POP PUSH1 0x40 MLOAD RETURNDATASIZE PUSH1 0x1F NOT PUSH1 0x1F DUP3 ADD AND DUP3 ADD DUP1 PUSH1 0x40 MSTORE POP DUP2 ADD SWAP1 PUSH2 0xB9A SWAP2 SWAP1 PUSH2 0x3873 JUMP JUMPDEST PUSH2 0xBD9 JUMPI PUSH1 0x40 MLOAD PUSH32 0x8C379A000000000000000000000000000000000000000000000000000000000 DUP2 MSTORE PUSH1 0x4 ADD PUSH2 0xBD0 SWAP1 PUSH2 0x38EC JUMP JUMPDEST PUSH1 0x40 MLOAD DUP1 SWAP2 SUB SWAP1 REVERT JUMPDEST JUMPDEST PUSH1 0x40 MLOAD DUP1 PUSH2 0x160 ADD PUSH1 0x40 MSTORE DUP1 CALLER PUSH20 0xFFFFFFFFFFFFFFFFFFFFFFFFFFFFFFFFFFFFFFFF AND DUP2 MSTORE PUSH1 0x20 ADD PUSH1 0x0 PUSH1 0x2 DUP2 GT ISZERO PUSH2 0xC16 JUMPI PUSH2 0xC15 PUSH2 0x2C4F JUMP JUMPDEST JUMPDEST DUP2 MSTORE PUSH1 0x20 ADD DUP3 PUSH2 0xC27 JUMPI PUSH1 0x1 PUSH2 0xC2A JUMP JUMPDEST PUSH1 0x1 JUMPDEST DUP2 MSTORE PUSH1 0x20 ADD PUSH1 0x0 DUP2 MSTORE PUSH1 0x20 ADD PUSH1 0x0 DUP2 MSTORE PUSH1 0x20 ADD PUSH1 0x0 DUP2 MSTORE PUSH1 0x20 ADD DUP5 DUP2 MSTORE PUSH1 0x20 ADD DUP4 DUP2 MSTORE PUSH1 0x20 ADD PUSH1 0x1 ISZERO ISZERO DUP2 MSTORE PUSH1 0x20 ADD DUP3 ISZERO ISZERO DUP2 MSTORE PUSH1 0x20 ADD TIMESTAMP DUP2 MSTORE POP PUSH1 0x3 PUSH1 0x0 CALLER PUSH20 0xFFFFFFFFFFFFFFFFFFFFFFFFFFFFFFFFFFFFFFFF AND PUSH20 0xFFFFFFFFFFFFFFFFFFFFFFFFFFFFFFFFFFFFFFFF AND DUP2 MSTORE PUSH1 0x20 ADD SWAP1 DUP2 MSTORE PUSH1 0x20 ADD PUSH1 0x0 KECCAK256 PUSH1 0x0 DUP3 ADD MLOAD DUP2 PUSH1 0x0 ADD PUSH1 0x0 PUSH2 0x100 EXP DUP2 SLOAD DUP2 PUSH20 0xFFFFFFFFFFFFFFFFFFFFFFFFFFFFFFFFFFFFFFFF MUL NOT AND SWAP1 DUP4 PUSH20 0xFFFFFFFFFFFFFFFFFFFFFFFFFFFFFFFFFFFFFFFF AND MUL OR SWAP1 SSTORE POP PUSH1 0x20 DUP3 ADD MLOAD DUP2 PUSH1 0x0 ADD PUSH1 0x14 PUSH2 0x100 EXP DUP2 SLOAD DUP2 PUSH1 0xFF MUL NOT AND SWAP1 DUP4 PUSH1 0x2 DUP2 GT ISZERO PUSH2 0xD16 JUMPI PUSH2 0xD15 PUSH2 0x2C4F JUMP JUMPDEST JUMPDEST MUL OR SWAP1 SSTORE POP PUSH1 0x40 DUP3 ADD MLOAD DUP2 PUSH1 0x1 ADD SSTORE PUSH1 0x60 DUP3 ADD MLOAD DUP2 PUSH1 0x2 ADD SSTORE PUSH1 0x80 DUP3 ADD MLOAD DUP2 PUSH1 0x3 ADD SSTORE PUSH1 0xA0 DUP3 ADD MLOAD DUP2 PUSH1 0x4 ADD SSTORE PUSH1 0xC0 DUP3 ADD MLOAD DUP2 PUSH1 0x5 ADD SSTORE PUSH1 0xE0 DUP3 ADD MLOAD DUP2 PUSH1 0x6 ADD SSTORE PUSH2 0x100 DUP3 ADD MLOAD DUP2 PUSH1 0x7 ADD PUSH1 0x0 PUSH2 0x100 EXP DUP2 SLOAD DUP2 PUSH1 0xFF MUL NOT AND SWAP1 DUP4 ISZERO ISZERO MUL OR SWAP1 SSTORE POP PUSH2 0x120 DUP3 ADD MLOAD DUP2 PUSH1 0x7 ADD PUSH1 0x1 PUSH2 0x100 EXP DUP2 SLOAD DUP2 PUSH1 0xFF MUL NOT AND SWAP1 DUP4 ISZERO ISZERO MUL OR SWAP1 SSTORE POP PUSH2 0x140 DUP3 ADD MLOAD DUP2 PUSH1 0x8 ADD SSTORE SWAP1 POP POP PUSH1 0x7 CALLER SWAP1 DUP1 PUSH1 0x1 DUP2 SLOAD ADD DUP1 DUP3 SSTORE DUP1 SWAP2 POP POP PUSH1 0x1 SWAP1 SUB SWAP1 PUSH1 0x0 MSTORE PUSH1 0x20 PUSH1 0x0 KECCAK256 ADD PUSH1 0x0 SWAP1 SWAP2 SWAP1 SWAP2 SWAP1 SWAP2 PUSH2 0x100 EXP DUP2 SLOAD DUP2 PUSH20 0xFFFFFFFFFFFFFFFFFFFFFFFFFFFFFFFFFFFFFFFF MUL NOT AND SWAP1 DUP4 PUSH20 0xFFFFFFFFFFFFFFFFFFFFFFFFFFFFFFFFFFFFFFFF AND MUL OR SWAP1 SSTORE POP CALLER PUSH20 0xFFFFFFFFFFFFFFFFFFFFFFFFFFFFFFFFFFFFFFFF AND PUSH32 0x7855BA29CA8454697607AA251043EF55A210106EF4ADCCC63B1C8BFEB55B6E67 PUSH1 0x0 PUSH1 0x40 MLOAD PUSH2 0xE51 SWAP2 SWAP1 PUSH2 0x390C JUMP JUMPDEST PUSH1 0x40 MLOAD DUP1 SWAP2 SUB SWAP1 LOG2 POP POP POP JUMP JUMPDEST PUSH1 0x4 PUSH1 0x20 MSTORE DUP1 PUSH1 0x0 MSTORE PUSH1 0x40 PUSH1 0x0 KECCAK256 PUSH1 0x0 SWAP2 POP SWAP1 POP DUP1 PUSH1 0x0 ADD SLOAD SWAP1 DUP1 PUSH1 0x1 ADD PUSH1 0x0 SWAP1 SLOAD SWAP1 PUSH2 0x100 EXP SWAP1 DIV PUSH1 0xFF AND SWAP1 DUP1 PUSH1 0x1 ADD PUSH1 0x1 SWAP1 SLOAD SWAP1 PUSH2 0x100 EXP SWAP1 DIV PUSH20 0xFFFFFFFFFFFFFFFFFFFFFFFFFFFFFFFFFFFFFFFF AND SWAP1 DUP1 PUSH1 0x2 ADD DUP1 SLOAD PUSH2 0xEC0 SWAP1 PUSH2 0x3956 JUMP JUMPDEST DUP1 PUSH1 0x1F ADD PUSH1 0x20 DUP1 SWAP2 DIV MUL PUSH1 0x20 ADD PUSH1 0x40 MLOAD SWAP1 DUP2 ADD PUSH1 0x40 MSTORE DUP1 SWAP3 SWAP2 SWAP1 DUP2 DUP2 MSTORE PUSH1 0x20 ADD DUP3 DUP1 SLOAD PUSH2 0xEEC SWAP1 PUSH2 0x3956 JUMP JUMPDEST DUP1 ISZERO PUSH2 0xF39 JUMPI DUP1 PUSH1 0x1F LT PUSH2 0xF0E JUMPI PUSH2 0x100 DUP1 DUP4 SLOAD DIV MUL DUP4 MSTORE SWAP2 PUSH1 0x20 ADD SWAP2 PUSH2 0xF39 JUMP JUMPDEST DUP3 ADD SWAP2 SWAP1 PUSH1 0x0 MSTORE PUSH1 0x20 PUSH1 0x0 KECCAK256 SWAP1 JUMPDEST DUP2 SLOAD DUP2 MSTORE SWAP1 PUSH1 0x1 ADD SWAP1 PUSH1 0x20 ADD DUP1 DUP4 GT PUSH2 0xF1C JUMPI DUP3 SWAP1 SUB PUSH1 0x1F AND DUP3 ADD SWAP2 JUMPDEST POP POP POP POP POP SWAP1 DUP1 PUSH1 0x3 ADD SLOAD SWAP1 DUP1 PUSH1 0x4 ADD SLOAD SWAP1 DUP1 PUSH1 0x5 ADD PUSH1 0x0 SWAP1 SLOAD SWAP1 PUSH2 0x100 EXP SWAP1 DIV PUSH1 0xFF AND SWAP1 DUP1 PUSH1 0x5 ADD PUSH1 0x1 SWAP1 SLOAD SWAP1 PUSH2 0x100 EXP SWAP1 DIV PUSH1 0xFF AND SWAP1 DUP1 PUSH1 0x6 ADD SLOAD SWAP1 POP DUP10 JUMP JUMPDEST PUSH1 0x14 DUP2 JUMP JUMPDEST PUSH2 0x2BC DUP2 JUMP JUMPDEST PUSH1 0x0 DUP1 CALLER TIMESTAMP DUP5 PUSH1 0x40 MLOAD PUSH1 0x20 ADD PUSH2 0xF9E SWAP4 SWAP3 SWAP2 SWAP1 PUSH2 0x3A2C JUMP JUMPDEST PUSH1 0x40 MLOAD PUSH1 0x20 DUP2 DUP4 SUB SUB DUP2 MSTORE SWAP1 PUSH1 0x40 MSTORE DUP1 MLOAD SWAP1 PUSH1 0x20 ADD KECCAK256 SWAP1 POP PUSH1 0x40 MLOAD DUP1 PUSH2 0x120 ADD PUSH1 0x40 MSTORE DUP1 DUP3 DUP2 MSTORE PUSH1 0x20 ADD DUP6 PUSH1 0x6 DUP2 GT ISZERO PUSH2 0xFDB JUMPI PUSH2 0xFDA PUSH2 0x2C4F JUMP JUMPDEST JUMPDEST DUP2 MSTORE PUSH1 0x20 ADD CALLER PUSH20 0xFFFFFFFFFFFFFFFFFFFFFFFFFFFFFFFFFFFFFFFF AND DUP2 MSTORE PUSH1 0x20 ADD DUP5 DUP2 MSTORE PUSH1 0x20 ADD TIMESTAMP DUP2 MSTORE PUSH1 0x20 ADD PUSH3 0x15180 TIMESTAMP PUSH2 0x1017 SWAP2 SWAP1 PUSH2 0x3A94 JUMP JUMPDEST DUP2 MSTORE PUSH1 0x20 ADD PUSH1 0x0 PUSH1 0x3 DUP2 GT ISZERO PUSH2 0x1030 JUMPI PUSH2 0x102F PUSH2 0x2C4F JUMP JUMPDEST JUMPDEST DUP2 MSTORE PUSH1 0x20 ADD PUSH1 0x0 ISZERO ISZERO DUP2 MSTORE PUSH1 0x20 ADD PUSH1 0x0 DUP2 MSTORE POP PUSH1 0x4 PUSH1 0x0 DUP4 DUP2 MSTORE PUSH1 0x20 ADD SWAP1 DUP2 MSTORE PUSH1 0x20 ADD PUSH1 0x0 KECCAK256 PUSH1 0x0 DUP3 ADD MLOAD DUP2 PUSH1 0x0 ADD SSTORE PUSH1 0x20 DUP3 ADD MLOAD DUP2 PUSH1 0x1 ADD PUSH1 0x0 PUSH2 0x100 EXP DUP2 SLOAD DUP2 PUSH1 0xFF MUL NOT AND SWAP1 DUP4 PUSH1 0x6 DUP2 GT ISZERO PUSH2 0x108B JUMPI PUSH2 0x108A PUSH2 0x2C4F JUMP JUMPDEST JUMPDEST MUL OR SWAP1 SSTORE POP PUSH1 0x40 DUP3 ADD MLOAD DUP2 PUSH1 0x1 ADD PUSH1 0x1 PUSH2 0x100 EXP DUP2 SLOAD DUP2 PUSH20 0xFFFFFFFFFFFFFFFFFFFFFFFFFFFFFFFFFFFFFFFF MUL NOT AND SWAP1 DUP4 PUSH20 0xFFFFFFFFFFFFFFFFFFFFFFFFFFFFFFFFFFFFFFFF AND MUL OR SWAP1 SSTORE POP PUSH1 0x60 DUP3 ADD MLOAD DUP2 PUSH1 0x2 ADD SWAP1 DUP2 PUSH2 0x10EC SWAP2 SWAP1 PUSH2 0x3C6A JUMP JUMPDEST POP PUSH1 0x80 DUP3 ADD MLOAD DUP2 PUSH1 0x3 ADD SSTORE PUSH1 0xA0 DUP3 ADD MLOAD DUP2 PUSH1 0x4 ADD SSTORE PUSH1 0xC0 DUP3 ADD MLOAD DUP2 PUSH1 0x5 ADD PUSH1 0x0 PUSH2 0x100 EXP DUP2 SLOAD DUP2 PUSH1 0xFF MUL NOT AND SWAP1 DUP4 PUSH1 0x3 DUP2 GT ISZERO PUSH2 0x112C JUMPI PUSH2 0x112B PUSH2 0x2C4F JUMP JUMPDEST JUMPDEST MUL OR SWAP1 SSTORE POP PUSH1 0xE0 DUP3 ADD MLOAD DUP2 PUSH1 0x5 ADD PUSH1 0x1 PUSH2 0x100 EXP DUP2 SLOAD DUP2 PUSH1 0xFF MUL NOT AND SWAP1 DUP4 ISZERO ISZERO MUL OR SWAP1 SSTORE POP PUSH2 0x100 DUP3 ADD MLOAD DUP2 PUSH1 0x6 ADD SSTORE SWAP1 POP POP PUSH1 0x8 DUP2 SWAP1 DUP1 PUSH1 0x1 DUP2 SLOAD ADD DUP1 DUP3 SSTORE DUP1 SWAP2 POP POP PUSH1 0x1 SWAP1 SUB SWAP1 PUSH1 0x0 MSTORE PUSH1 0x20 PUSH1 0x0 KECCAK256 ADD PUSH1 0x0 SWAP1 SWAP2 SWAP1 SWAP2 SWAP1 SWAP2 POP SSTORE CALLER PUSH20 0xFFFFFFFFFFFFFFFFFFFFFFFFFFFFFFFFFFFFFFFF AND DUP2 PUSH32 0xFDD8847731AB35AC10A0F03462F1A89D583FF8DB9353B7E775A0BBB8E490AC7D DUP7 PUSH1 0x40 MLOAD PUSH2 0x11CF SWAP2 SWAP1 PUSH2 0x3D3C JUMP JUMPDEST PUSH1 0x40 MLOAD DUP1 SWAP2 SUB SWAP1 LOG3 DUP1 SWAP2 POP POP SWAP3 SWAP2 POP POP JUMP JUMPDEST PUSH2 0x11E9 PUSH2 0x26BC JUMP JUMPDEST PUSH1 0x1 PUSH1 0x0 SWAP1 SLOAD SWAP1 PUSH2 0x100 EXP SWAP1 DIV PUSH20 0xFFFFFFFFFFFFFFFFFFFFFFFFFFFFFFFFFFFFFFFF AND PUSH20 0xFFFFFFFFFFFFFFFFFFFFFFFFFFFFFFFFFFFFFFFF AND PUSH4 0xA9059CBB PUSH2 0x122F PUSH2 0x18D0 JUMP JUMPDEST DUP4 PUSH1 0x40 MLOAD DUP4 PUSH4 0xFFFFFFFF AND PUSH1 0xE0 SHL DUP2 MSTORE PUSH1 0x4 ADD PUSH2 0x124D SWAP3 SWAP2 SWAP1 PUSH2 0x3D57 JUMP JUMPDEST PUSH1 0x20 PUSH1 0x40 MLOAD DUP1 DUP4 SUB DUP2 PUSH1 0x0 DUP8 GAS CALL ISZERO DUP1 ISZERO PUSH2 0x126C JUMPI RETURNDATASIZE PUSH1 0x0 DUP1 RETURNDATACOPY RETURNDATASIZE PUSH1 0x0 REVERT JUMPDEST POP POP POP POP PUSH1 0x40 MLOAD RETURNDATASIZE PUSH1 0x1F NOT PUSH1 0x1F DUP3 ADD AND DUP3 ADD DUP1 PUSH1 0x40 MSTORE POP DUP2 ADD SWAP1 PUSH2 0x1290 SWAP2 SWAP1 PUSH2 0x3873 JUMP JUMPDEST POP POP JUMP JUMPDEST PUSH2 0x129C PUSH2 0x26BC JUMP JUMPDEST PUSH1 0x0 PUSH1 0x4 PUSH1 0x0 DUP5 DUP2 MSTORE PUSH1 0x20 ADD SWAP1 DUP2 MSTORE PUSH1 0x20 ADD PUSH1 0x0 KECCAK256 SWAP1 POP DUP1 PUSH1 0x5 ADD PUSH1 0x1 SWAP1 SLOAD SWAP1 PUSH2 0x100 EXP SWAP1 DIV PUSH1 0xFF AND ISZERO PUSH2 0x1305 JUMPI PUSH1 0x40 MLOAD PUSH32 0x8C379A000000000000000000000000000000000000000000000000000000000 DUP2 MSTORE PUSH1 0x4 ADD PUSH2 0x12FC SWAP1 PUSH2 0x3DCC JUMP JUMPDEST PUSH1 0x40 MLOAD DUP1 SWAP2 SUB SWAP1 REVERT JUMPDEST DUP1 PUSH1 0x4 ADD SLOAD TIMESTAMP LT ISZERO PUSH2 0x134C JUMPI PUSH1 0x40 MLOAD PUSH32 0x8C379A000000000000000000000000000000000000000000000000000000000 DUP2 MSTORE PUSH1 0x4 ADD PUSH2 0x1343 SWAP1 PUSH2 0x3E38 JUMP JUMPDEST PUSH1 0x40 MLOAD DUP1 SWAP2 SUB SWAP1 REVERT JUMPDEST DUP2 DUP2 PUSH1 0x6 ADD DUP2 SWAP1 SSTORE POP PUSH2 0x2BC DUP3 LT PUSH2 0x13E6 JUMPI PUSH1 0x2 DUP2 PUSH1 0x5 ADD PUSH1 0x0 PUSH2 0x100 EXP DUP2 SLOAD DUP2 PUSH1 0xFF MUL NOT AND SWAP1 DUP4 PUSH1 0x3 DUP2 GT ISZERO PUSH2 0x1386 JUMPI PUSH2 0x1385 PUSH2 0x2C4F JUMP JUMPDEST JUMPDEST MUL OR SWAP1 SSTORE POP PUSH1 0x1 DUP2 PUSH1 0x5 ADD PUSH1 0x1 PUSH2 0x100 EXP DUP2 SLOAD DUP2 PUSH1 0xFF MUL NOT AND SWAP1 DUP4 ISZERO ISZERO MUL OR SWAP1 SSTORE POP DUP3 PUSH32 0x82049AB1A1DDED6F9505013E08965DC100A583BEE68009FC7632982ADD3B9BE9 DUP4 PUSH1 0x40 MLOAD PUSH2 0x13D8 SWAP2 SWAP1 PUSH2 0x2EEE JUMP JUMPDEST PUSH1 0x40 MLOAD DUP1 SWAP2 SUB SWAP1 LOG2 POP PUSH2 0x16A7 JUMP JUMPDEST PUSH1 0x0 PUSH1 0x5 PUSH1 0x0 DUP6 DUP2 MSTORE PUSH1 0x20 ADD SWAP1 DUP2 MSTORE PUSH1 0x20 ADD PUSH1 0x0 KECCAK256 DUP1 SLOAD DUP1 PUSH1 0x20 MUL PUSH1 0x20 ADD PUSH1 0x40 MLOAD SWAP1 DUP2 ADD PUSH1 0x40 MSTORE DUP1 SWAP3 SWAP2 SWAP1 DUP2 DUP2 MSTORE PUSH1 0x20 ADD PUSH1 0x0 SWAP1 JUMPDEST DUP3 DUP3 LT ISZERO PUSH2 0x150D JUMPI DUP4 DUP3 SWAP1 PUSH1 0x0 MSTORE PUSH1 0x20 PUSH1 0x0 KECCAK256 SWAP1 PUSH1 0x3 MUL ADD PUSH1 0x40 MLOAD DUP1 PUSH1 0xA0 ADD PUSH1 0x40 MSTORE SWAP1 DUP2 PUSH1 0x0 DUP3 ADD PUSH1 0x0 SWAP1 SLOAD SWAP1 PUSH2 0x100 EXP SWAP1 DIV PUSH20 0xFFFFFFFFFFFFFFFFFFFFFFFFFFFFFFFFFFFFFFFF AND PUSH20 0xFFFFFFFFFFFFFFFFFFFFFFFFFFFFFFFFFFFFFFFF AND PUSH20 0xFFFFFFFFFFFFFFFFFFFFFFFFFFFFFFFFFFFFFFFF AND DUP2 MSTORE PUSH1 0x20 ADD PUSH1 0x0 DUP3 ADD PUSH1 0x14 SWAP1 SLOAD SWAP1 PUSH2 0x100 EXP SWAP1 DIV PUSH1 0xFF AND PUSH1 0x2 DUP2 GT ISZERO PUSH2 0x14B9 JUMPI PUSH2 0x14B8 PUSH2 0x2C4F JUMP JUMPDEST JUMPDEST PUSH1 0x2 DUP2 GT ISZERO PUSH2 0x14CB JUMPI PUSH2 0x14CA PUSH2 0x2C4F JUMP JUMPDEST JUMPDEST DUP2 MSTORE PUSH1 0x20 ADD PUSH1 0x0 DUP3 ADD PUSH1 0x15 SWAP1 SLOAD SWAP1 PUSH2 0x100 EXP SWAP1 DIV PUSH1 0xFF AND ISZERO ISZERO ISZERO ISZERO DUP2 MSTORE PUSH1 0x20 ADD PUSH1 0x1 DUP3 ADD SLOAD DUP2 MSTORE PUSH1 0x20 ADD PUSH1 0x2 DUP3 ADD SLOAD DUP2 MSTORE POP POP DUP2 MSTORE PUSH1 0x20 ADD SWAP1 PUSH1 0x1 ADD SWAP1 PUSH2 0x141B JUMP JUMPDEST POP POP POP POP SWAP1 POP PUSH1 0x0 DUP2 MLOAD GT PUSH2 0x1557 JUMPI PUSH1 0x40 MLOAD PUSH32 0x8C379A000000000000000000000000000000000000000000000000000000000 DUP2 MSTORE PUSH1 0x4 ADD PUSH2 0x154E SWAP1 PUSH2 0x3EA4 JUMP JUMPDEST PUSH1 0x40 MLOAD DUP1 SWAP2 SUB SWAP1 REVERT JUMPDEST PUSH1 0x0 DUP1 PUSH1 0x0 JUMPDEST DUP4 MLOAD DUP2 LT ISZERO PUSH2 0x15FB JUMPI DUP4 DUP2 DUP2 MLOAD DUP2 LT PUSH2 0x1579 JUMPI PUSH2 0x1578 PUSH2 0x3EC4 JUMP JUMPDEST JUMPDEST PUSH1 0x20 MUL PUSH1 0x20 ADD ADD MLOAD PUSH1 0x40 ADD MLOAD ISZERO PUSH2 0x15BB JUMPI DUP4 DUP2 DUP2 MLOAD DUP2 LT PUSH2 0x159D JUMPI PUSH2 0x159C PUSH2 0x3EC4 JUMP JUMPDEST JUMPDEST PUSH1 0x20 MUL PUSH1 0x20 ADD ADD MLOAD PUSH1 0x60 ADD MLOAD DUP4 PUSH2 0x15B4 SWAP2 SWAP1 PUSH2 0x3A94 JUMP JUMPDEST SWAP3 POP PUSH2 0x15E8 JUMP JUMPDEST DUP4 DUP2 DUP2 MLOAD DUP2 LT PUSH2 0x15CE JUMPI PUSH2 0x15CD PUSH2 0x3EC4 JUMP JUMPDEST JUMPDEST PUSH1 0x20 MUL PUSH1 0x20 ADD ADD MLOAD PUSH1 0x60 ADD MLOAD DUP3 PUSH2 0x15E5 SWAP2 SWAP1 PUSH2 0x3A94 JUMP JUMPDEST SWAP2 POP JUMPDEST DUP1 DUP1 PUSH2 0x15F3 SWAP1 PUSH2 0x3EF3 JUMP JUMPDEST SWAP2 POP POP PUSH2 0x155D JUMP JUMPDEST POP PUSH1 0x0 DUP2 DUP4 GT SWAP1 POP DUP1 PUSH2 0x160F JUMPI PUSH1 0x2 PUSH2 0x1612 JUMP JUMPDEST PUSH1 0x1 JUMPDEST DUP6 PUSH1 0x5 ADD PUSH1 0x0 PUSH2 0x100 EXP DUP2 SLOAD DUP2 PUSH1 0xFF MUL NOT AND SWAP1 DUP4 PUSH1 0x3 DUP2 GT ISZERO PUSH2 0x1638 JUMPI PUSH2 0x1637 PUSH2 0x2C4F JUMP JUMPDEST JUMPDEST MUL OR SWAP1 SSTORE POP PUSH1 0x1 DUP6 PUSH1 0x5 ADD PUSH1 0x1 PUSH2 0x100 EXP DUP2 SLOAD DUP2 PUSH1 0xFF MUL NOT AND SWAP1 DUP4 ISZERO ISZERO MUL OR SWAP1 SSTORE POP PUSH2 0x1665 DUP8 DUP3 DUP7 PUSH2 0x2743 JUMP JUMPDEST DUP7 PUSH32 0x7DFD85B4F8D09E161EB4F72D683098EE1573B08082D2298BDCF70E7E8DDD0F88 DUP3 DUP6 DUP6 PUSH1 0x40 MLOAD PUSH2 0x1699 SWAP4 SWAP3 SWAP2 SWAP1 PUSH2 0x3F3B JUMP JUMPDEST PUSH1 0x40 MLOAD DUP1 SWAP2 SUB SWAP1 LOG2 POP POP POP POP POP JUMPDEST POP POP JUMP JUMPDEST PUSH1 0x0 DUP2 JUMP JUMPDEST PUSH1 0x5 PUSH1 0x20 MSTORE DUP2 PUSH1 0x0 MSTORE PUSH1 0x40 PUSH1 0x0 KECCAK256 DUP2 DUP2 SLOAD DUP2 LT PUSH2 0x16CC JUMPI PUSH1 0x0 DUP1 REVERT JUMPDEST SWAP1 PUSH1 0x0 MSTORE PUSH1 0x20 PUSH1 0x0 KECCAK256 SWAP1 PUSH1 0x3 MUL ADD PUSH1 0x0 SWAP2 POP SWAP2 POP POP DUP1 PUSH1 0x0 ADD PUSH1 0x0 SWAP1 SLOAD SWAP1 PUSH2 0x100 EXP SWAP1 DIV PUSH20 0xFFFFFFFFFFFFFFFFFFFFFFFFFFFFFFFFFFFFFFFF AND SWAP1 DUP1 PUSH1 0x0 ADD PUSH1 0x14 SWAP1 SLOAD SWAP1 PUSH2 0x100 EXP SWAP1 DIV PUSH1 0xFF AND SWAP1 DUP1 PUSH1 0x0 ADD PUSH1 0x15 SWAP1 SLOAD SWAP1 PUSH2 0x100 EXP SWAP1 DIV PUSH1 0xFF AND SWAP1 DUP1 PUSH1 0x1 ADD SLOAD SWAP1 DUP1 PUSH1 0x2 ADD SLOAD SWAP1 POP DUP6 JUMP JUMPDEST PUSH2 0x1745 PUSH2 0x26BC JUMP JUMPDEST PUSH2 0x174F PUSH1 0x0 PUSH2 0x29D0 JUMP JUMPDEST JUMP JUMPDEST PUSH1 0x0 PUSH1 0x3 PUSH1 0x0 DUP4 PUSH20 0xFFFFFFFFFFFFFFFFFFFFFFFFFFFFFFFFFFFFFFFF AND PUSH20 0xFFFFFFFFFFFFFFFFFFFFFFFFFFFFFFFFFFFFFFFF AND DUP2 MSTORE PUSH1 0x20 ADD SWAP1 DUP2 MSTORE PUSH1 0x20 ADD PUSH1 0x0 KECCAK256 PUSH1 0x7 ADD PUSH1 0x0 SWAP1 SLOAD SWAP1 PUSH2 0x100 EXP SWAP1 DIV PUSH1 0xFF AND PUSH2 0x17B0 JUMPI PUSH1 0x0 SWAP1 POP PUSH2 0x18CB JUMP JUMPDEST PUSH1 0x0 PUSH1 0x2 PUSH1 0x0 SWAP1 SLOAD SWAP1 PUSH2 0x100 EXP SWAP1 DIV PUSH20 0xFFFFFFFFFFFFFFFFFFFFFFFFFFFFFFFFFFFFFFFF AND PUSH20 0xFFFFFFFFFFFFFFFFFFFFFFFFFFFFFFFFFFFFFFFF AND PUSH4 0x98BF9A5D DUP5 PUSH1 0x40 MLOAD DUP3 PUSH4 0xFFFFFFFF AND PUSH1 0xE0 SHL DUP2 MSTORE PUSH1 0x4 ADD PUSH2 0x180D SWAP2 SWAP1 PUSH2 0x3398 JUMP JUMPDEST PUSH1 0xC0 PUSH1 0x40 MLOAD DUP1 DUP4 SUB DUP2 DUP7 GAS STATICCALL ISZERO DUP1 ISZERO PUSH2 0x182A JUMPI RETURNDATASIZE PUSH1 0x0 DUP1 RETURNDATACOPY RETURNDATASIZE PUSH1 0x0 REVERT JUMPDEST POP POP POP POP PUSH1 0x40 MLOAD RETURNDATASIZE PUSH1 0x1F NOT PUSH1 0x1F DUP3 ADD AND DUP3 ADD DUP1 PUSH1 0x40 MSTORE POP DUP2 ADD SWAP1 PUSH2 0x184E SWAP2 SWAP1 PUSH2 0x3F72 JUMP JUMPDEST POP SWAP5 POP POP POP POP POP PUSH1 0x0 PUSH1 0x3 PUSH1 0x0 DUP6 PUSH20 0xFFFFFFFFFFFFFFFFFFFFFFFFFFFFFFFFFFFFFFFF AND PUSH20 0xFFFFFFFFFFFFFFFFFFFFFFFFFFFFFFFFFFFFFFFF AND DUP2 MSTORE PUSH1 0x20 ADD SWAP1 DUP2 MSTORE PUSH1 0x20 ADD PUSH1 0x0 KECCAK256 PUSH1 0x1 ADD SLOAD SWAP1 POP PUSH1 0x0 DUP3 PUSH1 0x32 PUSH2 0x18AB SWAP2 SWAP1 PUSH2 0x3A94 JUMP JUMPDEST SWAP1 POP PUSH1 0x64 DUP2 DUP4 PUSH2 0x18BB SWAP2 SWAP1 PUSH2 0x3FFF JUMP JUMPDEST PUSH2 0x18C5 SWAP2 SWAP1 PUSH2 0x4070 JUMP JUMPDEST SWAP4 POP POP POP POP JUMPDEST SWAP2 SWAP1 POP JUMP JUMPDEST PUSH1 0x0 DUP1 PUSH1 0x0 SWAP1 SLOAD SWAP1 PUSH2 0x100 EXP SWAP1 DIV PUSH20 0xFFFFFFFFFFFFFFFFFFFFFFFFFFFFFFFFFFFFFFFF AND SWAP1 POP SWAP1 JUMP JUMPDEST PUSH1 0x3 PUSH1 0x0 CALLER PUSH20 0xFFFFFFFFFFFFFFFFFFFFFFFFFFFFFFFFFFFFFFFF AND PUSH20 0xFFFFFFFFFFFFFFFFFFFFFFFFFFFFFFFFFFFFFFFF AND DUP2 MSTORE PUSH1 0x20 ADD SWAP1 DUP2 MSTORE PUSH1 0x20 ADD PUSH1 0x0 KECCAK256 PUSH1 0x7 ADD PUSH1 0x0 SWAP1 SLOAD SWAP1 PUSH2 0x100 EXP SWAP1 DIV PUSH1 0xFF AND PUSH2 0x1988 JUMPI PUSH1 0x40 MLOAD PUSH32 0x8C379A000000000000000000000000000000000000000000000000000000000 DUP2 MSTORE PUSH1 0x4 ADD PUSH2 0x197F SWAP1 PUSH2 0x40ED JUMP JUMPDEST PUSH1 0x40 MLOAD DUP1 SWAP2 SUB SWAP1 REVERT JUMPDEST PUSH1 0x6 PUSH1 0x0 DUP4 DUP2 MSTORE PUSH1 0x20 ADD SWAP1 DUP2 MSTORE PUSH1 0x20 ADD PUSH1 0x0 KECCAK256 PUSH1 0x0 CALLER PUSH20 0xFFFFFFFFFFFFFFFFFFFFFFFFFFFFFFFFFFFFFFFF AND PUSH20 0xFFFFFFFFFFFFFFFFFFFFFFFFFFFFFFFFFFFFFFFF AND DUP2 MSTORE PUSH1 0x20 ADD SWAP1 DUP2 MSTORE PUSH1 0x20 ADD PUSH1 0x0 KECCAK256 PUSH1 0x0 SWAP1 SLOAD SWAP1 PUSH2 0x100 EXP SWAP1 DIV PUSH1 0xFF AND ISZERO PUSH2 0x1A26 JUMPI PUSH1 0x40 MLOAD PUSH32 0x8C379A000000000000000000000000000000000000000000000000000000000 DUP2 MSTORE PUSH1 0x4 ADD PUSH2 0x1A1D SWAP1 PUSH2 0x4159 JUMP JUMPDEST PUSH1 0x40 MLOAD DUP1 SWAP2 SUB SWAP1 REVERT JUMPDEST PUSH1 0x0 PUSH1 0x3 DUP2 GT ISZERO PUSH2 0x1A3A JUMPI PUSH2 0x1A39 PUSH2 0x2C4F JUMP JUMPDEST JUMPDEST PUSH1 0x4 PUSH1 0x0 DUP5 DUP2 MSTORE PUSH1 0x20 ADD SWAP1 DUP2 MSTORE PUSH1 0x20 ADD PUSH1 0x0 KECCAK256 PUSH1 0x5 ADD PUSH1 0x0 SWAP1 SLOAD SWAP1 PUSH2 0x100 EXP SWAP1 DIV PUSH1 0xFF AND PUSH1 0x3 DUP2 GT ISZERO PUSH2 0x1A70 JUMPI PUSH2 0x1A6F PUSH2 0x2C4F JUMP JUMPDEST JUMPDEST EQ PUSH2 0x1AB0 JUMPI PUSH1 0x40 MLOAD PUSH32 0x8C379A000000000000000000000000000000000000000000000000000000000 DUP2 MSTORE PUSH1 0x4 ADD PUSH2 0x1AA7 SWAP1 PUSH2 0x41C5 JUMP JUMPDEST PUSH1 0x40 MLOAD DUP1 SWAP2 SUB SWAP1 REVERT JUMPDEST PUSH1 0x4 PUSH1 0x0 DUP4 DUP2 MSTORE PUSH1 0x20 ADD SWAP1 DUP2 MSTORE PUSH1 0x20 ADD PUSH1 0x0 KECCAK256 PUSH1 0x4 ADD SLOAD TIMESTAMP LT PUSH2 0x1B08 JUMPI PUSH1 0x40 MLOAD PUSH32 0x8C379A000000000000000000000000000000000000000000000000000000000 DUP2 MSTORE PUSH1 0x4 ADD PUSH2 0x1AFF SWAP1 PUSH2 0x4231 JUMP JUMPDEST PUSH1 0x40 MLOAD DUP1 SWAP2 SUB SWAP1 REVERT JUMPDEST PUSH1 0x0 PUSH1 0x3 PUSH1 0x0 CALLER PUSH20 0xFFFFFFFFFFFFFFFFFFFFFFFFFFFFFFFFFFFFFFFF AND PUSH20 0xFFFFFFFFFFFFFFFFFFFFFFFFFFFFFFFFFFFFFFFF AND DUP2 MSTORE PUSH1 0x20 ADD SWAP1 DUP2 MSTORE PUSH1 0x20 ADD PUSH1 0x0 KECCAK256 PUSH1 0x40 MLOAD DUP1 PUSH2 0x160 ADD PUSH1 0x40 MSTORE SWAP1 DUP2 PUSH1 0x0 DUP3 ADD PUSH1 0x0 SWAP1 SLOAD SWAP1 PUSH2 0x100 EXP SWAP1 DIV PUSH20 0xFFFFFFFFFFFFFFFFFFFFFFFFFFFFFFFFFFFFFFFF AND PUSH20 0xFFFFFFFFFFFFFFFFFFFFFFFFFFFFFFFFFFFFFFFF AND PUSH20 0xFFFFFFFFFFFFFFFFFFFFFFFFFFFFFFFFFFFFFFFF AND DUP2 MSTORE PUSH1 0x20 ADD PUSH1 0x0 DUP3 ADD PUSH1 0x14 SWAP1 SLOAD SWAP1 PUSH2 0x100 EXP SWAP1 DIV PUSH1 0xFF AND PUSH1 0x2 DUP2 GT ISZERO PUSH2 0x1BD0 JUMPI PUSH2 0x1BCF PUSH2 0x2C4F JUMP JUMPDEST JUMPDEST PUSH1 0x2 DUP2 GT ISZERO PUSH2 0x1BE2 JUMPI PUSH2 0x1BE1 PUSH2 0x2C4F JUMP JUMPDEST JUMPDEST DUP2 MSTORE PUSH1 0x20 ADD PUSH1 0x1 DUP3 ADD SLOAD DUP2 MSTORE PUSH1 0x20 ADD PUSH1 0x2 DUP3 ADD SLOAD DUP2 MSTORE PUSH1 0x20 ADD PUSH1 0x3 DUP3 ADD SLOAD DUP2 MSTORE PUSH1 0x20 ADD PUSH1 0x4 DUP3 ADD SLOAD DUP2 MSTORE PUSH1 0x20 ADD PUSH1 0x5 DUP3 ADD SLOAD DUP2 MSTORE PUSH1 0x20 ADD PUSH1 0x6 DUP3 ADD SLOAD DUP2 MSTORE PUSH1 0x20 ADD PUSH1 0x7 DUP3 ADD PUSH1 0x0 SWAP1 SLOAD SWAP1 PUSH2 0x100 EXP SWAP1 DIV PUSH1 0xFF AND ISZERO ISZERO ISZERO ISZERO DUP2 MSTORE PUSH1 0x20 ADD PUSH1 0x7 DUP3 ADD PUSH1 0x1 SWAP1 SLOAD SWAP1 PUSH2 0x100 EXP SWAP1 DIV PUSH1 0xFF AND ISZERO ISZERO ISZERO ISZERO DUP2 MSTORE PUSH1 0x20 ADD PUSH1 0x8 DUP3 ADD SLOAD DUP2 MSTORE POP POP SWAP1 POP PUSH1 0x0 PUSH2 0x1C6F CALLER PUSH2 0x1751 JUMP JUMPDEST SWAP1 POP PUSH1 0x5 PUSH1 0x0 DUP6 DUP2 MSTORE PUSH1 0x20 ADD SWAP1 DUP2 MSTORE PUSH1 0x20 ADD PUSH1 0x0 KECCAK256 PUSH1 0x40 MLOAD DUP1 PUSH1 0xA0 ADD PUSH1 0x40 MSTORE DUP1 CALLER PUSH20 0xFFFFFFFFFFFFFFFFFFFFFFFFFFFFFFFFFFFFFFFF AND DUP2 MSTORE PUSH1 0x20 ADD DUP5 PUSH1 0x20 ADD MLOAD PUSH1 0x2 DUP2 GT ISZERO PUSH2 0x1CC2 JUMPI PUSH2 0x1CC1 PUSH2 0x2C4F JUMP JUMPDEST JUMPDEST DUP2 MSTORE PUSH1 0x20 ADD DUP6 ISZERO ISZERO DUP2 MSTORE PUSH1 0x20 ADD DUP4 DUP2 MSTORE PUSH1 0x20 ADD TIMESTAMP DUP2 MSTORE POP SWAP1 DUP1 PUSH1 0x1 DUP2 SLOAD ADD DUP1 DUP3 SSTORE DUP1 SWAP2 POP POP PUSH1 0x1 SWAP1 SUB SWAP1 PUSH1 0x0 MSTORE PUSH1 0x20 PUSH1 0x0 KECCAK256 SWAP1 PUSH1 0x3 MUL ADD PUSH1 0x0 SWAP1 SWAP2 SWAP1 SWAP2 SWAP1 SWAP2 POP PUSH1 0x0 DUP3 ADD MLOAD DUP2 PUSH1 0x0 ADD PUSH1 0x0 PUSH2 0x100 EXP DUP2 SLOAD DUP2 PUSH20 0xFFFFFFFFFFFFFFFFFFFFFFFFFFFFFFFFFFFFFFFF MUL NOT AND SWAP1 DUP4 PUSH20 0xFFFFFFFFFFFFFFFFFFFFFFFFFFFFFFFFFFFFFFFF AND MUL OR SWAP1 SSTORE POP PUSH1 0x20 DUP3 ADD MLOAD DUP2 PUSH1 0x0 ADD PUSH1 0x14 PUSH2 0x100 EXP DUP2 SLOAD DUP2 PUSH1 0xFF MUL NOT AND SWAP1 DUP4 PUSH1 0x2 DUP2 GT ISZERO PUSH2 0x1D74 JUMPI PUSH2 0x1D73 PUSH2 0x2C4F JUMP JUMPDEST JUMPDEST MUL OR SWAP1 SSTORE POP PUSH1 0x40 DUP3 ADD MLOAD DUP2 PUSH1 0x0 ADD PUSH1 0x15 PUSH2 0x100 EXP DUP2 SLOAD DUP2 PUSH1 0xFF MUL NOT AND SWAP1 DUP4 ISZERO ISZERO MUL OR SWAP1 SSTORE POP PUSH1 0x60 DUP3 ADD MLOAD DUP2 PUSH1 0x1 ADD SSTORE PUSH1 0x80 DUP3 ADD MLOAD DUP2 PUSH1 0x2 ADD SSTORE POP POP PUSH1 0x1 PUSH1 0x6 PUSH1 0x0 DUP7 DUP2 MSTORE PUSH1 0x20 ADD SWAP1 DUP2 MSTORE PUSH1 0x20 ADD PUSH1 0x0 KECCAK256 PUSH1 0x0 CALLER PUSH20 0xFFFFFFFFFFFFFFFFFFFFFFFFFFFFFFFFFFFFFFFF AND PUSH20 0xFFFFFFFFFFFFFFFFFFFFFFFFFFFFFFFFFFFFFFFF AND DUP2 MSTORE PUSH1 0x20 ADD SWAP1 DUP2 MSTORE PUSH1 0x20 ADD PUSH1 0x0 KECCAK256 PUSH1 0x0 PUSH2 0x100 EXP DUP2 SLOAD DUP2 PUSH1 0xFF MUL NOT AND SWAP1 DUP4 ISZERO ISZERO MUL OR SWAP1 SSTORE POP PUSH1 0x3 PUSH1 0x0 CALLER PUSH20 0xFFFFFFFFFFFFFFFFFFFFFFFFFFFFFFFFFFFFFFFF AND PUSH20 0xFFFFFFFFFFFFFFFFFFFFFFFFFFFFFFFFFFFFFFFF AND DUP2 MSTORE PUSH1 0x20 ADD SWAP1 DUP2 MSTORE PUSH1 0x20 ADD PUSH1 0x0 KECCAK256 PUSH1 0x3 ADD PUSH1 0x0 DUP2 SLOAD DUP1 SWAP3 SWAP2 SWAP1 PUSH2 0x1E6B SWAP1 PUSH2 0x3EF3 JUMP JUMPDEST SWAP2 SWAP1 POP SSTORE POP CALLER PUSH20 0xFFFFFFFFFFFFFFFFFFFFFFFFFFFFFFFFFFFFFFFF AND DUP5 PUSH32 0x16EFD9A5766AD43CA179F5EF58B8748C48DDEDD2DD2A228460465BFA90D4D069 DUP6 PUSH1 0x40 MLOAD PUSH2 0x1EB7 SWAP2 SWAP1 PUSH2 0x34B1 JUMP JUMPDEST PUSH1 0x40 MLOAD DUP1 SWAP2 SUB SWAP1 LOG3 POP POP POP POP JUMP JUMPDEST PUSH1 0x0 PUSH1 0x3 PUSH1 0x0 CALLER PUSH20 0xFFFFFFFFFFFFFFFFFFFFFFFFFFFFFFFFFFFFFFFF AND PUSH20 0xFFFFFFFFFFFFFFFFFFFFFFFFFFFFFFFFFFFFFFFF AND DUP2 MSTORE PUSH1 0x20 ADD SWAP1 DUP2 MSTORE PUSH1 0x20 ADD PUSH1 0x0 KECCAK256 SWAP1 POP DUP1 PUSH1 0x7 ADD PUSH1 0x0 SWAP1 SLOAD SWAP1 PUSH2 0x100 EXP SWAP1 DIV PUSH1 0xFF AND PUSH2 0x1F59 JUMPI PUSH1 0x40 MLOAD PUSH32 0x8C379A000000000000000000000000000000000000000000000000000000000 DUP2 MSTORE PUSH1 0x4 ADD PUSH2 0x1F50 SWAP1 PUSH2 0x429D JUMP JUMPDEST PUSH1 0x40 MLOAD DUP1 SWAP2 SUB SWAP1 REVERT JUMPDEST DUP1 PUSH1 0x0 ADD PUSH1 0x14 SWAP1 SLOAD SWAP1 PUSH2 0x100 EXP SWAP1 DIV PUSH1 0xFF AND PUSH1 0x2 DUP2 GT ISZERO PUSH2 0x1F7D JUMPI PUSH2 0x1F7C PUSH2 0x2C4F JUMP JUMPDEST JUMPDEST DUP3 PUSH1 0x2 DUP2 GT ISZERO PUSH2 0x1F90 JUMPI PUSH2 0x1F8F PUSH2 0x2C4F JUMP JUMPDEST JUMPDEST GT PUSH2 0x1FD0 JUMPI PUSH1 0x40 MLOAD PUSH32 0x8C379A000000000000000000000000000000000000000000000000000000000 DUP2 MSTORE PUSH1 0x4 ADD PUSH2 0x1FC7 SWAP1 PUSH2 0x4309 JUMP JUMPDEST PUSH1 0x40 MLOAD DUP1 SWAP2 SUB SWAP1 REVERT JUMPDEST PUSH1 0x0 DUP1 PUSH1 0x1 PUSH1 0x2 DUP2 GT ISZERO PUSH2 0x1FE7 JUMPI PUSH2 0x1FE6 PUSH2 0x2C4F JUMP JUMPDEST JUMPDEST DUP5 PUSH1 0x2 DUP2 GT ISZERO PUSH2 0x1FFA JUMPI PUSH2 0x1FF9 PUSH2 0x2C4F JUMP JUMPDEST JUMPDEST SUB PUSH2 0x2073 JUMPI PUSH1 0x2 DUP4 PUSH1 0x5 ADD SLOAD LT ISZERO DUP1 PUSH2 0x2018 JUMPI POP PUSH1 0x55 DUP4 PUSH1 0x2 ADD SLOAD LT ISZERO JUMPDEST PUSH2 0x2057 JUMPI PUSH1 0x40 MLOAD PUSH32 0x8C379A000000000000000000000000000000000000000000000000000000000 DUP2 MSTORE PUSH1 0x4 ADD PUSH2 0x204E SWAP1 PUSH2 0x4375 JUMP JUMPDEST PUSH1 0x40 MLOAD DUP1 SWAP2 SUB SWAP1 REVERT JUMPDEST DUP3 PUSH1 0x6 ADD SLOAD PUSH1 0x0 PUSH2 0x2068 SWAP2 SWAP1 PUSH2 0x4395 JUMP JUMPDEST SWAP2 POP PUSH1 0x3 SWAP1 POP PUSH2 0x210F JUMP JUMPDEST PUSH1 0x2 DUP1 DUP2 GT ISZERO PUSH2 0x2086 JUMPI PUSH2 0x2085 PUSH2 0x2C4F JUMP JUMPDEST JUMPDEST DUP5 PUSH1 0x2 DUP2 GT ISZERO PUSH2 0x2099 JUMPI PUSH2 0x2098 PUSH2 0x2C4F JUMP JUMPDEST JUMPDEST SUB PUSH2 0x210E JUMPI PUSH1 0x3 DUP4 PUSH1 0x5 ADD SLOAD LT ISZERO DUP1 PUSH2 0x20B7 JUMPI POP PUSH1 0x5F DUP4 PUSH1 0x2 ADD SLOAD LT ISZERO JUMPDEST PUSH2 0x20F6 JUMPI PUSH1 0x40 MLOAD PUSH32 0x8C379A000000000000000000000000000000000000000000000000000000000 DUP2 MSTORE PUSH1 0x4 ADD PUSH2 0x20ED SWAP1 PUSH2 0x4415 JUMP JUMPDEST PUSH1 0x40 MLOAD DUP1 SWAP2 SUB SWAP1 REVERT JUMPDEST DUP3 PUSH1 0x6 ADD SLOAD PUSH1 0x0 PUSH2 0x2107 SWAP2 SWAP1 PUSH2 0x4395 JUMP JUMPDEST SWAP2 POP PUSH1 0x5 SWAP1 POP JUMPDEST JUMPDEST PUSH1 0x0 DUP3 GT ISZERO PUSH2 0x2215 JUMPI PUSH1 0x1 PUSH1 0x0 SWAP1 SLOAD SWAP1 PUSH2 0x100 EXP SWAP1 DIV PUSH20 0xFFFFFFFFFFFFFFFFFFFFFFFFFFFFFFFFFFFFFFFF AND PUSH20 0xFFFFFFFFFFFFFFFFFFFFFFFFFFFFFFFFFFFFFFFF AND PUSH4 0x23B872DD CALLER ADDRESS DUP6 PUSH1 0x40 MLOAD DUP5 PUSH4 0xFFFFFFFF AND PUSH1 0xE0 SHL DUP2 MSTORE PUSH1 0x4 ADD PUSH2 0x2177 SWAP4 SWAP3 SWAP2 SWAP1 PUSH2 0x3827 JUMP JUMPDEST PUSH1 0x20 PUSH1 0x40 MLOAD DUP1 DUP4 SUB DUP2 PUSH1 0x0 DUP8 GAS CALL ISZERO DUP1 ISZERO PUSH2 0x2196 JUMPI RETURNDATASIZE PUSH1 0x0 DUP1 RETURNDATACOPY RETURNDATASIZE PUSH1 0x0 REVERT JUMPDEST POP POP POP POP PUSH1 0x40 MLOAD RETURNDATASIZE PUSH1 0x1F NOT PUSH1 0x1F DUP3 ADD AND DUP3 ADD DUP1 PUSH1 0x40 MSTORE POP DUP2 ADD SWAP1 PUSH2 0x21BA SWAP2 SWAP1 PUSH2 0x3873 JUMP JUMPDEST PUSH2 0x21F9 JUMPI PUSH1 0x40 MLOAD PUSH32 0x8C379A000000000000000000000000000000000000000000000000000000000 DUP2 MSTORE PUSH1 0x4 ADD PUSH2 0x21F0 SWAP1 PUSH2 0x4481 JUMP JUMPDEST PUSH1 0x40 MLOAD DUP1 SWAP2 SUB SWAP1 REVERT JUMPDEST DUP2 DUP4 PUSH1 0x6 ADD PUSH1 0x0 DUP3 DUP3 SLOAD PUSH2 0x220D SWAP2 SWAP1 PUSH2 0x3A94 JUMP JUMPDEST SWAP3 POP POP DUP2 SWAP1 SSTORE POP JUMPDEST PUSH1 0x0 DUP4 PUSH1 0x0 ADD PUSH1 0x14 SWAP1 SLOAD SWAP1 PUSH2 0x100 EXP SWAP1 DIV PUSH1 0xFF AND SWAP1 POP DUP5 DUP5 PUSH1 0x0 ADD PUSH1 0x14 PUSH2 0x100 EXP DUP2 SLOAD DUP2 PUSH1 0xFF MUL NOT AND SWAP1 DUP4 PUSH1 0x2 DUP2 GT ISZERO PUSH2 0x2252 JUMPI PUSH2 0x2251 PUSH2 0x2C4F JUMP JUMPDEST JUMPDEST MUL OR SWAP1 SSTORE POP DUP2 DUP5 PUSH1 0x1 ADD DUP2 SWAP1 SSTORE POP CALLER PUSH20 0xFFFFFFFFFFFFFFFFFFFFFFFFFFFFFFFFFFFFFFFF AND PUSH32 0xFDAB712786AFC3B366BDB70E1353D20CF7D17170E663BD0349B1A1C06C44D958 DUP3 DUP8 PUSH1 0x40 MLOAD PUSH2 0x22A8 SWAP3 SWAP2 SWAP1 PUSH2 0x44A1 JUMP JUMPDEST PUSH1 0x40 MLOAD DUP1 SWAP2 SUB SWAP1 LOG2 POP POP POP POP POP JUMP JUMPDEST PUSH1 0x6 PUSH1 0x20 MSTORE DUP2 PUSH1 0x0 MSTORE PUSH1 0x40 PUSH1 0x0 KECCAK256 PUSH1 0x20 MSTORE DUP1 PUSH1 0x0 MSTORE PUSH1 0x40 PUSH1 0x0 KECCAK256 PUSH1 0x0 SWAP2 POP SWAP2 POP SWAP1 SLOAD SWAP1 PUSH2 0x100 EXP SWAP1 DIV PUSH1 0xFF AND DUP2 JUMP JUMPDEST PUSH1 0x8 DUP2 DUP2 SLOAD DUP2 LT PUSH2 0x22F6 JUMPI PUSH1 0x0 DUP1 REVERT JUMPDEST SWAP1 PUSH1 0x0 MSTORE PUSH1 0x20 PUSH1 0x0 KECCAK256 ADD PUSH1 0x0 SWAP2 POP SWAP1 POP SLOAD DUP2 JUMP JUMPDEST PUSH9 0x3635C9ADC5DEA00000 DUP2 JUMP JUMPDEST PUSH1 0x1 PUSH1 0x0 SWAP1 SLOAD SWAP1 PUSH2 0x100 EXP SWAP1 DIV PUSH20 0xFFFFFFFFFFFFFFFFFFFFFFFFFFFFFFFFFFFFFFFF AND DUP2 JUMP JUMPDEST PUSH3 0x15180 DUP2 JUMP JUMPDEST PUSH1 0x2 PUSH1 0x0 SWAP1 SLOAD SWAP1 PUSH2 0x100 EXP SWAP1 DIV PUSH20 0xFFFFFFFFFFFFFFFFFFFFFFFFFFFFFFFFFFFFFFFF AND DUP2 JUMP JUMPDEST PUSH1 0x3 PUSH1 0x20 MSTORE DUP1 PUSH1 0x0 MSTORE PUSH1 0x40 PUSH1 0x0 KECCAK256 PUSH1 0x0 SWAP2 POP SWAP1 POP DUP1 PUSH1 0x0 ADD PUSH1 0x0 SWAP1 SLOAD SWAP1 PUSH2 0x100 EXP SWAP1 DIV PUSH20 0xFFFFFFFFFFFFFFFFFFFFFFFFFFFFFFFFFFFFFFFF AND SWAP1 DUP1 PUSH1 0x0 ADD PUSH1 0x14 SWAP1 SLOAD SWAP1 PUSH2 0x100 EXP SWAP1 DIV PUSH1 0xFF AND SWAP1 DUP1 PUSH1 0x1 ADD SLOAD SWAP1 DUP1 PUSH1 0x2 ADD SLOAD SWAP1 DUP1 PUSH1 0x3 ADD SLOAD SWAP1 DUP1 PUSH1 0x4 ADD SLOAD SWAP1 DUP1 PUSH1 0x5 ADD SLOAD SWAP1 DUP1 PUSH1 0x6 ADD SLOAD SWAP1 DUP1 PUSH1 0x7 ADD PUSH1 0x0 SWAP1 SLOAD SWAP1 PUSH2 0x100 EXP SWAP1 DIV PUSH1 0xFF AND SWAP1 DUP1 PUSH1 0x7 ADD PUSH1 0x1 SWAP1 SLOAD SWAP1 PUSH2 0x100 EXP SWAP1 DIV PUSH1 0xFF AND SWAP1 DUP1 PUSH1 0x8 ADD SLOAD SWAP1 POP DUP12 JUMP JUMPDEST PUSH1 0x0 DUP2 JUMP JUMPDEST PUSH1 0x7 DUP2 DUP2 SLOAD DUP2 LT PUSH2 0x2420 JUMPI PUSH1 0x0 DUP1 REVERT JUMPDEST SWAP1 PUSH1 0x0 MSTORE PUSH1 0x20 PUSH1 0x0 KECCAK256 ADD PUSH1 0x0 SWAP2 POP SLOAD SWAP1 PUSH2 0x100 EXP SWAP1 DIV PUSH20 0xFFFFFFFFFFFFFFFFFFFFFFFFFFFFFFFFFFFFFFFF AND DUP2 JUMP JUMPDEST PUSH1 0xA DUP2 JUMP JUMPDEST PUSH1 0x3 DUP2 JUMP JUMPDEST PUSH1 0x60 PUSH1 0x0 DUP1 JUMPDEST PUSH1 0x8 DUP1 SLOAD SWAP1 POP DUP2 LT ISZERO PUSH2 0x24FB JUMPI PUSH1 0x0 PUSH1 0x3 DUP2 GT ISZERO PUSH2 0x2480 JUMPI PUSH2 0x247F PUSH2 0x2C4F JUMP JUMPDEST JUMPDEST PUSH1 0x4 PUSH1 0x0 PUSH1 0x8 DUP5 DUP2 SLOAD DUP2 LT PUSH2 0x2498 JUMPI PUSH2 0x2497 PUSH2 0x3EC4 JUMP JUMPDEST JUMPDEST SWAP1 PUSH1 0x0 MSTORE PUSH1 0x20 PUSH1 0x0 KECCAK256 ADD SLOAD DUP2 MSTORE PUSH1 0x20 ADD SWAP1 DUP2 MSTORE PUSH1 0x20 ADD PUSH1 0x0 KECCAK256 PUSH1 0x5 ADD PUSH1 0x0 SWAP1 SLOAD SWAP1 PUSH2 0x100 EXP SWAP1 DIV PUSH1 0xFF AND PUSH1 0x3 DUP2 GT ISZERO PUSH2 0x24D4 JUMPI PUSH2 0x24D3 PUSH2 0x2C4F JUMP JUMPDEST JUMPDEST SUB PUSH2 0x24E8 JUMPI DUP2 DUP1 PUSH2 0x24E4 SWAP1 PUSH2 0x3EF3 JUMP JUMPDEST SWAP3 POP POP JUMPDEST DUP1 DUP1 PUSH2 0x24F3 SWAP1 PUSH2 0x3EF3 JUMP JUMPDEST SWAP2 POP POP PUSH2 0x245F JUMP JUMPDEST POP PUSH1 0x0 DUP2 PUSH8 0xFFFFFFFFFFFFFFFF DUP2 GT ISZERO PUSH2 0x2518 JUMPI PUSH2 0x2517 PUSH2 0x3163 JUMP JUMPDEST JUMPDEST PUSH1 0x40 MLOAD SWAP1 DUP1 DUP3 MSTORE DUP1 PUSH1 0x20 MUL PUSH1 0x20 ADD DUP3 ADD PUSH1 0x40 MSTORE DUP1 ISZERO PUSH2 0x2546 JUMPI DUP2 PUSH1 0x20 ADD PUSH1 0x20 DUP3 MUL DUP1 CALLDATASIZE DUP4 CALLDATACOPY DUP1 DUP3 ADD SWAP2 POP POP SWAP1 POP JUMPDEST POP SWAP1 POP PUSH1 0x0 DUP1 JUMPDEST PUSH1 0x8 DUP1 SLOAD SWAP1 POP DUP2 LT ISZERO PUSH2 0x2627 JUMPI PUSH1 0x0 PUSH1 0x3 DUP2 GT ISZERO PUSH2 0x256E JUMPI PUSH2 0x256D PUSH2 0x2C4F JUMP JUMPDEST JUMPDEST PUSH1 0x4 PUSH1 0x0 PUSH1 0x8 DUP5 DUP2 SLOAD DUP2 LT PUSH2 0x2586 JUMPI PUSH2 0x2585 PUSH2 0x3EC4 JUMP JUMPDEST JUMPDEST SWAP1 PUSH1 0x0 MSTORE PUSH1 0x20 PUSH1 0x0 KECCAK256 ADD SLOAD DUP2 MSTORE PUSH1 0x20 ADD SWAP1 DUP2 MSTORE PUSH1 0x20 ADD PUSH1 0x0 KECCAK256 PUSH1 0x5 ADD PUSH1 0x0 SWAP1 SLOAD SWAP1 PUSH2 0x100 EXP SWAP1 DIV PUSH1 0xFF AND PUSH1 0x3 DUP2 GT ISZERO PUSH2 0x25C2 JUMPI PUSH2 0x25C1 PUSH2 0x2C4F JUMP JUMPDEST JUMPDEST SUB PUSH2 0x2614 JUMPI PUSH1 0x8 DUP2 DUP2 SLOAD DUP2 LT PUSH2 0x25DB JUMPI PUSH2 0x25DA PUSH2 0x3EC4 JUMP JUMPDEST JUMPDEST SWAP1 PUSH1 0x0 MSTORE PUSH1 0x20 PUSH1 0x0 KECCAK256 ADD SLOAD DUP4 DUP4 DUP2 MLOAD DUP2 LT PUSH2 0x25F9 JUMPI PUSH2 0x25F8 PUSH2 0x3EC4 JUMP JUMPDEST JUMPDEST PUSH1 0x20 MUL PUSH1 0x20 ADD ADD DUP2 DUP2 MSTORE POP POP DUP2 DUP1 PUSH2 0x2610 SWAP1 PUSH2 0x3EF3 JUMP JUMPDEST SWAP3 POP POP JUMPDEST DUP1 DUP1 PUSH2 0x261F SWAP1 PUSH2 0x3EF3 JUMP JUMPDEST SWAP2 POP POP PUSH2 0x254D JUMP JUMPDEST POP DUP2 SWAP4 POP POP POP POP SWAP1 JUMP JUMPDEST PUSH2 0x2639 PUSH2 0x26BC JUMP JUMPDEST PUSH1 0x0 PUSH20 0xFFFFFFFFFFFFFFFFFFFFFFFFFFFFFFFFFFFFFFFF AND DUP2 PUSH20 0xFFFFFFFFFFFFFFFFFFFFFFFFFFFFFFFFFFFFFFFF AND SUB PUSH2 0x26AB JUMPI PUSH1 0x0 PUSH1 0x40 MLOAD PUSH32 0x1E4FBDF700000000000000000000000000000000000000000000000000000000 DUP2 MSTORE PUSH1 0x4 ADD PUSH2 0x26A2 SWAP2 SWAP1 PUSH2 0x3398 JUMP JUMPDEST PUSH1 0x40 MLOAD DUP1 SWAP2 SUB SWAP1 REVERT JUMPDEST PUSH2 0x26B4 DUP2 PUSH2 0x29D0 JUMP JUMPDEST POP JUMP JUMPDEST PUSH1 0x5 DUP2 JUMP JUMPDEST PUSH2 0x26C4 PUSH2 0x2A94 JUMP JUMPDEST PUSH20 0xFFFFFFFFFFFFFFFFFFFFFFFFFFFFFFFFFFFFFFFF AND PUSH2 0x26E2 PUSH2 0x18D0 JUMP JUMPDEST PUSH20 0xFFFFFFFFFFFFFFFFFFFFFFFFFFFFFFFFFFFFFFFF AND EQ PUSH2 0x2741 JUMPI PUSH2 0x2705 PUSH2 0x2A94 JUMP JUMPDEST PUSH1 0x40 MLOAD PUSH32 0x118CDAA700000000000000000000000000000000000000000000000000000000 DUP2 MSTORE PUSH1 0x4 ADD PUSH2 0x2738 SWAP2 SWAP1 PUSH2 0x3398 JUMP JUMPDEST PUSH1 0x40 MLOAD DUP1 SWAP2 SUB SWAP1 REVERT JUMPDEST JUMP JUMPDEST PUSH1 0x0 DUP1 JUMPDEST DUP3 MLOAD DUP2 LT ISZERO PUSH2 0x27B9 JUMPI DUP4 ISZERO ISZERO DUP4 DUP3 DUP2 MLOAD DUP2 LT PUSH2 0x2766 JUMPI PUSH2 0x2765 PUSH2 0x3EC4 JUMP JUMPDEST JUMPDEST PUSH1 0x20 MUL PUSH1 0x20 ADD ADD MLOAD PUSH1 0x40 ADD MLOAD ISZERO ISZERO SUB PUSH2 0x27A6 JUMPI DUP3 DUP2 DUP2 MLOAD DUP2 LT PUSH2 0x278C JUMPI PUSH2 0x278B PUSH2 0x3EC4 JUMP JUMPDEST JUMPDEST PUSH1 0x20 MUL PUSH1 0x20 ADD ADD MLOAD PUSH1 0x60 ADD MLOAD DUP3 PUSH2 0x27A3 SWAP2 SWAP1 PUSH2 0x3A94 JUMP JUMPDEST SWAP2 POP JUMPDEST DUP1 DUP1 PUSH2 0x27B1 SWAP1 PUSH2 0x3EF3 JUMP JUMPDEST SWAP2 POP POP PUSH2 0x2747 JUMP JUMPDEST POP PUSH1 0x0 DUP2 SUB PUSH2 0x27C8 JUMPI POP PUSH2 0x29CB JUMP JUMPDEST PUSH1 0x0 JUMPDEST DUP3 MLOAD DUP2 LT ISZERO PUSH2 0x29C8 JUMPI PUSH1 0x0 DUP4 DUP3 DUP2 MLOAD DUP2 LT PUSH2 0x27E9 JUMPI PUSH2 0x27E8 PUSH2 0x3EC4 JUMP JUMPDEST JUMPDEST PUSH1 0x20 MUL PUSH1 0x20 ADD ADD MLOAD PUSH1 0x0 ADD MLOAD SWAP1 POP DUP5 ISZERO ISZERO DUP5 DUP4 DUP2 MLOAD DUP2 LT PUSH2 0x280D JUMPI PUSH2 0x280C PUSH2 0x3EC4 JUMP JUMPDEST JUMPDEST PUSH1 0x20 MUL PUSH1 0x20 ADD ADD MLOAD PUSH1 0x40 ADD MLOAD ISZERO ISZERO SUB PUSH2 0x29AB JUMPI PUSH1 0x0 DUP4 DUP6 DUP5 DUP2 MLOAD DUP2 LT PUSH2 0x2836 JUMPI PUSH2 0x2835 PUSH2 0x3EC4 JUMP JUMPDEST JUMPDEST PUSH1 0x20 MUL PUSH1 0x20 ADD ADD MLOAD PUSH1 0x60 ADD MLOAD PUSH9 0x3635C9ADC5DEA00000 PUSH2 0x2856 SWAP2 SWAP1 PUSH2 0x3FFF JUMP JUMPDEST PUSH2 0x2860 SWAP2 SWAP1 PUSH2 0x4070 JUMP JUMPDEST SWAP1 POP PUSH1 0x1 PUSH1 0x0 SWAP1 SLOAD SWAP1 PUSH2 0x100 EXP SWAP1 DIV PUSH20 0xFFFFFFFFFFFFFFFFFFFFFFFFFFFFFFFFFFFFFFFF AND PUSH20 0xFFFFFFFFFFFFFFFFFFFFFFFFFFFFFFFFFFFFFFFF AND PUSH4 0xA9059CBB DUP4 DUP4 PUSH1 0x40 MLOAD DUP4 PUSH4 0xFFFFFFFF AND PUSH1 0xE0 SHL DUP2 MSTORE PUSH1 0x4 ADD PUSH2 0x28BF SWAP3 SWAP2 SWAP1 PUSH2 0x3D57 JUMP JUMPDEST PUSH1 0x20 PUSH1 0x40 MLOAD DUP1 DUP4 SUB DUP2 PUSH1 0x0 DUP8 GAS CALL ISZERO DUP1 ISZERO PUSH2 0x28DE JUMPI RETURNDATASIZE PUSH1 0x0 DUP1 RETURNDATACOPY RETURNDATASIZE PUSH1 0x0 REVERT JUMPDEST POP POP POP POP PUSH1 0x40 MLOAD RETURNDATASIZE PUSH1 0x1F NOT PUSH1 0x1F DUP3 ADD AND DUP3 ADD DUP1 PUSH1 0x40 MSTORE POP DUP2 ADD SWAP1 PUSH2 0x2902 SWAP2 SWAP1 PUSH2 0x3873 JUMP JUMPDEST POP PUSH1 0x3 PUSH1 0x0 DUP4 PUSH20 0xFFFFFFFFFFFFFFFFFFFFFFFFFFFFFFFFFFFFFFFF AND PUSH20 0xFFFFFFFFFFFFFFFFFFFFFFFFFFFFFFFFFFFFFFFF AND DUP2 MSTORE PUSH1 0x20 ADD SWAP1 DUP2 MSTORE PUSH1 0x20 ADD PUSH1 0x0 KECCAK256 PUSH1 0x4 ADD PUSH1 0x0 DUP2 SLOAD DUP1 SWAP3 SWAP2 SWAP1 PUSH2 0x2956 SWAP1 PUSH2 0x3EF3 JUMP JUMPDEST SWAP2 SWAP1 POP SSTORE POP DUP2 PUSH20 0xFFFFFFFFFFFFFFFFFFFFFFFFFFFFFFFFFFFFFFFF AND PUSH32 0xE34918FF1C7084970068B53FD71AD6D8B04E9F15D3886CBF006443E6CDC52EA6 DUP3 PUSH1 0x40 MLOAD PUSH2 0x29A1 SWAP2 SWAP1 PUSH2 0x2EEE JUMP JUMPDEST PUSH1 0x40 MLOAD DUP1 SWAP2 SUB SWAP1 LOG2 POP JUMPDEST PUSH2 0x29B4 DUP2 PUSH2 0x2A9C JUMP JUMPDEST POP DUP1 DUP1 PUSH2 0x29C0 SWAP1 PUSH2 0x3EF3 JUMP JUMPDEST SWAP2 POP POP PUSH2 0x27CB JUMP JUMPDEST POP POP JUMPDEST POP POP POP JUMP JUMPDEST PUSH1 0x0 DUP1 PUSH1 0x0 SWAP1 SLOAD SWAP1 PUSH2 0x100 EXP SWAP1 DIV PUSH20 0xFFFFFFFFFFFFFFFFFFFFFFFFFFFFFFFFFFFFFFFF AND SWAP1 POP DUP2 PUSH1 0x0 DUP1 PUSH2 0x100 EXP DUP2 SLOAD DUP2 PUSH20 0xFFFFFFFFFFFFFFFFFFFFFFFFFFFFFFFFFFFFFFFF MUL NOT AND SWAP1 DUP4 PUSH20 0xFFFFFFFFFFFFFFFFFFFFFFFFFFFFFFFFFFFFFFFF AND MUL OR SWAP1 SSTORE POP DUP2 PUSH20 0xFFFFFFFFFFFFFFFFFFFFFFFFFFFFFFFFFFFFFFFF AND DUP2 PUSH20 0xFFFFFFFFFFFFFFFFFFFFFFFFFFFFFFFFFFFFFFFF AND PUSH32 0x8BE0079C531659141344CD1FD0A4F28419497F9722A3DAAFE3B4186F6B6457E0 PUSH1 0x40 MLOAD PUSH1 0x40 MLOAD DUP1 SWAP2 SUB SWAP1 LOG3 POP POP JUMP JUMPDEST PUSH1 0x0 CALLER SWAP1 POP SWAP1 JUMP JUMPDEST PUSH1 0x0 PUSH1 0x3 PUSH1 0x0 DUP4 PUSH20 0xFFFFFFFFFFFFFFFFFFFFFFFFFFFFFFFFFFFFFFFF AND PUSH20 0xFFFFFFFFFFFFFFFFFFFFFFFFFFFFFFFFFFFFFFFF AND DUP2 MSTORE PUSH1 0x20 ADD SWAP1 DUP2 MSTORE PUSH1 0x20 ADD PUSH1 0x0 KECCAK256 SWAP1 POP PUSH1 0x0 DUP2 PUSH1 0x3 ADD SLOAD GT ISZERO PUSH2 0x2B67 JUMPI DUP1 PUSH1 0x3 ADD SLOAD PUSH1 0x64 DUP3 PUSH1 0x4 ADD SLOAD PUSH2 0x2B02 SWAP2 SWAP1 PUSH2 0x3FFF JUMP JUMPDEST PUSH2 0x2B0C SWAP2 SWAP1 PUSH2 0x4070 JUMP JUMPDEST DUP2 PUSH1 0x2 ADD DUP2 SWAP1 SSTORE POP DUP2 PUSH20 0xFFFFFFFFFFFFFFFFFFFFFFFFFFFFFFFFFFFFFFFF AND PUSH32 0x16D0848E499FA9FD0F755C0563C69A05617A0663A704DABD1933F6F75FA3F219 DUP3 PUSH1 0x2 ADD SLOAD PUSH1 0x40 MLOAD PUSH2 0x2B5E SWAP2 SWAP1 PUSH2 0x2EEE JUMP JUMPDEST PUSH1 0x40 MLOAD DUP1 SWAP2 SUB SWAP1 LOG2 JUMPDEST POP POP JUMP JUMPDEST PUSH1 0x0 PUSH1 0x40 MLOAD SWAP1 POP SWAP1 JUMP JUMPDEST PUSH1 0x0 DUP1 REVERT JUMPDEST PUSH1 0x0 DUP1 REVERT JUMPDEST PUSH1 0x0 DUP2 SWAP1 POP SWAP2 SWAP1 POP JUMP JUMPDEST PUSH2 0x2B92 DUP2 PUSH2 0x2B7F JUMP JUMPDEST DUP2 EQ PUSH2 0x2B9D JUMPI PUSH1 0x0 DUP1 REVERT JUMPDEST POP JUMP JUMPDEST PUSH1 0x0 DUP2 CALLDATALOAD SWAP1 POP PUSH2 0x2BAF DUP2 PUSH2 0x2B89 JUMP JUMPDEST SWAP3 SWAP2 POP POP JUMP JUMPDEST PUSH1 0x0 PUSH1 0x20 DUP3 DUP5 SUB SLT ISZERO PUSH2 0x2BCB JUMPI PUSH2 0x2BCA PUSH2 0x2B75 JUMP JUMPDEST JUMPDEST PUSH1 0x0 PUSH2 0x2BD9 DUP5 DUP3 DUP6 ADD PUSH2 0x2BA0 JUMP JUMPDEST SWAP2 POP POP SWAP3 SWAP2 POP POP JUMP JUMPDEST PUSH1 0x0 DUP2 MLOAD SWAP1 POP SWAP2 SWAP1 POP JUMP JUMPDEST PUSH1 0x0 DUP3 DUP3 MSTORE PUSH1 0x20 DUP3 ADD SWAP1 POP SWAP3 SWAP2 POP POP JUMP JUMPDEST PUSH1 0x0 DUP2 SWAP1 POP PUSH1 0x20 DUP3 ADD SWAP1 POP SWAP2 SWAP1 POP JUMP JUMPDEST PUSH1 0x0 PUSH20 0xFFFFFFFFFFFFFFFFFFFFFFFFFFFFFFFFFFFFFFFF DUP3 AND SWAP1 POP SWAP2 SWAP1 POP JUMP JUMPDEST PUSH1 0x0 PUSH2 0x2C39 DUP3 PUSH2 0x2C0E JUMP JUMPDEST SWAP1 POP SWAP2 SWAP1 POP JUMP JUMPDEST PUSH2 0x2C49 DUP2 PUSH2 0x2C2E JUMP JUMPDEST DUP3 MSTORE POP POP JUMP JUMPDEST PUSH32 0x4E487B7100000000000000000000000000000000000000000000000000000000 PUSH1 0x0 MSTORE PUSH1 0x21 PUSH1 0x4 MSTORE PUSH1 0x24 PUSH1 0x0 REVERT JUMPDEST PUSH1 0x3 DUP2 LT PUSH2 0x2C8F JUMPI PUSH2 0x2C8E PUSH2 0x2C4F JUMP JUMPDEST JUMPDEST POP JUMP JUMPDEST PUSH1 0x0 DUP2 SWAP1 POP PUSH2 0x2CA0 DUP3 PUSH2 0x2C7E JUMP JUMPDEST SWAP2 SWAP1 POP JUMP JUMPDEST PUSH1 0x0 PUSH2 0x2CB0 DUP3 PUSH2 0x2C92 JUMP JUMPDEST SWAP1 POP SWAP2 SWAP1 POP JUMP JUMPDEST PUSH2 0x2CC0 DUP2 PUSH2 0x2CA5 JUMP JUMPDEST DUP3 MSTORE POP POP JUMP JUMPDEST PUSH1 0x0 DUP2 ISZERO ISZERO SWAP1 POP SWAP2 SWAP1 POP JUMP JUMPDEST PUSH2 0x2CDB DUP2 PUSH2 0x2CC6 JUMP JUMPDEST DUP3 MSTORE POP POP JUMP JUMPDEST PUSH1 0x0 DUP2 SWAP1 POP SWAP2 SWAP1 POP JUMP JUMPDEST PUSH2 0x2CF4 DUP2 PUSH2 0x2CE1 JUMP JUMPDEST DUP3 MSTORE POP POP JUMP JUMPDEST PUSH1 0xA0 DUP3 ADD PUSH1 0x0 DUP3 ADD MLOAD PUSH2 0x2D10 PUSH1 0x0 DUP6 ADD DUP3 PUSH2 0x2C40 JUMP JUMPDEST POP PUSH1 0x20 DUP3 ADD MLOAD PUSH2 0x2D23 PUSH1 0x20 DUP6 ADD DUP3 PUSH2 0x2CB7 JUMP JUMPDEST POP PUSH1 0x40 DUP3 ADD MLOAD PUSH2 0x2D36 PUSH1 0x40 DUP6 ADD DUP3 PUSH2 0x2CD2 JUMP JUMPDEST POP PUSH1 0x60 DUP3 ADD MLOAD PUSH2 0x2D49 PUSH1 0x60 DUP6 ADD DUP3 PUSH2 0x2CEB JUMP JUMPDEST POP PUSH1 0x80 DUP3 ADD MLOAD PUSH2 0x2D5C PUSH1 0x80 DUP6 ADD DUP3 PUSH2 0x2CEB JUMP JUMPDEST POP POP POP POP JUMP JUMPDEST PUSH1 0x0 PUSH2 0x2D6E DUP4 DUP4 PUSH2 0x2CFA JUMP JUMPDEST PUSH1 0xA0 DUP4 ADD SWAP1 POP SWAP3 SWAP2 POP POP JUMP JUMPDEST PUSH1 0x0 PUSH1 0x20 DUP3 ADD SWAP1 POP SWAP2 SWAP1 POP JUMP JUMPDEST PUSH1 0x0 PUSH2 0x2D92 DUP3 PUSH2 0x2BE2 JUMP JUMPDEST PUSH2 0x2D9C DUP2 DUP6 PUSH2 0x2BED JUMP JUMPDEST SWAP4 POP PUSH2 0x2DA7 DUP4 PUSH2 0x2BFE JUMP JUMPDEST DUP1 PUSH1 0x0 JUMPDEST DUP4 DUP2 LT ISZERO PUSH2 0x2DD8 JUMPI DUP2 MLOAD PUSH2 0x2DBF DUP9 DUP3 PUSH2 0x2D62 JUMP JUMPDEST SWAP8 POP PUSH2 0x2DCA DUP4 PUSH2 0x2D7A JUMP JUMPDEST SWAP3 POP POP PUSH1 0x1 DUP2 ADD SWAP1 POP PUSH2 0x2DAB JUMP JUMPDEST POP DUP6 SWAP4 POP POP POP POP SWAP3 SWAP2 POP POP JUMP JUMPDEST PUSH1 0x0 PUSH1 0x20 DUP3 ADD SWAP1 POP DUP2 DUP2 SUB PUSH1 0x0 DUP4 ADD MSTORE PUSH2 0x2DFF DUP2 DUP5 PUSH2 0x2D87 JUMP JUMPDEST SWAP1 POP SWAP3 SWAP2 POP POP JUMP JUMPDEST PUSH2 0x2E10 DUP2 PUSH2 0x2C2E JUMP JUMPDEST DUP2 EQ PUSH2 0x2E1B JUMPI PUSH1 0x0 DUP1 REVERT JUMPDEST POP JUMP JUMPDEST PUSH1 0x0 DUP2 CALLDATALOAD SWAP1 POP PUSH2 0x2E2D DUP2 PUSH2 0x2E07 JUMP JUMPDEST SWAP3 SWAP2 POP POP JUMP JUMPDEST PUSH1 0x0 PUSH1 0x20 DUP3 DUP5 SUB SLT ISZERO PUSH2 0x2E49 JUMPI PUSH2 0x2E48 PUSH2 0x2B75 JUMP JUMPDEST JUMPDEST PUSH1 0x0 PUSH2 0x2E57 DUP5 DUP3 DUP6 ADD PUSH2 0x2E1E JUMP JUMPDEST SWAP2 POP POP SWAP3 SWAP2 POP POP JUMP JUMPDEST PUSH2 0x2E69 DUP2 PUSH2 0x2CA5 JUMP JUMPDEST DUP3 MSTORE POP POP JUMP JUMPDEST PUSH2 0x2E78 DUP2 PUSH2 0x2CE1 JUMP JUMPDEST DUP3 MSTORE POP POP JUMP JUMPDEST PUSH2 0x2E87 DUP2 PUSH2 0x2CC6 JUMP JUMPDEST DUP3 MSTORE POP POP JUMP JUMPDEST PUSH1 0x0 PUSH1 0xC0 DUP3 ADD SWAP1 POP PUSH2 0x2EA2 PUSH1 0x0 DUP4 ADD DUP10 PUSH2 0x2E60 JUMP JUMPDEST PUSH2 0x2EAF PUSH1 0x20 DUP4 ADD DUP9 PUSH2 0x2E6F JUMP JUMPDEST PUSH2 0x2EBC PUSH1 0x40 DUP4 ADD DUP8 PUSH2 0x2E6F JUMP JUMPDEST PUSH2 0x2EC9 PUSH1 0x60 DUP4 ADD DUP7 PUSH2 0x2E6F JUMP JUMPDEST PUSH2 0x2ED6 PUSH1 0x80 DUP4 ADD DUP6 PUSH2 0x2E6F JUMP JUMPDEST PUSH2 0x2EE3 PUSH1 0xA0 DUP4 ADD DUP5 PUSH2 0x2E7E JUMP JUMPDEST SWAP8 SWAP7 POP POP POP POP POP POP POP JUMP JUMPDEST PUSH1 0x0 PUSH1 0x20 DUP3 ADD SWAP1 POP PUSH2 0x2F03 PUSH1 0x0 DUP4 ADD DUP5 PUSH2 0x2E6F JUMP JUMPDEST SWAP3 SWAP2 POP POP JUMP JUMPDEST PUSH2 0x2F12 DUP2 PUSH2 0x2CE1 JUMP JUMPDEST DUP2 EQ PUSH2 0x2F1D JUMPI PUSH1 0x0 DUP1 REVERT JUMPDEST POP JUMP JUMPDEST PUSH1 0x0 DUP2 CALLDATALOAD SWAP1 POP PUSH2 0x2F2F DUP2 PUSH2 0x2F09 JUMP JUMPDEST SWAP3 SWAP2 POP POP JUMP JUMPDEST PUSH1 0x0 PUSH1 0x20 DUP3 DUP5 SUB SLT ISZERO PUSH2 0x2F4B JUMPI PUSH2 0x2F4A PUSH2 0x2B75 JUMP JUMPDEST JUMPDEST PUSH1 0x0 PUSH2 0x2F59 DUP5 DUP3 DUP6 ADD PUSH2 0x2F20 JUMP JUMPDEST SWAP2 POP POP SWAP3 SWAP2 POP POP JUMP JUMPDEST PUSH2 0x2F6B DUP2 PUSH2 0x2B7F JUMP JUMPDEST DUP3 MSTORE POP POP JUMP JUMPDEST PUSH1 0x7 DUP2 LT PUSH2 0x2F82 JUMPI PUSH2 0x2F81 PUSH2 0x2C4F JUMP JUMPDEST JUMPDEST POP JUMP JUMPDEST PUSH1 0x0 DUP2 SWAP1 POP PUSH2 0x2F93 DUP3 PUSH2 0x2F71 JUMP JUMPDEST SWAP2 SWAP1 POP JUMP JUMPDEST PUSH1 0x0 PUSH2 0x2FA3 DUP3 PUSH2 0x2F85 JUMP JUMPDEST SWAP1 POP SWAP2 SWAP1 POP JUMP JUMPDEST PUSH2 0x2FB3 DUP2 PUSH2 0x2F98 JUMP JUMPDEST DUP3 MSTORE POP POP JUMP JUMPDEST PUSH2 0x2FC2 DUP2 PUSH2 0x2C2E JUMP JUMPDEST DUP3 MSTORE POP POP JUMP JUMPDEST PUSH1 0x0 DUP2 MLOAD SWAP1 POP SWAP2 SWAP1 POP JUMP JUMPDEST PUSH1 0x0 DUP3 DUP3 MSTORE PUSH1 0x20 DUP3 ADD SWAP1 POP SWAP3 SWAP2 POP POP JUMP JUMPDEST PUSH1 0x0 JUMPDEST DUP4 DUP2 LT ISZERO PUSH2 0x3002 JUMPI DUP1 DUP3 ADD MLOAD DUP2 DUP5 ADD MSTORE PUSH1 0x20 DUP2 ADD SWAP1 POP PUSH2 0x2FE7 JUMP JUMPDEST PUSH1 0x0 DUP5 DUP5 ADD MSTORE POP POP POP POP JUMP JUMPDEST PUSH1 0x0 PUSH1 0x1F NOT PUSH1 0x1F DUP4 ADD AND SWAP1 POP SWAP2 SWAP1 POP JUMP JUMPDEST PUSH1 0x0 PUSH2 0x302A DUP3 PUSH2 0x2FC8 JUMP JUMPDEST PUSH2 0x3034 DUP2 DUP6 PUSH2 0x2FD3 JUMP JUMPDEST SWAP4 POP PUSH2 0x3044 DUP2 DUP6 PUSH1 0x20 DUP7 ADD PUSH2 0x2FE4 JUMP JUMPDEST PUSH2 0x304D DUP2 PUSH2 0x300E JUMP JUMPDEST DUP5 ADD SWAP2 POP POP SWAP3 SWAP2 POP POP JUMP JUMPDEST PUSH1 0x4 DUP2 LT PUSH2 0x3069 JUMPI PUSH2 0x3068 PUSH2 0x2C4F JUMP JUMPDEST JUMPDEST POP JUMP JUMPDEST PUSH1 0x0 DUP2 SWAP1 POP PUSH2 0x307A DUP3 PUSH2 0x3058 JUMP JUMPDEST SWAP2 SWAP1 POP JUMP JUMPDEST PUSH1 0x0 PUSH2 0x308A DUP3 PUSH2 0x306C JUMP JUMPDEST SWAP1 POP SWAP2 SWAP1 POP JUMP JUMPDEST PUSH2 0x309A DUP2 PUSH2 0x307F JUMP JUMPDEST DUP3 MSTORE POP POP JUMP JUMPDEST PUSH1 0x0 PUSH2 0x120 DUP3 ADD SWAP1 POP PUSH2 0x30B6 PUSH1 0x0 DUP4 ADD DUP13 PUSH2 0x2F62 JUMP JUMPDEST PUSH2 0x30C3 PUSH1 0x20 DUP4 ADD DUP12 PUSH2 0x2FAA JUMP JUMPDEST PUSH2 0x30D0 PUSH1 0x40 DUP4 ADD DUP11 PUSH2 0x2FB9 JUMP JUMPDEST DUP2 DUP2 SUB PUSH1 0x60 DUP4 ADD MSTORE PUSH2 0x30E2 DUP2 DUP10 PUSH2 0x301F JUMP JUMPDEST SWAP1 POP PUSH2 0x30F1 PUSH1 0x80 DUP4 ADD DUP9 PUSH2 0x2E6F JUMP JUMPDEST PUSH2 0x30FE PUSH1 0xA0 DUP4 ADD DUP8 PUSH2 0x2E6F JUMP JUMPDEST PUSH2 0x310B PUSH1 0xC0 DUP4 ADD DUP7 PUSH2 0x3091 JUMP JUMPDEST PUSH2 0x3118 PUSH1 0xE0 DUP4 ADD DUP6 PUSH2 0x2E7E JUMP JUMPDEST PUSH2 0x3126 PUSH2 0x100 DUP4 ADD DUP5 PUSH2 0x2E6F JUMP JUMPDEST SWAP11 SWAP10 POP POP POP POP POP POP POP POP POP POP JUMP JUMPDEST PUSH1 0x7 DUP2 LT PUSH2 0x3141 JUMPI PUSH1 0x0 DUP1 REVERT JUMPDEST POP JUMP JUMPDEST PUSH1 0x0 DUP2 CALLDATALOAD SWAP1 POP PUSH2 0x3153 DUP2 PUSH2 0x3134 JUMP JUMPDEST SWAP3 SWAP2 POP POP JUMP JUMPDEST PUSH1 0x0 DUP1 REVERT JUMPDEST PUSH1 0x0 DUP1 REVERT JUMPDEST PUSH32 0x4E487B7100000000000000000000000000000000000000000000000000000000 PUSH1 0x0 MSTORE PUSH1 0x41 PUSH1 0x4 MSTORE PUSH1 0x24 PUSH1 0x0 REVERT JUMPDEST PUSH2 0x319B DUP3 PUSH2 0x300E JUMP JUMPDEST DUP2 ADD DUP2 DUP2 LT PUSH8 0xFFFFFFFFFFFFFFFF DUP3 GT OR ISZERO PUSH2 0x31BA JUMPI PUSH2 0x31B9 PUSH2 0x3163 JUMP JUMPDEST JUMPDEST DUP1 PUSH1 0x40 MSTORE POP POP POP JUMP JUMPDEST PUSH1 0x0 PUSH2 0x31CD PUSH2 0x2B6B JUMP JUMPDEST SWAP1 POP PUSH2 0x31D9 DUP3 DUP3 PUSH2 0x3192 JUMP JUMPDEST SWAP2 SWAP1 POP JUMP JUMPDEST PUSH1 0x0 PUSH8 0xFFFFFFFFFFFFFFFF DUP3 GT ISZERO PUSH2 0x31F9 JUMPI PUSH2 0x31F8 PUSH2 0x3163 JUMP JUMPDEST JUMPDEST PUSH2 0x3202 DUP3 PUSH2 0x300E JUMP JUMPDEST SWAP1 POP PUSH1 0x20 DUP2 ADD SWAP1 POP SWAP2 SWAP1 POP JUMP JUMPDEST DUP3 DUP2 DUP4 CALLDATACOPY PUSH1 0x0 DUP4 DUP4 ADD MSTORE POP POP POP JUMP JUMPDEST PUSH1 0x0 PUSH2 0x3231 PUSH2 0x322C DUP5 PUSH2 0x31DE JUMP JUMPDEST PUSH2 0x31C3 JUMP JUMPDEST SWAP1 POP DUP3 DUP2 MSTORE PUSH1 0x20 DUP2 ADD DUP5 DUP5 DUP5 ADD GT ISZERO PUSH2 0x324D JUMPI PUSH2 0x324C PUSH2 0x315E JUMP JUMPDEST JUMPDEST PUSH2 0x3258 DUP5 DUP3 DUP6 PUSH2 0x320F JUMP JUMPDEST POP SWAP4 SWAP3 POP POP POP JUMP JUMPDEST PUSH1 0x0 DUP3 PUSH1 0x1F DUP4 ADD SLT PUSH2 0x3275 JUMPI PUSH2 0x3274 PUSH2 0x3159 JUMP JUMPDEST JUMPDEST DUP2 CALLDATALOAD PUSH2 0x3285 DUP5 DUP3 PUSH1 0x20 DUP7 ADD PUSH2 0x321E JUMP JUMPDEST SWAP2 POP POP SWAP3 SWAP2 POP POP JUMP JUMPDEST PUSH1 0x0 DUP1 PUSH1 0x40 DUP4 DUP6 SUB SLT ISZERO PUSH2 0x32A5 JUMPI PUSH2 0x32A4 PUSH2 0x2B75 JUMP JUMPDEST JUMPDEST PUSH1 0x0 PUSH2 0x32B3 DUP6 DUP3 DUP7 ADD PUSH2 0x3144 JUMP JUMPDEST SWAP3 POP POP PUSH1 0x20 DUP4 ADD CALLDATALOAD PUSH8 0xFFFFFFFFFFFFFFFF DUP2 GT ISZERO PUSH2 0x32D4 JUMPI PUSH2 0x32D3 PUSH2 0x2B7A JUMP JUMPDEST JUMPDEST PUSH2 0x32E0 DUP6 DUP3 DUP7 ADD PUSH2 0x3260 JUMP JUMPDEST SWAP2 POP POP SWAP3 POP SWAP3 SWAP1 POP JUMP JUMPDEST PUSH1 0x0 PUSH1 0x20 DUP3 ADD SWAP1 POP PUSH2 0x32FF PUSH1 0x0 DUP4 ADD DUP5 PUSH2 0x2F62 JUMP JUMPDEST SWAP3 SWAP2 POP POP JUMP JUMPDEST PUSH1 0x0 DUP1 PUSH1 0x40 DUP4 DUP6 SUB SLT ISZERO PUSH2 0x331C JUMPI PUSH2 0x331B PUSH2 0x2B75 JUMP JUMPDEST JUMPDEST PUSH1 0x0 PUSH2 0x332A DUP6 DUP3 DUP7 ADD PUSH2 0x2BA0 JUMP JUMPDEST SWAP3 POP POP PUSH1 0x20 PUSH2 0x333B DUP6 DUP3 DUP7 ADD PUSH2 0x2F20 JUMP JUMPDEST SWAP2 POP POP SWAP3 POP SWAP3 SWAP1 POP JUMP JUMPDEST PUSH1 0x0 PUSH1 0xA0 DUP3 ADD SWAP1 POP PUSH2 0x335A PUSH1 0x0 DUP4 ADD DUP9 PUSH2 0x2FB9 JUMP JUMPDEST PUSH2 0x3367 PUSH1 0x20 DUP4 ADD DUP8 PUSH2 0x2E60 JUMP JUMPDEST PUSH2 0x3374 PUSH1 0x40 DUP4 ADD DUP7 PUSH2 0x2E7E JUMP JUMPDEST PUSH2 0x3381 PUSH1 0x60 DUP4 ADD DUP6 PUSH2 0x2E6F JUMP JUMPDEST PUSH2 0x338E PUSH1 0x80 DUP4 ADD DUP5 PUSH2 0x2E6F JUMP JUMPDEST SWAP7 SWAP6 POP POP POP POP POP POP JUMP JUMPDEST PUSH1 0x0 PUSH1 0x20 DUP3 ADD SWAP1 POP PUSH2 0x33AD PUSH1 0x0 DUP4 ADD DUP5 PUSH2 0x2FB9 JUMP JUMPDEST SWAP3 SWAP2 POP POP JUMP JUMPDEST PUSH2 0x33BC DUP2 PUSH2 0x2CC6 JUMP JUMPDEST DUP2 EQ PUSH2 0x33C7 JUMPI PUSH1 0x0 DUP1 REVERT JUMPDEST POP JUMP JUMPDEST PUSH1 0x0 DUP2 CALLDATALOAD SWAP1 POP PUSH2 0x33D9 DUP2 PUSH2 0x33B3 JUMP JUMPDEST SWAP3 SWAP2 POP POP JUMP JUMPDEST PUSH1 0x0 DUP1 PUSH1 0x40 DUP4 DUP6 SUB SLT ISZERO PUSH2 0x33F6 JUMPI PUSH2 0x33F5 PUSH2 0x2B75 JUMP JUMPDEST JUMPDEST PUSH1 0x0 PUSH2 0x3404 DUP6 DUP3 DUP7 ADD PUSH2 0x2BA0 JUMP JUMPDEST SWAP3 POP POP PUSH1 0x20 PUSH2 0x3415 DUP6 DUP3 DUP7 ADD PUSH2 0x33CA JUMP JUMPDEST SWAP2 POP POP SWAP3 POP SWAP3 SWAP1 POP JUMP JUMPDEST PUSH1 0x3 DUP2 LT PUSH2 0x342C JUMPI PUSH1 0x0 DUP1 REVERT JUMPDEST POP JUMP JUMPDEST PUSH1 0x0 DUP2 CALLDATALOAD SWAP1 POP PUSH2 0x343E DUP2 PUSH2 0x341F JUMP JUMPDEST SWAP3 SWAP2 POP POP JUMP JUMPDEST PUSH1 0x0 PUSH1 0x20 DUP3 DUP5 SUB SLT ISZERO PUSH2 0x345A JUMPI PUSH2 0x3459 PUSH2 0x2B75 JUMP JUMPDEST JUMPDEST PUSH1 0x0 PUSH2 0x3468 DUP5 DUP3 DUP6 ADD PUSH2 0x342F JUMP JUMPDEST SWAP2 POP POP SWAP3 SWAP2 POP POP JUMP JUMPDEST PUSH1 0x0 DUP1 PUSH1 0x40 DUP4 DUP6 SUB SLT ISZERO PUSH2 0x3488 JUMPI PUSH2 0x3487 PUSH2 0x2B75 JUMP JUMPDEST JUMPDEST PUSH1 0x0 PUSH2 0x3496 DUP6 DUP3 DUP7 ADD PUSH2 0x2BA0 JUMP JUMPDEST SWAP3 POP POP PUSH1 0x20 PUSH2 0x34A7 DUP6 DUP3 DUP7 ADD PUSH2 0x2E1E JUMP JUMPDEST SWAP2 POP POP SWAP3 POP SWAP3 SWAP1 POP JUMP JUMPDEST PUSH1 0x0 PUSH1 0x20 DUP3 ADD SWAP1 POP PUSH2 0x34C6 PUSH1 0x0 DUP4 ADD DUP5 PUSH2 0x2E7E JUMP JUMPDEST SWAP3 SWAP2 POP POP JUMP JUMPDEST PUSH1 0x0 DUP2 SWAP1 POP SWAP2 SWAP1 POP JUMP JUMPDEST PUSH1 0x0 PUSH2 0x34F1 PUSH2 0x34EC PUSH2 0x34E7 DUP5 PUSH2 0x2C0E JUMP JUMPDEST PUSH2 0x34CC JUMP JUMPDEST PUSH2 0x2C0E JUMP JUMPDEST SWAP1 POP SWAP2 SWAP1 POP JUMP JUMPDEST PUSH1 0x0 PUSH2 0x3503 DUP3 PUSH2 0x34D6 JUMP JUMPDEST SWAP1 POP SWAP2 SWAP1 POP JUMP JUMPDEST PUSH1 0x0 PUSH2 0x3515 DUP3 PUSH2 0x34F8 JUMP JUMPDEST SWAP1 POP SWAP2 SWAP1 POP JUMP JUMPDEST PUSH2 0x3525 DUP2 PUSH2 0x350A JUMP JUMPDEST DUP3 MSTORE POP POP JUMP JUMPDEST PUSH1 0x0 PUSH1 0x20 DUP3 ADD SWAP1 POP PUSH2 0x3540 PUSH1 0x0 DUP4 ADD DUP5 PUSH2 0x351C JUMP JUMPDEST SWAP3 SWAP2 POP POP JUMP JUMPDEST PUSH1 0x0 PUSH2 0x3551 DUP3 PUSH2 0x34F8 JUMP JUMPDEST SWAP1 POP SWAP2 SWAP1 POP JUMP JUMPDEST PUSH2 0x3561 DUP2 PUSH2 0x3546 JUMP JUMPDEST DUP3 MSTORE POP POP JUMP JUMPDEST PUSH1 0x0 PUSH1 0x20 DUP3 ADD SWAP1 POP PUSH2 0x357C PUSH1 0x0 DUP4 ADD DUP5 PUSH2 0x3558 JUMP JUMPDEST SWAP3 SWAP2 POP POP JUMP JUMPDEST PUSH1 0x0 PUSH2 0x160 DUP3 ADD SWAP1 POP PUSH2 0x3598 PUSH1 0x0 DUP4 ADD DUP15 PUSH2 0x2FB9 JUMP JUMPDEST PUSH2 0x35A5 PUSH1 0x20 DUP4 ADD DUP14 PUSH2 0x2E60 JUMP JUMPDEST PUSH2 0x35B2 PUSH1 0x40 DUP4 ADD DUP13 PUSH2 0x2E6F JUMP JUMPDEST PUSH2 0x35BF PUSH1 0x60 DUP4 ADD DUP12 PUSH2 0x2E6F JUMP JUMPDEST PUSH2 0x35CC PUSH1 0x80 DUP4 ADD DUP11 PUSH2 0x2E6F JUMP JUMPDEST PUSH2 0x35D9 PUSH1 0xA0 DUP4 ADD DUP10 PUSH2 0x2E6F JUMP JUMPDEST PUSH2 0x35E6 PUSH1 0xC0 DUP4 ADD DUP9 PUSH2 0x2E6F JUMP JUMPDEST PUSH2 0x35F3 PUSH1 0xE0 DUP4 ADD DUP8 PUSH2 0x2E6F JUMP JUMPDEST PUSH2 0x3601 PUSH2 0x100 DUP4 ADD DUP7 PUSH2 0x2E7E JUMP JUMPDEST PUSH2 0x360F PUSH2 0x120 DUP4 ADD DUP6 PUSH2 0x2E7E JUMP JUMPDEST PUSH2 0x361D PUSH2 0x140 DUP4 ADD DUP5 PUSH2 0x2E6F JUMP JUMPDEST SWAP13 SWAP12 POP POP POP POP POP POP POP POP POP POP POP POP JUMP JUMPDEST PUSH1 0x0 DUP2 MLOAD SWAP1 POP SWAP2 SWAP1 POP JUMP JUMPDEST PUSH1 0x0 DUP3 DUP3 MSTORE PUSH1 0x20 DUP3 ADD SWAP1 POP SWAP3 SWAP2 POP POP JUMP JUMPDEST PUSH1 0x0 DUP2 SWAP1 POP PUSH1 0x20 DUP3 ADD SWAP1 POP SWAP2 SWAP1 POP JUMP JUMPDEST PUSH2 0x3662 DUP2 PUSH2 0x2B7F JUMP JUMPDEST DUP3 MSTORE POP POP JUMP JUMPDEST PUSH1 0x0 PUSH2 0x3674 DUP4 DUP4 PUSH2 0x3659 JUMP JUMPDEST PUSH1 0x20 DUP4 ADD SWAP1 POP SWAP3 SWAP2 POP POP JUMP JUMPDEST PUSH1 0x0 PUSH1 0x20 DUP3 ADD SWAP1 POP SWAP2 SWAP1 POP JUMP JUMPDEST PUSH1 0x0 PUSH2 0x3698 DUP3 PUSH2 0x362D JUMP JUMPDEST PUSH2 0x36A2 DUP2 DUP6 PUSH2 0x3638 JUMP JUMPDEST SWAP4 POP PUSH2 0x36AD DUP4 PUSH2 0x3649 JUMP JUMPDEST DUP1 PUSH1 0x0 JUMPDEST DUP4 DUP2 LT ISZERO PUSH2 0x36DE JUMPI DUP2 MLOAD PUSH2 0x36C5 DUP9 DUP3 PUSH2 0x3668 JUMP JUMPDEST SWAP8 POP PUSH2 0x36D0 DUP4 PUSH2 0x3680 JUMP JUMPDEST SWAP3 POP POP PUSH1 0x1 DUP2 ADD SWAP1 POP PUSH2 0x36B1 JUMP JUMPDEST POP DUP6 SWAP4 POP POP POP POP SWAP3 SWAP2 POP POP JUMP JUMPDEST PUSH1 0x0 PUSH1 0x20 DUP3 ADD SWAP1 POP DUP2 DUP2 SUB PUSH1 0x0 DUP4 ADD MSTORE PUSH2 0x3705 DUP2 DUP5 PUSH2 0x368D JUMP JUMPDEST SWAP1 POP SWAP3 SWAP2 POP POP JUMP JUMPDEST PUSH32 0x416C726561647920726567697374657265640000000000000000000000000000 PUSH1 0x0 DUP3 ADD MSTORE POP JUMP JUMPDEST PUSH1 0x0 PUSH2 0x3743 PUSH1 0x12 DUP4 PUSH2 0x2FD3 JUMP JUMPDEST SWAP2 POP PUSH2 0x374E DUP3 PUSH2 0x370D JUMP JUMPDEST PUSH1 0x20 DUP3 ADD SWAP1 POP SWAP2 SWAP1 POP JUMP JUMPDEST PUSH1 0x0 PUSH1 0x20 DUP3 ADD SWAP1 POP DUP2 DUP2 SUB PUSH1 0x0 DUP4 ADD MSTORE PUSH2 0x3772 DUP2 PUSH2 0x3736 JUMP JUMPDEST SWAP1 POP SWAP2 SWAP1 POP JUMP JUMPDEST PUSH32 0x4D757374206F776E206174206C6561737420312076656869636C650000000000 PUSH1 0x0 DUP3 ADD MSTORE POP JUMP JUMPDEST PUSH1 0x0 PUSH2 0x37AF PUSH1 0x1B DUP4 PUSH2 0x2FD3 JUMP JUMPDEST SWAP2 POP PUSH2 0x37BA DUP3 PUSH2 0x3779 JUMP JUMPDEST PUSH1 0x20 DUP3 ADD SWAP1 POP SWAP2 SWAP1 POP JUMP JUMPDEST PUSH1 0x0 PUSH1 0x20 DUP3 ADD SWAP1 POP DUP2 DUP2 SUB PUSH1 0x0 DUP4 ADD MSTORE PUSH2 0x37DE DUP2 PUSH2 0x37A2 JUMP JUMPDEST SWAP1 POP SWAP2 SWAP1 POP JUMP JUMPDEST PUSH1 0x0 DUP2 MLOAD SWAP1 POP PUSH2 0x37F4 DUP2 PUSH2 0x2F09 JUMP JUMPDEST SWAP3 SWAP2 POP POP JUMP JUMPDEST PUSH1 0x0 PUSH1 0x20 DUP3 DUP5 SUB SLT ISZERO PUSH2 0x3810 JUMPI PUSH2 0x380F PUSH2 0x2B75 JUMP JUMPDEST JUMPDEST PUSH1 0x0 PUSH2 0x381E DUP5 DUP3 DUP6 ADD PUSH2 0x37E5 JUMP JUMPDEST SWAP2 POP POP SWAP3 SWAP2 POP POP JUMP JUMPDEST PUSH1 0x0 PUSH1 0x60 DUP3 ADD SWAP1 POP PUSH2 0x383C PUSH1 0x0 DUP4 ADD DUP7 PUSH2 0x2FB9 JUMP JUMPDEST PUSH2 0x3849 PUSH1 0x20 DUP4 ADD DUP6 PUSH2 0x2FB9 JUMP JUMPDEST PUSH2 0x3856 PUSH1 0x40 DUP4 ADD DUP5 PUSH2 0x2E6F JUMP JUMPDEST SWAP5 SWAP4 POP POP POP POP JUMP JUMPDEST PUSH1 0x0 DUP2 MLOAD SWAP1 POP PUSH2 0x386D DUP2 PUSH2 0x33B3 JUMP JUMPDEST SWAP3 SWAP2 POP POP JUMP JUMPDEST PUSH1 0x0 PUSH1 0x20 DUP3 DUP5 SUB SLT ISZERO PUSH2 0x3889 JUMPI PUSH2 0x3888 PUSH2 0x2B75 JUMP JUMPDEST JUMPDEST PUSH1 0x0 PUSH2 0x3897 DUP5 DUP3 DUP6 ADD PUSH2 0x385E JUMP JUMPDEST SWAP2 POP POP SWAP3 SWAP2 POP POP JUMP JUMPDEST PUSH32 0x5374616B65207472616E73666572206661696C65640000000000000000000000 PUSH1 0x0 DUP3 ADD MSTORE POP JUMP JUMPDEST PUSH1 0x0 PUSH2 0x38D6 PUSH1 0x15 DUP4 PUSH2 0x2FD3 JUMP JUMPDEST SWAP2 POP PUSH2 0x38E1 DUP3 PUSH2 0x38A0 JUMP JUMPDEST PUSH1 0x20 DUP3 ADD SWAP1 POP SWAP2 SWAP1 POP JUMP JUMPDEST PUSH1 0x0 PUSH1 0x20 DUP3 ADD SWAP1 POP DUP2 DUP2 SUB PUSH1 0x0 DUP4 ADD MSTORE PUSH2 0x3905 DUP2 PUSH2 0x38C9 JUMP JUMPDEST SWAP1 POP SWAP2 SWAP1 POP JUMP JUMPDEST PUSH1 0x0 PUSH1 0x20 DUP3 ADD SWAP1 POP PUSH2 0x3921 PUSH1 0x0 DUP4 ADD DUP5 PUSH2 0x2E60 JUMP JUMPDEST SWAP3 SWAP2 POP POP JUMP JUMPDEST PUSH32 0x4E487B7100000000000000000000000000000000000000000000000000000000 PUSH1 0x0 MSTORE PUSH1 0x22 PUSH1 0x4 MSTORE PUSH1 0x24 PUSH1 0x0 REVERT JUMPDEST PUSH1 0x0 PUSH1 0x2 DUP3 DIV SWAP1 POP PUSH1 0x1 DUP3 AND DUP1 PUSH2 0x396E JUMPI PUSH1 0x7F DUP3 AND SWAP2 POP JUMPDEST PUSH1 0x20 DUP3 LT DUP2 SUB PUSH2 0x3981 JUMPI PUSH2 0x3980 PUSH2 0x3927 JUMP JUMPDEST JUMPDEST POP SWAP2 SWAP1 POP JUMP JUMPDEST PUSH1 0x0 DUP2 PUSH1 0x60 SHL SWAP1 POP SWAP2 SWAP1 POP JUMP JUMPDEST PUSH1 0x0 PUSH2 0x399F DUP3 PUSH2 0x3987 JUMP JUMPDEST SWAP1 POP SWAP2 SWAP1 POP JUMP JUMPDEST PUSH1 0x0 PUSH2 0x39B1 DUP3 PUSH2 0x3994 JUMP JUMPDEST SWAP1 POP SWAP2 SWAP1 POP JUMP JUMPDEST PUSH2 0x39C9 PUSH2 0x39C4 DUP3 PUSH2 0x2C2E JUMP JUMPDEST PUSH2 0x39A6 JUMP JUMPDEST DUP3 MSTORE POP POP JUMP JUMPDEST PUSH1 0x0 DUP2 SWAP1 POP SWAP2 SWAP1 POP JUMP JUMPDEST PUSH2 0x39EA PUSH2 0x39E5 DUP3 PUSH2 0x2CE1 JUMP JUMPDEST PUSH2 0x39CF JUMP JUMPDEST DUP3 MSTORE POP POP JUMP JUMPDEST PUSH1 0x0 DUP2 SWAP1 POP SWAP3 SWAP2 POP POP JUMP JUMPDEST PUSH1 0x0 PUSH2 0x3A06 DUP3 PUSH2 0x2FC8 JUMP JUMPDEST PUSH2 0x3A10 DUP2 DUP6 PUSH2 0x39F0 JUMP JUMPDEST SWAP4 POP PUSH2 0x3A20 DUP2 DUP6 PUSH1 0x20 DUP7 ADD PUSH2 0x2FE4 JUMP JUMPDEST DUP1 DUP5 ADD SWAP2 POP POP SWAP3 SWAP2 POP POP JUMP JUMPDEST PUSH1 0x0 PUSH2 0x3A38 DUP3 DUP7 PUSH2 0x39B8 JUMP JUMPDEST PUSH1 0x14 DUP3 ADD SWAP2 POP PUSH2 0x3A48 DUP3 DUP6 PUSH2 0x39D9 JUMP JUMPDEST PUSH1 0x20 DUP3 ADD SWAP2 POP PUSH2 0x3A58 DUP3 DUP5 PUSH2 0x39FB JUMP JUMPDEST SWAP2 POP DUP2 SWAP1 POP SWAP5 SWAP4 POP POP POP POP JUMP JUMPDEST PUSH32 0x4E487B7100000000000000000000000000000000000000000000000000000000 PUSH1 0x0 MSTORE PUSH1 0x11 PUSH1 0x4 MSTORE PUSH1 0x24 PUSH1 0x0 REVERT JUMPDEST PUSH1 0x0 PUSH2 0x3A9F DUP3 PUSH2 0x2CE1 JUMP JUMPDEST SWAP2 POP PUSH2 0x3AAA DUP4 PUSH2 0x2CE1 JUMP JUMPDEST SWAP3 POP DUP3 DUP3 ADD SWAP1 POP DUP1 DUP3 GT ISZERO PUSH2 0x3AC2 JUMPI PUSH2 0x3AC1 PUSH2 0x3A65 JUMP JUMPDEST JUMPDEST SWAP3 SWAP2 POP POP JUMP JUMPDEST PUSH1 0x0 DUP2 SWAP1 POP DUP2 PUSH1 0x0 MSTORE PUSH1 0x20 PUSH1 0x0 KECCAK256 SWAP1 POP SWAP2 SWAP1 POP JUMP JUMPDEST PUSH1 0x0 PUSH1 0x20 PUSH1 0x1F DUP4 ADD DIV SWAP1 POP SWAP2 SWAP1 POP JUMP JUMPDEST PUSH1 0x0 DUP3 DUP3 SHL SWAP1 POP SWAP3 SWAP2 POP POP JUMP JUMPDEST PUSH1 0x0 PUSH1 0x8 DUP4 MUL PUSH2 0x3B2A PUSH32 0xFFFFFFFFFFFFFFFFFFFFFFFFFFFFFFFFFFFFFFFFFFFFFFFFFFFFFFFFFFFFFFFF DUP3 PUSH2 0x3AED JUMP JUMPDEST PUSH2 0x3B34 DUP7 DUP4 PUSH2 0x3AED JUMP JUMPDEST SWAP6 POP DUP1 NOT DUP5 AND SWAP4 POP DUP1 DUP7 AND DUP5 OR SWAP3 POP POP POP SWAP4 SWAP3 POP POP POP JUMP JUMPDEST PUSH1 0x0 PUSH2 0x3B67 PUSH2 0x3B62 PUSH2 0x3B5D DUP5 PUSH2 0x2CE1 JUMP JUMPDEST PUSH2 0x34CC JUMP JUMPDEST PUSH2 0x2CE1 JUMP JUMPDEST SWAP1 POP SWAP2 SWAP1 POP JUMP JUMPDEST PUSH1 0x0 DUP2 SWAP1 POP SWAP2 SWAP1 POP JUMP JUMPDEST PUSH2 0x3B81 DUP4 PUSH2 0x3B4C JUMP JUMPDEST PUSH2 0x3B95 PUSH2 0x3B8D DUP3 PUSH2 0x3B6E JUMP JUMPDEST DUP5 DUP5 SLOAD PUSH2 0x3AFA JUMP JUMPDEST DUP3 SSTORE POP POP POP POP JUMP JUMPDEST PUSH1 0x0 SWAP1 JUMP JUMPDEST PUSH2 0x3BAA PUSH2 0x3B9D JUMP JUMPDEST PUSH2 0x3BB5 DUP2 DUP5 DUP5 PUSH2 0x3B78 JUMP JUMPDEST POP POP POP JUMP JUMPDEST JUMPDEST DUP2 DUP2 LT ISZERO PUSH2 0x3BD9 JUMPI PUSH2 0x3BCE PUSH1 0x0 DUP3 PUSH2 0x3BA2 JUMP JUMPDEST PUSH1 0x1 DUP2 ADD SWAP1 POP PUSH2 0x3BBB JUMP JUMPDEST POP POP JUMP JUMPDEST PUSH1 0x1F DUP3 GT ISZERO PUSH2 0x3C1E JUMPI PUSH2 0x3BEF DUP2 PUSH2 0x3AC8 JUMP JUMPDEST PUSH2 0x3BF8 DUP5 PUSH2 0x3ADD JUMP JUMPDEST DUP2 ADD PUSH1 0x20 DUP6 LT ISZERO PUSH2 0x3C07 JUMPI DUP2 SWAP1 POP JUMPDEST PUSH2 0x3C1B PUSH2 0x3C13 DUP6 PUSH2 0x3ADD JUMP JUMPDEST DUP4 ADD DUP3 PUSH2 0x3BBA JUMP JUMPDEST POP POP JUMPDEST POP POP POP JUMP JUMPDEST PUSH1 0x0 DUP3 DUP3 SHR SWAP1 POP SWAP3 SWAP2 POP POP JUMP JUMPDEST PUSH1 0x0 PUSH2 0x3C41 PUSH1 0x0 NOT DUP5 PUSH1 0x8 MUL PUSH2 0x3C23 JUMP JUMPDEST NOT DUP1 DUP4 AND SWAP2 POP POP SWAP3 SWAP2 POP POP JUMP JUMPDEST PUSH1 0x0 PUSH2 0x3C5A DUP4 DUP4 PUSH2 0x3C30 JUMP JUMPDEST SWAP2 POP DUP3 PUSH1 0x2 MUL DUP3 OR SWAP1 POP SWAP3 SWAP2 POP POP JUMP JUMPDEST PUSH2 0x3C73 DUP3 PUSH2 0x2FC8 JUMP JUMPDEST PUSH8 0xFFFFFFFFFFFFFFFF DUP2 GT ISZERO PUSH2 0x3C8C JUMPI PUSH2 0x3C8B PUSH2 0x3163 JUMP JUMPDEST JUMPDEST PUSH2 0x3C96 DUP3 SLOAD PUSH2 0x3956 JUMP JUMPDEST PUSH2 0x3CA1 DUP3 DUP3 DUP6 PUSH2 0x3BDD JUMP JUMPDEST PUSH1 0x0 PUSH1 0x20 SWAP1 POP PUSH1 0x1F DUP4 GT PUSH1 0x1 DUP2 EQ PUSH2 0x3CD4 JUMPI PUSH1 0x0 DUP5 ISZERO PUSH2 0x3CC2 JUMPI DUP3 DUP8 ADD MLOAD SWAP1 POP JUMPDEST PUSH2 0x3CCC DUP6 DUP3 PUSH2 0x3C4E JUMP JUMPDEST DUP7 SSTORE POP PUSH2 0x3D34 JUMP JUMPDEST PUSH1 0x1F NOT DUP5 AND PUSH2 0x3CE2 DUP7 PUSH2 0x3AC8 JUMP JUMPDEST PUSH1 0x0 JUMPDEST DUP3 DUP2 LT ISZERO PUSH2 0x3D0A JUMPI DUP5 DUP10 ADD MLOAD DUP3 SSTORE PUSH1 0x1 DUP3 ADD SWAP2 POP PUSH1 0x20 DUP6 ADD SWAP5 POP PUSH1 0x20 DUP2 ADD SWAP1 POP PUSH2 0x3CE5 JUMP JUMPDEST DUP7 DUP4 LT ISZERO PUSH2 0x3D27 JUMPI DUP5 DUP10 ADD MLOAD PUSH2 0x3D23 PUSH1 0x1F DUP10 AND DUP3 PUSH2 0x3C30 JUMP JUMPDEST DUP4 SSTORE POP JUMPDEST PUSH1 0x1 PUSH1 0x2 DUP9 MUL ADD DUP9 SSTORE POP POP POP JUMPDEST POP POP POP POP POP POP JUMP JUMPDEST PUSH1 0x0 PUSH1 0x20 DUP3 ADD SWAP1 POP PUSH2 0x3D51 PUSH1 0x0 DUP4 ADD DUP5 PUSH2 0x2FAA JUMP JUMPDEST SWAP3 SWAP2 POP POP JUMP JUMPDEST PUSH1 0x0 PUSH1 0x40 DUP3 ADD SWAP1 POP PUSH2 0x3D6C PUSH1 0x0 DUP4 ADD DUP6 PUSH2 0x2FB9 JUMP JUMPDEST PUSH2 0x3D79 PUSH1 0x20 DUP4 ADD DUP5 PUSH2 0x2E6F JUMP JUMPDEST SWAP4 SWAP3 POP POP POP JUMP JUMPDEST PUSH32 0x416C72656164792066696E616C697A6564000000000000000000000000000000 PUSH1 0x0 DUP3 ADD MSTORE POP JUMP JUMPDEST PUSH1 0x0 PUSH2 0x3DB6 PUSH1 0x11 DUP4 PUSH2 0x2FD3 JUMP JUMPDEST SWAP2 POP PUSH2 0x3DC1 DUP3 PUSH2 0x3D80 JUMP JUMPDEST PUSH1 0x20 DUP3 ADD SWAP1 POP SWAP2 SWAP1 POP JUMP JUMPDEST PUSH1 0x0 PUSH1 0x20 DUP3 ADD SWAP1 POP DUP2 DUP2 SUB PUSH1 0x0 DUP4 ADD MSTORE PUSH2 0x3DE5 DUP2 PUSH2 0x3DA9 JUMP JUMPDEST SWAP1 POP SWAP2 SWAP1 POP JUMP JUMPDEST PUSH32 0x566F74696E6720706572696F64206E6F7420656E646564000000000000000000 PUSH1 0x0 DUP3 ADD MSTORE POP JUMP JUMPDEST PUSH1 0x0 PUSH2 0x3E22 PUSH1 0x17 DUP4 PUSH2 0x2FD3 JUMP JUMPDEST SWAP2 POP PUSH2 0x3E2D DUP3 PUSH2 0x3DEC JUMP JUMPDEST PUSH1 0x20 DUP3 ADD SWAP1 POP SWAP2 SWAP1 POP JUMP JUMPDEST PUSH1 0x0 PUSH1 0x20 DUP3 ADD SWAP1 POP DUP2 DUP2 SUB PUSH1 0x0 DUP4 ADD MSTORE PUSH2 0x3E51 DUP2 PUSH2 0x3E15 JUMP JUMPDEST SWAP1 POP SWAP2 SWAP1 POP JUMP JUMPDEST PUSH32 0x4E6F20766F746573000000000000000000000000000000000000000000000000 PUSH1 0x0 DUP3 ADD MSTORE POP JUMP JUMPDEST PUSH1 0x0 PUSH2 0x3E8E PUSH1 0x8 DUP4 PUSH2 0x2FD3 JUMP JUMPDEST SWAP2 POP PUSH2 0x3E99 DUP3 PUSH2 0x3E58 JUMP JUMPDEST PUSH1 0x20 DUP3 ADD SWAP1 POP SWAP2 SWAP1 POP JUMP JUMPDEST PUSH1 0x0 PUSH1 0x20 DUP3 ADD SWAP1 POP DUP2 DUP2 SUB PUSH1 0x0 DUP4 ADD MSTORE PUSH2 0x3EBD DUP2 PUSH2 0x3E81 JUMP JUMPDEST SWAP1 POP SWAP2 SWAP1 POP JUMP JUMPDEST PUSH32 0x4E487B7100000000000000000000000000000000000000000000000000000000 PUSH1 0x0 MSTORE PUSH1 0x32 PUSH1 0x4 MSTORE PUSH1 0x24 PUSH1 0x0 REVERT JUMPDEST PUSH1 0x0 PUSH2 0x3EFE DUP3 PUSH2 0x2CE1 JUMP JUMPDEST SWAP2 POP PUSH32 0xFFFFFFFFFFFFFFFFFFFFFFFFFFFFFFFFFFFFFFFFFFFFFFFFFFFFFFFFFFFFFFFF DUP3 SUB PUSH2 0x3F30 JUMPI PUSH2 0x3F2F PUSH2 0x3A65 JUMP JUMPDEST JUMPDEST PUSH1 0x1 DUP3 ADD SWAP1 POP SWAP2 SWAP1 POP JUMP JUMPDEST PUSH1 0x0 PUSH1 0x60 DUP3 ADD SWAP1 POP PUSH2 0x3F50 PUSH1 0x0 DUP4 ADD DUP7 PUSH2 0x2E7E JUMP JUMPDEST PUSH2 0x3F5D PUSH1 0x20 DUP4 ADD DUP6 PUSH2 0x2E6F JUMP JUMPDEST PUSH2 0x3F6A PUSH1 0x40 DUP4 ADD DUP5 PUSH2 0x2E6F JUMP JUMPDEST SWAP5 SWAP4 POP POP POP POP JUMP JUMPDEST PUSH1 0x0 DUP1 PUSH1 0x0 DUP1 PUSH1 0x0 DUP1 PUSH1 0xC0 DUP8 DUP10 SUB SLT ISZERO PUSH2 0x3F8F JUMPI PUSH2 0x3F8E PUSH2 0x2B75 JUMP JUMPDEST JUMPDEST PUSH1 0x0 PUSH2 0x3F9D DUP10 DUP3 DUP11 ADD PUSH2 0x37E5 JUMP JUMPDEST SWAP7 POP POP PUSH1 0x20 PUSH2 0x3FAE DUP10 DUP3 DUP11 ADD PUSH2 0x37E5 JUMP JUMPDEST SWAP6 POP POP PUSH1 0x40 PUSH2 0x3FBF DUP10 DUP3 DUP11 ADD PUSH2 0x37E5 JUMP JUMPDEST SWAP5 POP POP PUSH1 0x60 PUSH2 0x3FD0 DUP10 DUP3 DUP11 ADD PUSH2 0x37E5 JUMP JUMPDEST SWAP4 POP POP PUSH1 0x80 PUSH2 0x3FE1 DUP10 DUP3 DUP11 ADD PUSH2 0x37E5 JUMP JUMPDEST SWAP3 POP POP PUSH1 0xA0 PUSH2 0x3FF2 DUP10 DUP3 DUP11 ADD PUSH2 0x385E JUMP JUMPDEST SWAP2 POP POP SWAP3 SWAP6 POP SWAP3 SWAP6 POP SWAP3 SWAP6 JUMP JUMPDEST PUSH1 0x0 PUSH2 0x400A DUP3 PUSH2 0x2CE1 JUMP JUMPDEST SWAP2 POP PUSH2 0x4015 DUP4 PUSH2 0x2CE1 JUMP JUMPDEST SWAP3 POP DUP3 DUP3 MUL PUSH2 0x4023 DUP2 PUSH2 0x2CE1 JUMP JUMPDEST SWAP2 POP DUP3 DUP3 DIV DUP5 EQ DUP4 ISZERO OR PUSH2 0x403A JUMPI PUSH2 0x4039 PUSH2 0x3A65 JUMP JUMPDEST JUMPDEST POP SWAP3 SWAP2 POP POP JUMP JUMPDEST PUSH32 0x4E487B7100000000000000000000000000000000000000000000000000000000 PUSH1 0x0 MSTORE PUSH1 0x12 PUSH1 0x4 MSTORE PUSH1 0x24 PUSH1 0x0 REVERT JUMPDEST PUSH1 0x0 PUSH2 0x407B DUP3 PUSH2 0x2CE1 JUMP JUMPDEST SWAP2 POP PUSH2 0x4086 DUP4 PUSH2 0x2CE1 JUMP JUMPDEST SWAP3 POP DUP3 PUSH2 0x4096 JUMPI PUSH2 0x4095 PUSH2 0x4041 JUMP JUMPDEST JUMPDEST DUP3 DUP3 DIV SWAP1 POP SWAP3 SWAP2 POP POP JUMP JUMPDEST PUSH32 0x4E6F7420616E20616374697665206A75726F7200000000000000000000000000 PUSH1 0x0 DUP3 ADD MSTORE POP JUMP JUMPDEST PUSH1 0x0 PUSH2 0x40D7 PUSH1 0x13 DUP4 PUSH2 0x2FD3 JUMP JUMPDEST SWAP2 POP PUSH2 0x40E2 DUP3 PUSH2 0x40A1 JUMP JUMPDEST PUSH1 0x20 DUP3 ADD SWAP1 POP SWAP2 SWAP1 POP JUMP JUMPDEST PUSH1 0x0 PUSH1 0x20 DUP3 ADD SWAP1 POP DUP2 DUP2 SUB PUSH1 0x0 DUP4 ADD MSTORE PUSH2 0x4106 DUP2 PUSH2 0x40CA JUMP JUMPDEST SWAP1 POP SWAP2 SWAP1 POP JUMP JUMPDEST PUSH32 0x416C726561647920766F74656400000000000000000000000000000000000000 PUSH1 0x0 DUP3 ADD MSTORE POP JUMP JUMPDEST PUSH1 0x0 PUSH2 0x4143 PUSH1 0xD DUP4 PUSH2 0x2FD3 JUMP JUMPDEST SWAP2 POP PUSH2 0x414E DUP3 PUSH2 0x410D JUMP JUMPDEST PUSH1 0x20 DUP3 ADD SWAP1 POP SWAP2 SWAP1 POP JUMP JUMPDEST PUSH1 0x0 PUSH1 0x20 DUP3 ADD SWAP1 POP DUP2 DUP2 SUB PUSH1 0x0 DUP4 ADD MSTORE PUSH2 0x4172 DUP2 PUSH2 0x4136 JUMP JUMPDEST SWAP1 POP SWAP2 SWAP1 POP JUMP JUMPDEST PUSH32 0x43617365206E6F742070656E64696E6700000000000000000000000000000000 PUSH1 0x0 DUP3 ADD MSTORE POP JUMP JUMPDEST PUSH1 0x0 PUSH2 0x41AF PUSH1 0x10 DUP4 PUSH2 0x2FD3 JUMP JUMPDEST SWAP2 POP PUSH2 0x41BA DUP3 PUSH2 0x4179 JUMP JUMPDEST PUSH1 0x20 DUP3 ADD SWAP1 POP SWAP2 SWAP1 POP JUMP JUMPDEST PUSH1 0x0 PUSH1 0x20 DUP3 ADD SWAP1 POP DUP2 DUP2 SUB PUSH1 0x0 DUP4 ADD MSTORE PUSH2 0x41DE DUP2 PUSH2 0x41A2 JUMP JUMPDEST SWAP1 POP SWAP2 SWAP1 POP JUMP JUMPDEST PUSH32 0x566F74696E6720656E6465640000000000000000000000000000000000000000 PUSH1 0x0 DUP3 ADD MSTORE POP JUMP JUMPDEST PUSH1 0x0 PUSH2 0x421B PUSH1 0xC DUP4 PUSH2 0x2FD3 JUMP JUMPDEST SWAP2 POP PUSH2 0x4226 DUP3 PUSH2 0x41E5 JUMP JUMPDEST PUSH1 0x20 DUP3 ADD SWAP1 POP SWAP2 SWAP1 POP JUMP JUMPDEST PUSH1 0x0 PUSH1 0x20 DUP3 ADD SWAP1 POP DUP2 DUP2 SUB PUSH1 0x0 DUP4 ADD MSTORE PUSH2 0x424A DUP2 PUSH2 0x420E JUMP JUMPDEST SWAP1 POP SWAP2 SWAP1 POP JUMP JUMPDEST PUSH32 0x4E6F742061206A75726F72000000000000000000000000000000000000000000 PUSH1 0x0 DUP3 ADD MSTORE POP JUMP JUMPDEST PUSH1 0x0 PUSH2 0x4287 PUSH1 0xB DUP4 PUSH2 0x2FD3 JUMP JUMPDEST SWAP2 POP PUSH2 0x4292 DUP3 PUSH2 0x4251 JUMP JUMPDEST PUSH1 0x20 DUP3 ADD SWAP1 POP SWAP2 SWAP1 POP JUMP JUMPDEST PUSH1 0x0 PUSH1 0x20 DUP3 ADD SWAP1 POP DUP2 DUP2 SUB PUSH1 0x0 DUP4 ADD MSTORE PUSH2 0x42B6 DUP2 PUSH2 0x427A JUMP JUMPDEST SWAP1 POP SWAP2 SWAP1 POP JUMP JUMPDEST PUSH32 0x43616E206F6E6C79207570677261646500000000000000000000000000000000 PUSH1 0x0 DUP3 ADD MSTORE POP JUMP JUMPDEST PUSH1 0x0 PUSH2 0x42F3 PUSH1 0x10 DUP4 PUSH2 0x2FD3 JUMP JUMPDEST SWAP2 POP PUSH2 0x42FE DUP3 PUSH2 0x42BD JUMP JUMPDEST PUSH1 0x20 DUP3 ADD SWAP1 POP SWAP2 SWAP1 POP JUMP JUMPDEST PUSH1 0x0 PUSH1 0x20 DUP3 ADD SWAP1 POP DUP2 DUP2 SUB PUSH1 0x0 DUP4 ADD MSTORE PUSH2 0x4322 DUP2 PUSH2 0x42E6 JUMP JUMPDEST SWAP1 POP SWAP2 SWAP1 POP JUMP JUMPDEST PUSH32 0x4E6F7420656C696769626C6520666F7220457870657274000000000000000000 PUSH1 0x0 DUP3 ADD MSTORE POP JUMP JUMPDEST PUSH1 0x0 PUSH2 0x435F PUSH1 0x17 DUP4 PUSH2 0x2FD3 JUMP JUMPDEST SWAP2 POP PUSH2 0x436A DUP3 PUSH2 0x4329 JUMP JUMPDEST PUSH1 0x20 DUP3 ADD SWAP1 POP SWAP2 SWAP1 POP JUMP JUMPDEST PUSH1 0x0 PUSH1 0x20 DUP3 ADD SWAP1 POP DUP2 DUP2 SUB PUSH1 0x0 DUP4 ADD MSTORE PUSH2 0x438E DUP2 PUSH2 0x4352 JUMP JUMPDEST SWAP1 POP SWAP2 SWAP1 POP JUMP JUMPDEST PUSH1 0x0 PUSH2 0x43A0 DUP3 PUSH2 0x2CE1 JUMP JUMPDEST SWAP2 POP PUSH2 0x43AB DUP4 PUSH2 0x2CE1 JUMP JUMPDEST SWAP3 POP DUP3 DUP3 SUB SWAP1 POP DUP2 DUP2 GT ISZERO PUSH2 0x43C3 JUMPI PUSH2 0x43C2 PUSH2 0x3A65 JUMP JUMPDEST JUMPDEST SWAP3 SWAP2 POP POP JUMP JUMPDEST PUSH32 0x4E6F7420656C696769626C6520666F72204772616E64204A7572790000000000 PUSH1 0x0 DUP3 ADD MSTORE POP JUMP JUMPDEST PUSH1 0x0 PUSH2 0x43FF PUSH1 0x1B DUP4 PUSH2 0x2FD3 JUMP JUMPDEST SWAP2 POP PUSH2 0x440A DUP3 PUSH2 0x43C9 JUMP JUMPDEST PUSH1 0x20 DUP3 ADD SWAP1 POP SWAP2 SWAP1 POP JUMP JUMPDEST PUSH1 0x0 PUSH1 0x20 DUP3 ADD SWAP1 POP DUP2 DUP2 SUB PUSH1 0x0 DUP4 ADD MSTORE PUSH2 0x442E DUP2 PUSH2 0x43F2 JUMP JUMPDEST SWAP1 POP SWAP2 SWAP1 POP JUMP JUMPDEST PUSH32 0x4164646974696F6E616C207374616B65207472616E73666572206661696C6564 PUSH1 0x0 DUP3 ADD MSTORE POP JUMP JUMPDEST PUSH1 0x0 PUSH2 0x446B PUSH1 0x20 DUP4 PUSH2 0x2FD3 JUMP JUMPDEST SWAP2 POP PUSH2 0x4476 DUP3 PUSH2 0x4435 JUMP JUMPDEST PUSH1 0x20 DUP3 ADD SWAP1 POP SWAP2 SWAP1 POP JUMP JUMPDEST PUSH1 0x0 PUSH1 0x20 DUP3 ADD SWAP1 POP DUP2 DUP2 SUB PUSH1 0x0 DUP4 ADD MSTORE PUSH2 0x449A DUP2 PUSH2 0x445E JUMP JUMPDEST SWAP1 POP SWAP2 SWAP1 POP JUMP JUMPDEST PUSH1 0x0 PUSH1 0x40 DUP3 ADD SWAP1 POP PUSH2 0x44B6 PUSH1 0x0 DUP4 ADD DUP6 PUSH2 0x2E60 JUMP JUMPDEST PUSH2 0x44C3 PUSH1 0x20 DUP4 ADD DUP5 PUSH2 0x2E60 JUMP JUMPDEST SWAP4 SWAP3 POP POP POP JUMP INVALID LOG2 PUSH5 0x6970667358 0x22 SLT KECCAK256 0xB9 MSTORE8 SWAP14 PUSH23 0x8338A1FD87FACF557C6F53BB38EC97CAC5508E36C3BF7B LOG1 0xCE 0x5E PUSH3 0x7D6473 PUSH16 0x6C634300081400330000000000000000 "},"methodIdentifiers":{"ANOMALY_THRESHOLD()":"49cc6615","CASE_DURATION()":"c4a29760","CITIZEN_MIN_STAKE()":"381af86f","CITIZEN_VOTING_POWER()":"38edf777","EXPERT_MIN_STAKE()":"ddd9fa48","EXPERT_VOTING_POWER()":"ed8d71e0","GRAND_JURY_MIN_STAKE()":"5c1a58b5","GRAND_JURY_VOTING_POWER()":"fa814b75","REWARD_POOL_PER_CASE()":"b01b9128","TARGET_CITIZEN_RATIO()":"21885ea6","TARGET_EXPERT_RATIO()":"492cbd74","TARGET_GRAND_JURY_RATIO()":"e737341e","activeCases(uint256)":"af95040c","activeJurors(uint256)":"e2da844d","caseVotes(bytes32,uint256)":"6636411e","cases(bytes32)":"48ea1c23","emergencyWithdraw(uint256)":"5312ea8e","finalizeCase(bytes32,uint256)":"5b7c6d7e","getCaseVotes(bytes32)":"1513bdb1","getJurorStats(address)":"1ddde428","getPendingCases()":"f19c7d64","getWeightedVotingPower(address)":"7e7d8d3a","hasVoted(bytes32,address)":"aadc3b72","jurors(address)":"dca5f6b0","owner()":"8da5cb5b","ozcToken()":"bb6846e6","registerAsJuror(uint256)":"3bc70ec0","renounceOwnership()":"715018a6","reputation()":"c52164c6","submitCase(uint8,string)":"51724eca","transferOwnership(address)":"f2fde38b","upgradeTier(uint8)":"a2949dd7","vote(bytes32,bool)":"9f2ce678"}}}}}