{"contracts/OzcarRewardCalculator.sol":{"OzcarRewardCalculator":{"abi":[{"inputs":[{"internalType":"address","name":"_reputation","type":"address"},{"internalType":"address","name":"_token","type":"address"},{"internalType":"address","name":"_initialOwner","type":"address"}],"stateMutability":"nonpayable","type":"constructor"},{"inputs":[{"internalType":"address","name":"owner","type":"address"}],"name":"OwnableInvalidOwner","type":"error"},{"inputs":[{"internalType":"address","name":"account","type":"address"}],"name":"OwnableUnauthorizedAccount","type":"error"},{"anonymous":false,"inputs":[{"indexed":true,"internalType":"address","name":"previousOwner","type":"address"},{"indexed":true,"internalType":"address","name":"newOwner","type":"address"}],"name":"OwnershipTransferred","type":"event"},{"anonymous":false,"inputs":[{"indexed":true,"internalType":"address","name":"user","type":"address"},{"indexed":false,"internalType":"uint256","name":"amount","type":"uint256"},{"indexed":false,"internalType":"string","name":"activityType","type":"string"}],"name":"RewardDistributed","type":"event"},{"inputs":[],"name":"BASE_REWARD","outputs":[{"internalType":"uint256","name":"","type":"uint256"}],"stateMutability":"view","type":"function"},{"inputs":[],"name":"RATIO_DRIVING","outputs":[{"internalType":"uint256","name":"","type":"uint256"}],"stateMutability":"view","type":"function"},{"inputs":[],"name":"RATIO_MAINTENANCE","outputs":[{"internalType":"uint256","name":"","type":"uint256"}],"stateMutability":"view","type":"function"},{"inputs":[],"name":"RATIO_SOCIAL","outputs":[{"internalType":"uint256","name":"","type":"uint256"}],"stateMutability":"view","type":"function"},{"inputs":[{"internalType":"address","name":"userAddr","type":"address"},{"internalType":"string","name":"activityType","type":"string"},{"internalType":"bool","name":"hasMedia","type":"bool"},{"internalType":"bool","name":"isVerified","type":"bool"}],"name":"calculateReward","outputs":[{"internalType":"uint256","name":"","type":"uint256"}],"stateMutability":"view","type":"function"},{"inputs":[{"internalType":"address","name":"userAddr","type":"address"},{"internalType":"string","name":"activityType","type":"string"},{"internalType":"bool","name":"hasMedia","type":"bool"},{"internalType":"bool","name":"isVerified","type":"bool"}],"name":"distributeReward","outputs":[],"stateMutability":"nonpayable","type":"function"},{"inputs":[],"name":"owner","outputs":[{"internalType":"address","name":"","type":"address"}],"stateMutability":"view","type":"function"},{"inputs":[],"name":"renounceOwnership","outputs":[],"stateMutability":"nonpayable","type":"function"},{"inputs":[],"name":"reputationContract","outputs":[{"internalType":"contract OzcarReputation","name":"","type":"address"}],"stateMutability":"view","type":"function"},{"inputs":[],"name":"tokenContract","outputs":[{"internalType":"contract OzcarToken","name":"","type":"address"}],"stateMutability":"view","type":"function"},{"inputs":[{"internalType":"address","name":"newOwner","type":"address"}],"name":"transferOwnership","outputs":[],"stateMutability":"nonpayable","type":"function"},{"inputs":[{"internalType":"address","name":"_reputation","type":"address"},{"internalType":"address","name":"_token","type":"address"}],"name":"updateContracts","outputs":[],"stateMutability":"nonpayable","type":"function"}],"evm":{"bytecode":{"linkReferences":{},"object":"60806040523480156200001157600080fd5b50604051620014a8380380620014a8833981810160405281019062000037919062000278565b80600073ffffffffffffffffffffffffffffffffffffffff168173ffffffffffffffffffffffffffffffffffffffff1603620000ad5760006040517f1e4fbdf7000000000000000000000000000000000000000000000000000000008152600401620000a49190620002e5565b60405180910390fd5b620000be816200014a60201b60201c565b5082600160006101000a81548173ffffffffffffffffffffffffffffffffffffffff021916908373ffffffffffffffffffffffffffffffffffffffff16021790555081600260006101000a81548173ffffffffffffffffffffffffffffffffffffffff021916908373ffffffffffffffffffffffffffffffffffffffff16021790555050505062000302565b60008060009054906101000a900473ffffffffffffffffffffffffffffffffffffffff169050816000806101000a81548173ffffffffffffffffffffffffffffffffffffffff021916908373ffffffffffffffffffffffffffffffffffffffff1602179055508173ffffffffffffffffffffffffffffffffffffffff168173ffffffffffffffffffffffffffffffffffffffff167f8be0079c531659141344cd1fd0a4f28419497f9722a3daafe3b4186f6b6457e060405160405180910390a35050565b600080fd5b600073ffffffffffffffffffffffffffffffffffffffff82169050919050565b6000620002408262000213565b9050919050565b620002528162000233565b81146200025e57600080fd5b50565b600081519050620002728162000247565b92915050565b6000806000606084860312156200029457620002936200020e565b5b6000620002a48682870162000261565b9350506020620002b78682870162000261565b9250506040620002ca8682870162000261565b9150509250925092565b620002df8162000233565b82525050565b6000602082019050620002fc6000830184620002d4565b92915050565b61119680620003126000396000f3fe608060405234801561001057600080fd5b50600436106100b45760003560e01c806387bc14251161007157806387bc1425146101575780638a2b8258146101755780638d5ed145146101935780638da5cb5b146101c3578063e692c49f146101e1578063f2fde38b146101fd576100b4565b806321ba2f10146100b957806322009af6146100d75780632c886c0f146100f557806355a373d6146101115780635c97130e1461012f578063715018a61461014d575b600080fd5b6100c1610219565b6040516100ce91906108f8565b60405180910390f35b6100df61021f565b6040516100ec91906108f8565b60405180910390f35b61010f600480360381019061010a9190610b03565b61022c565b005b61011961036d565b6040516101269190610be5565b60405180910390f35b610137610393565b60405161014491906108f8565b60405180910390f35b610155610399565b005b61015f6103ad565b60405161016c9190610c21565b60405180910390f35b61017d6103d3565b60405161018a91906108f8565b60405180910390f35b6101ad60048036038101906101a89190610b03565b6103d9565b6040516101ba91906108f8565b60405180910390f35b6101cb61064f565b6040516101d89190610c4b565b60405180910390f35b6101fb60048036038101906101f69190610c66565b610678565b005b61021760048036038101906102129190610ca6565b610706565b005b6105dc81565b68056bc75e2d6310000081565b61023461078c565b6000610242858585856103d9565b905060008111610287576040517f08c379a000000000000000000000000000000000000000000000000000000000815260040161027e90610d30565b60405180910390fd5b600260009054906101000a900473ffffffffffffffffffffffffffffffffffffffff1673ffffffffffffffffffffffffffffffffffffffff166340c10f1986836040518363ffffffff1660e01b81526004016102e4929190610d50565b600060405180830381600087803b1580156102fe57600080fd5b505af1158015610312573d6000803e3d6000fd5b505050508473ffffffffffffffffffffffffffffffffffffffff167f49649141d16971a88c3cfdd73fec34babb1cf163cf8b804c8f537a023c6ce506828660405161035e929190610de7565b60405180910390a25050505050565b600260009054906101000a900473ffffffffffffffffffffffffffffffffffffffff1681565b61119481565b6103a161078c565b6103ab6000610813565b565b600160009054906101000a900473ffffffffffffffffffffffffffffffffffffffff1681565b610fa081565b600080600160009054906101000a900473ffffffffffffffffffffffffffffffffffffffff1673ffffffffffffffffffffffffffffffffffffffff166398bf9a5d876040518263ffffffff1660e01b81526004016104379190610c4b565b60c060405180830381865afa158015610454573d6000803e3d6000fd5b505050506040513d601f19601f820116820180604052508101906104789190610e58565b50945050505050600068056bc75e2d631000009050600060405160200161049e90610f3c565b60405160208183030381529060405280519060200120876040516020016104c59190610f82565b60405160208183030381529060405280519060200120036104ea57610fa090506105a8565b6040516020016104f990610fe5565b60405160208183030381529060405280519060200120876040516020016105209190610f82565b60405160208183030381529060405280519060200120036105455761119490506105a7565b60405160200161055490611046565b604051602081830303815290604052805190602001208760405160200161057b9190610f82565b60405160208183030381529060405280519060200120036105a0576105dc90506105a6565b6103e890505b5b5b600060649050605a84106105bf5760c890506105df565b604684106105d057609690506105de565b602884106105dd57607890505b5b5b86156105f5576014816105f2919061108a565b90505b851561060b57600a81610608919061108a565b90505b60006064828561061b91906110be565b610625919061112f565b9050612710838261063691906110be565b610640919061112f565b95505050505050949350505050565b60008060009054906101000a900473ffffffffffffffffffffffffffffffffffffffff16905090565b61068061078c565b81600160006101000a81548173ffffffffffffffffffffffffffffffffffffffff021916908373ffffffffffffffffffffffffffffffffffffffff16021790555080600260006101000a81548173ffffffffffffffffffffffffffffffffffffffff021916908373ffffffffffffffffffffffffffffffffffffffff1602179055505050565b61070e61078c565b600073ffffffffffffffffffffffffffffffffffffffff168173ffffffffffffffffffffffffffffffffffffffff16036107805760006040517f1e4fbdf70000000000000000000000000000000000000000000000000000000081526004016107779190610c4b565b60405180910390fd5b61078981610813565b50565b6107946108d7565b73ffffffffffffffffffffffffffffffffffffffff166107b261064f565b73ffffffffffffffffffffffffffffffffffffffff1614610811576107d56108d7565b6040517f118cdaa70000000000000000000000000000000000000000000000000000000081526004016108089190610c4b565b60405180910390fd5b565b60008060009054906101000a900473ffffffffffffffffffffffffffffffffffffffff169050816000806101000a81548173ffffffffffffffffffffffffffffffffffffffff021916908373ffffffffffffffffffffffffffffffffffffffff1602179055508173ffffffffffffffffffffffffffffffffffffffff168173ffffffffffffffffffffffffffffffffffffffff167f8be0079c531659141344cd1fd0a4f28419497f9722a3daafe3b4186f6b6457e060405160405180910390a35050565b600033905090565b6000819050919050565b6108f2816108df565b82525050565b600060208201905061090d60008301846108e9565b92915050565b6000604051905090565b600080fd5b600080fd5b600073ffffffffffffffffffffffffffffffffffffffff82169050919050565b600061095282610927565b9050919050565b61096281610947565b811461096d57600080fd5b50565b60008135905061097f81610959565b92915050565b600080fd5b600080fd5b6000601f19601f8301169050919050565b7f4e487b7100000000000000000000000000000000000000000000000000000000600052604160045260246000fd5b6109d88261098f565b810181811067ffffffffffffffff821117156109f7576109f66109a0565b5b80604052505050565b6000610a0a610913565b9050610a1682826109cf565b919050565b600067ffffffffffffffff821115610a3657610a356109a0565b5b610a3f8261098f565b9050602081019050919050565b82818337600083830152505050565b6000610a6e610a6984610a1b565b610a00565b905082815260208101848484011115610a8a57610a8961098a565b5b610a95848285610a4c565b509392505050565b600082601f830112610ab257610ab1610985565b5b8135610ac2848260208601610a5b565b91505092915050565b60008115159050919050565b610ae081610acb565b8114610aeb57600080fd5b50565b600081359050610afd81610ad7565b92915050565b60008060008060808587031215610b1d57610b1c61091d565b5b6000610b2b87828801610970565b945050602085013567ffffffffffffffff811115610b4c57610b4b610922565b5b610b5887828801610a9d565b9350506040610b6987828801610aee565b9250506060610b7a87828801610aee565b91505092959194509250565b6000819050919050565b6000610bab610ba6610ba184610927565b610b86565b610927565b9050919050565b6000610bbd82610b90565b9050919050565b6000610bcf82610bb2565b9050919050565b610bdf81610bc4565b82525050565b6000602082019050610bfa6000830184610bd6565b92915050565b6000610c0b82610bb2565b9050919050565b610c1b81610c00565b82525050565b6000602082019050610c366000830184610c12565b92915050565b610c4581610947565b82525050565b6000602082019050610c606000830184610c3c565b92915050565b60008060408385031215610c7d57610c7c61091d565b5b6000610c8b85828601610970565b9250506020610c9c85828601610970565b9150509250929050565b600060208284031215610cbc57610cbb61091d565b5b6000610cca84828501610970565b91505092915050565b600082825260208201905092915050565b7f52657761726420616d6f756e74206973207a65726f0000000000000000000000600082015250565b6000610d1a601583610cd3565b9150610d2582610ce4565b602082019050919050565b60006020820190508181036000830152610d4981610d0d565b9050919050565b6000604082019050610d656000830185610c3c565b610d7260208301846108e9565b9392505050565b600081519050919050565b60005b83811015610da2578082015181840152602081019050610d87565b60008484015250505050565b6000610db982610d79565b610dc38185610cd3565b9350610dd3818560208601610d84565b610ddc8161098f565b840191505092915050565b6000604082019050610dfc60008301856108e9565b8181036020830152610e0e8184610dae565b90509392505050565b610e20816108df565b8114610e2b57600080fd5b50565b600081519050610e3d81610e17565b92915050565b600081519050610e5281610ad7565b92915050565b60008060008060008060c08789031215610e7557610e7461091d565b5b6000610e8389828a01610e2e565b9650506020610e9489828a01610e2e565b9550506040610ea589828a01610e2e565b9450506060610eb689828a01610e2e565b9350506080610ec789828a01610e2e565b92505060a0610ed889828a01610e43565b9150509295509295509295565b600081905092915050565b7f44524956494e4700000000000000000000000000000000000000000000000000600082015250565b6000610f26600783610ee5565b9150610f3182610ef0565b600782019050919050565b6000610f4782610f19565b9150819050919050565b6000610f5c82610d79565b610f668185610ee5565b9350610f76818560208601610d84565b80840191505092915050565b6000610f8e8284610f51565b915081905092915050565b7f4d41494e54454e414e4345000000000000000000000000000000000000000000600082015250565b6000610fcf600b83610ee5565b9150610fda82610f99565b600b82019050919050565b6000610ff082610fc2565b9150819050919050565b7f534f4349414c0000000000000000000000000000000000000000000000000000600082015250565b6000611030600683610ee5565b915061103b82610ffa565b600682019050919050565b600061105182611023565b9150819050919050565b7f4e487b7100000000000000000000000000000000000000000000000000000000600052601160045260246000fd5b6000611095826108df565b91506110a0836108df565b92508282019050808211156110b8576110b761105b565b5b92915050565b60006110c9826108df565b91506110d4836108df565b92508282026110e2816108df565b915082820484148315176110f9576110f861105b565b5b5092915050565b7f4e487b7100000000000000000000000000000000000000000000000000000000600052601260045260246000fd5b600061113a826108df565b9150611145836108df565b92508261115557611154611100565b5b82820490509291505056fea2646970667358221220001ca30d1d15d5c1ca6530a3f2a6b7b9ae7df9be3afeeed81dc88d8fde3a92dd64736f6c63430008140033","opcodes":"PUSH1 0x80 PUSH1 0x40 MSTORE CALLVALUE DUP1 ISZERO PUSH3 0x11 JUMPI PUSH1 0x0 DUP1 REVERT JUMPDEST POP PUSH1 0x40 MLOAD PUSH3 0x14A8 CODESIZE SUB DUP1 PUSH3 0x14A8 DUP4 CODECOPY DUP2 DUP2 ADD PUSH1 0x40 MSTORE DUP2 ADD SWAP1 PUSH3 0x37 SWAP2 SWAP1 PUSH3 0x278 JUMP JUMPDEST DUP1 PUSH1 0x0 PUSH20 0xFFFFFFFFFFFFFFFFFFFFFFFFFFFFFFFFFFFFFFFF AND DUP2 PUSH20 0xFFFFFFFFFFFFFFFFFFFFFFFFFFFFFFFFFFFFFFFF AND SUB PUSH3 0xAD JUMPI PUSH1 0x0 PUSH1 0x40 MLOAD PUSH32 0x1E4FBDF700000000000000000000000000000000000000000000000000000000 DUP2 MSTORE PUSH1 0x4 ADD PUSH3 0xA4 SWAP2 SWAP1 PUSH3 0x2E5 JUMP JUMPDEST PUSH1 0x40 MLOAD DUP1 SWAP2 SUB SWAP1 REVERT JUMPDEST PUSH3 0xBE DUP2 PUSH3 0x14A PUSH1 0x20 SHL PUSH1 0x20 SHR JUMP JUMPDEST POP DUP3 PUSH1 0x1 PUSH1 0x0 PUSH2 0x100 EXP DUP2 SLOAD DUP2 PUSH20 0xFFFFFFFFFFFFFFFFFFFFFFFFFFFFFFFFFFFFFFFF MUL NOT AND SWAP1 DUP4 PUSH20 0xFFFFFFFFFFFFFFFFFFFFFFFFFFFFFFFFFFFFFFFF AND MUL OR SWAP1 SSTORE POP DUP2 PUSH1 0x2 PUSH1 0x0 PUSH2 0x100 EXP DUP2 SLOAD DUP2 PUSH20 0xFFFFFFFFFFFFFFFFFFFFFFFFFFFFFFFFFFFFFFFF MUL NOT AND SWAP1 DUP4 PUSH20 0xFFFFFFFFFFFFFFFFFFFFFFFFFFFFFFFFFFFFFFFF AND MUL OR SWAP1 SSTORE POP POP POP POP PUSH3 0x302 JUMP JUMPDEST PUSH1 0x0 DUP1 PUSH1 0x0 SWAP1 SLOAD SWAP1 PUSH2 0x100 EXP SWAP1 DIV PUSH20 0xFFFFFFFFFFFFFFFFFFFFFFFFFFFFFFFFFFFFFFFF AND SWAP1 POP DUP2 PUSH1 0x0 DUP1 PUSH2 0x100 EXP DUP2 SLOAD DUP2 PUSH20 0xFFFFFFFFFFFFFFFFFFFFFFFFFFFFFFFFFFFFFFFF MUL NOT AND SWAP1 DUP4 PUSH20 0xFFFFFFFFFFFFFFFFFFFFFFFFFFFFFFFFFFFFFFFF AND MUL OR SWAP1 SSTORE POP DUP2 PUSH20 0xFFFFFFFFFFFFFFFFFFFFFFFFFFFFFFFFFFFFFFFF AND DUP2 PUSH20 0xFFFFFFFFFFFFFFFFFFFFFFFFFFFFFFFFFFFFFFFF AND PUSH32 0x8BE0079C531659141344CD1FD0A4F28419497F9722A3DAAFE3B4186F6B6457E0 PUSH1 0x40 MLOAD PUSH1 0x40 MLOAD DUP1 SWAP2 SUB SWAP1 LOG3 POP POP JUMP JUMPDEST PUSH1 0x0 DUP1 REVERT JUMPDEST PUSH1 0x0 PUSH20 0xFFFFFFFFFFFFFFFFFFFFFFFFFFFFFFFFFFFFFFFF DUP3 AND SWAP1 POP SWAP2 SWAP1 POP JUMP JUMPDEST PUSH1 0x0 PUSH3 0x240 DUP3 PUSH3 0x213 JUMP JUMPDEST SWAP1 POP SWAP2 SWAP1 POP JUMP JUMPDEST PUSH3 0x252 DUP2 PUSH3 0x233 JUMP JUMPDEST DUP2 EQ PUSH3 0x25E JUMPI PUSH1 0x0 DUP1 REVERT JUMPDEST POP JUMP JUMPDEST PUSH1 0x0 DUP2 MLOAD SWAP1 POP PUSH3 0x272 DUP2 PUSH3 0x247 JUMP JUMPDEST SWAP3 SWAP2 POP POP JUMP JUMPDEST PUSH1 0x0 DUP1 PUSH1 0x0 PUSH1 0x60 DUP5 DUP7 SUB SLT ISZERO PUSH3 0x294 JUMPI PUSH3 0x293 PUSH3 0x20E JUMP JUMPDEST JUMPDEST PUSH1 0x0 PUSH3 0x2A4 DUP7 DUP3 DUP8 ADD PUSH3 0x261 JUMP JUMPDEST SWAP4 POP POP PUSH1 0x20 PUSH3 0x2B7 DUP7 DUP3 DUP8 ADD PUSH3 0x261 JUMP JUMPDEST SWAP3 POP POP PUSH1 0x40 PUSH3 0x2CA DUP7 DUP3 DUP8 ADD PUSH3 0x261 JUMP JUMPDEST SWAP2 POP POP SWAP3 POP SWAP3 POP SWAP3 JUMP JUMPDEST PUSH3 0x2DF DUP2 PUSH3 0x233 JUMP JUMPDEST DUP3 MSTORE POP POP JUMP JUMPDEST PUSH1 0x0 PUSH1 0x20 DUP3 ADD SWAP1 POP PUSH3 0x2FC PUSH1 0x0 DUP4 ADD DUP5 PUSH3 0x2D4 JUMP JUMPDEST SWAP3 SWAP2 POP POP JUMP JUMPDEST PUSH2 0x1196 DUP1 PUSH3 0x312 PUSH1 0x0 CODECOPY PUSH1 0x0 RETURN INVALID PUSH1 0x80 PUSH1 0x40 MSTORE CALLVALUE DUP1 ISZERO PUSH2 0x10 JUMPI PUSH1 0x0 DUP1 REVERT JUMPDEST POP PUSH1 0x4 CALLDATASIZE LT PUSH2 0xB4 JUMPI PUSH1 0x0 CALLDATALOAD PUSH1 0xE0 SHR DUP1 PUSH4 0x87BC1425 GT PUSH2 0x71 JUMPI DUP1 PUSH4 0x87BC1425 EQ PUSH2 0x157 JUMPI DUP1 PUSH4 0x8A2B8258 EQ PUSH2 0x175 JUMPI DUP1 PUSH4 0x8D5ED145 EQ PUSH2 0x193 JUMPI DUP1 PUSH4 0x8DA5CB5B EQ PUSH2 0x1C3 JUMPI DUP1 PUSH4 0xE692C49F EQ PUSH2 0x1E1 JUMPI DUP1 PUSH4 0xF2FDE38B EQ PUSH2 0x1FD JUMPI PUSH2 0xB4 JUMP JUMPDEST DUP1 PUSH4 0x21BA2F10 EQ PUSH2 0xB9 JUMPI DUP1 PUSH4 0x22009AF6 EQ PUSH2 0xD7 JUMPI DUP1 PUSH4 0x2C886C0F EQ PUSH2 0xF5 JUMPI DUP1 PUSH4 0x55A373D6 EQ PUSH2 0x111 JUMPI DUP1 PUSH4 0x5C97130E EQ PUSH2 0x12F JUMPI DUP1 PUSH4 0x715018A6 EQ PUSH2 0x14D JUMPI JUMPDEST PUSH1 0x0 DUP1 REVERT JUMPDEST PUSH2 0xC1 PUSH2 0x219 JUMP JUMPDEST PUSH1 0x40 MLOAD PUSH2 0xCE SWAP2 SWAP1 PUSH2 0x8F8 JUMP JUMPDEST PUSH1 0x40 MLOAD DUP1 SWAP2 SUB SWAP1 RETURN JUMPDEST PUSH2 0xDF PUSH2 0x21F JUMP JUMPDEST PUSH1 0x40 MLOAD PUSH2 0xEC SWAP2 SWAP1 PUSH2 0x8F8 JUMP JUMPDEST PUSH1 0x40 MLOAD DUP1 SWAP2 SUB SWAP1 RETURN JUMPDEST PUSH2 0x10F PUSH1 0x4 DUP1 CALLDATASIZE SUB DUP2 ADD SWAP1 PUSH2 0x10A SWAP2 SWAP1 PUSH2 0xB03 JUMP JUMPDEST PUSH2 0x22C JUMP JUMPDEST STOP JUMPDEST PUSH2 0x119 PUSH2 0x36D JUMP JUMPDEST PUSH1 0x40 MLOAD PUSH2 0x126 SWAP2 SWAP1 PUSH2 0xBE5 JUMP JUMPDEST PUSH1 0x40 MLOAD DUP1 SWAP2 SUB SWAP1 RETURN JUMPDEST PUSH2 0x137 PUSH2 0x393 JUMP JUMPDEST PUSH1 0x40 MLOAD PUSH2 0x144 SWAP2 SWAP1 PUSH2 0x8F8 JUMP JUMPDEST PUSH1 0x40 MLOAD DUP1 SWAP2 SUB SWAP1 RETURN JUMPDEST PUSH2 0x155 PUSH2 0x399 JUMP JUMPDEST STOP JUMPDEST PUSH2 0x15F PUSH2 0x3AD JUMP JUMPDEST PUSH1 0x40 MLOAD PUSH2 0x16C SWAP2 SWAP1 PUSH2 0xC21 JUMP JUMPDEST PUSH1 0x40 MLOAD DUP1 SWAP2 SUB SWAP1 RETURN JUMPDEST PUSH2 0x17D PUSH2 0x3D3 JUMP JUMPDEST PUSH1 0x40 MLOAD PUSH2 0x18A SWAP2 SWAP1 PUSH2 0x8F8 JUMP JUMPDEST PUSH1 0x40 MLOAD DUP1 SWAP2 SUB SWAP1 RETURN JUMPDEST PUSH2 0x1AD PUSH1 0x4 DUP1 CALLDATASIZE SUB DUP2 ADD SWAP1 PUSH2 0x1A8 SWAP2 SWAP1 PUSH2 0xB03 JUMP JUMPDEST PUSH2 0x3D9 JUMP JUMPDEST PUSH1 0x40 MLOAD PUSH2 0x1BA SWAP2 SWAP1 PUSH2 0x8F8 JUMP JUMPDEST PUSH1 0x40 MLOAD DUP1 SWAP2 SUB SWAP1 RETURN JUMPDEST PUSH2 0x1CB PUSH2 0x64F JUMP JUMPDEST PUSH1 0x40 MLOAD PUSH2 0x1D8 SWAP2 SWAP1 PUSH2 0xC4B JUMP JUMPDEST PUSH1 0x40 MLOAD DUP1 SWAP2 SUB SWAP1 RETURN JUMPDEST PUSH2 0x1FB PUSH1 0x4 DUP1 CALLDATASIZE SUB DUP2 ADD SWAP1 PUSH2 0x1F6 SWAP2 SWAP1 PUSH2 0xC66 JUMP JUMPDEST PUSH2 0x678 JUMP JUMPDEST STOP JUMPDEST PUSH2 0x217 PUSH1 0x4 DUP1 CALLDATASIZE SUB DUP2 ADD SWAP1 PUSH2 0x212 SWAP2 SWAP1 PUSH2 0xCA6 JUMP JUMPDEST PUSH2 0x706 JUMP JUMPDEST STOP JUMPDEST PUSH2 0x5DC DUP2 JUMP JUMPDEST PUSH9 0x56BC75E2D63100000 DUP2 JUMP JUMPDEST PUSH2 0x234 PUSH2 0x78C JUMP JUMPDEST PUSH1 0x0 PUSH2 0x242 DUP6 DUP6 DUP6 DUP6 PUSH2 0x3D9 JUMP JUMPDEST SWAP1 POP PUSH1 0x0 DUP2 GT PUSH2 0x287 JUMPI PUSH1 0x40 MLOAD PUSH32 0x8C379A000000000000000000000000000000000000000000000000000000000 DUP2 MSTORE PUSH1 0x4 ADD PUSH2 0x27E SWAP1 PUSH2 0xD30 JUMP JUMPDEST PUSH1 0x40 MLOAD DUP1 SWAP2 SUB SWAP1 REVERT JUMPDEST PUSH1 0x2 PUSH1 0x0 SWAP1 SLOAD SWAP1 PUSH2 0x100 EXP SWAP1 DIV PUSH20 0xFFFFFFFFFFFFFFFFFFFFFFFFFFFFFFFFFFFFFFFF AND PUSH20 0xFFFFFFFFFFFFFFFFFFFFFFFFFFFFFFFFFFFFFFFF AND PUSH4 0x40C10F19 DUP7 DUP4 PUSH1 0x40 MLOAD DUP4 PUSH4 0xFFFFFFFF AND PUSH1 0xE0 SHL DUP2 MSTORE PUSH1 0x4 ADD PUSH2 0x2E4 SWAP3 SWAP2 SWAP1 PUSH2 0xD50 JUMP JUMPDEST PUSH1 0x0 PUSH1 0x40 MLOAD DUP1 DUP4 SUB DUP2 PUSH1 0x0 DUP8 DUP1 EXTCODESIZE ISZERO DUP1 ISZERO PUSH2 0x2FE JUMPI PUSH1 0x0 DUP1 REVERT JUMPDEST POP GAS CALL ISZERO DUP1 ISZERO PUSH2 0x312 JUMPI RETURNDATASIZE PUSH1 0x0 DUP1 RETURNDATACOPY RETURNDATASIZE PUSH1 0x0 REVERT JUMPDEST POP POP POP POP DUP5 PUSH20 0xFFFFFFFFFFFFFFFFFFFFFFFFFFFFFFFFFFFFFFFF AND PUSH32 0x49649141D16971A88C3CFDD73FEC34BABB1CF163CF8B804C8F537A023C6CE506 DUP3 DUP7 PUSH1 0x40 MLOAD PUSH2 0x35E SWAP3 SWAP2 SWAP1 PUSH2 0xDE7 JUMP JUMPDEST PUSH1 0x40 MLOAD DUP1 SWAP2 SUB SWAP1 LOG2 POP POP POP POP POP JUMP JUMPDEST PUSH1 0x2 PUSH1 0x0 SWAP1 SLOAD SWAP1 PUSH2 0x100 EXP SWAP1 DIV PUSH20 0xFFFFFFFFFFFFFFFFFFFFFFFFFFFFFFFFFFFFFFFF AND DUP2 JUMP JUMPDEST PUSH2 0x1194 DUP2 JUMP JUMPDEST PUSH2 0x3A1 PUSH2 0x78C JUMP JUMPDEST PUSH2 0x3AB PUSH1 0x0 PUSH2 0x813 JUMP JUMPDEST JUMP JUMPDEST PUSH1 0x1 PUSH1 0x0 SWAP1 SLOAD SWAP1 PUSH2 0x100 EXP SWAP1 DIV PUSH20 0xFFFFFFFFFFFFFFFFFFFFFFFFFFFFFFFFFFFFFFFF AND DUP2 JUMP JUMPDEST PUSH2 0xFA0 DUP2 JUMP JUMPDEST PUSH1 0x0 DUP1 PUSH1 0x1 PUSH1 0x0 SWAP1 SLOAD SWAP1 PUSH2 0x100 EXP SWAP1 DIV PUSH20 0xFFFFFFFFFFFFFFFFFFFFFFFFFFFFFFFFFFFFFFFF AND PUSH20 0xFFFFFFFFFFFFFFFFFFFFFFFFFFFFFFFFFFFFFFFF AND PUSH4 0x98BF9A5D DUP8 PUSH1 0x40 MLOAD DUP3 PUSH4 0xFFFFFFFF AND PUSH1 0xE0 SHL DUP2 MSTORE PUSH1 0x4 ADD PUSH2 0x437 SWAP2 SWAP1 PUSH2 0xC4B JUMP JUMPDEST PUSH1 0xC0 PUSH1 0x40 MLOAD DUP1 DUP4 SUB DUP2 DUP7 GAS STATICCALL ISZERO DUP1 ISZERO PUSH2 0x454 JUMPI RETURNDATASIZE PUSH1 0x0 DUP1 RETURNDATACOPY RETURNDATASIZE PUSH1 0x0 REVERT JUMPDEST POP POP POP POP PUSH1 0x40 MLOAD RETURNDATASIZE PUSH1 0x1F NOT PUSH1 0x1F DUP3 ADD AND DUP3 ADD DUP1 PUSH1 0x40 MSTORE POP DUP2 ADD SWAP1 PUSH2 0x478 SWAP2 SWAP1 PUSH2 0xE58 JUMP JUMPDEST POP SWAP5 POP POP POP POP POP PUSH1 0x0 PUSH9 0x56BC75E2D63100000 SWAP1 POP PUSH1 0x0 PUSH1 0x40 MLOAD PUSH1 0x20 ADD PUSH2 0x49E SWAP1 PUSH2 0xF3C JUMP JUMPDEST PUSH1 0x40 MLOAD PUSH1 0x20 DUP2 DUP4 SUB SUB DUP2 MSTORE SWAP1 PUSH1 0x40 MSTORE DUP1 MLOAD SWAP1 PUSH1 0x20 ADD KECCAK256 DUP8 PUSH1 0x40 MLOAD PUSH1 0x20 ADD PUSH2 0x4C5 SWAP2 SWAP1 PUSH2 0xF82 JUMP JUMPDEST PUSH1 0x40 MLOAD PUSH1 0x20 DUP2 DUP4 SUB SUB DUP2 MSTORE SWAP1 PUSH1 0x40 MSTORE DUP1 MLOAD SWAP1 PUSH1 0x20 ADD KECCAK256 SUB PUSH2 0x4EA JUMPI PUSH2 0xFA0 SWAP1 POP PUSH2 0x5A8 JUMP JUMPDEST PUSH1 0x40 MLOAD PUSH1 0x20 ADD PUSH2 0x4F9 SWAP1 PUSH2 0xFE5 JUMP JUMPDEST PUSH1 0x40 MLOAD PUSH1 0x20 DUP2 DUP4 SUB SUB DUP2 MSTORE SWAP1 PUSH1 0x40 MSTORE DUP1 MLOAD SWAP1 PUSH1 0x20 ADD KECCAK256 DUP8 PUSH1 0x40 MLOAD PUSH1 0x20 ADD PUSH2 0x520 SWAP2 SWAP1 PUSH2 0xF82 JUMP JUMPDEST PUSH1 0x40 MLOAD PUSH1 0x20 DUP2 DUP4 SUB SUB DUP2 MSTORE SWAP1 PUSH1 0x40 MSTORE DUP1 MLOAD SWAP1 PUSH1 0x20 ADD KECCAK256 SUB PUSH2 0x545 JUMPI PUSH2 0x1194 SWAP1 POP PUSH2 0x5A7 JUMP JUMPDEST PUSH1 0x40 MLOAD PUSH1 0x20 ADD PUSH2 0x554 SWAP1 PUSH2 0x1046 JUMP JUMPDEST PUSH1 0x40 MLOAD PUSH1 0x20 DUP2 DUP4 SUB SUB DUP2 MSTORE SWAP1 PUSH1 0x40 MSTORE DUP1 MLOAD SWAP1 PUSH1 0x20 ADD KECCAK256 DUP8 PUSH1 0x40 MLOAD PUSH1 0x20 ADD PUSH2 0x57B SWAP2 SWAP1 PUSH2 0xF82 JUMP JUMPDEST PUSH1 0x40 MLOAD PUSH1 0x20 DUP2 DUP4 SUB SUB DUP2 MSTORE SWAP1 PUSH1 0x40 MSTORE DUP1 MLOAD SWAP1 PUSH1 0x20 ADD KECCAK256 SUB PUSH2 0x5A0 JUMPI PUSH2 0x5DC SWAP1 POP PUSH2 0x5A6 JUMP JUMPDEST PUSH2 0x3E8 SWAP1 POP JUMPDEST JUMPDEST JUMPDEST PUSH1 0x0 PUSH1 0x64 SWAP1 POP PUSH1 0x5A DUP5 LT PUSH2 0x5BF JUMPI PUSH1 0xC8 SWAP1 POP PUSH2 0x5DF JUMP JUMPDEST PUSH1 0x46 DUP5 LT PUSH2 0x5D0 JUMPI PUSH1 0x96 SWAP1 POP PUSH2 0x5DE JUMP JUMPDEST PUSH1 0x28 DUP5 LT PUSH2 0x5DD JUMPI PUSH1 0x78 SWAP1 POP JUMPDEST JUMPDEST JUMPDEST DUP7 ISZERO PUSH2 0x5F5 JUMPI PUSH1 0x14 DUP2 PUSH2 0x5F2 SWAP2 SWAP1 PUSH2 0x108A JUMP JUMPDEST SWAP1 POP JUMPDEST DUP6 ISZERO PUSH2 0x60B JUMPI PUSH1 0xA DUP2 PUSH2 0x608 SWAP2 SWAP1 PUSH2 0x108A JUMP JUMPDEST SWAP1 POP JUMPDEST PUSH1 0x0 PUSH1 0x64 DUP3 DUP6 PUSH2 0x61B SWAP2 SWAP1 PUSH2 0x10BE JUMP JUMPDEST PUSH2 0x625 SWAP2 SWAP1 PUSH2 0x112F JUMP JUMPDEST SWAP1 POP PUSH2 0x2710 DUP4 DUP3 PUSH2 0x636 SWAP2 SWAP1 PUSH2 0x10BE JUMP JUMPDEST PUSH2 0x640 SWAP2 SWAP1 PUSH2 0x112F JUMP JUMPDEST SWAP6 POP POP POP POP POP POP SWAP5 SWAP4 POP POP POP POP JUMP JUMPDEST PUSH1 0x0 DUP1 PUSH1 0x0 SWAP1 SLOAD SWAP1 PUSH2 0x100 EXP SWAP1 DIV PUSH20 0xFFFFFFFFFFFFFFFFFFFFFFFFFFFFFFFFFFFFFFFF AND SWAP1 POP SWAP1 JUMP JUMPDEST PUSH2 0x680 PUSH2 0x78C JUMP JUMPDEST DUP2 PUSH1 0x1 PUSH1 0x0 PUSH2 0x100 EXP DUP2 SLOAD DUP2 PUSH20 0xFFFFFFFFFFFFFFFFFFFFFFFFFFFFFFFFFFFFFFFF MUL NOT AND SWAP1 DUP4 PUSH20 0xFFFFFFFFFFFFFFFFFFFFFFFFFFFFFFFFFFFFFFFF AND MUL OR SWAP1 SSTORE POP DUP1 PUSH1 0x2 PUSH1 0x0 PUSH2 0x100 EXP DUP2 SLOAD DUP2 PUSH20 0xFFFFFFFFFFFFFFFFFFFFFFFFFFFFFFFFFFFFFFFF MUL NOT AND SWAP1 DUP4 PUSH20 0xFFFFFFFFFFFFFFFFFFFFFFFFFFFFFFFFFFFFFFFF AND MUL OR SWAP1 SSTORE POP POP POP JUMP JUMPDEST PUSH2 0x70E PUSH2 0x78C JUMP JUMPDEST PUSH1 0x0 PUSH20 0xFFFFFFFFFFFFFFFFFFFFFFFFFFFFFFFFFFFFFFFF AND DUP2 PUSH20 0xFFFFFFFFFFFFFFFFFFFFFFFFFFFFFFFFFFFFFFFF AND SUB PUSH2 0x780 JUMPI PUSH1 0x0 PUSH1 0x40 MLOAD PUSH32 0x1E4FBDF700000000000000000000000000000000000000000000000000000000 DUP2 MSTORE PUSH1 0x4 ADD PUSH2 0x777 SWAP2 SWAP1 PUSH2 0xC4B JUMP JUMPDEST PUSH1 0x40 MLOAD DUP1 SWAP2 SUB SWAP1 REVERT JUMPDEST PUSH2 0x789 DUP2 PUSH2 0x813 JUMP JUMPDEST POP JUMP JUMPDEST PUSH2 0x794 PUSH2 0x8D7 JUMP JUMPDEST PUSH20 0xFFFFFFFFFFFFFFFFFFFFFFFFFFFFFFFFFFFFFFFF AND PUSH2 0x7B2 PUSH2 0x64F JUMP JUMPDEST PUSH20 0xFFFFFFFFFFFFFFFFFFFFFFFFFFFFFFFFFFFFFFFF AND EQ PUSH2 0x811 JUMPI PUSH2 0x7D5 PUSH2 0x8D7 JUMP JUMPDEST PUSH1 0x40 MLOAD PUSH32 0x118CDAA700000000000000000000000000000000000000000000000000000000 DUP2 MSTORE PUSH1 0x4 ADD PUSH2 0x808 SWAP2 SWAP1 PUSH2 0xC4B JUMP JUMPDEST PUSH1 0x40 MLOAD DUP1 SWAP2 SUB SWAP1 REVERT JUMPDEST JUMP JUMPDEST PUSH1 0x0 DUP1 PUSH1 0x0 SWAP1 SLOAD SWAP1 PUSH2 0x100 EXP SWAP1 DIV PUSH20 0xFFFFFFFFFFFFFFFFFFFFFFFFFFFFFFFFFFFFFFFF AND SWAP1 POP DUP2 PUSH1 0x0 DUP1 PUSH2 0x100 EXP DUP2 SLOAD DUP2 PUSH20 0xFFFFFFFFFFFFFFFFFFFFFFFFFFFFFFFFFFFFFFFF MUL NOT AND SWAP1 DUP4 PUSH20 0xFFFFFFFFFFFFFFFFFFFFFFFFFFFFFFFFFFFFFFFF AND MUL OR SWAP1 SSTORE POP DUP2 PUSH20 0xFFFFFFFFFFFFFFFFFFFFFFFFFFFFFFFFFFFFFFFF AND DUP2 PUSH20 0xFFFFFFFFFFFFFFFFFFFFFFFFFFFFFFFFFFFFFFFF AND PUSH32 0x8BE0079C531659141344CD1FD0A4F28419497F9722A3DAAFE3B4186F6B6457E0 PUSH1 0x40 MLOAD PUSH1 0x40 MLOAD DUP1 SWAP2 SUB SWAP1 LOG3 POP POP JUMP JUMPDEST PUSH1 0x0 CALLER SWAP1 POP SWAP1 JUMP JUMPDEST PUSH1 0x0 DUP2 SWAP1 POP SWAP2 SWAP1 POP JUMP JUMPDEST PUSH2 0x8F2 DUP2 PUSH2 0x8DF JUMP JUMPDEST DUP3 MSTORE POP POP JUMP JUMPDEST PUSH1 0x0 PUSH1 0x20 DUP3 ADD SWAP1 POP PUSH2 0x90D PUSH1 0x0 DUP4 ADD DUP5 PUSH2 0x8E9 JUMP JUMPDEST SWAP3 SWAP2 POP POP JUMP JUMPDEST PUSH1 0x0 PUSH1 0x40 MLOAD SWAP1 POP SWAP1 JUMP JUMPDEST PUSH1 0x0 DUP1 REVERT JUMPDEST PUSH1 0x0 DUP1 REVERT JUMPDEST PUSH1 0x0 PUSH20 0xFFFFFFFFFFFFFFFFFFFFFFFFFFFFFFFFFFFFFFFF DUP3 AND SWAP1 POP SWAP2 SWAP1 POP JUMP JUMPDEST PUSH1 0x0 PUSH2 0x952 DUP3 PUSH2 0x927 JUMP JUMPDEST SWAP1 POP SWAP2 SWAP1 POP JUMP JUMPDEST PUSH2 0x962 DUP2 PUSH2 0x947 JUMP JUMPDEST DUP2 EQ PUSH2 0x96D JUMPI PUSH1 0x0 DUP1 REVERT JUMPDEST POP JUMP JUMPDEST PUSH1 0x0 DUP2 CALLDATALOAD SWAP1 POP PUSH2 0x97F DUP2 PUSH2 0x959 JUMP JUMPDEST SWAP3 SWAP2 POP POP JUMP JUMPDEST PUSH1 0x0 DUP1 REVERT JUMPDEST PUSH1 0x0 DUP1 REVERT JUMPDEST PUSH1 0x0 PUSH1 0x1F NOT PUSH1 0x1F DUP4 ADD AND SWAP1 POP SWAP2 SWAP1 POP JUMP JUMPDEST PUSH32 0x4E487B7100000000000000000000000000000000000000000000000000000000 PUSH1 0x0 MSTORE PUSH1 0x41 PUSH1 0x4 MSTORE PUSH1 0x24 PUSH1 0x0 REVERT JUMPDEST PUSH2 0x9D8 DUP3 PUSH2 0x98F JUMP JUMPDEST DUP2 ADD DUP2 DUP2 LT PUSH8 0xFFFFFFFFFFFFFFFF DUP3 GT OR ISZERO PUSH2 0x9F7 JUMPI PUSH2 0x9F6 PUSH2 0x9A0 JUMP JUMPDEST JUMPDEST DUP1 PUSH1 0x40 MSTORE POP POP POP JUMP JUMPDEST PUSH1 0x0 PUSH2 0xA0A PUSH2 0x913 JUMP JUMPDEST SWAP1 POP PUSH2 0xA16 DUP3 DUP3 PUSH2 0x9CF JUMP JUMPDEST SWAP2 SWAP1 POP JUMP JUMPDEST PUSH1 0x0 PUSH8 0xFFFFFFFFFFFFFFFF DUP3 GT ISZERO PUSH2 0xA36 JUMPI PUSH2 0xA35 PUSH2 0x9A0 JUMP JUMPDEST JUMPDEST PUSH2 0xA3F DUP3 PUSH2 0x98F JUMP JUMPDEST SWAP1 POP PUSH1 0x20 DUP2 ADD SWAP1 POP SWAP2 SWAP1 POP JUMP JUMPDEST DUP3 DUP2 DUP4 CALLDATACOPY PUSH1 0x0 DUP4 DUP4 ADD MSTORE POP POP POP JUMP JUMPDEST PUSH1 0x0 PUSH2 0xA6E PUSH2 0xA69 DUP5 PUSH2 0xA1B JUMP JUMPDEST PUSH2 0xA00 JUMP JUMPDEST SWAP1 POP DUP3 DUP2 MSTORE PUSH1 0x20 DUP2 ADD DUP5 DUP5 DUP5 ADD GT ISZERO PUSH2 0xA8A JUMPI PUSH2 0xA89 PUSH2 0x98A JUMP JUMPDEST JUMPDEST PUSH2 0xA95 DUP5 DUP3 DUP6 PUSH2 0xA4C JUMP JUMPDEST POP SWAP4 SWAP3 POP POP POP JUMP JUMPDEST PUSH1 0x0 DUP3 PUSH1 0x1F DUP4 ADD SLT PUSH2 0xAB2 JUMPI PUSH2 0xAB1 PUSH2 0x985 JUMP JUMPDEST JUMPDEST DUP2 CALLDATALOAD PUSH2 0xAC2 DUP5 DUP3 PUSH1 0x20 DUP7 ADD PUSH2 0xA5B JUMP JUMPDEST SWAP2 POP POP SWAP3 SWAP2 POP POP JUMP JUMPDEST PUSH1 0x0 DUP2 ISZERO ISZERO SWAP1 POP SWAP2 SWAP1 POP JUMP JUMPDEST PUSH2 0xAE0 DUP2 PUSH2 0xACB JUMP JUMPDEST DUP2 EQ PUSH2 0xAEB JUMPI PUSH1 0x0 DUP1 REVERT JUMPDEST POP JUMP JUMPDEST PUSH1 0x0 DUP2 CALLDATALOAD SWAP1 POP PUSH2 0xAFD DUP2 PUSH2 0xAD7 JUMP JUMPDEST SWAP3 SWAP2 POP POP JUMP JUMPDEST PUSH1 0x0 DUP1 PUSH1 0x0 DUP1 PUSH1 0x80 DUP6 DUP8 SUB SLT ISZERO PUSH2 0xB1D JUMPI PUSH2 0xB1C PUSH2 0x91D JUMP JUMPDEST JUMPDEST PUSH1 0x0 PUSH2 0xB2B DUP8 DUP3 DUP9 ADD PUSH2 0x970 JUMP JUMPDEST SWAP5 POP POP PUSH1 0x20 DUP6 ADD CALLDATALOAD PUSH8 0xFFFFFFFFFFFFFFFF DUP2 GT ISZERO PUSH2 0xB4C JUMPI PUSH2 0xB4B PUSH2 0x922 JUMP JUMPDEST JUMPDEST PUSH2 0xB58 DUP8 DUP3 DUP9 ADD PUSH2 0xA9D JUMP JUMPDEST SWAP4 POP POP PUSH1 0x40 PUSH2 0xB69 DUP8 DUP3 DUP9 ADD PUSH2 0xAEE JUMP JUMPDEST SWAP3 POP POP PUSH1 0x60 PUSH2 0xB7A DUP8 DUP3 DUP9 ADD PUSH2 0xAEE JUMP JUMPDEST SWAP2 POP POP SWAP3 SWAP6 SWAP2 SWAP5 POP SWAP3 POP JUMP JUMPDEST PUSH1 0x0 DUP2 SWAP1 POP SWAP2 SWAP1 POP JUMP JUMPDEST PUSH1 0x0 PUSH2 0xBAB PUSH2 0xBA6 PUSH2 0xBA1 DUP5 PUSH2 0x927 JUMP JUMPDEST PUSH2 0xB86 JUMP JUMPDEST PUSH2 0x927 JUMP JUMPDEST SWAP1 POP SWAP2 SWAP1 POP JUMP JUMPDEST PUSH1 0x0 PUSH2 0xBBD DUP3 PUSH2 0xB90 JUMP JUMPDEST SWAP1 POP SWAP2 SWAP1 POP JUMP JUMPDEST PUSH1 0x0 PUSH2 0xBCF DUP3 PUSH2 0xBB2 JUMP JUMPDEST SWAP1 POP SWAP2 SWAP1 POP JUMP JUMPDEST PUSH2 0xBDF DUP2 PUSH2 0xBC4 JUMP JUMPDEST DUP3 MSTORE POP POP JUMP JUMPDEST PUSH1 0x0 PUSH1 0x20 DUP3 ADD SWAP1 POP PUSH2 0xBFA PUSH1 0x0 DUP4 ADD DUP5 PUSH2 0xBD6 JUMP JUMPDEST SWAP3 SWAP2 POP POP JUMP JUMPDEST PUSH1 0x0 PUSH2 0xC0B DUP3 PUSH2 0xBB2 JUMP JUMPDEST SWAP1 POP SWAP2 SWAP1 POP JUMP JUMPDEST PUSH2 0xC1B DUP2 PUSH2 0xC00 JUMP JUMPDEST DUP3 MSTORE POP POP JUMP JUMPDEST PUSH1 0x0 PUSH1 0x20 DUP3 ADD SWAP1 POP PUSH2 0xC36 PUSH1 0x0 DUP4 ADD DUP5 PUSH2 0xC12 JUMP JUMPDEST SWAP3 SWAP2 POP POP JUMP JUMPDEST PUSH2 0xC45 DUP2 PUSH2 0x947 JUMP JUMPDEST DUP3 MSTORE POP POP JUMP JUMPDEST PUSH1 0x0 PUSH1 0x20 DUP3 ADD SWAP1 POP PUSH2 0xC60 PUSH1 0x0 DUP4 ADD DUP5 PUSH2 0xC3C JUMP JUMPDEST SWAP3 SWAP2 POP POP JUMP JUMPDEST PUSH1 0x0 DUP1 PUSH1 0x40 DUP4 DUP6 SUB SLT ISZERO PUSH2 0xC7D JUMPI PUSH2 0xC7C PUSH2 0x91D JUMP JUMPDEST JUMPDEST PUSH1 0x0 PUSH2 0xC8B DUP6 DUP3 DUP7 ADD PUSH2 0x970 JUMP JUMPDEST SWAP3 POP POP PUSH1 0x20 PUSH2 0xC9C DUP6 DUP3 DUP7 ADD PUSH2 0x970 JUMP JUMPDEST SWAP2 POP POP SWAP3 POP SWAP3 SWAP1 POP JUMP JUMPDEST PUSH1 0x0 PUSH1 0x20 DUP3 DUP5 SUB SLT ISZERO PUSH2 0xCBC JUMPI PUSH2 0xCBB PUSH2 0x91D JUMP JUMPDEST JUMPDEST PUSH1 0x0 PUSH2 0xCCA DUP5 DUP3 DUP6 ADD PUSH2 0x970 JUMP JUMPDEST SWAP2 POP POP SWAP3 SWAP2 POP POP JUMP JUMPDEST PUSH1 0x0 DUP3 DUP3 MSTORE PUSH1 0x20 DUP3 ADD SWAP1 POP SWAP3 SWAP2 POP POP JUMP JUMPDEST PUSH32 0x52657761726420616D6F756E74206973207A65726F0000000000000000000000 PUSH1 0x0 DUP3 ADD MSTORE POP JUMP JUMPDEST PUSH1 0x0 PUSH2 0xD1A PUSH1 0x15 DUP4 PUSH2 0xCD3 JUMP JUMPDEST SWAP2 POP PUSH2 0xD25 DUP3 PUSH2 0xCE4 JUMP JUMPDEST PUSH1 0x20 DUP3 ADD SWAP1 POP SWAP2 SWAP1 POP JUMP JUMPDEST PUSH1 0x0 PUSH1 0x20 DUP3 ADD SWAP1 POP DUP2 DUP2 SUB PUSH1 0x0 DUP4 ADD MSTORE PUSH2 0xD49 DUP2 PUSH2 0xD0D JUMP JUMPDEST SWAP1 POP SWAP2 SWAP1 POP JUMP JUMPDEST PUSH1 0x0 PUSH1 0x40 DUP3 ADD SWAP1 POP PUSH2 0xD65 PUSH1 0x0 DUP4 ADD DUP6 PUSH2 0xC3C JUMP JUMPDEST PUSH2 0xD72 PUSH1 0x20 DUP4 ADD DUP5 PUSH2 0x8E9 JUMP JUMPDEST SWAP4 SWAP3 POP POP POP JUMP JUMPDEST PUSH1 0x0 DUP2 MLOAD SWAP1 POP SWAP2 SWAP1 POP JUMP JUMPDEST PUSH1 0x0 JUMPDEST DUP4 DUP2 LT ISZERO PUSH2 0xDA2 JUMPI DUP1 DUP3 ADD MLOAD DUP2 DUP5 ADD MSTORE PUSH1 0x20 DUP2 ADD SWAP1 POP PUSH2 0xD87 JUMP JUMPDEST PUSH1 0x0 DUP5 DUP5 ADD MSTORE POP POP POP POP JUMP JUMPDEST PUSH1 0x0 PUSH2 0xDB9 DUP3 PUSH2 0xD79 JUMP JUMPDEST PUSH2 0xDC3 DUP2 DUP6 PUSH2 0xCD3 JUMP JUMPDEST SWAP4 POP PUSH2 0xDD3 DUP2 DUP6 PUSH1 0x20 DUP7 ADD PUSH2 0xD84 JUMP JUMPDEST PUSH2 0xDDC DUP2 PUSH2 0x98F JUMP JUMPDEST DUP5 ADD SWAP2 POP POP SWAP3 SWAP2 POP POP JUMP JUMPDEST PUSH1 0x0 PUSH1 0x40 DUP3 ADD SWAP1 POP PUSH2 0xDFC PUSH1 0x0 DUP4 ADD DUP6 PUSH2 0x8E9 JUMP JUMPDEST DUP2 DUP2 SUB PUSH1 0x20 DUP4 ADD MSTORE PUSH2 0xE0E DUP2 DUP5 PUSH2 0xDAE JUMP JUMPDEST SWAP1 POP SWAP4 SWAP3 POP POP POP JUMP JUMPDEST PUSH2 0xE20 DUP2 PUSH2 0x8DF JUMP JUMPDEST DUP2 EQ PUSH2 0xE2B JUMPI PUSH1 0x0 DUP1 REVERT JUMPDEST POP JUMP JUMPDEST PUSH1 0x0 DUP2 MLOAD SWAP1 POP PUSH2 0xE3D DUP2 PUSH2 0xE17 JUMP JUMPDEST SWAP3 SWAP2 POP POP JUMP JUMPDEST PUSH1 0x0 DUP2 MLOAD SWAP1 POP PUSH2 0xE52 DUP2 PUSH2 0xAD7 JUMP JUMPDEST SWAP3 SWAP2 POP POP JUMP JUMPDEST PUSH1 0x0 DUP1 PUSH1 0x0 DUP1 PUSH1 0x0 DUP1 PUSH1 0xC0 DUP8 DUP10 SUB SLT ISZERO PUSH2 0xE75 JUMPI PUSH2 0xE74 PUSH2 0x91D JUMP JUMPDEST JUMPDEST PUSH1 0x0 PUSH2 0xE83 DUP10 DUP3 DUP11 ADD PUSH2 0xE2E JUMP JUMPDEST SWAP7 POP POP PUSH1 0x20 PUSH2 0xE94 DUP10 DUP3 DUP11 ADD PUSH2 0xE2E JUMP JUMPDEST SWAP6 POP POP PUSH1 0x40 PUSH2 0xEA5 DUP10 DUP3 DUP11 ADD PUSH2 0xE2E JUMP JUMPDEST SWAP5 POP POP PUSH1 0x60 PUSH2 0xEB6 DUP10 DUP3 DUP11 ADD PUSH2 0xE2E JUMP JUMPDEST SWAP4 POP POP PUSH1 0x80 PUSH2 0xEC7 DUP10 DUP3 DUP11 ADD PUSH2 0xE2E JUMP JUMPDEST SWAP3 POP POP PUSH1 0xA0 PUSH2 0xED8 DUP10 DUP3 DUP11 ADD PUSH2 0xE43 JUMP JUMPDEST SWAP2 POP POP SWAP3 SWAP6 POP SWAP3 SWAP6 POP SWAP3 SWAP6 JUMP JUMPDEST PUSH1 0x0 DUP2 SWAP1 POP SWAP3 SWAP2 POP POP JUMP JUMPDEST PUSH32 0x44524956494E4700000000000000000000000000000000000000000000000000 PUSH1 0x0 DUP3 ADD MSTORE POP JUMP JUMPDEST PUSH1 0x0 PUSH2 0xF26 PUSH1 0x7 DUP4 PUSH2 0xEE5 JUMP JUMPDEST SWAP2 POP PUSH2 0xF31 DUP3 PUSH2 0xEF0 JUMP JUMPDEST PUSH1 0x7 DUP3 ADD SWAP1 POP SWAP2 SWAP1 POP JUMP JUMPDEST PUSH1 0x0 PUSH2 0xF47 DUP3 PUSH2 0xF19 JUMP JUMPDEST SWAP2 POP DUP2 SWAP1 POP SWAP2 SWAP1 POP JUMP JUMPDEST PUSH1 0x0 PUSH2 0xF5C DUP3 PUSH2 0xD79 JUMP JUMPDEST PUSH2 0xF66 DUP2 DUP6 PUSH2 0xEE5 JUMP JUMPDEST SWAP4 POP PUSH2 0xF76 DUP2 DUP6 PUSH1 0x20 DUP7 ADD PUSH2 0xD84 JUMP JUMPDEST DUP1 DUP5 ADD SWAP2 POP POP SWAP3 SWAP2 POP POP JUMP JUMPDEST PUSH1 0x0 PUSH2 0xF8E DUP3 DUP5 PUSH2 0xF51 JUMP JUMPDEST SWAP2 POP DUP2 SWAP1 POP SWAP3 SWAP2 POP POP JUMP JUMPDEST PUSH32 0x4D41494E54454E414E4345000000000000000000000000000000000000000000 PUSH1 0x0 DUP3 ADD MSTORE POP JUMP JUMPDEST PUSH1 0x0 PUSH2 0xFCF PUSH1 0xB DUP4 PUSH2 0xEE5 JUMP JUMPDEST SWAP2 POP PUSH2 0xFDA DUP3 PUSH2 0xF99 JUMP JUMPDEST PUSH1 0xB DUP3 ADD SWAP1 POP SWAP2 SWAP1 POP JUMP JUMPDEST PUSH1 0x0 PUSH2 0xFF0 DUP3 PUSH2 0xFC2 JUMP JUMPDEST SWAP2 POP DUP2 SWAP1 POP SWAP2 SWAP1 POP JUMP JUMPDEST PUSH32 0x534F4349414C0000000000000000000000000000000000000000000000000000 PUSH1 0x0 DUP3 ADD MSTORE POP JUMP JUMPDEST PUSH1 0x0 PUSH2 0x1030 PUSH1 0x6 DUP4 PUSH2 0xEE5 JUMP JUMPDEST SWAP2 POP PUSH2 0x103B DUP3 PUSH2 0xFFA JUMP JUMPDEST PUSH1 0x6 DUP3 ADD SWAP1 POP SWAP2 SWAP1 POP JUMP JUMPDEST PUSH1 0x0 PUSH2 0x1051 DUP3 PUSH2 0x1023 JUMP JUMPDEST SWAP2 POP DUP2 SWAP1 POP SWAP2 SWAP1 POP JUMP JUMPDEST PUSH32 0x4E487B7100000000000000000000000000000000000000000000000000000000 PUSH1 0x0 MSTORE PUSH1 0x11 PUSH1 0x4 MSTORE PUSH1 0x24 PUSH1 0x0 REVERT JUMPDEST PUSH1 0x0 PUSH2 0x1095 DUP3 PUSH2 0x8DF JUMP JUMPDEST SWAP2 POP PUSH2 0x10A0 DUP4 PUSH2 0x8DF JUMP JUMPDEST SWAP3 POP DUP3 DUP3 ADD SWAP1 POP DUP1 DUP3 GT ISZERO PUSH2 0x10B8 JUMPI PUSH2 0x10B7 PUSH2 0x105B JUMP JUMPDEST JUMPDEST SWAP3 SWAP2 POP POP JUMP JUMPDEST PUSH1 0x0 PUSH2 0x10C9 DUP3 PUSH2 0x8DF JUMP JUMPDEST SWAP2 POP PUSH2 0x10D4 DUP4 PUSH2 0x8DF JUMP JUMPDEST SWAP3 POP DUP3 DUP3 MUL PUSH2 0x10E2 DUP2 PUSH2 0x8DF JUMP JUMPDEST SWAP2 POP DUP3 DUP3 DIV DUP5 EQ DUP4 ISZERO OR PUSH2 0x10F9 JUMPI PUSH2 0x10F8 PUSH2 0x105B JUMP JUMPDEST JUMPDEST POP SWAP3 SWAP2 POP POP JUMP JUMPDEST PUSH32 0x4E487B7100000000000000000000000000000000000000000000000000000000 PUSH1 0x0 MSTORE PUSH1 0x12 PUSH1 0x4 MSTORE PUSH1 0x24 PUSH1 0x0 REVERT JUMPDEST PUSH1 0x0 PUSH2 0x113A DUP3 PUSH2 0x8DF JUMP JUMPDEST SWAP2 POP PUSH2 0x1145 DUP4 PUSH2 0x8DF JUMP JUMPDEST SWAP3 POP DUP3 PUSH2 0x1155 JUMPI PUSH2 0x1154 PUSH2 0x1100 JUMP JUMPDEST JUMPDEST DUP3 DUP3 DIV SWAP1 POP SWAP3 SWAP2 POP POP JUMP INVALID LOG2 PUSH5 0x6970667358 0x22 SLT KECCAK256 STOP SHR LOG3 0xD SAR ISZERO 0xD5 0xC1 0xCA PUSH6 0x30A3F2A6B7B9 0xAE PUSH30 0xF9BE3AFEEED81DC88D8FDE3A92DD64736F6C634300081400330000000000 "},"methodIdentifiers":{"BASE_REWARD()":"22009af6","RATIO_DRIVING()":"8a2b8258","RATIO_MAINTENANCE()":"5c97130e","RATIO_SOCIAL()":"21ba2f10","calculateReward(address,string,bool,bool)":"8d5ed145","distributeReward(address,string,bool,bool)":"2c886c0f","owner()":"8da5cb5b","renounceOwnership()":"715018a6","reputationContract()":"87bc1425","tokenContract()":"55a373d6","transferOwnership(address)":"f2fde38b","updateContracts(address,address)":"e692c49f"}}}}}