{"contracts/OzcarGovernance.sol":{"OzcarGovernance":{"abi":[{"inputs":[{"internalType":"address","name":"initialOwner","type":"address"},{"internalType":"address","name":"_ozcToken","type":"address"}],"stateMutability":"nonpayable","type":"constructor"},{"inputs":[{"internalType":"address","name":"owner","type":"address"}],"name":"OwnableInvalidOwner","type":"error"},{"inputs":[{"internalType":"address","name":"account","type":"address"}],"name":"OwnableUnauthorizedAccount","type":"error"},{"anonymous":false,"inputs":[{"indexed":true,"internalType":"address","name":"juror","type":"address"},{"indexed":false,"internalType":"uint256","name":"newAccuracy","type":"uint256"}],"name":"AccuracyUpdated","type":"event"},{"anonymous":false,"inputs":[{"indexed":true,"internalType":"bytes32","name":"caseId","type":"bytes32"},{"indexed":false,"internalType":"bool","name":"finalDecision","type":"bool"},{"indexed":false,"internalType":"uint256","name":"validVotes","type":"uint256"},{"indexed":false,"internalType":"uint256","name":"invalidVotes","type":"uint256"}],"name":"CaseFinalized","type":"event"},{"anonymous":false,"inputs":[{"indexed":true,"internalType":"bytes32","name":"caseId","type":"bytes32"},{"indexed":false,"internalType":"enum OzcarGovernance.CaseType","name":"caseType","type":"uint8"},{"indexed":true,"internalType":"address","name":"submitter","type":"address"}],"name":"CaseSubmitted","type":"event"},{"anonymous":false,"inputs":[{"indexed":true,"internalType":"address","name":"juror","type":"address"},{"indexed":false,"internalType":"enum OzcarGovernance.JuryTier","name":"tier","type":"uint8"}],"name":"JurorRegistered","type":"event"},{"anonymous":false,"inputs":[{"indexed":true,"internalType":"address","name":"juror","type":"address"},{"indexed":false,"internalType":"enum OzcarGovernance.JuryTier","name":"oldTier","type":"uint8"},{"indexed":false,"internalType":"enum OzcarGovernance.JuryTier","name":"newTier","type":"uint8"}],"name":"JurorUpgraded","type":"event"},{"anonymous":false,"inputs":[{"indexed":true,"internalType":"address","name":"previousOwner","type":"address"},{"indexed":true,"internalType":"address","name":"newOwner","type":"address"}],"name":"OwnershipTransferred","type":"event"},{"anonymous":false,"inputs":[{"indexed":true,"internalType":"address","name":"juror","type":"address"},{"indexed":false,"internalType":"uint256","name":"amount","type":"uint256"}],"name":"RewardDistributed","type":"event"},{"anonymous":false,"inputs":[{"indexed":true,"internalType":"bytes32","name":"caseId","type":"bytes32"},{"indexed":true,"internalType":"address","name":"juror","type":"address"},{"indexed":false,"internalType":"bool","name":"decision","type":"bool"}],"name":"Voted","type":"event"},{"inputs":[],"name":"CASE_DURATION","outputs":[{"internalType":"uint256","name":"","type":"uint256"}],"stateMutability":"view","type":"function"},{"inputs":[],"name":"CITIZEN_MIN_STAKE","outputs":[{"internalType":"uint256","name":"","type":"uint256"}],"stateMutability":"view","type":"function"},{"inputs":[],"name":"CITIZEN_VOTING_POWER","outputs":[{"internalType":"uint256","name":"","type":"uint256"}],"stateMutability":"view","type":"function"},{"inputs":[],"name":"EXPERT_MIN_STAKE","outputs":[{"internalType":"uint256","name":"","type":"uint256"}],"stateMutability":"view","type":"function"},{"inputs":[],"name":"EXPERT_VOTING_POWER","outputs":[{"internalType":"uint256","name":"","type":"uint256"}],"stateMutability":"view","type":"function"},{"inputs":[],"name":"GRAND_JURY_MIN_STAKE","outputs":[{"internalType":"uint256","name":"","type":"uint256"}],"stateMutability":"view","type":"function"},{"inputs":[],"name":"GRAND_JURY_VOTING_POWER","outputs":[{"internalType":"uint256","name":"","type":"uint256"}],"stateMutability":"view","type":"function"},{"inputs":[],"name":"REWARD_POOL_PER_CASE","outputs":[{"internalType":"uint256","name":"","type":"uint256"}],"stateMutability":"view","type":"function"},{"inputs":[],"name":"TARGET_CITIZEN_RATIO","outputs":[{"internalType":"uint256","name":"","type":"uint256"}],"stateMutability":"view","type":"function"},{"inputs":[],"name":"TARGET_EXPERT_RATIO","outputs":[{"internalType":"uint256","name":"","type":"uint256"}],"stateMutability":"view","type":"function"},{"inputs":[],"name":"TARGET_GRAND_JURY_RATIO","outputs":[{"internalType":"uint256","name":"","type":"uint256"}],"stateMutability":"view","type":"function"},{"inputs":[{"internalType":"uint256","name":"","type":"uint256"}],"name":"activeCases","outputs":[{"internalType":"bytes32","name":"","type":"bytes32"}],"stateMutability":"view","type":"function"},{"inputs":[{"internalType":"uint256","name":"","type":"uint256"}],"name":"activeJurors","outputs":[{"internalType":"address","name":"","type":"address"}],"stateMutability":"view","type":"function"},{"inputs":[{"internalType":"bytes32","name":"","type":"bytes32"},{"internalType":"uint256","name":"","type":"uint256"}],"name":"caseVotes","outputs":[{"internalType":"address","name":"juror","type":"address"},{"internalType":"enum OzcarGovernance.JuryTier","name":"tier","type":"uint8"},{"internalType":"bool","name":"decision","type":"bool"},{"internalType":"uint256","name":"votingPower","type":"uint256"},{"internalType":"uint256","name":"timestamp","type":"uint256"}],"stateMutability":"view","type":"function"},{"inputs":[{"internalType":"bytes32","name":"","type":"bytes32"}],"name":"cases","outputs":[{"internalType":"bytes32","name":"id","type":"bytes32"},{"internalType":"enum OzcarGovernance.CaseType","name":"caseType","type":"uint8"},{"internalType":"address","name":"submitter","type":"address"},{"internalType":"string","name":"ipfsHash","type":"string"},{"internalType":"uint256","name":"createdAt","type":"uint256"},{"internalType":"uint256","name":"deadline","type":"uint256"},{"internalType":"enum OzcarGovernance.CaseStatus","name":"status","type":"uint8"},{"internalType":"bool","name":"finalized","type":"bool"}],"stateMutability":"view","type":"function"},{"inputs":[{"internalType":"uint256","name":"_amount","type":"uint256"}],"name":"emergencyWithdraw","outputs":[],"stateMutability":"nonpayable","type":"function"},{"inputs":[{"internalType":"bytes32","name":"_caseId","type":"bytes32"}],"name":"finalizeCase","outputs":[],"stateMutability":"nonpayable","type":"function"},{"inputs":[{"internalType":"bytes32","name":"_caseId","type":"bytes32"}],"name":"getCaseVotes","outputs":[{"components":[{"internalType":"address","name":"juror","type":"address"},{"internalType":"enum OzcarGovernance.JuryTier","name":"tier","type":"uint8"},{"internalType":"bool","name":"decision","type":"bool"},{"internalType":"uint256","name":"votingPower","type":"uint256"},{"internalType":"uint256","name":"timestamp","type":"uint256"}],"internalType":"struct OzcarGovernance.Vote[]","name":"","type":"tuple[]"}],"stateMutability":"view","type":"function"},{"inputs":[{"internalType":"address","name":"_juror","type":"address"}],"name":"getJurorStats","outputs":[{"internalType":"enum OzcarGovernance.JuryTier","name":"tier","type":"uint8"},{"internalType":"uint256","name":"votingPower","type":"uint256"},{"internalType":"uint256","name":"accuracy","type":"uint256"},{"internalType":"uint256","name":"totalVotes","type":"uint256"},{"internalType":"uint256","name":"correctVotes","type":"uint256"}],"stateMutability":"view","type":"function"},{"inputs":[],"name":"getPendingCases","outputs":[{"internalType":"bytes32[]","name":"","type":"bytes32[]"}],"stateMutability":"view","type":"function"},{"inputs":[{"internalType":"bytes32","name":"","type":"bytes32"},{"internalType":"address","name":"","type":"address"}],"name":"hasVoted","outputs":[{"internalType":"bool","name":"","type":"bool"}],"stateMutability":"view","type":"function"},{"inputs":[{"internalType":"address","name":"","type":"address"}],"name":"jurors","outputs":[{"internalType":"address","name":"wallet","type":"address"},{"internalType":"enum OzcarGovernance.JuryTier","name":"tier","type":"uint8"},{"internalType":"uint256","name":"votingPower","type":"uint256"},{"internalType":"uint256","name":"accuracy","type":"uint256"},{"internalType":"uint256","name":"totalVotes","type":"uint256"},{"internalType":"uint256","name":"correctVotes","type":"uint256"},{"internalType":"uint256","name":"ownedVehicles","type":"uint256"},{"internalType":"uint256","name":"stakingAmount","type":"uint256"},{"internalType":"bool","name":"isActive","type":"bool"},{"internalType":"uint256","name":"joinedAt","type":"uint256"}],"stateMutability":"view","type":"function"},{"inputs":[],"name":"owner","outputs":[{"internalType":"address","name":"","type":"address"}],"stateMutability":"view","type":"function"},{"inputs":[],"name":"ozcToken","outputs":[{"internalType":"contract IERC20","name":"","type":"address"}],"stateMutability":"view","type":"function"},{"inputs":[{"internalType":"uint256","name":"_ownedVehicles","type":"uint256"}],"name":"registerAsJuror","outputs":[],"stateMutability":"nonpayable","type":"function"},{"inputs":[],"name":"renounceOwnership","outputs":[],"stateMutability":"nonpayable","type":"function"},{"inputs":[{"internalType":"enum OzcarGovernance.CaseType","name":"_caseType","type":"uint8"},{"internalType":"string","name":"_ipfsHash","type":"string"}],"name":"submitCase","outputs":[{"internalType":"bytes32","name":"","type":"bytes32"}],"stateMutability":"nonpayable","type":"function"},{"inputs":[{"internalType":"address","name":"newOwner","type":"address"}],"name":"transferOwnership","outputs":[],"stateMutability":"nonpayable","type":"function"},{"inputs":[{"internalType":"enum OzcarGovernance.JuryTier","name":"_newTier","type":"uint8"}],"name":"upgradeTier","outputs":[],"stateMutability":"nonpayable","type":"function"},{"inputs":[{"internalType":"bytes32","name":"_caseId","type":"bytes32"},{"internalType":"bool","name":"_decision","type":"bool"}],"name":"vote","outputs":[],"stateMutability":"nonpayable","type":"function"}],"evm":{"bytecode":{"linkReferences":{},"object":"60806040523480156200001157600080fd5b506040516200422b3803806200422b833981810160405281019062000037919062000236565b81600073ffffffffffffffffffffffffffffffffffffffff168173ffffffffffffffffffffffffffffffffffffffff1603620000ad5760006040517f1e4fbdf7000000000000000000000000000000000000000000000000000000008152600401620000a491906200028e565b60405180910390fd5b620000be816200010860201b60201c565b5080600160006101000a81548173ffffffffffffffffffffffffffffffffffffffff021916908373ffffffffffffffffffffffffffffffffffffffff1602179055505050620002ab565b60008060009054906101000a900473ffffffffffffffffffffffffffffffffffffffff169050816000806101000a81548173ffffffffffffffffffffffffffffffffffffffff021916908373ffffffffffffffffffffffffffffffffffffffff1602179055508173ffffffffffffffffffffffffffffffffffffffff168173ffffffffffffffffffffffffffffffffffffffff167f8be0079c531659141344cd1fd0a4f28419497f9722a3daafe3b4186f6b6457e060405160405180910390a35050565b600080fd5b600073ffffffffffffffffffffffffffffffffffffffff82169050919050565b6000620001fe82620001d1565b9050919050565b6200021081620001f1565b81146200021c57600080fd5b50565b600081519050620002308162000205565b92915050565b6000806040838503121562000250576200024f620001cc565b5b600062000260858286016200021f565b925050602062000273858286016200021f565b9150509250929050565b6200028881620001f1565b82525050565b6000602082019050620002a560008301846200027d565b92915050565b613f7080620002bb6000396000f3fe608060405234801561001057600080fd5b50600436106101da5760003560e01c8063a2949dd711610104578063ddd9fa48116100a2578063f19c7d6411610071578063f19c7d6414610589578063f2fde38b146105a7578063f9094afa146105c3578063fa814b75146105df576101da565b8063ddd9fa48146104ff578063e2da844d1461051d578063e737341e1461054d578063ed8d71e01461056b576101da565b8063b01b9128116100de578063b01b91281461046c578063bb6846e61461048a578063c4a29760146104a8578063dca5f6b0146104c6576101da565b8063a2949dd7146103f0578063aadc3b721461040c578063af95040c1461043c576101da565b8063492cbd741161017c5780636636411e1161014b5780636636411e14610378578063715018a6146103ac5780638da5cb5b146103b65780639f2ce678146103d4576101da565b8063492cbd74146102f057806351724eca1461030e5780635312ea8e1461033e5780635c1a58b51461035a576101da565b8063381af86f116101b8578063381af86f1461026157806338edf7771461027f5780633bc70ec01461029d57806348ea1c23146102b9576101da565b80631513bdb1146101df5780631ddde4281461020f57806321885ea614610243575b600080fd5b6101f960048036038101906101f4919061275c565b6105fd565b604051610206919061298c565b60405180910390f35b610229600480360381019061022491906129da565b61072f565b60405161023a959493929190612a25565b60405180910390f35b61024b6108a4565b6040516102589190612a78565b60405180910390f35b6102696108a9565b6040516102769190612a78565b60405180910390f35b6102876108b5565b6040516102949190612a78565b60405180910390f35b6102b760048036038101906102b29190612abf565b6108ba565b005b6102d360048036038101906102ce919061275c565b610ccb565b6040516102e7989796959493929190612c39565b60405180910390f35b6102f8610de2565b6040516103059190612a78565b60405180910390f35b61032860048036038101906103239190612e18565b610de7565b6040516103359190612e74565b60405180910390f35b61035860048036038101906103539190612abf565b611030565b005b6103626110e3565b60405161036f9190612a78565b60405180910390f35b610392600480360381019061038d9190612e8f565b6110f0565b6040516103a3959493929190612ecf565b60405180910390f35b6103b461117d565b005b6103be611191565b6040516103cb9190612f22565b60405180910390f35b6103ee60048036038101906103e99190612f69565b6111ba565b005b61040a60048036038101906104059190612fce565b611761565b005b61042660048036038101906104219190612ffb565b611b63565b604051610433919061303b565b60405180910390f35b61045660048036038101906104519190612abf565b611b92565b6040516104639190612e74565b60405180910390f35b610474611bb6565b6040516104819190612a78565b60405180910390f35b610492611bc3565b60405161049f91906130b5565b60405180910390f35b6104b0611be9565b6040516104bd9190612a78565b60405180910390f35b6104e060048036038101906104db91906129da565b611bf0565b6040516104f69a999897969594939291906130d0565b60405180910390f35b610507611c7e565b6040516105149190612a78565b60405180910390f35b61053760048036038101906105329190612abf565b611c8b565b6040516105449190612f22565b60405180910390f35b610555611cca565b6040516105629190612a78565b60405180910390f35b610573611ccf565b6040516105809190612a78565b60405180910390f35b610591611cd4565b60405161059e919061322a565b60405180910390f35b6105c160048036038101906105bc91906129da565b611eac565b005b6105dd60048036038101906105d8919061275c565b611f32565b005b6105e76122a5565b6040516105f49190612a78565b60405180910390f35b606060046000838152602001908152602001600020805480602002602001604051908101604052809291908181526020016000905b8282101561072457838290600052602060002090600302016040518060a00160405290816000820160009054906101000a900473ffffffffffffffffffffffffffffffffffffffff1673ffffffffffffffffffffffffffffffffffffffff1673ffffffffffffffffffffffffffffffffffffffff1681526020016000820160149054906101000a900460ff1660028111156106d0576106cf6127f6565b5b60028111156106e2576106e16127f6565b5b81526020016000820160159054906101000a900460ff161515151581526020016001820154815260200160028201548152505081526020019060010190610632565b505050509050919050565b600080600080600080600260008873ffffffffffffffffffffffffffffffffffffffff1673ffffffffffffffffffffffffffffffffffffffff168152602001908152602001600020604051806101400160405290816000820160009054906101000a900473ffffffffffffffffffffffffffffffffffffffff1673ffffffffffffffffffffffffffffffffffffffff1673ffffffffffffffffffffffffffffffffffffffff1681526020016000820160149054906101000a900460ff1660028111156107fe576107fd6127f6565b5b60028111156108105761080f6127f6565b5b81526020016001820154815260200160028201548152602001600382015481526020016004820154815260200160058201548152602001600682015481526020016007820160009054906101000a900460ff16151515158152602001600882015481525050905080602001518160400151826060015183608001518460a00151955095509550955095505091939590929450565b604681565b678ac7230489e8000081565b600181565b600260003373ffffffffffffffffffffffffffffffffffffffff1673ffffffffffffffffffffffffffffffffffffffff16815260200190815260200160002060070160009054906101000a900460ff161561094a576040517f08c379a000000000000000000000000000000000000000000000000000000000815260040161094190613298565b60405180910390fd5b600181101561098e576040517f08c379a000000000000000000000000000000000000000000000000000000000815260040161098590613304565b60405180910390fd5b600160009054906101000a900473ffffffffffffffffffffffffffffffffffffffff1673ffffffffffffffffffffffffffffffffffffffff166323b872dd3330678ac7230489e800006040518463ffffffff1660e01b81526004016109f593929190613324565b6020604051808303816000875af1158015610a14573d6000803e3d6000fd5b505050506040513d601f19601f82011682018060405250810190610a389190613370565b610a77576040517f08c379a0000000000000000000000000000000000000000000000000000000008152600401610a6e906133e9565b60405180910390fd5b6040518061014001604052803373ffffffffffffffffffffffffffffffffffffffff16815260200160006002811115610ab357610ab26127f6565b5b815260200160018152602001600081526020016000815260200160008152602001828152602001678ac7230489e80000815260200160011515815260200142815250600260003373ffffffffffffffffffffffffffffffffffffffff1673ffffffffffffffffffffffffffffffffffffffff16815260200190815260200160002060008201518160000160006101000a81548173ffffffffffffffffffffffffffffffffffffffff021916908373ffffffffffffffffffffffffffffffffffffffff16021790555060208201518160000160146101000a81548160ff02191690836002811115610ba657610ba56127f6565b5b021790555060408201518160010155606082015181600201556080820151816003015560a0820151816004015560c0820151816005015560e082015181600601556101008201518160070160006101000a81548160ff02191690831515021790555061012082015181600801559050506006339080600181540180825580915050600190039060005260206000200160009091909190916101000a81548173ffffffffffffffffffffffffffffffffffffffff021916908373ffffffffffffffffffffffffffffffffffffffff1602179055503373ffffffffffffffffffffffffffffffffffffffff167f7855ba29ca8454697607aa251043ef55a210106ef4adccc63b1c8bfeb55b6e676000604051610cc09190613409565b60405180910390a250565b60036020528060005260406000206000915090508060000154908060010160009054906101000a900460ff16908060010160019054906101000a900473ffffffffffffffffffffffffffffffffffffffff1690806002018054610d2d90613453565b80601f0160208091040260200160405190810160405280929190818152602001828054610d5990613453565b8015610da65780601f10610d7b57610100808354040283529160200191610da6565b820191906000526020600020905b815481529060010190602001808311610d8957829003601f168201915b5050505050908060030154908060040154908060050160009054906101000a900460ff16908060050160019054906101000a900460ff16905088565b601481565b600080334284604051602001610dff93929190613529565b604051602081830303815290604052805190602001209050604051806101000160405280828152602001856005811115610e3c57610e3b6127f6565b5b81526020013373ffffffffffffffffffffffffffffffffffffffff1681526020018481526020014281526020016201518042610e789190613591565b815260200160006003811115610e9157610e906127f6565b5b815260200160001515815250600360008381526020019081526020016000206000820151816000015560208201518160010160006101000a81548160ff02191690836005811115610ee557610ee46127f6565b5b021790555060408201518160010160016101000a81548173ffffffffffffffffffffffffffffffffffffffff021916908373ffffffffffffffffffffffffffffffffffffffff1602179055506060820151816002019081610f469190613767565b506080820151816003015560a0820151816004015560c08201518160050160006101000a81548160ff02191690836003811115610f8657610f856127f6565b5b021790555060e08201518160050160016101000a81548160ff02191690831515021790555090505060078190806001815401808255809150506001900390600052602060002001600090919091909150553373ffffffffffffffffffffffffffffffffffffffff16817ffdd8847731ab35ac10a0f03462f1a89d583ff8db9353b7e775a0bbb8e490ac7d8660405161101e9190613839565b60405180910390a38091505092915050565b6110386122aa565b600160009054906101000a900473ffffffffffffffffffffffffffffffffffffffff1673ffffffffffffffffffffffffffffffffffffffff1663a9059cbb61107e611191565b836040518363ffffffff1660e01b815260040161109c929190613854565b6020604051808303816000875af11580156110bb573d6000803e3d6000fd5b505050506040513d601f19601f820116820180604052508101906110df9190613370565b5050565b68056bc75e2d6310000081565b6004602052816000526040600020818154811061110c57600080fd5b9060005260206000209060030201600091509150508060000160009054906101000a900473ffffffffffffffffffffffffffffffffffffffff16908060000160149054906101000a900460ff16908060000160159054906101000a900460ff16908060010154908060020154905085565b6111856122aa565b61118f6000612331565b565b60008060009054906101000a900473ffffffffffffffffffffffffffffffffffffffff16905090565b600260003373ffffffffffffffffffffffffffffffffffffffff1673ffffffffffffffffffffffffffffffffffffffff16815260200190815260200160002060070160009054906101000a900460ff16611249576040517f08c379a0000000000000000000000000000000000000000000000000000000008152600401611240906138c9565b60405180910390fd5b6005600083815260200190815260200160002060003373ffffffffffffffffffffffffffffffffffffffff1673ffffffffffffffffffffffffffffffffffffffff16815260200190815260200160002060009054906101000a900460ff16156112e7576040517f08c379a00000000000000000000000000000000000000000000000000000000081526004016112de90613935565b60405180910390fd5b600060038111156112fb576112fa6127f6565b5b6003600084815260200190815260200160002060050160009054906101000a900460ff166003811115611331576113306127f6565b5b14611371576040517f08c379a0000000000000000000000000000000000000000000000000000000008152600401611368906139a1565b60405180910390fd5b600360008381526020019081526020016000206004015442106113c9576040517f08c379a00000000000000000000000000000000000000000000000000000000081526004016113c090613a0d565b60405180910390fd5b6000600260003373ffffffffffffffffffffffffffffffffffffffff1673ffffffffffffffffffffffffffffffffffffffff168152602001908152602001600020604051806101400160405290816000820160009054906101000a900473ffffffffffffffffffffffffffffffffffffffff1673ffffffffffffffffffffffffffffffffffffffff1673ffffffffffffffffffffffffffffffffffffffff1681526020016000820160149054906101000a900460ff166002811115611491576114906127f6565b5b60028111156114a3576114a26127f6565b5b81526020016001820154815260200160028201548152602001600382015481526020016004820154815260200160058201548152602001600682015481526020016007820160009054906101000a900460ff161515151581526020016008820154815250509050600460008481526020019081526020016000206040518060a001604052803373ffffffffffffffffffffffffffffffffffffffff1681526020018360200151600281111561155b5761155a6127f6565b5b815260200184151581526020018360400151815260200142815250908060018154018082558091505060019003906000526020600020906003020160009091909190915060008201518160000160006101000a81548173ffffffffffffffffffffffffffffffffffffffff021916908373ffffffffffffffffffffffffffffffffffffffff16021790555060208201518160000160146101000a81548160ff02191690836002811115611611576116106127f6565b5b021790555060408201518160000160156101000a81548160ff0219169083151502179055506060820151816001015560808201518160020155505060016005600085815260200190815260200160002060003373ffffffffffffffffffffffffffffffffffffffff1673ffffffffffffffffffffffffffffffffffffffff16815260200190815260200160002060006101000a81548160ff021916908315150217905550600260003373ffffffffffffffffffffffffffffffffffffffff1673ffffffffffffffffffffffffffffffffffffffff168152602001908152602001600020600301600081548092919061170890613a2d565b91905055503373ffffffffffffffffffffffffffffffffffffffff16837f16efd9a5766ad43ca179f5ef58b8748c48ddedd2dd2a228460465bfa90d4d06984604051611754919061303b565b60405180910390a3505050565b6000600260003373ffffffffffffffffffffffffffffffffffffffff1673ffffffffffffffffffffffffffffffffffffffff16815260200190815260200160002090508060070160009054906101000a900460ff166117f5576040517f08c379a00000000000000000000000000000000000000000000000000000000081526004016117ec90613ac1565b60405180910390fd5b8060000160149054906101000a900460ff166002811115611819576118186127f6565b5b82600281111561182c5761182b6127f6565b5b1161186c576040517f08c379a000000000000000000000000000000000000000000000000000000000815260040161186390613b2d565b60405180910390fd5b60008060016002811115611883576118826127f6565b5b846002811115611896576118956127f6565b5b0361191757600283600501541015806118b457506055836002015410155b6118f3576040517f08c379a00000000000000000000000000000000000000000000000000000000081526004016118ea90613b99565b60405180910390fd5b82600601546802b5e3af16b188000061190c9190613bb9565b9150600390506119bb565b60028081111561192a576119296127f6565b5b84600281111561193d5761193c6127f6565b5b036119ba576003836005015410158061195b5750605f836002015410155b61199a576040517f08c379a000000000000000000000000000000000000000000000000000000000815260040161199190613c39565b60405180910390fd5b826006015468056bc75e2d631000006119b39190613bb9565b9150600590505b5b6000821115611ac157600160009054906101000a900473ffffffffffffffffffffffffffffffffffffffff1673ffffffffffffffffffffffffffffffffffffffff166323b872dd3330856040518463ffffffff1660e01b8152600401611a2393929190613324565b6020604051808303816000875af1158015611a42573d6000803e3d6000fd5b505050506040513d601f19601f82011682018060405250810190611a669190613370565b611aa5576040517f08c379a0000000000000000000000000000000000000000000000000000000008152600401611a9c90613ca5565b60405180910390fd5b81836006016000828254611ab99190613591565b925050819055505b60008360000160149054906101000a900460ff169050848460000160146101000a81548160ff02191690836002811115611afe57611afd6127f6565b5b02179055508184600101819055503373ffffffffffffffffffffffffffffffffffffffff167ffdab712786afc3b366bdb70e1353d20cf7d17170e663bd0349b1a1c06c44d9588287604051611b54929190613cc5565b60405180910390a25050505050565b60056020528160005260406000206020528060005260406000206000915091509054906101000a900460ff1681565b60078181548110611ba257600080fd5b906000526020600020016000915090505481565b683635c9adc5dea0000081565b600160009054906101000a900473ffffffffffffffffffffffffffffffffffffffff1681565b6201518081565b60026020528060005260406000206000915090508060000160009054906101000a900473ffffffffffffffffffffffffffffffffffffffff16908060000160149054906101000a900460ff16908060010154908060020154908060030154908060040154908060050154908060060154908060070160009054906101000a900460ff1690806008015490508a565b6802b5e3af16b188000081565b60068181548110611c9b57600080fd5b906000526020600020016000915054906101000a900473ffffffffffffffffffffffffffffffffffffffff1681565b600a81565b600381565b60606000805b600780549050811015611d765760006003811115611cfb57611cfa6127f6565b5b6003600060078481548110611d1357611d12613cee565b5b9060005260206000200154815260200190815260200160002060050160009054906101000a900460ff166003811115611d4f57611d4e6127f6565b5b03611d63578180611d5f90613a2d565b9250505b8080611d6e90613a2d565b915050611cda565b5060008167ffffffffffffffff811115611d9357611d92612ced565b5b604051908082528060200260200182016040528015611dc15781602001602082028036833780820191505090505b5090506000805b600780549050811015611ea25760006003811115611de957611de86127f6565b5b6003600060078481548110611e0157611e00613cee565b5b9060005260206000200154815260200190815260200160002060050160009054906101000a900460ff166003811115611e3d57611e3c6127f6565b5b03611e8f5760078181548110611e5657611e55613cee565b5b9060005260206000200154838381518110611e7457611e73613cee565b5b6020026020010181815250508180611e8b90613a2d565b9250505b8080611e9a90613a2d565b915050611dc8565b5081935050505090565b611eb46122aa565b600073ffffffffffffffffffffffffffffffffffffffff168173ffffffffffffffffffffffffffffffffffffffff1603611f265760006040517f1e4fbdf7000000000000000000000000000000000000000000000000000000008152600401611f1d9190612f22565b60405180910390fd5b611f2f81612331565b50565b60006003600083815260200190815260200160002090508060050160019054906101000a900460ff1615611f9b576040517f08c379a0000000000000000000000000000000000000000000000000000000008152600401611f9290613d69565b60405180910390fd5b8060040154421015611fe2576040517f08c379a0000000000000000000000000000000000000000000000000000000008152600401611fd990613dd5565b60405180910390fd5b600060046000848152602001908152602001600020805480602002602001604051908101604052809291908181526020016000905b8282101561210957838290600052602060002090600302016040518060a00160405290816000820160009054906101000a900473ffffffffffffffffffffffffffffffffffffffff1673ffffffffffffffffffffffffffffffffffffffff1673ffffffffffffffffffffffffffffffffffffffff1681526020016000820160149054906101000a900460ff1660028111156120b5576120b46127f6565b5b60028111156120c7576120c66127f6565b5b81526020016000820160159054906101000a900460ff161515151581526020016001820154815260200160028201548152505081526020019060010190612017565b5050505090506000815111612153576040517f08c379a000000000000000000000000000000000000000000000000000000000815260040161214a90613e41565b60405180910390fd5b60008060005b83518110156121f75783818151811061217557612174613cee565b5b602002602001015160400151156121b75783818151811061219957612198613cee565b5b602002602001015160600151836121b09190613591565b92506121e4565b8381815181106121ca576121c9613cee565b5b602002602001015160600151826121e19190613591565b91505b80806121ef90613a2d565b915050612159565b50600081831190508061220b57600261220e565b60015b8560050160006101000a81548160ff02191690836003811115612234576122336127f6565b5b021790555060018560050160016101000a81548160ff0219169083151502179055506122618682866123f5565b857f7dfd85b4f8d09e161eb4f72d683098ee1573b08082d2298bdcf70e7e8ddd0f8882858560405161229593929190613e61565b60405180910390a2505050505050565b600581565b6122b261263b565b73ffffffffffffffffffffffffffffffffffffffff166122d0611191565b73ffffffffffffffffffffffffffffffffffffffff161461232f576122f361263b565b6040517f118cdaa70000000000000000000000000000000000000000000000000000000081526004016123269190612f22565b60405180910390fd5b565b60008060009054906101000a900473ffffffffffffffffffffffffffffffffffffffff169050816000806101000a81548173ffffffffffffffffffffffffffffffffffffffff021916908373ffffffffffffffffffffffffffffffffffffffff1602179055508173ffffffffffffffffffffffffffffffffffffffff168173ffffffffffffffffffffffffffffffffffffffff167f8be0079c531659141344cd1fd0a4f28419497f9722a3daafe3b4186f6b6457e060405160405180910390a35050565b6000805b825181101561244d5783151583828151811061241857612417613cee565b5b60200260200101516040015115150361243a57818061243690613a2d565b9250505b808061244590613a2d565b9150506123f9565b506000810361245c5750612636565b600081683635c9adc5dea000006124739190613ec7565b905060005b835181101561263257600084828151811061249657612495613cee565b5b60200260200101516000015190508515158583815181106124ba576124b9613cee565b5b60200260200101516040015115150361261557600160009054906101000a900473ffffffffffffffffffffffffffffffffffffffff1673ffffffffffffffffffffffffffffffffffffffff1663a9059cbb82856040518363ffffffff1660e01b815260040161252a929190613854565b6020604051808303816000875af1158015612549573d6000803e3d6000fd5b505050506040513d601f19601f8201168201806040525081019061256d9190613370565b50600260008273ffffffffffffffffffffffffffffffffffffffff1673ffffffffffffffffffffffffffffffffffffffff16815260200190815260200160002060040160008154809291906125c190613a2d565b91905055508073ffffffffffffffffffffffffffffffffffffffff167fe34918ff1c7084970068b53fd71ad6d8b04e9f15d3886cbf006443e6cdc52ea68460405161260c9190612a78565b60405180910390a25b61261e81612643565b50808061262a90613a2d565b915050612478565b5050505b505050565b600033905090565b6000600260008373ffffffffffffffffffffffffffffffffffffffff1673ffffffffffffffffffffffffffffffffffffffff168152602001908152602001600020905060008160030154111561270e578060030154606482600401546126a99190613ef8565b6126b39190613ec7565b81600201819055508173ffffffffffffffffffffffffffffffffffffffff167f16d0848e499fa9fd0f755c0563c69a05617a0663a704dabd1933f6f75fa3f21982600201546040516127059190612a78565b60405180910390a25b5050565b6000604051905090565b600080fd5b600080fd5b6000819050919050565b61273981612726565b811461274457600080fd5b50565b60008135905061275681612730565b92915050565b6000602082840312156127725761277161271c565b5b600061278084828501612747565b91505092915050565b600081519050919050565b600082825260208201905092915050565b6000819050602082019050919050565b600073ffffffffffffffffffffffffffffffffffffffff82169050919050565b60006127e0826127b5565b9050919050565b6127f0816127d5565b82525050565b7f4e487b7100000000000000000000000000000000000000000000000000000000600052602160045260246000fd5b60038110612836576128356127f6565b5b50565b600081905061284782612825565b919050565b600061285782612839565b9050919050565b6128678161284c565b82525050565b60008115159050919050565b6128828161286d565b82525050565b6000819050919050565b61289b81612888565b82525050565b60a0820160008201516128b760008501826127e7565b5060208201516128ca602085018261285e565b5060408201516128dd6040850182612879565b5060608201516128f06060850182612892565b5060808201516129036080850182612892565b50505050565b600061291583836128a1565b60a08301905092915050565b6000602082019050919050565b600061293982612789565b6129438185612794565b935061294e836127a5565b8060005b8381101561297f5781516129668882612909565b975061297183612921565b925050600181019050612952565b5085935050505092915050565b600060208201905081810360008301526129a6818461292e565b905092915050565b6129b7816127d5565b81146129c257600080fd5b50565b6000813590506129d4816129ae565b92915050565b6000602082840312156129f0576129ef61271c565b5b60006129fe848285016129c5565b91505092915050565b612a108161284c565b82525050565b612a1f81612888565b82525050565b600060a082019050612a3a6000830188612a07565b612a476020830187612a16565b612a546040830186612a16565b612a616060830185612a16565b612a6e6080830184612a16565b9695505050505050565b6000602082019050612a8d6000830184612a16565b92915050565b612a9c81612888565b8114612aa757600080fd5b50565b600081359050612ab981612a93565b92915050565b600060208284031215612ad557612ad461271c565b5b6000612ae384828501612aaa565b91505092915050565b612af581612726565b82525050565b60068110612b0c57612b0b6127f6565b5b50565b6000819050612b1d82612afb565b919050565b6000612b2d82612b0f565b9050919050565b612b3d81612b22565b82525050565b612b4c816127d5565b82525050565b600081519050919050565b600082825260208201905092915050565b60005b83811015612b8c578082015181840152602081019050612b71565b60008484015250505050565b6000601f19601f8301169050919050565b6000612bb482612b52565b612bbe8185612b5d565b9350612bce818560208601612b6e565b612bd781612b98565b840191505092915050565b60048110612bf357612bf26127f6565b5b50565b6000819050612c0482612be2565b919050565b6000612c1482612bf6565b9050919050565b612c2481612c09565b82525050565b612c338161286d565b82525050565b600061010082019050612c4f600083018b612aec565b612c5c602083018a612b34565b612c696040830189612b43565b8181036060830152612c7b8188612ba9565b9050612c8a6080830187612a16565b612c9760a0830186612a16565b612ca460c0830185612c1b565b612cb160e0830184612c2a565b9998505050505050505050565b60068110612ccb57600080fd5b50565b600081359050612cdd81612cbe565b92915050565b600080fd5b600080fd5b7f4e487b7100000000000000000000000000000000000000000000000000000000600052604160045260246000fd5b612d2582612b98565b810181811067ffffffffffffffff82111715612d4457612d43612ced565b5b80604052505050565b6000612d57612712565b9050612d638282612d1c565b919050565b600067ffffffffffffffff821115612d8357612d82612ced565b5b612d8c82612b98565b9050602081019050919050565b82818337600083830152505050565b6000612dbb612db684612d68565b612d4d565b905082815260208101848484011115612dd757612dd6612ce8565b5b612de2848285612d99565b509392505050565b600082601f830112612dff57612dfe612ce3565b5b8135612e0f848260208601612da8565b91505092915050565b60008060408385031215612e2f57612e2e61271c565b5b6000612e3d85828601612cce565b925050602083013567ffffffffffffffff811115612e5e57612e5d612721565b5b612e6a85828601612dea565b9150509250929050565b6000602082019050612e896000830184612aec565b92915050565b60008060408385031215612ea657612ea561271c565b5b6000612eb485828601612747565b9250506020612ec585828601612aaa565b9150509250929050565b600060a082019050612ee46000830188612b43565b612ef16020830187612a07565b612efe6040830186612c2a565b612f0b6060830185612a16565b612f186080830184612a16565b9695505050505050565b6000602082019050612f376000830184612b43565b92915050565b612f468161286d565b8114612f5157600080fd5b50565b600081359050612f6381612f3d565b92915050565b60008060408385031215612f8057612f7f61271c565b5b6000612f8e85828601612747565b9250506020612f9f85828601612f54565b9150509250929050565b60038110612fb657600080fd5b50565b600081359050612fc881612fa9565b92915050565b600060208284031215612fe457612fe361271c565b5b6000612ff284828501612fb9565b91505092915050565b600080604083850312156130125761301161271c565b5b600061302085828601612747565b9250506020613031858286016129c5565b9150509250929050565b60006020820190506130506000830184612c2a565b92915050565b6000819050919050565b600061307b613076613071846127b5565b613056565b6127b5565b9050919050565b600061308d82613060565b9050919050565b600061309f82613082565b9050919050565b6130af81613094565b82525050565b60006020820190506130ca60008301846130a6565b92915050565b6000610140820190506130e6600083018d612b43565b6130f3602083018c612a07565b613100604083018b612a16565b61310d606083018a612a16565b61311a6080830189612a16565b61312760a0830188612a16565b61313460c0830187612a16565b61314160e0830186612a16565b61314f610100830185612c2a565b61315d610120830184612a16565b9b9a5050505050505050505050565b600081519050919050565b600082825260208201905092915050565b6000819050602082019050919050565b6131a181612726565b82525050565b60006131b38383613198565b60208301905092915050565b6000602082019050919050565b60006131d78261316c565b6131e18185613177565b93506131ec83613188565b8060005b8381101561321d57815161320488826131a7565b975061320f836131bf565b9250506001810190506131f0565b5085935050505092915050565b6000602082019050818103600083015261324481846131cc565b905092915050565b7f416c726561647920726567697374657265640000000000000000000000000000600082015250565b6000613282601283612b5d565b915061328d8261324c565b602082019050919050565b600060208201905081810360008301526132b181613275565b9050919050565b7f4d757374206f776e206174206c6561737420312076656869636c650000000000600082015250565b60006132ee601b83612b5d565b91506132f9826132b8565b602082019050919050565b6000602082019050818103600083015261331d816132e1565b9050919050565b60006060820190506133396000830186612b43565b6133466020830185612b43565b6133536040830184612a16565b949350505050565b60008151905061336a81612f3d565b92915050565b6000602082840312156133865761338561271c565b5b60006133948482850161335b565b91505092915050565b7f5374616b65207472616e73666572206661696c65640000000000000000000000600082015250565b60006133d3601583612b5d565b91506133de8261339d565b602082019050919050565b60006020820190508181036000830152613402816133c6565b9050919050565b600060208201905061341e6000830184612a07565b92915050565b7f4e487b7100000000000000000000000000000000000000000000000000000000600052602260045260246000fd5b6000600282049050600182168061346b57607f821691505b60208210810361347e5761347d613424565b5b50919050565b60008160601b9050919050565b600061349c82613484565b9050919050565b60006134ae82613491565b9050919050565b6134c66134c1826127d5565b6134a3565b82525050565b6000819050919050565b6134e76134e282612888565b6134cc565b82525050565b600081905092915050565b600061350382612b52565b61350d81856134ed565b935061351d818560208601612b6e565b80840191505092915050565b600061353582866134b5565b60148201915061354582856134d6565b60208201915061355582846134f8565b9150819050949350505050565b7f4e487b7100000000000000000000000000000000000000000000000000000000600052601160045260246000fd5b600061359c82612888565b91506135a783612888565b92508282019050808211156135bf576135be613562565b5b92915050565b60008190508160005260206000209050919050565b60006020601f8301049050919050565b600082821b905092915050565b6000600883026136277fffffffffffffffffffffffffffffffffffffffffffffffffffffffffffffffff826135ea565b61363186836135ea565b95508019841693508086168417925050509392505050565b600061366461365f61365a84612888565b613056565b612888565b9050919050565b6000819050919050565b61367e83613649565b61369261368a8261366b565b8484546135f7565b825550505050565b600090565b6136a761369a565b6136b2818484613675565b505050565b5b818110156136d6576136cb60008261369f565b6001810190506136b8565b5050565b601f82111561371b576136ec816135c5565b6136f5846135da565b81016020851015613704578190505b613718613710856135da565b8301826136b7565b50505b505050565b600082821c905092915050565b600061373e60001984600802613720565b1980831691505092915050565b6000613757838361372d565b9150826002028217905092915050565b61377082612b52565b67ffffffffffffffff81111561378957613788612ced565b5b6137938254613453565b61379e8282856136da565b600060209050601f8311600181146137d157600084156137bf578287015190505b6137c9858261374b565b865550613831565b601f1984166137df866135c5565b60005b82811015613807578489015182556001820191506020850194506020810190506137e2565b868310156138245784890151613820601f89168261372d565b8355505b6001600288020188555050505b505050505050565b600060208201905061384e6000830184612b34565b92915050565b60006040820190506138696000830185612b43565b6138766020830184612a16565b9392505050565b7f4e6f7420616e20616374697665206a75726f7200000000000000000000000000600082015250565b60006138b3601383612b5d565b91506138be8261387d565b602082019050919050565b600060208201905081810360008301526138e2816138a6565b9050919050565b7f416c726561647920766f74656400000000000000000000000000000000000000600082015250565b600061391f600d83612b5d565b915061392a826138e9565b602082019050919050565b6000602082019050818103600083015261394e81613912565b9050919050565b7f43617365206e6f742070656e64696e6700000000000000000000000000000000600082015250565b600061398b601083612b5d565b915061399682613955565b602082019050919050565b600060208201905081810360008301526139ba8161397e565b9050919050565b7f566f74696e6720656e6465640000000000000000000000000000000000000000600082015250565b60006139f7600c83612b5d565b9150613a02826139c1565b602082019050919050565b60006020820190508181036000830152613a26816139ea565b9050919050565b6000613a3882612888565b91507fffffffffffffffffffffffffffffffffffffffffffffffffffffffffffffffff8203613a6a57613a69613562565b5b600182019050919050565b7f4e6f742061206a75726f72000000000000000000000000000000000000000000600082015250565b6000613aab600b83612b5d565b9150613ab682613a75565b602082019050919050565b60006020820190508181036000830152613ada81613a9e565b9050919050565b7f43616e206f6e6c79207570677261646500000000000000000000000000000000600082015250565b6000613b17601083612b5d565b9150613b2282613ae1565b602082019050919050565b60006020820190508181036000830152613b4681613b0a565b9050919050565b7f4e6f7420656c696769626c6520666f7220457870657274000000000000000000600082015250565b6000613b83601783612b5d565b9150613b8e82613b4d565b602082019050919050565b60006020820190508181036000830152613bb281613b76565b9050919050565b6000613bc482612888565b9150613bcf83612888565b9250828203905081811115613be757613be6613562565b5b92915050565b7f4e6f7420656c696769626c6520666f72204772616e64204a7572790000000000600082015250565b6000613c23601b83612b5d565b9150613c2e82613bed565b602082019050919050565b60006020820190508181036000830152613c5281613c16565b9050919050565b7f4164646974696f6e616c207374616b65207472616e73666572206661696c6564600082015250565b6000613c8f602083612b5d565b9150613c9a82613c59565b602082019050919050565b60006020820190508181036000830152613cbe81613c82565b9050919050565b6000604082019050613cda6000830185612a07565b613ce76020830184612a07565b9392505050565b7f4e487b7100000000000000000000000000000000000000000000000000000000600052603260045260246000fd5b7f416c72656164792066696e616c697a6564000000000000000000000000000000600082015250565b6000613d53601183612b5d565b9150613d5e82613d1d565b602082019050919050565b60006020820190508181036000830152613d8281613d46565b9050919050565b7f566f74696e6720706572696f64206e6f7420656e646564000000000000000000600082015250565b6000613dbf601783612b5d565b9150613dca82613d89565b602082019050919050565b60006020820190508181036000830152613dee81613db2565b9050919050565b7f4e6f20766f746573000000000000000000000000000000000000000000000000600082015250565b6000613e2b600883612b5d565b9150613e3682613df5565b602082019050919050565b60006020820190508181036000830152613e5a81613e1e565b9050919050565b6000606082019050613e766000830186612c2a565b613e836020830185612a16565b613e906040830184612a16565b949350505050565b7f4e487b7100000000000000000000000000000000000000000000000000000000600052601260045260246000fd5b6000613ed282612888565b9150613edd83612888565b925082613eed57613eec613e98565b5b828204905092915050565b6000613f0382612888565b9150613f0e83612888565b9250828202613f1c81612888565b91508282048414831517613f3357613f32613562565b5b509291505056fea2646970667358221220fcfbb1d24194d39faef67d95cde0c1f9ee2b0529481eca5cc8ec198c991c396d64736f6c63430008140033","opcodes":"PUSH1 0x80 PUSH1 0x40 MSTORE CALLVALUE DUP1 ISZERO PUSH3 0x11 JUMPI PUSH1 0x0 DUP1 REVERT JUMPDEST POP PUSH1 0x40 MLOAD PUSH3 0x422B CODESIZE SUB DUP1 PUSH3 0x422B DUP4 CODECOPY DUP2 DUP2 ADD PUSH1 0x40 MSTORE DUP2 ADD SWAP1 PUSH3 0x37 SWAP2 SWAP1 PUSH3 0x236 JUMP JUMPDEST DUP2 PUSH1 0x0 PUSH20 0xFFFFFFFFFFFFFFFFFFFFFFFFFFFFFFFFFFFFFFFF AND DUP2 PUSH20 0xFFFFFFFFFFFFFFFFFFFFFFFFFFFFFFFFFFFFFFFF AND SUB PUSH3 0xAD JUMPI PUSH1 0x0 PUSH1 0x40 MLOAD PUSH32 0x1E4FBDF700000000000000000000000000000000000000000000000000000000 DUP2 MSTORE PUSH1 0x4 ADD PUSH3 0xA4 SWAP2 SWAP1 PUSH3 0x28E JUMP JUMPDEST PUSH1 0x40 MLOAD DUP1 SWAP2 SUB SWAP1 REVERT JUMPDEST PUSH3 0xBE DUP2 PUSH3 0x108 PUSH1 0x20 SHL PUSH1 0x20 SHR JUMP JUMPDEST POP DUP1 PUSH1 0x1 PUSH1 0x0 PUSH2 0x100 EXP DUP2 SLOAD DUP2 PUSH20 0xFFFFFFFFFFFFFFFFFFFFFFFFFFFFFFFFFFFFFFFF MUL NOT AND SWAP1 DUP4 PUSH20 0xFFFFFFFFFFFFFFFFFFFFFFFFFFFFFFFFFFFFFFFF AND MUL OR SWAP1 SSTORE POP POP POP PUSH3 0x2AB JUMP JUMPDEST PUSH1 0x0 DUP1 PUSH1 0x0 SWAP1 SLOAD SWAP1 PUSH2 0x100 EXP SWAP1 DIV PUSH20 0xFFFFFFFFFFFFFFFFFFFFFFFFFFFFFFFFFFFFFFFF AND SWAP1 POP DUP2 PUSH1 0x0 DUP1 PUSH2 0x100 EXP DUP2 SLOAD DUP2 PUSH20 0xFFFFFFFFFFFFFFFFFFFFFFFFFFFFFFFFFFFFFFFF MUL NOT AND SWAP1 DUP4 PUSH20 0xFFFFFFFFFFFFFFFFFFFFFFFFFFFFFFFFFFFFFFFF AND MUL OR SWAP1 SSTORE POP DUP2 PUSH20 0xFFFFFFFFFFFFFFFFFFFFFFFFFFFFFFFFFFFFFFFF AND DUP2 PUSH20 0xFFFFFFFFFFFFFFFFFFFFFFFFFFFFFFFFFFFFFFFF AND PUSH32 0x8BE0079C531659141344CD1FD0A4F28419497F9722A3DAAFE3B4186F6B6457E0 PUSH1 0x40 MLOAD PUSH1 0x40 MLOAD DUP1 SWAP2 SUB SWAP1 LOG3 POP POP JUMP JUMPDEST PUSH1 0x0 DUP1 REVERT JUMPDEST PUSH1 0x0 PUSH20 0xFFFFFFFFFFFFFFFFFFFFFFFFFFFFFFFFFFFFFFFF DUP3 AND SWAP1 POP SWAP2 SWAP1 POP JUMP JUMPDEST PUSH1 0x0 PUSH3 0x1FE DUP3 PUSH3 0x1D1 JUMP JUMPDEST SWAP1 POP SWAP2 SWAP1 POP JUMP JUMPDEST PUSH3 0x210 DUP2 PUSH3 0x1F1 JUMP JUMPDEST DUP2 EQ PUSH3 0x21C JUMPI PUSH1 0x0 DUP1 REVERT JUMPDEST POP JUMP JUMPDEST PUSH1 0x0 DUP2 MLOAD SWAP1 POP PUSH3 0x230 DUP2 PUSH3 0x205 JUMP JUMPDEST SWAP3 SWAP2 POP POP JUMP JUMPDEST PUSH1 0x0 DUP1 PUSH1 0x40 DUP4 DUP6 SUB SLT ISZERO PUSH3 0x250 JUMPI PUSH3 0x24F PUSH3 0x1CC JUMP JUMPDEST JUMPDEST PUSH1 0x0 PUSH3 0x260 DUP6 DUP3 DUP7 ADD PUSH3 0x21F JUMP JUMPDEST SWAP3 POP POP PUSH1 0x20 PUSH3 0x273 DUP6 DUP3 DUP7 ADD PUSH3 0x21F JUMP JUMPDEST SWAP2 POP POP SWAP3 POP SWAP3 SWAP1 POP JUMP JUMPDEST PUSH3 0x288 DUP2 PUSH3 0x1F1 JUMP JUMPDEST DUP3 MSTORE POP POP JUMP JUMPDEST PUSH1 0x0 PUSH1 0x20 DUP3 ADD SWAP1 POP PUSH3 0x2A5 PUSH1 0x0 DUP4 ADD DUP5 PUSH3 0x27D JUMP JUMPDEST SWAP3 SWAP2 POP POP JUMP JUMPDEST PUSH2 0x3F70 DUP1 PUSH3 0x2BB PUSH1 0x0 CODECOPY PUSH1 0x0 RETURN INVALID PUSH1 0x80 PUSH1 0x40 MSTORE CALLVALUE DUP1 ISZERO PUSH2 0x10 JUMPI PUSH1 0x0 DUP1 REVERT JUMPDEST POP PUSH1 0x4 CALLDATASIZE LT PUSH2 0x1DA JUMPI PUSH1 0x0 CALLDATALOAD PUSH1 0xE0 SHR DUP1 PUSH4 0xA2949DD7 GT PUSH2 0x104 JUMPI DUP1 PUSH4 0xDDD9FA48 GT PUSH2 0xA2 JUMPI DUP1 PUSH4 0xF19C7D64 GT PUSH2 0x71 JUMPI DUP1 PUSH4 0xF19C7D64 EQ PUSH2 0x589 JUMPI DUP1 PUSH4 0xF2FDE38B EQ PUSH2 0x5A7 JUMPI DUP1 PUSH4 0xF9094AFA EQ PUSH2 0x5C3 JUMPI DUP1 PUSH4 0xFA814B75 EQ PUSH2 0x5DF JUMPI PUSH2 0x1DA JUMP JUMPDEST DUP1 PUSH4 0xDDD9FA48 EQ PUSH2 0x4FF JUMPI DUP1 PUSH4 0xE2DA844D EQ PUSH2 0x51D JUMPI DUP1 PUSH4 0xE737341E EQ PUSH2 0x54D JUMPI DUP1 PUSH4 0xED8D71E0 EQ PUSH2 0x56B JUMPI PUSH2 0x1DA JUMP JUMPDEST DUP1 PUSH4 0xB01B9128 GT PUSH2 0xDE JUMPI DUP1 PUSH4 0xB01B9128 EQ PUSH2 0x46C JUMPI DUP1 PUSH4 0xBB6846E6 EQ PUSH2 0x48A JUMPI DUP1 PUSH4 0xC4A29760 EQ PUSH2 0x4A8 JUMPI DUP1 PUSH4 0xDCA5F6B0 EQ PUSH2 0x4C6 JUMPI PUSH2 0x1DA JUMP JUMPDEST DUP1 PUSH4 0xA2949DD7 EQ PUSH2 0x3F0 JUMPI DUP1 PUSH4 0xAADC3B72 EQ PUSH2 0x40C JUMPI DUP1 PUSH4 0xAF95040C EQ PUSH2 0x43C JUMPI PUSH2 0x1DA JUMP JUMPDEST DUP1 PUSH4 0x492CBD74 GT PUSH2 0x17C JUMPI DUP1 PUSH4 0x6636411E GT PUSH2 0x14B JUMPI DUP1 PUSH4 0x6636411E EQ PUSH2 0x378 JUMPI DUP1 PUSH4 0x715018A6 EQ PUSH2 0x3AC JUMPI DUP1 PUSH4 0x8DA5CB5B EQ PUSH2 0x3B6 JUMPI DUP1 PUSH4 0x9F2CE678 EQ PUSH2 0x3D4 JUMPI PUSH2 0x1DA JUMP JUMPDEST DUP1 PUSH4 0x492CBD74 EQ PUSH2 0x2F0 JUMPI DUP1 PUSH4 0x51724ECA EQ PUSH2 0x30E JUMPI DUP1 PUSH4 0x5312EA8E EQ PUSH2 0x33E JUMPI DUP1 PUSH4 0x5C1A58B5 EQ PUSH2 0x35A JUMPI PUSH2 0x1DA JUMP JUMPDEST DUP1 PUSH4 0x381AF86F GT PUSH2 0x1B8 JUMPI DUP1 PUSH4 0x381AF86F EQ PUSH2 0x261 JUMPI DUP1 PUSH4 0x38EDF777 EQ PUSH2 0x27F JUMPI DUP1 PUSH4 0x3BC70EC0 EQ PUSH2 0x29D JUMPI DUP1 PUSH4 0x48EA1C23 EQ PUSH2 0x2B9 JUMPI PUSH2 0x1DA JUMP JUMPDEST DUP1 PUSH4 0x1513BDB1 EQ PUSH2 0x1DF JUMPI DUP1 PUSH4 0x1DDDE428 EQ PUSH2 0x20F JUMPI DUP1 PUSH4 0x21885EA6 EQ PUSH2 0x243 JUMPI JUMPDEST PUSH1 0x0 DUP1 REVERT JUMPDEST PUSH2 0x1F9 PUSH1 0x4 DUP1 CALLDATASIZE SUB DUP2 ADD SWAP1 PUSH2 0x1F4 SWAP2 SWAP1 PUSH2 0x275C JUMP JUMPDEST PUSH2 0x5FD JUMP JUMPDEST PUSH1 0x40 MLOAD PUSH2 0x206 SWAP2 SWAP1 PUSH2 0x298C JUMP JUMPDEST PUSH1 0x40 MLOAD DUP1 SWAP2 SUB SWAP1 RETURN JUMPDEST PUSH2 0x229 PUSH1 0x4 DUP1 CALLDATASIZE SUB DUP2 ADD SWAP1 PUSH2 0x224 SWAP2 SWAP1 PUSH2 0x29DA JUMP JUMPDEST PUSH2 0x72F JUMP JUMPDEST PUSH1 0x40 MLOAD PUSH2 0x23A SWAP6 SWAP5 SWAP4 SWAP3 SWAP2 SWAP1 PUSH2 0x2A25 JUMP JUMPDEST PUSH1 0x40 MLOAD DUP1 SWAP2 SUB SWAP1 RETURN JUMPDEST PUSH2 0x24B PUSH2 0x8A4 JUMP JUMPDEST PUSH1 0x40 MLOAD PUSH2 0x258 SWAP2 SWAP1 PUSH2 0x2A78 JUMP JUMPDEST PUSH1 0x40 MLOAD DUP1 SWAP2 SUB SWAP1 RETURN JUMPDEST PUSH2 0x269 PUSH2 0x8A9 JUMP JUMPDEST PUSH1 0x40 MLOAD PUSH2 0x276 SWAP2 SWAP1 PUSH2 0x2A78 JUMP JUMPDEST PUSH1 0x40 MLOAD DUP1 SWAP2 SUB SWAP1 RETURN JUMPDEST PUSH2 0x287 PUSH2 0x8B5 JUMP JUMPDEST PUSH1 0x40 MLOAD PUSH2 0x294 SWAP2 SWAP1 PUSH2 0x2A78 JUMP JUMPDEST PUSH1 0x40 MLOAD DUP1 SWAP2 SUB SWAP1 RETURN JUMPDEST PUSH2 0x2B7 PUSH1 0x4 DUP1 CALLDATASIZE SUB DUP2 ADD SWAP1 PUSH2 0x2B2 SWAP2 SWAP1 PUSH2 0x2ABF JUMP JUMPDEST PUSH2 0x8BA JUMP JUMPDEST STOP JUMPDEST PUSH2 0x2D3 PUSH1 0x4 DUP1 CALLDATASIZE SUB DUP2 ADD SWAP1 PUSH2 0x2CE SWAP2 SWAP1 PUSH2 0x275C JUMP JUMPDEST PUSH2 0xCCB JUMP JUMPDEST PUSH1 0x40 MLOAD PUSH2 0x2E7 SWAP9 SWAP8 SWAP7 SWAP6 SWAP5 SWAP4 SWAP3 SWAP2 SWAP1 PUSH2 0x2C39 JUMP JUMPDEST PUSH1 0x40 MLOAD DUP1 SWAP2 SUB SWAP1 RETURN JUMPDEST PUSH2 0x2F8 PUSH2 0xDE2 JUMP JUMPDEST PUSH1 0x40 MLOAD PUSH2 0x305 SWAP2 SWAP1 PUSH2 0x2A78 JUMP JUMPDEST PUSH1 0x40 MLOAD DUP1 SWAP2 SUB SWAP1 RETURN JUMPDEST PUSH2 0x328 PUSH1 0x4 DUP1 CALLDATASIZE SUB DUP2 ADD SWAP1 PUSH2 0x323 SWAP2 SWAP1 PUSH2 0x2E18 JUMP JUMPDEST PUSH2 0xDE7 JUMP JUMPDEST PUSH1 0x40 MLOAD PUSH2 0x335 SWAP2 SWAP1 PUSH2 0x2E74 JUMP JUMPDEST PUSH1 0x40 MLOAD DUP1 SWAP2 SUB SWAP1 RETURN JUMPDEST PUSH2 0x358 PUSH1 0x4 DUP1 CALLDATASIZE SUB DUP2 ADD SWAP1 PUSH2 0x353 SWAP2 SWAP1 PUSH2 0x2ABF JUMP JUMPDEST PUSH2 0x1030 JUMP JUMPDEST STOP JUMPDEST PUSH2 0x362 PUSH2 0x10E3 JUMP JUMPDEST PUSH1 0x40 MLOAD PUSH2 0x36F SWAP2 SWAP1 PUSH2 0x2A78 JUMP JUMPDEST PUSH1 0x40 MLOAD DUP1 SWAP2 SUB SWAP1 RETURN JUMPDEST PUSH2 0x392 PUSH1 0x4 DUP1 CALLDATASIZE SUB DUP2 ADD SWAP1 PUSH2 0x38D SWAP2 SWAP1 PUSH2 0x2E8F JUMP JUMPDEST PUSH2 0x10F0 JUMP JUMPDEST PUSH1 0x40 MLOAD PUSH2 0x3A3 SWAP6 SWAP5 SWAP4 SWAP3 SWAP2 SWAP1 PUSH2 0x2ECF JUMP JUMPDEST PUSH1 0x40 MLOAD DUP1 SWAP2 SUB SWAP1 RETURN JUMPDEST PUSH2 0x3B4 PUSH2 0x117D JUMP JUMPDEST STOP JUMPDEST PUSH2 0x3BE PUSH2 0x1191 JUMP JUMPDEST PUSH1 0x40 MLOAD PUSH2 0x3CB SWAP2 SWAP1 PUSH2 0x2F22 JUMP JUMPDEST PUSH1 0x40 MLOAD DUP1 SWAP2 SUB SWAP1 RETURN JUMPDEST PUSH2 0x3EE PUSH1 0x4 DUP1 CALLDATASIZE SUB DUP2 ADD SWAP1 PUSH2 0x3E9 SWAP2 SWAP1 PUSH2 0x2F69 JUMP JUMPDEST PUSH2 0x11BA JUMP JUMPDEST STOP JUMPDEST PUSH2 0x40A PUSH1 0x4 DUP1 CALLDATASIZE SUB DUP2 ADD SWAP1 PUSH2 0x405 SWAP2 SWAP1 PUSH2 0x2FCE JUMP JUMPDEST PUSH2 0x1761 JUMP JUMPDEST STOP JUMPDEST PUSH2 0x426 PUSH1 0x4 DUP1 CALLDATASIZE SUB DUP2 ADD SWAP1 PUSH2 0x421 SWAP2 SWAP1 PUSH2 0x2FFB JUMP JUMPDEST PUSH2 0x1B63 JUMP JUMPDEST PUSH1 0x40 MLOAD PUSH2 0x433 SWAP2 SWAP1 PUSH2 0x303B JUMP JUMPDEST PUSH1 0x40 MLOAD DUP1 SWAP2 SUB SWAP1 RETURN JUMPDEST PUSH2 0x456 PUSH1 0x4 DUP1 CALLDATASIZE SUB DUP2 ADD SWAP1 PUSH2 0x451 SWAP2 SWAP1 PUSH2 0x2ABF JUMP JUMPDEST PUSH2 0x1B92 JUMP JUMPDEST PUSH1 0x40 MLOAD PUSH2 0x463 SWAP2 SWAP1 PUSH2 0x2E74 JUMP JUMPDEST PUSH1 0x40 MLOAD DUP1 SWAP2 SUB SWAP1 RETURN JUMPDEST PUSH2 0x474 PUSH2 0x1BB6 JUMP JUMPDEST PUSH1 0x40 MLOAD PUSH2 0x481 SWAP2 SWAP1 PUSH2 0x2A78 JUMP JUMPDEST PUSH1 0x40 MLOAD DUP1 SWAP2 SUB SWAP1 RETURN JUMPDEST PUSH2 0x492 PUSH2 0x1BC3 JUMP JUMPDEST PUSH1 0x40 MLOAD PUSH2 0x49F SWAP2 SWAP1 PUSH2 0x30B5 JUMP JUMPDEST PUSH1 0x40 MLOAD DUP1 SWAP2 SUB SWAP1 RETURN JUMPDEST PUSH2 0x4B0 PUSH2 0x1BE9 JUMP JUMPDEST PUSH1 0x40 MLOAD PUSH2 0x4BD SWAP2 SWAP1 PUSH2 0x2A78 JUMP JUMPDEST PUSH1 0x40 MLOAD DUP1 SWAP2 SUB SWAP1 RETURN JUMPDEST PUSH2 0x4E0 PUSH1 0x4 DUP1 CALLDATASIZE SUB DUP2 ADD SWAP1 PUSH2 0x4DB SWAP2 SWAP1 PUSH2 0x29DA JUMP JUMPDEST PUSH2 0x1BF0 JUMP JUMPDEST PUSH1 0x40 MLOAD PUSH2 0x4F6 SWAP11 SWAP10 SWAP9 SWAP8 SWAP7 SWAP6 SWAP5 SWAP4 SWAP3 SWAP2 SWAP1 PUSH2 0x30D0 JUMP JUMPDEST PUSH1 0x40 MLOAD DUP1 SWAP2 SUB SWAP1 RETURN JUMPDEST PUSH2 0x507 PUSH2 0x1C7E JUMP JUMPDEST PUSH1 0x40 MLOAD PUSH2 0x514 SWAP2 SWAP1 PUSH2 0x2A78 JUMP JUMPDEST PUSH1 0x40 MLOAD DUP1 SWAP2 SUB SWAP1 RETURN JUMPDEST PUSH2 0x537 PUSH1 0x4 DUP1 CALLDATASIZE SUB DUP2 ADD SWAP1 PUSH2 0x532 SWAP2 SWAP1 PUSH2 0x2ABF JUMP JUMPDEST PUSH2 0x1C8B JUMP JUMPDEST PUSH1 0x40 MLOAD PUSH2 0x544 SWAP2 SWAP1 PUSH2 0x2F22 JUMP JUMPDEST PUSH1 0x40 MLOAD DUP1 SWAP2 SUB SWAP1 RETURN JUMPDEST PUSH2 0x555 PUSH2 0x1CCA JUMP JUMPDEST PUSH1 0x40 MLOAD PUSH2 0x562 SWAP2 SWAP1 PUSH2 0x2A78 JUMP JUMPDEST PUSH1 0x40 MLOAD DUP1 SWAP2 SUB SWAP1 RETURN JUMPDEST PUSH2 0x573 PUSH2 0x1CCF JUMP JUMPDEST PUSH1 0x40 MLOAD PUSH2 0x580 SWAP2 SWAP1 PUSH2 0x2A78 JUMP JUMPDEST PUSH1 0x40 MLOAD DUP1 SWAP2 SUB SWAP1 RETURN JUMPDEST PUSH2 0x591 PUSH2 0x1CD4 JUMP JUMPDEST PUSH1 0x40 MLOAD PUSH2 0x59E SWAP2 SWAP1 PUSH2 0x322A JUMP JUMPDEST PUSH1 0x40 MLOAD DUP1 SWAP2 SUB SWAP1 RETURN JUMPDEST PUSH2 0x5C1 PUSH1 0x4 DUP1 CALLDATASIZE SUB DUP2 ADD SWAP1 PUSH2 0x5BC SWAP2 SWAP1 PUSH2 0x29DA JUMP JUMPDEST PUSH2 0x1EAC JUMP JUMPDEST STOP JUMPDEST PUSH2 0x5DD PUSH1 0x4 DUP1 CALLDATASIZE SUB DUP2 ADD SWAP1 PUSH2 0x5D8 SWAP2 SWAP1 PUSH2 0x275C JUMP JUMPDEST PUSH2 0x1F32 JUMP JUMPDEST STOP JUMPDEST PUSH2 0x5E7 PUSH2 0x22A5 JUMP JUMPDEST PUSH1 0x40 MLOAD PUSH2 0x5F4 SWAP2 SWAP1 PUSH2 0x2A78 JUMP JUMPDEST PUSH1 0x40 MLOAD DUP1 SWAP2 SUB SWAP1 RETURN JUMPDEST PUSH1 0x60 PUSH1 0x4 PUSH1 0x0 DUP4 DUP2 MSTORE PUSH1 0x20 ADD SWAP1 DUP2 MSTORE PUSH1 0x20 ADD PUSH1 0x0 KECCAK256 DUP1 SLOAD DUP1 PUSH1 0x20 MUL PUSH1 0x20 ADD PUSH1 0x40 MLOAD SWAP1 DUP2 ADD PUSH1 0x40 MSTORE DUP1 SWAP3 SWAP2 SWAP1 DUP2 DUP2 MSTORE PUSH1 0x20 ADD PUSH1 0x0 SWAP1 JUMPDEST DUP3 DUP3 LT ISZERO PUSH2 0x724 JUMPI DUP4 DUP3 SWAP1 PUSH1 0x0 MSTORE PUSH1 0x20 PUSH1 0x0 KECCAK256 SWAP1 PUSH1 0x3 MUL ADD PUSH1 0x40 MLOAD DUP1 PUSH1 0xA0 ADD PUSH1 0x40 MSTORE SWAP1 DUP2 PUSH1 0x0 DUP3 ADD PUSH1 0x0 SWAP1 SLOAD SWAP1 PUSH2 0x100 EXP SWAP1 DIV PUSH20 0xFFFFFFFFFFFFFFFFFFFFFFFFFFFFFFFFFFFFFFFF AND PUSH20 0xFFFFFFFFFFFFFFFFFFFFFFFFFFFFFFFFFFFFFFFF AND PUSH20 0xFFFFFFFFFFFFFFFFFFFFFFFFFFFFFFFFFFFFFFFF AND DUP2 MSTORE PUSH1 0x20 ADD PUSH1 0x0 DUP3 ADD PUSH1 0x14 SWAP1 SLOAD SWAP1 PUSH2 0x100 EXP SWAP1 DIV PUSH1 0xFF AND PUSH1 0x2 DUP2 GT ISZERO PUSH2 0x6D0 JUMPI PUSH2 0x6CF PUSH2 0x27F6 JUMP JUMPDEST JUMPDEST PUSH1 0x2 DUP2 GT ISZERO PUSH2 0x6E2 JUMPI PUSH2 0x6E1 PUSH2 0x27F6 JUMP JUMPDEST JUMPDEST DUP2 MSTORE PUSH1 0x20 ADD PUSH1 0x0 DUP3 ADD PUSH1 0x15 SWAP1 SLOAD SWAP1 PUSH2 0x100 EXP SWAP1 DIV PUSH1 0xFF AND ISZERO ISZERO ISZERO ISZERO DUP2 MSTORE PUSH1 0x20 ADD PUSH1 0x1 DUP3 ADD SLOAD DUP2 MSTORE PUSH1 0x20 ADD PUSH1 0x2 DUP3 ADD SLOAD DUP2 MSTORE POP POP DUP2 MSTORE PUSH1 0x20 ADD SWAP1 PUSH1 0x1 ADD SWAP1 PUSH2 0x632 JUMP JUMPDEST POP POP POP POP SWAP1 POP SWAP2 SWAP1 POP JUMP JUMPDEST PUSH1 0x0 DUP1 PUSH1 0x0 DUP1 PUSH1 0x0 DUP1 PUSH1 0x2 PUSH1 0x0 DUP9 PUSH20 0xFFFFFFFFFFFFFFFFFFFFFFFFFFFFFFFFFFFFFFFF AND PUSH20 0xFFFFFFFFFFFFFFFFFFFFFFFFFFFFFFFFFFFFFFFF AND DUP2 MSTORE PUSH1 0x20 ADD SWAP1 DUP2 MSTORE PUSH1 0x20 ADD PUSH1 0x0 KECCAK256 PUSH1 0x40 MLOAD DUP1 PUSH2 0x140 ADD PUSH1 0x40 MSTORE SWAP1 DUP2 PUSH1 0x0 DUP3 ADD PUSH1 0x0 SWAP1 SLOAD SWAP1 PUSH2 0x100 EXP SWAP1 DIV PUSH20 0xFFFFFFFFFFFFFFFFFFFFFFFFFFFFFFFFFFFFFFFF AND PUSH20 0xFFFFFFFFFFFFFFFFFFFFFFFFFFFFFFFFFFFFFFFF AND PUSH20 0xFFFFFFFFFFFFFFFFFFFFFFFFFFFFFFFFFFFFFFFF AND DUP2 MSTORE PUSH1 0x20 ADD PUSH1 0x0 DUP3 ADD PUSH1 0x14 SWAP1 SLOAD SWAP1 PUSH2 0x100 EXP SWAP1 DIV PUSH1 0xFF AND PUSH1 0x2 DUP2 GT ISZERO PUSH2 0x7FE JUMPI PUSH2 0x7FD PUSH2 0x27F6 JUMP JUMPDEST JUMPDEST PUSH1 0x2 DUP2 GT ISZERO PUSH2 0x810 JUMPI PUSH2 0x80F PUSH2 0x27F6 JUMP JUMPDEST JUMPDEST DUP2 MSTORE PUSH1 0x20 ADD PUSH1 0x1 DUP3 ADD SLOAD DUP2 MSTORE PUSH1 0x20 ADD PUSH1 0x2 DUP3 ADD SLOAD DUP2 MSTORE PUSH1 0x20 ADD PUSH1 0x3 DUP3 ADD SLOAD DUP2 MSTORE PUSH1 0x20 ADD PUSH1 0x4 DUP3 ADD SLOAD DUP2 MSTORE PUSH1 0x20 ADD PUSH1 0x5 DUP3 ADD SLOAD DUP2 MSTORE PUSH1 0x20 ADD PUSH1 0x6 DUP3 ADD SLOAD DUP2 MSTORE PUSH1 0x20 ADD PUSH1 0x7 DUP3 ADD PUSH1 0x0 SWAP1 SLOAD SWAP1 PUSH2 0x100 EXP SWAP1 DIV PUSH1 0xFF AND ISZERO ISZERO ISZERO ISZERO DUP2 MSTORE PUSH1 0x20 ADD PUSH1 0x8 DUP3 ADD SLOAD DUP2 MSTORE POP POP SWAP1 POP DUP1 PUSH1 0x20 ADD MLOAD DUP2 PUSH1 0x40 ADD MLOAD DUP3 PUSH1 0x60 ADD MLOAD DUP4 PUSH1 0x80 ADD MLOAD DUP5 PUSH1 0xA0 ADD MLOAD SWAP6 POP SWAP6 POP SWAP6 POP SWAP6 POP SWAP6 POP POP SWAP2 SWAP4 SWAP6 SWAP1 SWAP3 SWAP5 POP JUMP JUMPDEST PUSH1 0x46 DUP2 JUMP JUMPDEST PUSH8 0x8AC7230489E80000 DUP2 JUMP JUMPDEST PUSH1 0x1 DUP2 JUMP JUMPDEST PUSH1 0x2 PUSH1 0x0 CALLER PUSH20 0xFFFFFFFFFFFFFFFFFFFFFFFFFFFFFFFFFFFFFFFF AND PUSH20 0xFFFFFFFFFFFFFFFFFFFFFFFFFFFFFFFFFFFFFFFF AND DUP2 MSTORE PUSH1 0x20 ADD SWAP1 DUP2 MSTORE PUSH1 0x20 ADD PUSH1 0x0 KECCAK256 PUSH1 0x7 ADD PUSH1 0x0 SWAP1 SLOAD SWAP1 PUSH2 0x100 EXP SWAP1 DIV PUSH1 0xFF AND ISZERO PUSH2 0x94A JUMPI PUSH1 0x40 MLOAD PUSH32 0x8C379A000000000000000000000000000000000000000000000000000000000 DUP2 MSTORE PUSH1 0x4 ADD PUSH2 0x941 SWAP1 PUSH2 0x3298 JUMP JUMPDEST PUSH1 0x40 MLOAD DUP1 SWAP2 SUB SWAP1 REVERT JUMPDEST PUSH1 0x1 DUP2 LT ISZERO PUSH2 0x98E JUMPI PUSH1 0x40 MLOAD PUSH32 0x8C379A000000000000000000000000000000000000000000000000000000000 DUP2 MSTORE PUSH1 0x4 ADD PUSH2 0x985 SWAP1 PUSH2 0x3304 JUMP JUMPDEST PUSH1 0x40 MLOAD DUP1 SWAP2 SUB SWAP1 REVERT JUMPDEST PUSH1 0x1 PUSH1 0x0 SWAP1 SLOAD SWAP1 PUSH2 0x100 EXP SWAP1 DIV PUSH20 0xFFFFFFFFFFFFFFFFFFFFFFFFFFFFFFFFFFFFFFFF AND PUSH20 0xFFFFFFFFFFFFFFFFFFFFFFFFFFFFFFFFFFFFFFFF AND PUSH4 0x23B872DD CALLER ADDRESS PUSH8 0x8AC7230489E80000 PUSH1 0x40 MLOAD DUP5 PUSH4 0xFFFFFFFF AND PUSH1 0xE0 SHL DUP2 MSTORE PUSH1 0x4 ADD PUSH2 0x9F5 SWAP4 SWAP3 SWAP2 SWAP1 PUSH2 0x3324 JUMP JUMPDEST PUSH1 0x20 PUSH1 0x40 MLOAD DUP1 DUP4 SUB DUP2 PUSH1 0x0 DUP8 GAS CALL ISZERO DUP1 ISZERO PUSH2 0xA14 JUMPI RETURNDATASIZE PUSH1 0x0 DUP1 RETURNDATACOPY RETURNDATASIZE PUSH1 0x0 REVERT JUMPDEST POP POP POP POP PUSH1 0x40 MLOAD RETURNDATASIZE PUSH1 0x1F NOT PUSH1 0x1F DUP3 ADD AND DUP3 ADD DUP1 PUSH1 0x40 MSTORE POP DUP2 ADD SWAP1 PUSH2 0xA38 SWAP2 SWAP1 PUSH2 0x3370 JUMP JUMPDEST PUSH2 0xA77 JUMPI PUSH1 0x40 MLOAD PUSH32 0x8C379A000000000000000000000000000000000000000000000000000000000 DUP2 MSTORE PUSH1 0x4 ADD PUSH2 0xA6E SWAP1 PUSH2 0x33E9 JUMP JUMPDEST PUSH1 0x40 MLOAD DUP1 SWAP2 SUB SWAP1 REVERT JUMPDEST PUSH1 0x40 MLOAD DUP1 PUSH2 0x140 ADD PUSH1 0x40 MSTORE DUP1 CALLER PUSH20 0xFFFFFFFFFFFFFFFFFFFFFFFFFFFFFFFFFFFFFFFF AND DUP2 MSTORE PUSH1 0x20 ADD PUSH1 0x0 PUSH1 0x2 DUP2 GT ISZERO PUSH2 0xAB3 JUMPI PUSH2 0xAB2 PUSH2 0x27F6 JUMP JUMPDEST JUMPDEST DUP2 MSTORE PUSH1 0x20 ADD PUSH1 0x1 DUP2 MSTORE PUSH1 0x20 ADD PUSH1 0x0 DUP2 MSTORE PUSH1 0x20 ADD PUSH1 0x0 DUP2 MSTORE PUSH1 0x20 ADD PUSH1 0x0 DUP2 MSTORE PUSH1 0x20 ADD DUP3 DUP2 MSTORE PUSH1 0x20 ADD PUSH8 0x8AC7230489E80000 DUP2 MSTORE PUSH1 0x20 ADD PUSH1 0x1 ISZERO ISZERO DUP2 MSTORE PUSH1 0x20 ADD TIMESTAMP DUP2 MSTORE POP PUSH1 0x2 PUSH1 0x0 CALLER PUSH20 0xFFFFFFFFFFFFFFFFFFFFFFFFFFFFFFFFFFFFFFFF AND PUSH20 0xFFFFFFFFFFFFFFFFFFFFFFFFFFFFFFFFFFFFFFFF AND DUP2 MSTORE PUSH1 0x20 ADD SWAP1 DUP2 MSTORE PUSH1 0x20 ADD PUSH1 0x0 KECCAK256 PUSH1 0x0 DUP3 ADD MLOAD DUP2 PUSH1 0x0 ADD PUSH1 0x0 PUSH2 0x100 EXP DUP2 SLOAD DUP2 PUSH20 0xFFFFFFFFFFFFFFFFFFFFFFFFFFFFFFFFFFFFFFFF MUL NOT AND SWAP1 DUP4 PUSH20 0xFFFFFFFFFFFFFFFFFFFFFFFFFFFFFFFFFFFFFFFF AND MUL OR SWAP1 SSTORE POP PUSH1 0x20 DUP3 ADD MLOAD DUP2 PUSH1 0x0 ADD PUSH1 0x14 PUSH2 0x100 EXP DUP2 SLOAD DUP2 PUSH1 0xFF MUL NOT AND SWAP1 DUP4 PUSH1 0x2 DUP2 GT ISZERO PUSH2 0xBA6 JUMPI PUSH2 0xBA5 PUSH2 0x27F6 JUMP JUMPDEST JUMPDEST MUL OR SWAP1 SSTORE POP PUSH1 0x40 DUP3 ADD MLOAD DUP2 PUSH1 0x1 ADD SSTORE PUSH1 0x60 DUP3 ADD MLOAD DUP2 PUSH1 0x2 ADD SSTORE PUSH1 0x80 DUP3 ADD MLOAD DUP2 PUSH1 0x3 ADD SSTORE PUSH1 0xA0 DUP3 ADD MLOAD DUP2 PUSH1 0x4 ADD SSTORE PUSH1 0xC0 DUP3 ADD MLOAD DUP2 PUSH1 0x5 ADD SSTORE PUSH1 0xE0 DUP3 ADD MLOAD DUP2 PUSH1 0x6 ADD SSTORE PUSH2 0x100 DUP3 ADD MLOAD DUP2 PUSH1 0x7 ADD PUSH1 0x0 PUSH2 0x100 EXP DUP2 SLOAD DUP2 PUSH1 0xFF MUL NOT AND SWAP1 DUP4 ISZERO ISZERO MUL OR SWAP1 SSTORE POP PUSH2 0x120 DUP3 ADD MLOAD DUP2 PUSH1 0x8 ADD SSTORE SWAP1 POP POP PUSH1 0x6 CALLER SWAP1 DUP1 PUSH1 0x1 DUP2 SLOAD ADD DUP1 DUP3 SSTORE DUP1 SWAP2 POP POP PUSH1 0x1 SWAP1 SUB SWAP1 PUSH1 0x0 MSTORE PUSH1 0x20 PUSH1 0x0 KECCAK256 ADD PUSH1 0x0 SWAP1 SWAP2 SWAP1 SWAP2 SWAP1 SWAP2 PUSH2 0x100 EXP DUP2 SLOAD DUP2 PUSH20 0xFFFFFFFFFFFFFFFFFFFFFFFFFFFFFFFFFFFFFFFF MUL NOT AND SWAP1 DUP4 PUSH20 0xFFFFFFFFFFFFFFFFFFFFFFFFFFFFFFFFFFFFFFFF AND MUL OR SWAP1 SSTORE POP CALLER PUSH20 0xFFFFFFFFFFFFFFFFFFFFFFFFFFFFFFFFFFFFFFFF AND PUSH32 0x7855BA29CA8454697607AA251043EF55A210106EF4ADCCC63B1C8BFEB55B6E67 PUSH1 0x0 PUSH1 0x40 MLOAD PUSH2 0xCC0 SWAP2 SWAP1 PUSH2 0x3409 JUMP JUMPDEST PUSH1 0x40 MLOAD DUP1 SWAP2 SUB SWAP1 LOG2 POP JUMP JUMPDEST PUSH1 0x3 PUSH1 0x20 MSTORE DUP1 PUSH1 0x0 MSTORE PUSH1 0x40 PUSH1 0x0 KECCAK256 PUSH1 0x0 SWAP2 POP SWAP1 POP DUP1 PUSH1 0x0 ADD SLOAD SWAP1 DUP1 PUSH1 0x1 ADD PUSH1 0x0 SWAP1 SLOAD SWAP1 PUSH2 0x100 EXP SWAP1 DIV PUSH1 0xFF AND SWAP1 DUP1 PUSH1 0x1 ADD PUSH1 0x1 SWAP1 SLOAD SWAP1 PUSH2 0x100 EXP SWAP1 DIV PUSH20 0xFFFFFFFFFFFFFFFFFFFFFFFFFFFFFFFFFFFFFFFF AND SWAP1 DUP1 PUSH1 0x2 ADD DUP1 SLOAD PUSH2 0xD2D SWAP1 PUSH2 0x3453 JUMP JUMPDEST DUP1 PUSH1 0x1F ADD PUSH1 0x20 DUP1 SWAP2 DIV MUL PUSH1 0x20 ADD PUSH1 0x40 MLOAD SWAP1 DUP2 ADD PUSH1 0x40 MSTORE DUP1 SWAP3 SWAP2 SWAP1 DUP2 DUP2 MSTORE PUSH1 0x20 ADD DUP3 DUP1 SLOAD PUSH2 0xD59 SWAP1 PUSH2 0x3453 JUMP JUMPDEST DUP1 ISZERO PUSH2 0xDA6 JUMPI DUP1 PUSH1 0x1F LT PUSH2 0xD7B JUMPI PUSH2 0x100 DUP1 DUP4 SLOAD DIV MUL DUP4 MSTORE SWAP2 PUSH1 0x20 ADD SWAP2 PUSH2 0xDA6 JUMP JUMPDEST DUP3 ADD SWAP2 SWAP1 PUSH1 0x0 MSTORE PUSH1 0x20 PUSH1 0x0 KECCAK256 SWAP1 JUMPDEST DUP2 SLOAD DUP2 MSTORE SWAP1 PUSH1 0x1 ADD SWAP1 PUSH1 0x20 ADD DUP1 DUP4 GT PUSH2 0xD89 JUMPI DUP3 SWAP1 SUB PUSH1 0x1F AND DUP3 ADD SWAP2 JUMPDEST POP POP POP POP POP SWAP1 DUP1 PUSH1 0x3 ADD SLOAD SWAP1 DUP1 PUSH1 0x4 ADD SLOAD SWAP1 DUP1 PUSH1 0x5 ADD PUSH1 0x0 SWAP1 SLOAD SWAP1 PUSH2 0x100 EXP SWAP1 DIV PUSH1 0xFF AND SWAP1 DUP1 PUSH1 0x5 ADD PUSH1 0x1 SWAP1 SLOAD SWAP1 PUSH2 0x100 EXP SWAP1 DIV PUSH1 0xFF AND SWAP1 POP DUP9 JUMP JUMPDEST PUSH1 0x14 DUP2 JUMP JUMPDEST PUSH1 0x0 DUP1 CALLER TIMESTAMP DUP5 PUSH1 0x40 MLOAD PUSH1 0x20 ADD PUSH2 0xDFF SWAP4 SWAP3 SWAP2 SWAP1 PUSH2 0x3529 JUMP JUMPDEST PUSH1 0x40 MLOAD PUSH1 0x20 DUP2 DUP4 SUB SUB DUP2 MSTORE SWAP1 PUSH1 0x40 MSTORE DUP1 MLOAD SWAP1 PUSH1 0x20 ADD KECCAK256 SWAP1 POP PUSH1 0x40 MLOAD DUP1 PUSH2 0x100 ADD PUSH1 0x40 MSTORE DUP1 DUP3 DUP2 MSTORE PUSH1 0x20 ADD DUP6 PUSH1 0x5 DUP2 GT ISZERO PUSH2 0xE3C JUMPI PUSH2 0xE3B PUSH2 0x27F6 JUMP JUMPDEST JUMPDEST DUP2 MSTORE PUSH1 0x20 ADD CALLER PUSH20 0xFFFFFFFFFFFFFFFFFFFFFFFFFFFFFFFFFFFFFFFF AND DUP2 MSTORE PUSH1 0x20 ADD DUP5 DUP2 MSTORE PUSH1 0x20 ADD TIMESTAMP DUP2 MSTORE PUSH1 0x20 ADD PUSH3 0x15180 TIMESTAMP PUSH2 0xE78 SWAP2 SWAP1 PUSH2 0x3591 JUMP JUMPDEST DUP2 MSTORE PUSH1 0x20 ADD PUSH1 0x0 PUSH1 0x3 DUP2 GT ISZERO PUSH2 0xE91 JUMPI PUSH2 0xE90 PUSH2 0x27F6 JUMP JUMPDEST JUMPDEST DUP2 MSTORE PUSH1 0x20 ADD PUSH1 0x0 ISZERO ISZERO DUP2 MSTORE POP PUSH1 0x3 PUSH1 0x0 DUP4 DUP2 MSTORE PUSH1 0x20 ADD SWAP1 DUP2 MSTORE PUSH1 0x20 ADD PUSH1 0x0 KECCAK256 PUSH1 0x0 DUP3 ADD MLOAD DUP2 PUSH1 0x0 ADD SSTORE PUSH1 0x20 DUP3 ADD MLOAD DUP2 PUSH1 0x1 ADD PUSH1 0x0 PUSH2 0x100 EXP DUP2 SLOAD DUP2 PUSH1 0xFF MUL NOT AND SWAP1 DUP4 PUSH1 0x5 DUP2 GT ISZERO PUSH2 0xEE5 JUMPI PUSH2 0xEE4 PUSH2 0x27F6 JUMP JUMPDEST JUMPDEST MUL OR SWAP1 SSTORE POP PUSH1 0x40 DUP3 ADD MLOAD DUP2 PUSH1 0x1 ADD PUSH1 0x1 PUSH2 0x100 EXP DUP2 SLOAD DUP2 PUSH20 0xFFFFFFFFFFFFFFFFFFFFFFFFFFFFFFFFFFFFFFFF MUL NOT AND SWAP1 DUP4 PUSH20 0xFFFFFFFFFFFFFFFFFFFFFFFFFFFFFFFFFFFFFFFF AND MUL OR SWAP1 SSTORE POP PUSH1 0x60 DUP3 ADD MLOAD DUP2 PUSH1 0x2 ADD SWAP1 DUP2 PUSH2 0xF46 SWAP2 SWAP1 PUSH2 0x3767 JUMP JUMPDEST POP PUSH1 0x80 DUP3 ADD MLOAD DUP2 PUSH1 0x3 ADD SSTORE PUSH1 0xA0 DUP3 ADD MLOAD DUP2 PUSH1 0x4 ADD SSTORE PUSH1 0xC0 DUP3 ADD MLOAD DUP2 PUSH1 0x5 ADD PUSH1 0x0 PUSH2 0x100 EXP DUP2 SLOAD DUP2 PUSH1 0xFF MUL NOT AND SWAP1 DUP4 PUSH1 0x3 DUP2 GT ISZERO PUSH2 0xF86 JUMPI PUSH2 0xF85 PUSH2 0x27F6 JUMP JUMPDEST JUMPDEST MUL OR SWAP1 SSTORE POP PUSH1 0xE0 DUP3 ADD MLOAD DUP2 PUSH1 0x5 ADD PUSH1 0x1 PUSH2 0x100 EXP DUP2 SLOAD DUP2 PUSH1 0xFF MUL NOT AND SWAP1 DUP4 ISZERO ISZERO MUL OR SWAP1 SSTORE POP SWAP1 POP POP PUSH1 0x7 DUP2 SWAP1 DUP1 PUSH1 0x1 DUP2 SLOAD ADD DUP1 DUP3 SSTORE DUP1 SWAP2 POP POP PUSH1 0x1 SWAP1 SUB SWAP1 PUSH1 0x0 MSTORE PUSH1 0x20 PUSH1 0x0 KECCAK256 ADD PUSH1 0x0 SWAP1 SWAP2 SWAP1 SWAP2 SWAP1 SWAP2 POP SSTORE CALLER PUSH20 0xFFFFFFFFFFFFFFFFFFFFFFFFFFFFFFFFFFFFFFFF AND DUP2 PUSH32 0xFDD8847731AB35AC10A0F03462F1A89D583FF8DB9353B7E775A0BBB8E490AC7D DUP7 PUSH1 0x40 MLOAD PUSH2 0x101E SWAP2 SWAP1 PUSH2 0x3839 JUMP JUMPDEST PUSH1 0x40 MLOAD DUP1 SWAP2 SUB SWAP1 LOG3 DUP1 SWAP2 POP POP SWAP3 SWAP2 POP POP JUMP JUMPDEST PUSH2 0x1038 PUSH2 0x22AA JUMP JUMPDEST PUSH1 0x1 PUSH1 0x0 SWAP1 SLOAD SWAP1 PUSH2 0x100 EXP SWAP1 DIV PUSH20 0xFFFFFFFFFFFFFFFFFFFFFFFFFFFFFFFFFFFFFFFF AND PUSH20 0xFFFFFFFFFFFFFFFFFFFFFFFFFFFFFFFFFFFFFFFF AND PUSH4 0xA9059CBB PUSH2 0x107E PUSH2 0x1191 JUMP JUMPDEST DUP4 PUSH1 0x40 MLOAD DUP4 PUSH4 0xFFFFFFFF AND PUSH1 0xE0 SHL DUP2 MSTORE PUSH1 0x4 ADD PUSH2 0x109C SWAP3 SWAP2 SWAP1 PUSH2 0x3854 JUMP JUMPDEST PUSH1 0x20 PUSH1 0x40 MLOAD DUP1 DUP4 SUB DUP2 PUSH1 0x0 DUP8 GAS CALL ISZERO DUP1 ISZERO PUSH2 0x10BB JUMPI RETURNDATASIZE PUSH1 0x0 DUP1 RETURNDATACOPY RETURNDATASIZE PUSH1 0x0 REVERT JUMPDEST POP POP POP POP PUSH1 0x40 MLOAD RETURNDATASIZE PUSH1 0x1F NOT PUSH1 0x1F DUP3 ADD AND DUP3 ADD DUP1 PUSH1 0x40 MSTORE POP DUP2 ADD SWAP1 PUSH2 0x10DF SWAP2 SWAP1 PUSH2 0x3370 JUMP JUMPDEST POP POP JUMP JUMPDEST PUSH9 0x56BC75E2D63100000 DUP2 JUMP JUMPDEST PUSH1 0x4 PUSH1 0x20 MSTORE DUP2 PUSH1 0x0 MSTORE PUSH1 0x40 PUSH1 0x0 KECCAK256 DUP2 DUP2 SLOAD DUP2 LT PUSH2 0x110C JUMPI PUSH1 0x0 DUP1 REVERT JUMPDEST SWAP1 PUSH1 0x0 MSTORE PUSH1 0x20 PUSH1 0x0 KECCAK256 SWAP1 PUSH1 0x3 MUL ADD PUSH1 0x0 SWAP2 POP SWAP2 POP POP DUP1 PUSH1 0x0 ADD PUSH1 0x0 SWAP1 SLOAD SWAP1 PUSH2 0x100 EXP SWAP1 DIV PUSH20 0xFFFFFFFFFFFFFFFFFFFFFFFFFFFFFFFFFFFFFFFF AND SWAP1 DUP1 PUSH1 0x0 ADD PUSH1 0x14 SWAP1 SLOAD SWAP1 PUSH2 0x100 EXP SWAP1 DIV PUSH1 0xFF AND SWAP1 DUP1 PUSH1 0x0 ADD PUSH1 0x15 SWAP1 SLOAD SWAP1 PUSH2 0x100 EXP SWAP1 DIV PUSH1 0xFF AND SWAP1 DUP1 PUSH1 0x1 ADD SLOAD SWAP1 DUP1 PUSH1 0x2 ADD SLOAD SWAP1 POP DUP6 JUMP JUMPDEST PUSH2 0x1185 PUSH2 0x22AA JUMP JUMPDEST PUSH2 0x118F PUSH1 0x0 PUSH2 0x2331 JUMP JUMPDEST JUMP JUMPDEST PUSH1 0x0 DUP1 PUSH1 0x0 SWAP1 SLOAD SWAP1 PUSH2 0x100 EXP SWAP1 DIV PUSH20 0xFFFFFFFFFFFFFFFFFFFFFFFFFFFFFFFFFFFFFFFF AND SWAP1 POP SWAP1 JUMP JUMPDEST PUSH1 0x2 PUSH1 0x0 CALLER PUSH20 0xFFFFFFFFFFFFFFFFFFFFFFFFFFFFFFFFFFFFFFFF AND PUSH20 0xFFFFFFFFFFFFFFFFFFFFFFFFFFFFFFFFFFFFFFFF AND DUP2 MSTORE PUSH1 0x20 ADD SWAP1 DUP2 MSTORE PUSH1 0x20 ADD PUSH1 0x0 KECCAK256 PUSH1 0x7 ADD PUSH1 0x0 SWAP1 SLOAD SWAP1 PUSH2 0x100 EXP SWAP1 DIV PUSH1 0xFF AND PUSH2 0x1249 JUMPI PUSH1 0x40 MLOAD PUSH32 0x8C379A000000000000000000000000000000000000000000000000000000000 DUP2 MSTORE PUSH1 0x4 ADD PUSH2 0x1240 SWAP1 PUSH2 0x38C9 JUMP JUMPDEST PUSH1 0x40 MLOAD DUP1 SWAP2 SUB SWAP1 REVERT JUMPDEST PUSH1 0x5 PUSH1 0x0 DUP4 DUP2 MSTORE PUSH1 0x20 ADD SWAP1 DUP2 MSTORE PUSH1 0x20 ADD PUSH1 0x0 KECCAK256 PUSH1 0x0 CALLER PUSH20 0xFFFFFFFFFFFFFFFFFFFFFFFFFFFFFFFFFFFFFFFF AND PUSH20 0xFFFFFFFFFFFFFFFFFFFFFFFFFFFFFFFFFFFFFFFF AND DUP2 MSTORE PUSH1 0x20 ADD SWAP1 DUP2 MSTORE PUSH1 0x20 ADD PUSH1 0x0 KECCAK256 PUSH1 0x0 SWAP1 SLOAD SWAP1 PUSH2 0x100 EXP SWAP1 DIV PUSH1 0xFF AND ISZERO PUSH2 0x12E7 JUMPI PUSH1 0x40 MLOAD PUSH32 0x8C379A000000000000000000000000000000000000000000000000000000000 DUP2 MSTORE PUSH1 0x4 ADD PUSH2 0x12DE SWAP1 PUSH2 0x3935 JUMP JUMPDEST PUSH1 0x40 MLOAD DUP1 SWAP2 SUB SWAP1 REVERT JUMPDEST PUSH1 0x0 PUSH1 0x3 DUP2 GT ISZERO PUSH2 0x12FB JUMPI PUSH2 0x12FA PUSH2 0x27F6 JUMP JUMPDEST JUMPDEST PUSH1 0x3 PUSH1 0x0 DUP5 DUP2 MSTORE PUSH1 0x20 ADD SWAP1 DUP2 MSTORE PUSH1 0x20 ADD PUSH1 0x0 KECCAK256 PUSH1 0x5 ADD PUSH1 0x0 SWAP1 SLOAD SWAP1 PUSH2 0x100 EXP SWAP1 DIV PUSH1 0xFF AND PUSH1 0x3 DUP2 GT ISZERO PUSH2 0x1331 JUMPI PUSH2 0x1330 PUSH2 0x27F6 JUMP JUMPDEST JUMPDEST EQ PUSH2 0x1371 JUMPI PUSH1 0x40 MLOAD PUSH32 0x8C379A000000000000000000000000000000000000000000000000000000000 DUP2 MSTORE PUSH1 0x4 ADD PUSH2 0x1368 SWAP1 PUSH2 0x39A1 JUMP JUMPDEST PUSH1 0x40 MLOAD DUP1 SWAP2 SUB SWAP1 REVERT JUMPDEST PUSH1 0x3 PUSH1 0x0 DUP4 DUP2 MSTORE PUSH1 0x20 ADD SWAP1 DUP2 MSTORE PUSH1 0x20 ADD PUSH1 0x0 KECCAK256 PUSH1 0x4 ADD SLOAD TIMESTAMP LT PUSH2 0x13C9 JUMPI PUSH1 0x40 MLOAD PUSH32 0x8C379A000000000000000000000000000000000000000000000000000000000 DUP2 MSTORE PUSH1 0x4 ADD PUSH2 0x13C0 SWAP1 PUSH2 0x3A0D JUMP JUMPDEST PUSH1 0x40 MLOAD DUP1 SWAP2 SUB SWAP1 REVERT JUMPDEST PUSH1 0x0 PUSH1 0x2 PUSH1 0x0 CALLER PUSH20 0xFFFFFFFFFFFFFFFFFFFFFFFFFFFFFFFFFFFFFFFF AND PUSH20 0xFFFFFFFFFFFFFFFFFFFFFFFFFFFFFFFFFFFFFFFF AND DUP2 MSTORE PUSH1 0x20 ADD SWAP1 DUP2 MSTORE PUSH1 0x20 ADD PUSH1 0x0 KECCAK256 PUSH1 0x40 MLOAD DUP1 PUSH2 0x140 ADD PUSH1 0x40 MSTORE SWAP1 DUP2 PUSH1 0x0 DUP3 ADD PUSH1 0x0 SWAP1 SLOAD SWAP1 PUSH2 0x100 EXP SWAP1 DIV PUSH20 0xFFFFFFFFFFFFFFFFFFFFFFFFFFFFFFFFFFFFFFFF AND PUSH20 0xFFFFFFFFFFFFFFFFFFFFFFFFFFFFFFFFFFFFFFFF AND PUSH20 0xFFFFFFFFFFFFFFFFFFFFFFFFFFFFFFFFFFFFFFFF AND DUP2 MSTORE PUSH1 0x20 ADD PUSH1 0x0 DUP3 ADD PUSH1 0x14 SWAP1 SLOAD SWAP1 PUSH2 0x100 EXP SWAP1 DIV PUSH1 0xFF AND PUSH1 0x2 DUP2 GT ISZERO PUSH2 0x1491 JUMPI PUSH2 0x1490 PUSH2 0x27F6 JUMP JUMPDEST JUMPDEST PUSH1 0x2 DUP2 GT ISZERO PUSH2 0x14A3 JUMPI PUSH2 0x14A2 PUSH2 0x27F6 JUMP JUMPDEST JUMPDEST DUP2 MSTORE PUSH1 0x20 ADD PUSH1 0x1 DUP3 ADD SLOAD DUP2 MSTORE PUSH1 0x20 ADD PUSH1 0x2 DUP3 ADD SLOAD DUP2 MSTORE PUSH1 0x20 ADD PUSH1 0x3 DUP3 ADD SLOAD DUP2 MSTORE PUSH1 0x20 ADD PUSH1 0x4 DUP3 ADD SLOAD DUP2 MSTORE PUSH1 0x20 ADD PUSH1 0x5 DUP3 ADD SLOAD DUP2 MSTORE PUSH1 0x20 ADD PUSH1 0x6 DUP3 ADD SLOAD DUP2 MSTORE PUSH1 0x20 ADD PUSH1 0x7 DUP3 ADD PUSH1 0x0 SWAP1 SLOAD SWAP1 PUSH2 0x100 EXP SWAP1 DIV PUSH1 0xFF AND ISZERO ISZERO ISZERO ISZERO DUP2 MSTORE PUSH1 0x20 ADD PUSH1 0x8 DUP3 ADD SLOAD DUP2 MSTORE POP POP SWAP1 POP PUSH1 0x4 PUSH1 0x0 DUP5 DUP2 MSTORE PUSH1 0x20 ADD SWAP1 DUP2 MSTORE PUSH1 0x20 ADD PUSH1 0x0 KECCAK256 PUSH1 0x40 MLOAD DUP1 PUSH1 0xA0 ADD PUSH1 0x40 MSTORE DUP1 CALLER PUSH20 0xFFFFFFFFFFFFFFFFFFFFFFFFFFFFFFFFFFFFFFFF AND DUP2 MSTORE PUSH1 0x20 ADD DUP4 PUSH1 0x20 ADD MLOAD PUSH1 0x2 DUP2 GT ISZERO PUSH2 0x155B JUMPI PUSH2 0x155A PUSH2 0x27F6 JUMP JUMPDEST JUMPDEST DUP2 MSTORE PUSH1 0x20 ADD DUP5 ISZERO ISZERO DUP2 MSTORE PUSH1 0x20 ADD DUP4 PUSH1 0x40 ADD MLOAD DUP2 MSTORE PUSH1 0x20 ADD TIMESTAMP DUP2 MSTORE POP SWAP1 DUP1 PUSH1 0x1 DUP2 SLOAD ADD DUP1 DUP3 SSTORE DUP1 SWAP2 POP POP PUSH1 0x1 SWAP1 SUB SWAP1 PUSH1 0x0 MSTORE PUSH1 0x20 PUSH1 0x0 KECCAK256 SWAP1 PUSH1 0x3 MUL ADD PUSH1 0x0 SWAP1 SWAP2 SWAP1 SWAP2 SWAP1 SWAP2 POP PUSH1 0x0 DUP3 ADD MLOAD DUP2 PUSH1 0x0 ADD PUSH1 0x0 PUSH2 0x100 EXP DUP2 SLOAD DUP2 PUSH20 0xFFFFFFFFFFFFFFFFFFFFFFFFFFFFFFFFFFFFFFFF MUL NOT AND SWAP1 DUP4 PUSH20 0xFFFFFFFFFFFFFFFFFFFFFFFFFFFFFFFFFFFFFFFF AND MUL OR SWAP1 SSTORE POP PUSH1 0x20 DUP3 ADD MLOAD DUP2 PUSH1 0x0 ADD PUSH1 0x14 PUSH2 0x100 EXP DUP2 SLOAD DUP2 PUSH1 0xFF MUL NOT AND SWAP1 DUP4 PUSH1 0x2 DUP2 GT ISZERO PUSH2 0x1611 JUMPI PUSH2 0x1610 PUSH2 0x27F6 JUMP JUMPDEST JUMPDEST MUL OR SWAP1 SSTORE POP PUSH1 0x40 DUP3 ADD MLOAD DUP2 PUSH1 0x0 ADD PUSH1 0x15 PUSH2 0x100 EXP DUP2 SLOAD DUP2 PUSH1 0xFF MUL NOT AND SWAP1 DUP4 ISZERO ISZERO MUL OR SWAP1 SSTORE POP PUSH1 0x60 DUP3 ADD MLOAD DUP2 PUSH1 0x1 ADD SSTORE PUSH1 0x80 DUP3 ADD MLOAD DUP2 PUSH1 0x2 ADD SSTORE POP POP PUSH1 0x1 PUSH1 0x5 PUSH1 0x0 DUP6 DUP2 MSTORE PUSH1 0x20 ADD SWAP1 DUP2 MSTORE PUSH1 0x20 ADD PUSH1 0x0 KECCAK256 PUSH1 0x0 CALLER PUSH20 0xFFFFFFFFFFFFFFFFFFFFFFFFFFFFFFFFFFFFFFFF AND PUSH20 0xFFFFFFFFFFFFFFFFFFFFFFFFFFFFFFFFFFFFFFFF AND DUP2 MSTORE PUSH1 0x20 ADD SWAP1 DUP2 MSTORE PUSH1 0x20 ADD PUSH1 0x0 KECCAK256 PUSH1 0x0 PUSH2 0x100 EXP DUP2 SLOAD DUP2 PUSH1 0xFF MUL NOT AND SWAP1 DUP4 ISZERO ISZERO MUL OR SWAP1 SSTORE POP PUSH1 0x2 PUSH1 0x0 CALLER PUSH20 0xFFFFFFFFFFFFFFFFFFFFFFFFFFFFFFFFFFFFFFFF AND PUSH20 0xFFFFFFFFFFFFFFFFFFFFFFFFFFFFFFFFFFFFFFFF AND DUP2 MSTORE PUSH1 0x20 ADD SWAP1 DUP2 MSTORE PUSH1 0x20 ADD PUSH1 0x0 KECCAK256 PUSH1 0x3 ADD PUSH1 0x0 DUP2 SLOAD DUP1 SWAP3 SWAP2 SWAP1 PUSH2 0x1708 SWAP1 PUSH2 0x3A2D JUMP JUMPDEST SWAP2 SWAP1 POP SSTORE POP CALLER PUSH20 0xFFFFFFFFFFFFFFFFFFFFFFFFFFFFFFFFFFFFFFFF AND DUP4 PUSH32 0x16EFD9A5766AD43CA179F5EF58B8748C48DDEDD2DD2A228460465BFA90D4D069 DUP5 PUSH1 0x40 MLOAD PUSH2 0x1754 SWAP2 SWAP1 PUSH2 0x303B JUMP JUMPDEST PUSH1 0x40 MLOAD DUP1 SWAP2 SUB SWAP1 LOG3 POP POP POP JUMP JUMPDEST PUSH1 0x0 PUSH1 0x2 PUSH1 0x0 CALLER PUSH20 0xFFFFFFFFFFFFFFFFFFFFFFFFFFFFFFFFFFFFFFFF AND PUSH20 0xFFFFFFFFFFFFFFFFFFFFFFFFFFFFFFFFFFFFFFFF AND DUP2 MSTORE PUSH1 0x20 ADD SWAP1 DUP2 MSTORE PUSH1 0x20 ADD PUSH1 0x0 KECCAK256 SWAP1 POP DUP1 PUSH1 0x7 ADD PUSH1 0x0 SWAP1 SLOAD SWAP1 PUSH2 0x100 EXP SWAP1 DIV PUSH1 0xFF AND PUSH2 0x17F5 JUMPI PUSH1 0x40 MLOAD PUSH32 0x8C379A000000000000000000000000000000000000000000000000000000000 DUP2 MSTORE PUSH1 0x4 ADD PUSH2 0x17EC SWAP1 PUSH2 0x3AC1 JUMP JUMPDEST PUSH1 0x40 MLOAD DUP1 SWAP2 SUB SWAP1 REVERT JUMPDEST DUP1 PUSH1 0x0 ADD PUSH1 0x14 SWAP1 SLOAD SWAP1 PUSH2 0x100 EXP SWAP1 DIV PUSH1 0xFF AND PUSH1 0x2 DUP2 GT ISZERO PUSH2 0x1819 JUMPI PUSH2 0x1818 PUSH2 0x27F6 JUMP JUMPDEST JUMPDEST DUP3 PUSH1 0x2 DUP2 GT ISZERO PUSH2 0x182C JUMPI PUSH2 0x182B PUSH2 0x27F6 JUMP JUMPDEST JUMPDEST GT PUSH2 0x186C JUMPI PUSH1 0x40 MLOAD PUSH32 0x8C379A000000000000000000000000000000000000000000000000000000000 DUP2 MSTORE PUSH1 0x4 ADD PUSH2 0x1863 SWAP1 PUSH2 0x3B2D JUMP JUMPDEST PUSH1 0x40 MLOAD DUP1 SWAP2 SUB SWAP1 REVERT JUMPDEST PUSH1 0x0 DUP1 PUSH1 0x1 PUSH1 0x2 DUP2 GT ISZERO PUSH2 0x1883 JUMPI PUSH2 0x1882 PUSH2 0x27F6 JUMP JUMPDEST JUMPDEST DUP5 PUSH1 0x2 DUP2 GT ISZERO PUSH2 0x1896 JUMPI PUSH2 0x1895 PUSH2 0x27F6 JUMP JUMPDEST JUMPDEST SUB PUSH2 0x1917 JUMPI PUSH1 0x2 DUP4 PUSH1 0x5 ADD SLOAD LT ISZERO DUP1 PUSH2 0x18B4 JUMPI POP PUSH1 0x55 DUP4 PUSH1 0x2 ADD SLOAD LT ISZERO JUMPDEST PUSH2 0x18F3 JUMPI PUSH1 0x40 MLOAD PUSH32 0x8C379A000000000000000000000000000000000000000000000000000000000 DUP2 MSTORE PUSH1 0x4 ADD PUSH2 0x18EA SWAP1 PUSH2 0x3B99 JUMP JUMPDEST PUSH1 0x40 MLOAD DUP1 SWAP2 SUB SWAP1 REVERT JUMPDEST DUP3 PUSH1 0x6 ADD SLOAD PUSH9 0x2B5E3AF16B1880000 PUSH2 0x190C SWAP2 SWAP1 PUSH2 0x3BB9 JUMP JUMPDEST SWAP2 POP PUSH1 0x3 SWAP1 POP PUSH2 0x19BB JUMP JUMPDEST PUSH1 0x2 DUP1 DUP2 GT ISZERO PUSH2 0x192A JUMPI PUSH2 0x1929 PUSH2 0x27F6 JUMP JUMPDEST JUMPDEST DUP5 PUSH1 0x2 DUP2 GT ISZERO PUSH2 0x193D JUMPI PUSH2 0x193C PUSH2 0x27F6 JUMP JUMPDEST JUMPDEST SUB PUSH2 0x19BA JUMPI PUSH1 0x3 DUP4 PUSH1 0x5 ADD SLOAD LT ISZERO DUP1 PUSH2 0x195B JUMPI POP PUSH1 0x5F DUP4 PUSH1 0x2 ADD SLOAD LT ISZERO JUMPDEST PUSH2 0x199A JUMPI PUSH1 0x40 MLOAD PUSH32 0x8C379A000000000000000000000000000000000000000000000000000000000 DUP2 MSTORE PUSH1 0x4 ADD PUSH2 0x1991 SWAP1 PUSH2 0x3C39 JUMP JUMPDEST PUSH1 0x40 MLOAD DUP1 SWAP2 SUB SWAP1 REVERT JUMPDEST DUP3 PUSH1 0x6 ADD SLOAD PUSH9 0x56BC75E2D63100000 PUSH2 0x19B3 SWAP2 SWAP1 PUSH2 0x3BB9 JUMP JUMPDEST SWAP2 POP PUSH1 0x5 SWAP1 POP JUMPDEST JUMPDEST PUSH1 0x0 DUP3 GT ISZERO PUSH2 0x1AC1 JUMPI PUSH1 0x1 PUSH1 0x0 SWAP1 SLOAD SWAP1 PUSH2 0x100 EXP SWAP1 DIV PUSH20 0xFFFFFFFFFFFFFFFFFFFFFFFFFFFFFFFFFFFFFFFF AND PUSH20 0xFFFFFFFFFFFFFFFFFFFFFFFFFFFFFFFFFFFFFFFF AND PUSH4 0x23B872DD CALLER ADDRESS DUP6 PUSH1 0x40 MLOAD DUP5 PUSH4 0xFFFFFFFF AND PUSH1 0xE0 SHL DUP2 MSTORE PUSH1 0x4 ADD PUSH2 0x1A23 SWAP4 SWAP3 SWAP2 SWAP1 PUSH2 0x3324 JUMP JUMPDEST PUSH1 0x20 PUSH1 0x40 MLOAD DUP1 DUP4 SUB DUP2 PUSH1 0x0 DUP8 GAS CALL ISZERO DUP1 ISZERO PUSH2 0x1A42 JUMPI RETURNDATASIZE PUSH1 0x0 DUP1 RETURNDATACOPY RETURNDATASIZE PUSH1 0x0 REVERT JUMPDEST POP POP POP POP PUSH1 0x40 MLOAD RETURNDATASIZE PUSH1 0x1F NOT PUSH1 0x1F DUP3 ADD AND DUP3 ADD DUP1 PUSH1 0x40 MSTORE POP DUP2 ADD SWAP1 PUSH2 0x1A66 SWAP2 SWAP1 PUSH2 0x3370 JUMP JUMPDEST PUSH2 0x1AA5 JUMPI PUSH1 0x40 MLOAD PUSH32 0x8C379A000000000000000000000000000000000000000000000000000000000 DUP2 MSTORE PUSH1 0x4 ADD PUSH2 0x1A9C SWAP1 PUSH2 0x3CA5 JUMP JUMPDEST PUSH1 0x40 MLOAD DUP1 SWAP2 SUB SWAP1 REVERT JUMPDEST DUP2 DUP4 PUSH1 0x6 ADD PUSH1 0x0 DUP3 DUP3 SLOAD PUSH2 0x1AB9 SWAP2 SWAP1 PUSH2 0x3591 JUMP JUMPDEST SWAP3 POP POP DUP2 SWAP1 SSTORE POP JUMPDEST PUSH1 0x0 DUP4 PUSH1 0x0 ADD PUSH1 0x14 SWAP1 SLOAD SWAP1 PUSH2 0x100 EXP SWAP1 DIV PUSH1 0xFF AND SWAP1 POP DUP5 DUP5 PUSH1 0x0 ADD PUSH1 0x14 PUSH2 0x100 EXP DUP2 SLOAD DUP2 PUSH1 0xFF MUL NOT AND SWAP1 DUP4 PUSH1 0x2 DUP2 GT ISZERO PUSH2 0x1AFE JUMPI PUSH2 0x1AFD PUSH2 0x27F6 JUMP JUMPDEST JUMPDEST MUL OR SWAP1 SSTORE POP DUP2 DUP5 PUSH1 0x1 ADD DUP2 SWAP1 SSTORE POP CALLER PUSH20 0xFFFFFFFFFFFFFFFFFFFFFFFFFFFFFFFFFFFFFFFF AND PUSH32 0xFDAB712786AFC3B366BDB70E1353D20CF7D17170E663BD0349B1A1C06C44D958 DUP3 DUP8 PUSH1 0x40 MLOAD PUSH2 0x1B54 SWAP3 SWAP2 SWAP1 PUSH2 0x3CC5 JUMP JUMPDEST PUSH1 0x40 MLOAD DUP1 SWAP2 SUB SWAP1 LOG2 POP POP POP POP POP JUMP JUMPDEST PUSH1 0x5 PUSH1 0x20 MSTORE DUP2 PUSH1 0x0 MSTORE PUSH1 0x40 PUSH1 0x0 KECCAK256 PUSH1 0x20 MSTORE DUP1 PUSH1 0x0 MSTORE PUSH1 0x40 PUSH1 0x0 KECCAK256 PUSH1 0x0 SWAP2 POP SWAP2 POP SWAP1 SLOAD SWAP1 PUSH2 0x100 EXP SWAP1 DIV PUSH1 0xFF AND DUP2 JUMP JUMPDEST PUSH1 0x7 DUP2 DUP2 SLOAD DUP2 LT PUSH2 0x1BA2 JUMPI PUSH1 0x0 DUP1 REVERT JUMPDEST SWAP1 PUSH1 0x0 MSTORE PUSH1 0x20 PUSH1 0x0 KECCAK256 ADD PUSH1 0x0 SWAP2 POP SWAP1 POP SLOAD DUP2 JUMP JUMPDEST PUSH9 0x3635C9ADC5DEA00000 DUP2 JUMP JUMPDEST PUSH1 0x1 PUSH1 0x0 SWAP1 SLOAD SWAP1 PUSH2 0x100 EXP SWAP1 DIV PUSH20 0xFFFFFFFFFFFFFFFFFFFFFFFFFFFFFFFFFFFFFFFF AND DUP2 JUMP JUMPDEST PUSH3 0x15180 DUP2 JUMP JUMPDEST PUSH1 0x2 PUSH1 0x20 MSTORE DUP1 PUSH1 0x0 MSTORE PUSH1 0x40 PUSH1 0x0 KECCAK256 PUSH1 0x0 SWAP2 POP SWAP1 POP DUP1 PUSH1 0x0 ADD PUSH1 0x0 SWAP1 SLOAD SWAP1 PUSH2 0x100 EXP SWAP1 DIV PUSH20 0xFFFFFFFFFFFFFFFFFFFFFFFFFFFFFFFFFFFFFFFF AND SWAP1 DUP1 PUSH1 0x0 ADD PUSH1 0x14 SWAP1 SLOAD SWAP1 PUSH2 0x100 EXP SWAP1 DIV PUSH1 0xFF AND SWAP1 DUP1 PUSH1 0x1 ADD SLOAD SWAP1 DUP1 PUSH1 0x2 ADD SLOAD SWAP1 DUP1 PUSH1 0x3 ADD SLOAD SWAP1 DUP1 PUSH1 0x4 ADD SLOAD SWAP1 DUP1 PUSH1 0x5 ADD SLOAD SWAP1 DUP1 PUSH1 0x6 ADD SLOAD SWAP1 DUP1 PUSH1 0x7 ADD PUSH1 0x0 SWAP1 SLOAD SWAP1 PUSH2 0x100 EXP SWAP1 DIV PUSH1 0xFF AND SWAP1 DUP1 PUSH1 0x8 ADD SLOAD SWAP1 POP DUP11 JUMP JUMPDEST PUSH9 0x2B5E3AF16B1880000 DUP2 JUMP JUMPDEST PUSH1 0x6 DUP2 DUP2 SLOAD DUP2 LT PUSH2 0x1C9B JUMPI PUSH1 0x0 DUP1 REVERT JUMPDEST SWAP1 PUSH1 0x0 MSTORE PUSH1 0x20 PUSH1 0x0 KECCAK256 ADD PUSH1 0x0 SWAP2 POP SLOAD SWAP1 PUSH2 0x100 EXP SWAP1 DIV PUSH20 0xFFFFFFFFFFFFFFFFFFFFFFFFFFFFFFFFFFFFFFFF AND DUP2 JUMP JUMPDEST PUSH1 0xA DUP2 JUMP JUMPDEST PUSH1 0x3 DUP2 JUMP JUMPDEST PUSH1 0x60 PUSH1 0x0 DUP1 JUMPDEST PUSH1 0x7 DUP1 SLOAD SWAP1 POP DUP2 LT ISZERO PUSH2 0x1D76 JUMPI PUSH1 0x0 PUSH1 0x3 DUP2 GT ISZERO PUSH2 0x1CFB JUMPI PUSH2 0x1CFA PUSH2 0x27F6 JUMP JUMPDEST JUMPDEST PUSH1 0x3 PUSH1 0x0 PUSH1 0x7 DUP5 DUP2 SLOAD DUP2 LT PUSH2 0x1D13 JUMPI PUSH2 0x1D12 PUSH2 0x3CEE JUMP JUMPDEST JUMPDEST SWAP1 PUSH1 0x0 MSTORE PUSH1 0x20 PUSH1 0x0 KECCAK256 ADD SLOAD DUP2 MSTORE PUSH1 0x20 ADD SWAP1 DUP2 MSTORE PUSH1 0x20 ADD PUSH1 0x0 KECCAK256 PUSH1 0x5 ADD PUSH1 0x0 SWAP1 SLOAD SWAP1 PUSH2 0x100 EXP SWAP1 DIV PUSH1 0xFF AND PUSH1 0x3 DUP2 GT ISZERO PUSH2 0x1D4F JUMPI PUSH2 0x1D4E PUSH2 0x27F6 JUMP JUMPDEST JUMPDEST SUB PUSH2 0x1D63 JUMPI DUP2 DUP1 PUSH2 0x1D5F SWAP1 PUSH2 0x3A2D JUMP JUMPDEST SWAP3 POP POP JUMPDEST DUP1 DUP1 PUSH2 0x1D6E SWAP1 PUSH2 0x3A2D JUMP JUMPDEST SWAP2 POP POP PUSH2 0x1CDA JUMP JUMPDEST POP PUSH1 0x0 DUP2 PUSH8 0xFFFFFFFFFFFFFFFF DUP2 GT ISZERO PUSH2 0x1D93 JUMPI PUSH2 0x1D92 PUSH2 0x2CED JUMP JUMPDEST JUMPDEST PUSH1 0x40 MLOAD SWAP1 DUP1 DUP3 MSTORE DUP1 PUSH1 0x20 MUL PUSH1 0x20 ADD DUP3 ADD PUSH1 0x40 MSTORE DUP1 ISZERO PUSH2 0x1DC1 JUMPI DUP2 PUSH1 0x20 ADD PUSH1 0x20 DUP3 MUL DUP1 CALLDATASIZE DUP4 CALLDATACOPY DUP1 DUP3 ADD SWAP2 POP POP SWAP1 POP JUMPDEST POP SWAP1 POP PUSH1 0x0 DUP1 JUMPDEST PUSH1 0x7 DUP1 SLOAD SWAP1 POP DUP2 LT ISZERO PUSH2 0x1EA2 JUMPI PUSH1 0x0 PUSH1 0x3 DUP2 GT ISZERO PUSH2 0x1DE9 JUMPI PUSH2 0x1DE8 PUSH2 0x27F6 JUMP JUMPDEST JUMPDEST PUSH1 0x3 PUSH1 0x0 PUSH1 0x7 DUP5 DUP2 SLOAD DUP2 LT PUSH2 0x1E01 JUMPI PUSH2 0x1E00 PUSH2 0x3CEE JUMP JUMPDEST JUMPDEST SWAP1 PUSH1 0x0 MSTORE PUSH1 0x20 PUSH1 0x0 KECCAK256 ADD SLOAD DUP2 MSTORE PUSH1 0x20 ADD SWAP1 DUP2 MSTORE PUSH1 0x20 ADD PUSH1 0x0 KECCAK256 PUSH1 0x5 ADD PUSH1 0x0 SWAP1 SLOAD SWAP1 PUSH2 0x100 EXP SWAP1 DIV PUSH1 0xFF AND PUSH1 0x3 DUP2 GT ISZERO PUSH2 0x1E3D JUMPI PUSH2 0x1E3C PUSH2 0x27F6 JUMP JUMPDEST JUMPDEST SUB PUSH2 0x1E8F JUMPI PUSH1 0x7 DUP2 DUP2 SLOAD DUP2 LT PUSH2 0x1E56 JUMPI PUSH2 0x1E55 PUSH2 0x3CEE JUMP JUMPDEST JUMPDEST SWAP1 PUSH1 0x0 MSTORE PUSH1 0x20 PUSH1 0x0 KECCAK256 ADD SLOAD DUP4 DUP4 DUP2 MLOAD DUP2 LT PUSH2 0x1E74 JUMPI PUSH2 0x1E73 PUSH2 0x3CEE JUMP JUMPDEST JUMPDEST PUSH1 0x20 MUL PUSH1 0x20 ADD ADD DUP2 DUP2 MSTORE POP POP DUP2 DUP1 PUSH2 0x1E8B SWAP1 PUSH2 0x3A2D JUMP JUMPDEST SWAP3 POP POP JUMPDEST DUP1 DUP1 PUSH2 0x1E9A SWAP1 PUSH2 0x3A2D JUMP JUMPDEST SWAP2 POP POP PUSH2 0x1DC8 JUMP JUMPDEST POP DUP2 SWAP4 POP POP POP POP SWAP1 JUMP JUMPDEST PUSH2 0x1EB4 PUSH2 0x22AA JUMP JUMPDEST PUSH1 0x0 PUSH20 0xFFFFFFFFFFFFFFFFFFFFFFFFFFFFFFFFFFFFFFFF AND DUP2 PUSH20 0xFFFFFFFFFFFFFFFFFFFFFFFFFFFFFFFFFFFFFFFF AND SUB PUSH2 0x1F26 JUMPI PUSH1 0x0 PUSH1 0x40 MLOAD PUSH32 0x1E4FBDF700000000000000000000000000000000000000000000000000000000 DUP2 MSTORE PUSH1 0x4 ADD PUSH2 0x1F1D SWAP2 SWAP1 PUSH2 0x2F22 JUMP JUMPDEST PUSH1 0x40 MLOAD DUP1 SWAP2 SUB SWAP1 REVERT JUMPDEST PUSH2 0x1F2F DUP2 PUSH2 0x2331 JUMP JUMPDEST POP JUMP JUMPDEST PUSH1 0x0 PUSH1 0x3 PUSH1 0x0 DUP4 DUP2 MSTORE PUSH1 0x20 ADD SWAP1 DUP2 MSTORE PUSH1 0x20 ADD PUSH1 0x0 KECCAK256 SWAP1 POP DUP1 PUSH1 0x5 ADD PUSH1 0x1 SWAP1 SLOAD SWAP1 PUSH2 0x100 EXP SWAP1 DIV PUSH1 0xFF AND ISZERO PUSH2 0x1F9B JUMPI PUSH1 0x40 MLOAD PUSH32 0x8C379A000000000000000000000000000000000000000000000000000000000 DUP2 MSTORE PUSH1 0x4 ADD PUSH2 0x1F92 SWAP1 PUSH2 0x3D69 JUMP JUMPDEST PUSH1 0x40 MLOAD DUP1 SWAP2 SUB SWAP1 REVERT JUMPDEST DUP1 PUSH1 0x4 ADD SLOAD TIMESTAMP LT ISZERO PUSH2 0x1FE2 JUMPI PUSH1 0x40 MLOAD PUSH32 0x8C379A000000000000000000000000000000000000000000000000000000000 DUP2 MSTORE PUSH1 0x4 ADD PUSH2 0x1FD9 SWAP1 PUSH2 0x3DD5 JUMP JUMPDEST PUSH1 0x40 MLOAD DUP1 SWAP2 SUB SWAP1 REVERT JUMPDEST PUSH1 0x0 PUSH1 0x4 PUSH1 0x0 DUP5 DUP2 MSTORE PUSH1 0x20 ADD SWAP1 DUP2 MSTORE PUSH1 0x20 ADD PUSH1 0x0 KECCAK256 DUP1 SLOAD DUP1 PUSH1 0x20 MUL PUSH1 0x20 ADD PUSH1 0x40 MLOAD SWAP1 DUP2 ADD PUSH1 0x40 MSTORE DUP1 SWAP3 SWAP2 SWAP1 DUP2 DUP2 MSTORE PUSH1 0x20 ADD PUSH1 0x0 SWAP1 JUMPDEST DUP3 DUP3 LT ISZERO PUSH2 0x2109 JUMPI DUP4 DUP3 SWAP1 PUSH1 0x0 MSTORE PUSH1 0x20 PUSH1 0x0 KECCAK256 SWAP1 PUSH1 0x3 MUL ADD PUSH1 0x40 MLOAD DUP1 PUSH1 0xA0 ADD PUSH1 0x40 MSTORE SWAP1 DUP2 PUSH1 0x0 DUP3 ADD PUSH1 0x0 SWAP1 SLOAD SWAP1 PUSH2 0x100 EXP SWAP1 DIV PUSH20 0xFFFFFFFFFFFFFFFFFFFFFFFFFFFFFFFFFFFFFFFF AND PUSH20 0xFFFFFFFFFFFFFFFFFFFFFFFFFFFFFFFFFFFFFFFF AND PUSH20 0xFFFFFFFFFFFFFFFFFFFFFFFFFFFFFFFFFFFFFFFF AND DUP2 MSTORE PUSH1 0x20 ADD PUSH1 0x0 DUP3 ADD PUSH1 0x14 SWAP1 SLOAD SWAP1 PUSH2 0x100 EXP SWAP1 DIV PUSH1 0xFF AND PUSH1 0x2 DUP2 GT ISZERO PUSH2 0x20B5 JUMPI PUSH2 0x20B4 PUSH2 0x27F6 JUMP JUMPDEST JUMPDEST PUSH1 0x2 DUP2 GT ISZERO PUSH2 0x20C7 JUMPI PUSH2 0x20C6 PUSH2 0x27F6 JUMP JUMPDEST JUMPDEST DUP2 MSTORE PUSH1 0x20 ADD PUSH1 0x0 DUP3 ADD PUSH1 0x15 SWAP1 SLOAD SWAP1 PUSH2 0x100 EXP SWAP1 DIV PUSH1 0xFF AND ISZERO ISZERO ISZERO ISZERO DUP2 MSTORE PUSH1 0x20 ADD PUSH1 0x1 DUP3 ADD SLOAD DUP2 MSTORE PUSH1 0x20 ADD PUSH1 0x2 DUP3 ADD SLOAD DUP2 MSTORE POP POP DUP2 MSTORE PUSH1 0x20 ADD SWAP1 PUSH1 0x1 ADD SWAP1 PUSH2 0x2017 JUMP JUMPDEST POP POP POP POP SWAP1 POP PUSH1 0x0 DUP2 MLOAD GT PUSH2 0x2153 JUMPI PUSH1 0x40 MLOAD PUSH32 0x8C379A000000000000000000000000000000000000000000000000000000000 DUP2 MSTORE PUSH1 0x4 ADD PUSH2 0x214A SWAP1 PUSH2 0x3E41 JUMP JUMPDEST PUSH1 0x40 MLOAD DUP1 SWAP2 SUB SWAP1 REVERT JUMPDEST PUSH1 0x0 DUP1 PUSH1 0x0 JUMPDEST DUP4 MLOAD DUP2 LT ISZERO PUSH2 0x21F7 JUMPI DUP4 DUP2 DUP2 MLOAD DUP2 LT PUSH2 0x2175 JUMPI PUSH2 0x2174 PUSH2 0x3CEE JUMP JUMPDEST JUMPDEST PUSH1 0x20 MUL PUSH1 0x20 ADD ADD MLOAD PUSH1 0x40 ADD MLOAD ISZERO PUSH2 0x21B7 JUMPI DUP4 DUP2 DUP2 MLOAD DUP2 LT PUSH2 0x2199 JUMPI PUSH2 0x2198 PUSH2 0x3CEE JUMP JUMPDEST JUMPDEST PUSH1 0x20 MUL PUSH1 0x20 ADD ADD MLOAD PUSH1 0x60 ADD MLOAD DUP4 PUSH2 0x21B0 SWAP2 SWAP1 PUSH2 0x3591 JUMP JUMPDEST SWAP3 POP PUSH2 0x21E4 JUMP JUMPDEST DUP4 DUP2 DUP2 MLOAD DUP2 LT PUSH2 0x21CA JUMPI PUSH2 0x21C9 PUSH2 0x3CEE JUMP JUMPDEST JUMPDEST PUSH1 0x20 MUL PUSH1 0x20 ADD ADD MLOAD PUSH1 0x60 ADD MLOAD DUP3 PUSH2 0x21E1 SWAP2 SWAP1 PUSH2 0x3591 JUMP JUMPDEST SWAP2 POP JUMPDEST DUP1 DUP1 PUSH2 0x21EF SWAP1 PUSH2 0x3A2D JUMP JUMPDEST SWAP2 POP POP PUSH2 0x2159 JUMP JUMPDEST POP PUSH1 0x0 DUP2 DUP4 GT SWAP1 POP DUP1 PUSH2 0x220B JUMPI PUSH1 0x2 PUSH2 0x220E JUMP JUMPDEST PUSH1 0x1 JUMPDEST DUP6 PUSH1 0x5 ADD PUSH1 0x0 PUSH2 0x100 EXP DUP2 SLOAD DUP2 PUSH1 0xFF MUL NOT AND SWAP1 DUP4 PUSH1 0x3 DUP2 GT ISZERO PUSH2 0x2234 JUMPI PUSH2 0x2233 PUSH2 0x27F6 JUMP JUMPDEST JUMPDEST MUL OR SWAP1 SSTORE POP PUSH1 0x1 DUP6 PUSH1 0x5 ADD PUSH1 0x1 PUSH2 0x100 EXP DUP2 SLOAD DUP2 PUSH1 0xFF MUL NOT AND SWAP1 DUP4 ISZERO ISZERO MUL OR SWAP1 SSTORE POP PUSH2 0x2261 DUP7 DUP3 DUP7 PUSH2 0x23F5 JUMP JUMPDEST DUP6 PUSH32 0x7DFD85B4F8D09E161EB4F72D683098EE1573B08082D2298BDCF70E7E8DDD0F88 DUP3 DUP6 DUP6 PUSH1 0x40 MLOAD PUSH2 0x2295 SWAP4 SWAP3 SWAP2 SWAP1 PUSH2 0x3E61 JUMP JUMPDEST PUSH1 0x40 MLOAD DUP1 SWAP2 SUB SWAP1 LOG2 POP POP POP POP POP POP JUMP JUMPDEST PUSH1 0x5 DUP2 JUMP JUMPDEST PUSH2 0x22B2 PUSH2 0x263B JUMP JUMPDEST PUSH20 0xFFFFFFFFFFFFFFFFFFFFFFFFFFFFFFFFFFFFFFFF AND PUSH2 0x22D0 PUSH2 0x1191 JUMP JUMPDEST PUSH20 0xFFFFFFFFFFFFFFFFFFFFFFFFFFFFFFFFFFFFFFFF AND EQ PUSH2 0x232F JUMPI PUSH2 0x22F3 PUSH2 0x263B JUMP JUMPDEST PUSH1 0x40 MLOAD PUSH32 0x118CDAA700000000000000000000000000000000000000000000000000000000 DUP2 MSTORE PUSH1 0x4 ADD PUSH2 0x2326 SWAP2 SWAP1 PUSH2 0x2F22 JUMP JUMPDEST PUSH1 0x40 MLOAD DUP1 SWAP2 SUB SWAP1 REVERT JUMPDEST JUMP JUMPDEST PUSH1 0x0 DUP1 PUSH1 0x0 SWAP1 SLOAD SWAP1 PUSH2 0x100 EXP SWAP1 DIV PUSH20 0xFFFFFFFFFFFFFFFFFFFFFFFFFFFFFFFFFFFFFFFF AND SWAP1 POP DUP2 PUSH1 0x0 DUP1 PUSH2 0x100 EXP DUP2 SLOAD DUP2 PUSH20 0xFFFFFFFFFFFFFFFFFFFFFFFFFFFFFFFFFFFFFFFF MUL NOT AND SWAP1 DUP4 PUSH20 0xFFFFFFFFFFFFFFFFFFFFFFFFFFFFFFFFFFFFFFFF AND MUL OR SWAP1 SSTORE POP DUP2 PUSH20 0xFFFFFFFFFFFFFFFFFFFFFFFFFFFFFFFFFFFFFFFF AND DUP2 PUSH20 0xFFFFFFFFFFFFFFFFFFFFFFFFFFFFFFFFFFFFFFFF AND PUSH32 0x8BE0079C531659141344CD1FD0A4F28419497F9722A3DAAFE3B4186F6B6457E0 PUSH1 0x40 MLOAD PUSH1 0x40 MLOAD DUP1 SWAP2 SUB SWAP1 LOG3 POP POP JUMP JUMPDEST PUSH1 0x0 DUP1 JUMPDEST DUP3 MLOAD DUP2 LT ISZERO PUSH2 0x244D JUMPI DUP4 ISZERO ISZERO DUP4 DUP3 DUP2 MLOAD DUP2 LT PUSH2 0x2418 JUMPI PUSH2 0x2417 PUSH2 0x3CEE JUMP JUMPDEST JUMPDEST PUSH1 0x20 MUL PUSH1 0x20 ADD ADD MLOAD PUSH1 0x40 ADD MLOAD ISZERO ISZERO SUB PUSH2 0x243A JUMPI DUP2 DUP1 PUSH2 0x2436 SWAP1 PUSH2 0x3A2D JUMP JUMPDEST SWAP3 POP POP JUMPDEST DUP1 DUP1 PUSH2 0x2445 SWAP1 PUSH2 0x3A2D JUMP JUMPDEST SWAP2 POP POP PUSH2 0x23F9 JUMP JUMPDEST POP PUSH1 0x0 DUP2 SUB PUSH2 0x245C JUMPI POP PUSH2 0x2636 JUMP JUMPDEST PUSH1 0x0 DUP2 PUSH9 0x3635C9ADC5DEA00000 PUSH2 0x2473 SWAP2 SWAP1 PUSH2 0x3EC7 JUMP JUMPDEST SWAP1 POP PUSH1 0x0 JUMPDEST DUP4 MLOAD DUP2 LT ISZERO PUSH2 0x2632 JUMPI PUSH1 0x0 DUP5 DUP3 DUP2 MLOAD DUP2 LT PUSH2 0x2496 JUMPI PUSH2 0x2495 PUSH2 0x3CEE JUMP JUMPDEST JUMPDEST PUSH1 0x20 MUL PUSH1 0x20 ADD ADD MLOAD PUSH1 0x0 ADD MLOAD SWAP1 POP DUP6 ISZERO ISZERO DUP6 DUP4 DUP2 MLOAD DUP2 LT PUSH2 0x24BA JUMPI PUSH2 0x24B9 PUSH2 0x3CEE JUMP JUMPDEST JUMPDEST PUSH1 0x20 MUL PUSH1 0x20 ADD ADD MLOAD PUSH1 0x40 ADD MLOAD ISZERO ISZERO SUB PUSH2 0x2615 JUMPI PUSH1 0x1 PUSH1 0x0 SWAP1 SLOAD SWAP1 PUSH2 0x100 EXP SWAP1 DIV PUSH20 0xFFFFFFFFFFFFFFFFFFFFFFFFFFFFFFFFFFFFFFFF AND PUSH20 0xFFFFFFFFFFFFFFFFFFFFFFFFFFFFFFFFFFFFFFFF AND PUSH4 0xA9059CBB DUP3 DUP6 PUSH1 0x40 MLOAD DUP4 PUSH4 0xFFFFFFFF AND PUSH1 0xE0 SHL DUP2 MSTORE PUSH1 0x4 ADD PUSH2 0x252A SWAP3 SWAP2 SWAP1 PUSH2 0x3854 JUMP JUMPDEST PUSH1 0x20 PUSH1 0x40 MLOAD DUP1 DUP4 SUB DUP2 PUSH1 0x0 DUP8 GAS CALL ISZERO DUP1 ISZERO PUSH2 0x2549 JUMPI RETURNDATASIZE PUSH1 0x0 DUP1 RETURNDATACOPY RETURNDATASIZE PUSH1 0x0 REVERT JUMPDEST POP POP POP POP PUSH1 0x40 MLOAD RETURNDATASIZE PUSH1 0x1F NOT PUSH1 0x1F DUP3 ADD AND DUP3 ADD DUP1 PUSH1 0x40 MSTORE POP DUP2 ADD SWAP1 PUSH2 0x256D SWAP2 SWAP1 PUSH2 0x3370 JUMP JUMPDEST POP PUSH1 0x2 PUSH1 0x0 DUP3 PUSH20 0xFFFFFFFFFFFFFFFFFFFFFFFFFFFFFFFFFFFFFFFF AND PUSH20 0xFFFFFFFFFFFFFFFFFFFFFFFFFFFFFFFFFFFFFFFF AND DUP2 MSTORE PUSH1 0x20 ADD SWAP1 DUP2 MSTORE PUSH1 0x20 ADD PUSH1 0x0 KECCAK256 PUSH1 0x4 ADD PUSH1 0x0 DUP2 SLOAD DUP1 SWAP3 SWAP2 SWAP1 PUSH2 0x25C1 SWAP1 PUSH2 0x3A2D JUMP JUMPDEST SWAP2 SWAP1 POP SSTORE POP DUP1 PUSH20 0xFFFFFFFFFFFFFFFFFFFFFFFFFFFFFFFFFFFFFFFF AND PUSH32 0xE34918FF1C7084970068B53FD71AD6D8B04E9F15D3886CBF006443E6CDC52EA6 DUP5 PUSH1 0x40 MLOAD PUSH2 0x260C SWAP2 SWAP1 PUSH2 0x2A78 JUMP JUMPDEST PUSH1 0x40 MLOAD DUP1 SWAP2 SUB SWAP1 LOG2 JUMPDEST PUSH2 0x261E DUP2 PUSH2 0x2643 JUMP JUMPDEST POP DUP1 DUP1 PUSH2 0x262A SWAP1 PUSH2 0x3A2D JUMP JUMPDEST SWAP2 POP POP PUSH2 0x2478 JUMP JUMPDEST POP POP POP JUMPDEST POP POP POP JUMP JUMPDEST PUSH1 0x0 CALLER SWAP1 POP SWAP1 JUMP JUMPDEST PUSH1 0x0 PUSH1 0x2 PUSH1 0x0 DUP4 PUSH20 0xFFFFFFFFFFFFFFFFFFFFFFFFFFFFFFFFFFFFFFFF AND PUSH20 0xFFFFFFFFFFFFFFFFFFFFFFFFFFFFFFFFFFFFFFFF AND DUP2 MSTORE PUSH1 0x20 ADD SWAP1 DUP2 MSTORE PUSH1 0x20 ADD PUSH1 0x0 KECCAK256 SWAP1 POP PUSH1 0x0 DUP2 PUSH1 0x3 ADD SLOAD GT ISZERO PUSH2 0x270E JUMPI DUP1 PUSH1 0x3 ADD SLOAD PUSH1 0x64 DUP3 PUSH1 0x4 ADD SLOAD PUSH2 0x26A9 SWAP2 SWAP1 PUSH2 0x3EF8 JUMP JUMPDEST PUSH2 0x26B3 SWAP2 SWAP1 PUSH2 0x3EC7 JUMP JUMPDEST DUP2 PUSH1 0x2 ADD DUP2 SWAP1 SSTORE POP DUP2 PUSH20 0xFFFFFFFFFFFFFFFFFFFFFFFFFFFFFFFFFFFFFFFF AND PUSH32 0x16D0848E499FA9FD0F755C0563C69A05617A0663A704DABD1933F6F75FA3F219 DUP3 PUSH1 0x2 ADD SLOAD PUSH1 0x40 MLOAD PUSH2 0x2705 SWAP2 SWAP1 PUSH2 0x2A78 JUMP JUMPDEST PUSH1 0x40 MLOAD DUP1 SWAP2 SUB SWAP1 LOG2 JUMPDEST POP POP JUMP JUMPDEST PUSH1 0x0 PUSH1 0x40 MLOAD SWAP1 POP SWAP1 JUMP JUMPDEST PUSH1 0x0 DUP1 REVERT JUMPDEST PUSH1 0x0 DUP1 REVERT JUMPDEST PUSH1 0x0 DUP2 SWAP1 POP SWAP2 SWAP1 POP JUMP JUMPDEST PUSH2 0x2739 DUP2 PUSH2 0x2726 JUMP JUMPDEST DUP2 EQ PUSH2 0x2744 JUMPI PUSH1 0x0 DUP1 REVERT JUMPDEST POP JUMP JUMPDEST PUSH1 0x0 DUP2 CALLDATALOAD SWAP1 POP PUSH2 0x2756 DUP2 PUSH2 0x2730 JUMP JUMPDEST SWAP3 SWAP2 POP POP JUMP JUMPDEST PUSH1 0x0 PUSH1 0x20 DUP3 DUP5 SUB SLT ISZERO PUSH2 0x2772 JUMPI PUSH2 0x2771 PUSH2 0x271C JUMP JUMPDEST JUMPDEST PUSH1 0x0 PUSH2 0x2780 DUP5 DUP3 DUP6 ADD PUSH2 0x2747 JUMP JUMPDEST SWAP2 POP POP SWAP3 SWAP2 POP POP JUMP JUMPDEST PUSH1 0x0 DUP2 MLOAD SWAP1 POP SWAP2 SWAP1 POP JUMP JUMPDEST PUSH1 0x0 DUP3 DUP3 MSTORE PUSH1 0x20 DUP3 ADD SWAP1 POP SWAP3 SWAP2 POP POP JUMP JUMPDEST PUSH1 0x0 DUP2 SWAP1 POP PUSH1 0x20 DUP3 ADD SWAP1 POP SWAP2 SWAP1 POP JUMP JUMPDEST PUSH1 0x0 PUSH20 0xFFFFFFFFFFFFFFFFFFFFFFFFFFFFFFFFFFFFFFFF DUP3 AND SWAP1 POP SWAP2 SWAP1 POP JUMP JUMPDEST PUSH1 0x0 PUSH2 0x27E0 DUP3 PUSH2 0x27B5 JUMP JUMPDEST SWAP1 POP SWAP2 SWAP1 POP JUMP JUMPDEST PUSH2 0x27F0 DUP2 PUSH2 0x27D5 JUMP JUMPDEST DUP3 MSTORE POP POP JUMP JUMPDEST PUSH32 0x4E487B7100000000000000000000000000000000000000000000000000000000 PUSH1 0x0 MSTORE PUSH1 0x21 PUSH1 0x4 MSTORE PUSH1 0x24 PUSH1 0x0 REVERT JUMPDEST PUSH1 0x3 DUP2 LT PUSH2 0x2836 JUMPI PUSH2 0x2835 PUSH2 0x27F6 JUMP JUMPDEST JUMPDEST POP JUMP JUMPDEST PUSH1 0x0 DUP2 SWAP1 POP PUSH2 0x2847 DUP3 PUSH2 0x2825 JUMP JUMPDEST SWAP2 SWAP1 POP JUMP JUMPDEST PUSH1 0x0 PUSH2 0x2857 DUP3 PUSH2 0x2839 JUMP JUMPDEST SWAP1 POP SWAP2 SWAP1 POP JUMP JUMPDEST PUSH2 0x2867 DUP2 PUSH2 0x284C JUMP JUMPDEST DUP3 MSTORE POP POP JUMP JUMPDEST PUSH1 0x0 DUP2 ISZERO ISZERO SWAP1 POP SWAP2 SWAP1 POP JUMP JUMPDEST PUSH2 0x2882 DUP2 PUSH2 0x286D JUMP JUMPDEST DUP3 MSTORE POP POP JUMP JUMPDEST PUSH1 0x0 DUP2 SWAP1 POP SWAP2 SWAP1 POP JUMP JUMPDEST PUSH2 0x289B DUP2 PUSH2 0x2888 JUMP JUMPDEST DUP3 MSTORE POP POP JUMP JUMPDEST PUSH1 0xA0 DUP3 ADD PUSH1 0x0 DUP3 ADD MLOAD PUSH2 0x28B7 PUSH1 0x0 DUP6 ADD DUP3 PUSH2 0x27E7 JUMP JUMPDEST POP PUSH1 0x20 DUP3 ADD MLOAD PUSH2 0x28CA PUSH1 0x20 DUP6 ADD DUP3 PUSH2 0x285E JUMP JUMPDEST POP PUSH1 0x40 DUP3 ADD MLOAD PUSH2 0x28DD PUSH1 0x40 DUP6 ADD DUP3 PUSH2 0x2879 JUMP JUMPDEST POP PUSH1 0x60 DUP3 ADD MLOAD PUSH2 0x28F0 PUSH1 0x60 DUP6 ADD DUP3 PUSH2 0x2892 JUMP JUMPDEST POP PUSH1 0x80 DUP3 ADD MLOAD PUSH2 0x2903 PUSH1 0x80 DUP6 ADD DUP3 PUSH2 0x2892 JUMP JUMPDEST POP POP POP POP JUMP JUMPDEST PUSH1 0x0 PUSH2 0x2915 DUP4 DUP4 PUSH2 0x28A1 JUMP JUMPDEST PUSH1 0xA0 DUP4 ADD SWAP1 POP SWAP3 SWAP2 POP POP JUMP JUMPDEST PUSH1 0x0 PUSH1 0x20 DUP3 ADD SWAP1 POP SWAP2 SWAP1 POP JUMP JUMPDEST PUSH1 0x0 PUSH2 0x2939 DUP3 PUSH2 0x2789 JUMP JUMPDEST PUSH2 0x2943 DUP2 DUP6 PUSH2 0x2794 JUMP JUMPDEST SWAP4 POP PUSH2 0x294E DUP4 PUSH2 0x27A5 JUMP JUMPDEST DUP1 PUSH1 0x0 JUMPDEST DUP4 DUP2 LT ISZERO PUSH2 0x297F JUMPI DUP2 MLOAD PUSH2 0x2966 DUP9 DUP3 PUSH2 0x2909 JUMP JUMPDEST SWAP8 POP PUSH2 0x2971 DUP4 PUSH2 0x2921 JUMP JUMPDEST SWAP3 POP POP PUSH1 0x1 DUP2 ADD SWAP1 POP PUSH2 0x2952 JUMP JUMPDEST POP DUP6 SWAP4 POP POP POP POP SWAP3 SWAP2 POP POP JUMP JUMPDEST PUSH1 0x0 PUSH1 0x20 DUP3 ADD SWAP1 POP DUP2 DUP2 SUB PUSH1 0x0 DUP4 ADD MSTORE PUSH2 0x29A6 DUP2 DUP5 PUSH2 0x292E JUMP JUMPDEST SWAP1 POP SWAP3 SWAP2 POP POP JUMP JUMPDEST PUSH2 0x29B7 DUP2 PUSH2 0x27D5 JUMP JUMPDEST DUP2 EQ PUSH2 0x29C2 JUMPI PUSH1 0x0 DUP1 REVERT JUMPDEST POP JUMP JUMPDEST PUSH1 0x0 DUP2 CALLDATALOAD SWAP1 POP PUSH2 0x29D4 DUP2 PUSH2 0x29AE JUMP JUMPDEST SWAP3 SWAP2 POP POP JUMP JUMPDEST PUSH1 0x0 PUSH1 0x20 DUP3 DUP5 SUB SLT ISZERO PUSH2 0x29F0 JUMPI PUSH2 0x29EF PUSH2 0x271C JUMP JUMPDEST JUMPDEST PUSH1 0x0 PUSH2 0x29FE DUP5 DUP3 DUP6 ADD PUSH2 0x29C5 JUMP JUMPDEST SWAP2 POP POP SWAP3 SWAP2 POP POP JUMP JUMPDEST PUSH2 0x2A10 DUP2 PUSH2 0x284C JUMP JUMPDEST DUP3 MSTORE POP POP JUMP JUMPDEST PUSH2 0x2A1F DUP2 PUSH2 0x2888 JUMP JUMPDEST DUP3 MSTORE POP POP JUMP JUMPDEST PUSH1 0x0 PUSH1 0xA0 DUP3 ADD SWAP1 POP PUSH2 0x2A3A PUSH1 0x0 DUP4 ADD DUP9 PUSH2 0x2A07 JUMP JUMPDEST PUSH2 0x2A47 PUSH1 0x20 DUP4 ADD DUP8 PUSH2 0x2A16 JUMP JUMPDEST PUSH2 0x2A54 PUSH1 0x40 DUP4 ADD DUP7 PUSH2 0x2A16 JUMP JUMPDEST PUSH2 0x2A61 PUSH1 0x60 DUP4 ADD DUP6 PUSH2 0x2A16 JUMP JUMPDEST PUSH2 0x2A6E PUSH1 0x80 DUP4 ADD DUP5 PUSH2 0x2A16 JUMP JUMPDEST SWAP7 SWAP6 POP POP POP POP POP POP JUMP JUMPDEST PUSH1 0x0 PUSH1 0x20 DUP3 ADD SWAP1 POP PUSH2 0x2A8D PUSH1 0x0 DUP4 ADD DUP5 PUSH2 0x2A16 JUMP JUMPDEST SWAP3 SWAP2 POP POP JUMP JUMPDEST PUSH2 0x2A9C DUP2 PUSH2 0x2888 JUMP JUMPDEST DUP2 EQ PUSH2 0x2AA7 JUMPI PUSH1 0x0 DUP1 REVERT JUMPDEST POP JUMP JUMPDEST PUSH1 0x0 DUP2 CALLDATALOAD SWAP1 POP PUSH2 0x2AB9 DUP2 PUSH2 0x2A93 JUMP JUMPDEST SWAP3 SWAP2 POP POP JUMP JUMPDEST PUSH1 0x0 PUSH1 0x20 DUP3 DUP5 SUB SLT ISZERO PUSH2 0x2AD5 JUMPI PUSH2 0x2AD4 PUSH2 0x271C JUMP JUMPDEST JUMPDEST PUSH1 0x0 PUSH2 0x2AE3 DUP5 DUP3 DUP6 ADD PUSH2 0x2AAA JUMP JUMPDEST SWAP2 POP POP SWAP3 SWAP2 POP POP JUMP JUMPDEST PUSH2 0x2AF5 DUP2 PUSH2 0x2726 JUMP JUMPDEST DUP3 MSTORE POP POP JUMP JUMPDEST PUSH1 0x6 DUP2 LT PUSH2 0x2B0C JUMPI PUSH2 0x2B0B PUSH2 0x27F6 JUMP JUMPDEST JUMPDEST POP JUMP JUMPDEST PUSH1 0x0 DUP2 SWAP1 POP PUSH2 0x2B1D DUP3 PUSH2 0x2AFB JUMP JUMPDEST SWAP2 SWAP1 POP JUMP JUMPDEST PUSH1 0x0 PUSH2 0x2B2D DUP3 PUSH2 0x2B0F JUMP JUMPDEST SWAP1 POP SWAP2 SWAP1 POP JUMP JUMPDEST PUSH2 0x2B3D DUP2 PUSH2 0x2B22 JUMP JUMPDEST DUP3 MSTORE POP POP JUMP JUMPDEST PUSH2 0x2B4C DUP2 PUSH2 0x27D5 JUMP JUMPDEST DUP3 MSTORE POP POP JUMP JUMPDEST PUSH1 0x0 DUP2 MLOAD SWAP1 POP SWAP2 SWAP1 POP JUMP JUMPDEST PUSH1 0x0 DUP3 DUP3 MSTORE PUSH1 0x20 DUP3 ADD SWAP1 POP SWAP3 SWAP2 POP POP JUMP JUMPDEST PUSH1 0x0 JUMPDEST DUP4 DUP2 LT ISZERO PUSH2 0x2B8C JUMPI DUP1 DUP3 ADD MLOAD DUP2 DUP5 ADD MSTORE PUSH1 0x20 DUP2 ADD SWAP1 POP PUSH2 0x2B71 JUMP JUMPDEST PUSH1 0x0 DUP5 DUP5 ADD MSTORE POP POP POP POP JUMP JUMPDEST PUSH1 0x0 PUSH1 0x1F NOT PUSH1 0x1F DUP4 ADD AND SWAP1 POP SWAP2 SWAP1 POP JUMP JUMPDEST PUSH1 0x0 PUSH2 0x2BB4 DUP3 PUSH2 0x2B52 JUMP JUMPDEST PUSH2 0x2BBE DUP2 DUP6 PUSH2 0x2B5D JUMP JUMPDEST SWAP4 POP PUSH2 0x2BCE DUP2 DUP6 PUSH1 0x20 DUP7 ADD PUSH2 0x2B6E JUMP JUMPDEST PUSH2 0x2BD7 DUP2 PUSH2 0x2B98 JUMP JUMPDEST DUP5 ADD SWAP2 POP POP SWAP3 SWAP2 POP POP JUMP JUMPDEST PUSH1 0x4 DUP2 LT PUSH2 0x2BF3 JUMPI PUSH2 0x2BF2 PUSH2 0x27F6 JUMP JUMPDEST JUMPDEST POP JUMP JUMPDEST PUSH1 0x0 DUP2 SWAP1 POP PUSH2 0x2C04 DUP3 PUSH2 0x2BE2 JUMP JUMPDEST SWAP2 SWAP1 POP JUMP JUMPDEST PUSH1 0x0 PUSH2 0x2C14 DUP3 PUSH2 0x2BF6 JUMP JUMPDEST SWAP1 POP SWAP2 SWAP1 POP JUMP JUMPDEST PUSH2 0x2C24 DUP2 PUSH2 0x2C09 JUMP JUMPDEST DUP3 MSTORE POP POP JUMP JUMPDEST PUSH2 0x2C33 DUP2 PUSH2 0x286D JUMP JUMPDEST DUP3 MSTORE POP POP JUMP JUMPDEST PUSH1 0x0 PUSH2 0x100 DUP3 ADD SWAP1 POP PUSH2 0x2C4F PUSH1 0x0 DUP4 ADD DUP12 PUSH2 0x2AEC JUMP JUMPDEST PUSH2 0x2C5C PUSH1 0x20 DUP4 ADD DUP11 PUSH2 0x2B34 JUMP JUMPDEST PUSH2 0x2C69 PUSH1 0x40 DUP4 ADD DUP10 PUSH2 0x2B43 JUMP JUMPDEST DUP2 DUP2 SUB PUSH1 0x60 DUP4 ADD MSTORE PUSH2 0x2C7B DUP2 DUP9 PUSH2 0x2BA9 JUMP JUMPDEST SWAP1 POP PUSH2 0x2C8A PUSH1 0x80 DUP4 ADD DUP8 PUSH2 0x2A16 JUMP JUMPDEST PUSH2 0x2C97 PUSH1 0xA0 DUP4 ADD DUP7 PUSH2 0x2A16 JUMP JUMPDEST PUSH2 0x2CA4 PUSH1 0xC0 DUP4 ADD DUP6 PUSH2 0x2C1B JUMP JUMPDEST PUSH2 0x2CB1 PUSH1 0xE0 DUP4 ADD DUP5 PUSH2 0x2C2A JUMP JUMPDEST SWAP10 SWAP9 POP POP POP POP POP POP POP POP POP JUMP JUMPDEST PUSH1 0x6 DUP2 LT PUSH2 0x2CCB JUMPI PUSH1 0x0 DUP1 REVERT JUMPDEST POP JUMP JUMPDEST PUSH1 0x0 DUP2 CALLDATALOAD SWAP1 POP PUSH2 0x2CDD DUP2 PUSH2 0x2CBE JUMP JUMPDEST SWAP3 SWAP2 POP POP JUMP JUMPDEST PUSH1 0x0 DUP1 REVERT JUMPDEST PUSH1 0x0 DUP1 REVERT JUMPDEST PUSH32 0x4E487B7100000000000000000000000000000000000000000000000000000000 PUSH1 0x0 MSTORE PUSH1 0x41 PUSH1 0x4 MSTORE PUSH1 0x24 PUSH1 0x0 REVERT JUMPDEST PUSH2 0x2D25 DUP3 PUSH2 0x2B98 JUMP JUMPDEST DUP2 ADD DUP2 DUP2 LT PUSH8 0xFFFFFFFFFFFFFFFF DUP3 GT OR ISZERO PUSH2 0x2D44 JUMPI PUSH2 0x2D43 PUSH2 0x2CED JUMP JUMPDEST JUMPDEST DUP1 PUSH1 0x40 MSTORE POP POP POP JUMP JUMPDEST PUSH1 0x0 PUSH2 0x2D57 PUSH2 0x2712 JUMP JUMPDEST SWAP1 POP PUSH2 0x2D63 DUP3 DUP3 PUSH2 0x2D1C JUMP JUMPDEST SWAP2 SWAP1 POP JUMP JUMPDEST PUSH1 0x0 PUSH8 0xFFFFFFFFFFFFFFFF DUP3 GT ISZERO PUSH2 0x2D83 JUMPI PUSH2 0x2D82 PUSH2 0x2CED JUMP JUMPDEST JUMPDEST PUSH2 0x2D8C DUP3 PUSH2 0x2B98 JUMP JUMPDEST SWAP1 POP PUSH1 0x20 DUP2 ADD SWAP1 POP SWAP2 SWAP1 POP JUMP JUMPDEST DUP3 DUP2 DUP4 CALLDATACOPY PUSH1 0x0 DUP4 DUP4 ADD MSTORE POP POP POP JUMP JUMPDEST PUSH1 0x0 PUSH2 0x2DBB PUSH2 0x2DB6 DUP5 PUSH2 0x2D68 JUMP JUMPDEST PUSH2 0x2D4D JUMP JUMPDEST SWAP1 POP DUP3 DUP2 MSTORE PUSH1 0x20 DUP2 ADD DUP5 DUP5 DUP5 ADD GT ISZERO PUSH2 0x2DD7 JUMPI PUSH2 0x2DD6 PUSH2 0x2CE8 JUMP JUMPDEST JUMPDEST PUSH2 0x2DE2 DUP5 DUP3 DUP6 PUSH2 0x2D99 JUMP JUMPDEST POP SWAP4 SWAP3 POP POP POP JUMP JUMPDEST PUSH1 0x0 DUP3 PUSH1 0x1F DUP4 ADD SLT PUSH2 0x2DFF JUMPI PUSH2 0x2DFE PUSH2 0x2CE3 JUMP JUMPDEST JUMPDEST DUP2 CALLDATALOAD PUSH2 0x2E0F DUP5 DUP3 PUSH1 0x20 DUP7 ADD PUSH2 0x2DA8 JUMP JUMPDEST SWAP2 POP POP SWAP3 SWAP2 POP POP JUMP JUMPDEST PUSH1 0x0 DUP1 PUSH1 0x40 DUP4 DUP6 SUB SLT ISZERO PUSH2 0x2E2F JUMPI PUSH2 0x2E2E PUSH2 0x271C JUMP JUMPDEST JUMPDEST PUSH1 0x0 PUSH2 0x2E3D DUP6 DUP3 DUP7 ADD PUSH2 0x2CCE JUMP JUMPDEST SWAP3 POP POP PUSH1 0x20 DUP4 ADD CALLDATALOAD PUSH8 0xFFFFFFFFFFFFFFFF DUP2 GT ISZERO PUSH2 0x2E5E JUMPI PUSH2 0x2E5D PUSH2 0x2721 JUMP JUMPDEST JUMPDEST PUSH2 0x2E6A DUP6 DUP3 DUP7 ADD PUSH2 0x2DEA JUMP JUMPDEST SWAP2 POP POP SWAP3 POP SWAP3 SWAP1 POP JUMP JUMPDEST PUSH1 0x0 PUSH1 0x20 DUP3 ADD SWAP1 POP PUSH2 0x2E89 PUSH1 0x0 DUP4 ADD DUP5 PUSH2 0x2AEC JUMP JUMPDEST SWAP3 SWAP2 POP POP JUMP JUMPDEST PUSH1 0x0 DUP1 PUSH1 0x40 DUP4 DUP6 SUB SLT ISZERO PUSH2 0x2EA6 JUMPI PUSH2 0x2EA5 PUSH2 0x271C JUMP JUMPDEST JUMPDEST PUSH1 0x0 PUSH2 0x2EB4 DUP6 DUP3 DUP7 ADD PUSH2 0x2747 JUMP JUMPDEST SWAP3 POP POP PUSH1 0x20 PUSH2 0x2EC5 DUP6 DUP3 DUP7 ADD PUSH2 0x2AAA JUMP JUMPDEST SWAP2 POP POP SWAP3 POP SWAP3 SWAP1 POP JUMP JUMPDEST PUSH1 0x0 PUSH1 0xA0 DUP3 ADD SWAP1 POP PUSH2 0x2EE4 PUSH1 0x0 DUP4 ADD DUP9 PUSH2 0x2B43 JUMP JUMPDEST PUSH2 0x2EF1 PUSH1 0x20 DUP4 ADD DUP8 PUSH2 0x2A07 JUMP JUMPDEST PUSH2 0x2EFE PUSH1 0x40 DUP4 ADD DUP7 PUSH2 0x2C2A JUMP JUMPDEST PUSH2 0x2F0B PUSH1 0x60 DUP4 ADD DUP6 PUSH2 0x2A16 JUMP JUMPDEST PUSH2 0x2F18 PUSH1 0x80 DUP4 ADD DUP5 PUSH2 0x2A16 JUMP JUMPDEST SWAP7 SWAP6 POP POP POP POP POP POP JUMP JUMPDEST PUSH1 0x0 PUSH1 0x20 DUP3 ADD SWAP1 POP PUSH2 0x2F37 PUSH1 0x0 DUP4 ADD DUP5 PUSH2 0x2B43 JUMP JUMPDEST SWAP3 SWAP2 POP POP JUMP JUMPDEST PUSH2 0x2F46 DUP2 PUSH2 0x286D JUMP JUMPDEST DUP2 EQ PUSH2 0x2F51 JUMPI PUSH1 0x0 DUP1 REVERT JUMPDEST POP JUMP JUMPDEST PUSH1 0x0 DUP2 CALLDATALOAD SWAP1 POP PUSH2 0x2F63 DUP2 PUSH2 0x2F3D JUMP JUMPDEST SWAP3 SWAP2 POP POP JUMP JUMPDEST PUSH1 0x0 DUP1 PUSH1 0x40 DUP4 DUP6 SUB SLT ISZERO PUSH2 0x2F80 JUMPI PUSH2 0x2F7F PUSH2 0x271C JUMP JUMPDEST JUMPDEST PUSH1 0x0 PUSH2 0x2F8E DUP6 DUP3 DUP7 ADD PUSH2 0x2747 JUMP JUMPDEST SWAP3 POP POP PUSH1 0x20 PUSH2 0x2F9F DUP6 DUP3 DUP7 ADD PUSH2 0x2F54 JUMP JUMPDEST SWAP2 POP POP SWAP3 POP SWAP3 SWAP1 POP JUMP JUMPDEST PUSH1 0x3 DUP2 LT PUSH2 0x2FB6 JUMPI PUSH1 0x0 DUP1 REVERT JUMPDEST POP JUMP JUMPDEST PUSH1 0x0 DUP2 CALLDATALOAD SWAP1 POP PUSH2 0x2FC8 DUP2 PUSH2 0x2FA9 JUMP JUMPDEST SWAP3 SWAP2 POP POP JUMP JUMPDEST PUSH1 0x0 PUSH1 0x20 DUP3 DUP5 SUB SLT ISZERO PUSH2 0x2FE4 JUMPI PUSH2 0x2FE3 PUSH2 0x271C JUMP JUMPDEST JUMPDEST PUSH1 0x0 PUSH2 0x2FF2 DUP5 DUP3 DUP6 ADD PUSH2 0x2FB9 JUMP JUMPDEST SWAP2 POP POP SWAP3 SWAP2 POP POP JUMP JUMPDEST PUSH1 0x0 DUP1 PUSH1 0x40 DUP4 DUP6 SUB SLT ISZERO PUSH2 0x3012 JUMPI PUSH2 0x3011 PUSH2 0x271C JUMP JUMPDEST JUMPDEST PUSH1 0x0 PUSH2 0x3020 DUP6 DUP3 DUP7 ADD PUSH2 0x2747 JUMP JUMPDEST SWAP3 POP POP PUSH1 0x20 PUSH2 0x3031 DUP6 DUP3 DUP7 ADD PUSH2 0x29C5 JUMP JUMPDEST SWAP2 POP POP SWAP3 POP SWAP3 SWAP1 POP JUMP JUMPDEST PUSH1 0x0 PUSH1 0x20 DUP3 ADD SWAP1 POP PUSH2 0x3050 PUSH1 0x0 DUP4 ADD DUP5 PUSH2 0x2C2A JUMP JUMPDEST SWAP3 SWAP2 POP POP JUMP JUMPDEST PUSH1 0x0 DUP2 SWAP1 POP SWAP2 SWAP1 POP JUMP JUMPDEST PUSH1 0x0 PUSH2 0x307B PUSH2 0x3076 PUSH2 0x3071 DUP5 PUSH2 0x27B5 JUMP JUMPDEST PUSH2 0x3056 JUMP JUMPDEST PUSH2 0x27B5 JUMP JUMPDEST SWAP1 POP SWAP2 SWAP1 POP JUMP JUMPDEST PUSH1 0x0 PUSH2 0x308D DUP3 PUSH2 0x3060 JUMP JUMPDEST SWAP1 POP SWAP2 SWAP1 POP JUMP JUMPDEST PUSH1 0x0 PUSH2 0x309F DUP3 PUSH2 0x3082 JUMP JUMPDEST SWAP1 POP SWAP2 SWAP1 POP JUMP JUMPDEST PUSH2 0x30AF DUP2 PUSH2 0x3094 JUMP JUMPDEST DUP3 MSTORE POP POP JUMP JUMPDEST PUSH1 0x0 PUSH1 0x20 DUP3 ADD SWAP1 POP PUSH2 0x30CA PUSH1 0x0 DUP4 ADD DUP5 PUSH2 0x30A6 JUMP JUMPDEST SWAP3 SWAP2 POP POP JUMP JUMPDEST PUSH1 0x0 PUSH2 0x140 DUP3 ADD SWAP1 POP PUSH2 0x30E6 PUSH1 0x0 DUP4 ADD DUP14 PUSH2 0x2B43 JUMP JUMPDEST PUSH2 0x30F3 PUSH1 0x20 DUP4 ADD DUP13 PUSH2 0x2A07 JUMP JUMPDEST PUSH2 0x3100 PUSH1 0x40 DUP4 ADD DUP12 PUSH2 0x2A16 JUMP JUMPDEST PUSH2 0x310D PUSH1 0x60 DUP4 ADD DUP11 PUSH2 0x2A16 JUMP JUMPDEST PUSH2 0x311A PUSH1 0x80 DUP4 ADD DUP10 PUSH2 0x2A16 JUMP JUMPDEST PUSH2 0x3127 PUSH1 0xA0 DUP4 ADD DUP9 PUSH2 0x2A16 JUMP JUMPDEST PUSH2 0x3134 PUSH1 0xC0 DUP4 ADD DUP8 PUSH2 0x2A16 JUMP JUMPDEST PUSH2 0x3141 PUSH1 0xE0 DUP4 ADD DUP7 PUSH2 0x2A16 JUMP JUMPDEST PUSH2 0x314F PUSH2 0x100 DUP4 ADD DUP6 PUSH2 0x2C2A JUMP JUMPDEST PUSH2 0x315D PUSH2 0x120 DUP4 ADD DUP5 PUSH2 0x2A16 JUMP JUMPDEST SWAP12 SWAP11 POP POP POP POP POP POP POP POP POP POP POP JUMP JUMPDEST PUSH1 0x0 DUP2 MLOAD SWAP1 POP SWAP2 SWAP1 POP JUMP JUMPDEST PUSH1 0x0 DUP3 DUP3 MSTORE PUSH1 0x20 DUP3 ADD SWAP1 POP SWAP3 SWAP2 POP POP JUMP JUMPDEST PUSH1 0x0 DUP2 SWAP1 POP PUSH1 0x20 DUP3 ADD SWAP1 POP SWAP2 SWAP1 POP JUMP JUMPDEST PUSH2 0x31A1 DUP2 PUSH2 0x2726 JUMP JUMPDEST DUP3 MSTORE POP POP JUMP JUMPDEST PUSH1 0x0 PUSH2 0x31B3 DUP4 DUP4 PUSH2 0x3198 JUMP JUMPDEST PUSH1 0x20 DUP4 ADD SWAP1 POP SWAP3 SWAP2 POP POP JUMP JUMPDEST PUSH1 0x0 PUSH1 0x20 DUP3 ADD SWAP1 POP SWAP2 SWAP1 POP JUMP JUMPDEST PUSH1 0x0 PUSH2 0x31D7 DUP3 PUSH2 0x316C JUMP JUMPDEST PUSH2 0x31E1 DUP2 DUP6 PUSH2 0x3177 JUMP JUMPDEST SWAP4 POP PUSH2 0x31EC DUP4 PUSH2 0x3188 JUMP JUMPDEST DUP1 PUSH1 0x0 JUMPDEST DUP4 DUP2 LT ISZERO PUSH2 0x321D JUMPI DUP2 MLOAD PUSH2 0x3204 DUP9 DUP3 PUSH2 0x31A7 JUMP JUMPDEST SWAP8 POP PUSH2 0x320F DUP4 PUSH2 0x31BF JUMP JUMPDEST SWAP3 POP POP PUSH1 0x1 DUP2 ADD SWAP1 POP PUSH2 0x31F0 JUMP JUMPDEST POP DUP6 SWAP4 POP POP POP POP SWAP3 SWAP2 POP POP JUMP JUMPDEST PUSH1 0x0 PUSH1 0x20 DUP3 ADD SWAP1 POP DUP2 DUP2 SUB PUSH1 0x0 DUP4 ADD MSTORE PUSH2 0x3244 DUP2 DUP5 PUSH2 0x31CC JUMP JUMPDEST SWAP1 POP SWAP3 SWAP2 POP POP JUMP JUMPDEST PUSH32 0x416C726561647920726567697374657265640000000000000000000000000000 PUSH1 0x0 DUP3 ADD MSTORE POP JUMP JUMPDEST PUSH1 0x0 PUSH2 0x3282 PUSH1 0x12 DUP4 PUSH2 0x2B5D JUMP JUMPDEST SWAP2 POP PUSH2 0x328D DUP3 PUSH2 0x324C JUMP JUMPDEST PUSH1 0x20 DUP3 ADD SWAP1 POP SWAP2 SWAP1 POP JUMP JUMPDEST PUSH1 0x0 PUSH1 0x20 DUP3 ADD SWAP1 POP DUP2 DUP2 SUB PUSH1 0x0 DUP4 ADD MSTORE PUSH2 0x32B1 DUP2 PUSH2 0x3275 JUMP JUMPDEST SWAP1 POP SWAP2 SWAP1 POP JUMP JUMPDEST PUSH32 0x4D757374206F776E206174206C6561737420312076656869636C650000000000 PUSH1 0x0 DUP3 ADD MSTORE POP JUMP JUMPDEST PUSH1 0x0 PUSH2 0x32EE PUSH1 0x1B DUP4 PUSH2 0x2B5D JUMP JUMPDEST SWAP2 POP PUSH2 0x32F9 DUP3 PUSH2 0x32B8 JUMP JUMPDEST PUSH1 0x20 DUP3 ADD SWAP1 POP SWAP2 SWAP1 POP JUMP JUMPDEST PUSH1 0x0 PUSH1 0x20 DUP3 ADD SWAP1 POP DUP2 DUP2 SUB PUSH1 0x0 DUP4 ADD MSTORE PUSH2 0x331D DUP2 PUSH2 0x32E1 JUMP JUMPDEST SWAP1 POP SWAP2 SWAP1 POP JUMP JUMPDEST PUSH1 0x0 PUSH1 0x60 DUP3 ADD SWAP1 POP PUSH2 0x3339 PUSH1 0x0 DUP4 ADD DUP7 PUSH2 0x2B43 JUMP JUMPDEST PUSH2 0x3346 PUSH1 0x20 DUP4 ADD DUP6 PUSH2 0x2B43 JUMP JUMPDEST PUSH2 0x3353 PUSH1 0x40 DUP4 ADD DUP5 PUSH2 0x2A16 JUMP JUMPDEST SWAP5 SWAP4 POP POP POP POP JUMP JUMPDEST PUSH1 0x0 DUP2 MLOAD SWAP1 POP PUSH2 0x336A DUP2 PUSH2 0x2F3D JUMP JUMPDEST SWAP3 SWAP2 POP POP JUMP JUMPDEST PUSH1 0x0 PUSH1 0x20 DUP3 DUP5 SUB SLT ISZERO PUSH2 0x3386 JUMPI PUSH2 0x3385 PUSH2 0x271C JUMP JUMPDEST JUMPDEST PUSH1 0x0 PUSH2 0x3394 DUP5 DUP3 DUP6 ADD PUSH2 0x335B JUMP JUMPDEST SWAP2 POP POP SWAP3 SWAP2 POP POP JUMP JUMPDEST PUSH32 0x5374616B65207472616E73666572206661696C65640000000000000000000000 PUSH1 0x0 DUP3 ADD MSTORE POP JUMP JUMPDEST PUSH1 0x0 PUSH2 0x33D3 PUSH1 0x15 DUP4 PUSH2 0x2B5D JUMP JUMPDEST SWAP2 POP PUSH2 0x33DE DUP3 PUSH2 0x339D JUMP JUMPDEST PUSH1 0x20 DUP3 ADD SWAP1 POP SWAP2 SWAP1 POP JUMP JUMPDEST PUSH1 0x0 PUSH1 0x20 DUP3 ADD SWAP1 POP DUP2 DUP2 SUB PUSH1 0x0 DUP4 ADD MSTORE PUSH2 0x3402 DUP2 PUSH2 0x33C6 JUMP JUMPDEST SWAP1 POP SWAP2 SWAP1 POP JUMP JUMPDEST PUSH1 0x0 PUSH1 0x20 DUP3 ADD SWAP1 POP PUSH2 0x341E PUSH1 0x0 DUP4 ADD DUP5 PUSH2 0x2A07 JUMP JUMPDEST SWAP3 SWAP2 POP POP JUMP JUMPDEST PUSH32 0x4E487B7100000000000000000000000000000000000000000000000000000000 PUSH1 0x0 MSTORE PUSH1 0x22 PUSH1 0x4 MSTORE PUSH1 0x24 PUSH1 0x0 REVERT JUMPDEST PUSH1 0x0 PUSH1 0x2 DUP3 DIV SWAP1 POP PUSH1 0x1 DUP3 AND DUP1 PUSH2 0x346B JUMPI PUSH1 0x7F DUP3 AND SWAP2 POP JUMPDEST PUSH1 0x20 DUP3 LT DUP2 SUB PUSH2 0x347E JUMPI PUSH2 0x347D PUSH2 0x3424 JUMP JUMPDEST JUMPDEST POP SWAP2 SWAP1 POP JUMP JUMPDEST PUSH1 0x0 DUP2 PUSH1 0x60 SHL SWAP1 POP SWAP2 SWAP1 POP JUMP JUMPDEST PUSH1 0x0 PUSH2 0x349C DUP3 PUSH2 0x3484 JUMP JUMPDEST SWAP1 POP SWAP2 SWAP1 POP JUMP JUMPDEST PUSH1 0x0 PUSH2 0x34AE DUP3 PUSH2 0x3491 JUMP JUMPDEST SWAP1 POP SWAP2 SWAP1 POP JUMP JUMPDEST PUSH2 0x34C6 PUSH2 0x34C1 DUP3 PUSH2 0x27D5 JUMP JUMPDEST PUSH2 0x34A3 JUMP JUMPDEST DUP3 MSTORE POP POP JUMP JUMPDEST PUSH1 0x0 DUP2 SWAP1 POP SWAP2 SWAP1 POP JUMP JUMPDEST PUSH2 0x34E7 PUSH2 0x34E2 DUP3 PUSH2 0x2888 JUMP JUMPDEST PUSH2 0x34CC JUMP JUMPDEST DUP3 MSTORE POP POP JUMP JUMPDEST PUSH1 0x0 DUP2 SWAP1 POP SWAP3 SWAP2 POP POP JUMP JUMPDEST PUSH1 0x0 PUSH2 0x3503 DUP3 PUSH2 0x2B52 JUMP JUMPDEST PUSH2 0x350D DUP2 DUP6 PUSH2 0x34ED JUMP JUMPDEST SWAP4 POP PUSH2 0x351D DUP2 DUP6 PUSH1 0x20 DUP7 ADD PUSH2 0x2B6E JUMP JUMPDEST DUP1 DUP5 ADD SWAP2 POP POP SWAP3 SWAP2 POP POP JUMP JUMPDEST PUSH1 0x0 PUSH2 0x3535 DUP3 DUP7 PUSH2 0x34B5 JUMP JUMPDEST PUSH1 0x14 DUP3 ADD SWAP2 POP PUSH2 0x3545 DUP3 DUP6 PUSH2 0x34D6 JUMP JUMPDEST PUSH1 0x20 DUP3 ADD SWAP2 POP PUSH2 0x3555 DUP3 DUP5 PUSH2 0x34F8 JUMP JUMPDEST SWAP2 POP DUP2 SWAP1 POP SWAP5 SWAP4 POP POP POP POP JUMP JUMPDEST PUSH32 0x4E487B7100000000000000000000000000000000000000000000000000000000 PUSH1 0x0 MSTORE PUSH1 0x11 PUSH1 0x4 MSTORE PUSH1 0x24 PUSH1 0x0 REVERT JUMPDEST PUSH1 0x0 PUSH2 0x359C DUP3 PUSH2 0x2888 JUMP JUMPDEST SWAP2 POP PUSH2 0x35A7 DUP4 PUSH2 0x2888 JUMP JUMPDEST SWAP3 POP DUP3 DUP3 ADD SWAP1 POP DUP1 DUP3 GT ISZERO PUSH2 0x35BF JUMPI PUSH2 0x35BE PUSH2 0x3562 JUMP JUMPDEST JUMPDEST SWAP3 SWAP2 POP POP JUMP JUMPDEST PUSH1 0x0 DUP2 SWAP1 POP DUP2 PUSH1 0x0 MSTORE PUSH1 0x20 PUSH1 0x0 KECCAK256 SWAP1 POP SWAP2 SWAP1 POP JUMP JUMPDEST PUSH1 0x0 PUSH1 0x20 PUSH1 0x1F DUP4 ADD DIV SWAP1 POP SWAP2 SWAP1 POP JUMP JUMPDEST PUSH1 0x0 DUP3 DUP3 SHL SWAP1 POP SWAP3 SWAP2 POP POP JUMP JUMPDEST PUSH1 0x0 PUSH1 0x8 DUP4 MUL PUSH2 0x3627 PUSH32 0xFFFFFFFFFFFFFFFFFFFFFFFFFFFFFFFFFFFFFFFFFFFFFFFFFFFFFFFFFFFFFFFF DUP3 PUSH2 0x35EA JUMP JUMPDEST PUSH2 0x3631 DUP7 DUP4 PUSH2 0x35EA JUMP JUMPDEST SWAP6 POP DUP1 NOT DUP5 AND SWAP4 POP DUP1 DUP7 AND DUP5 OR SWAP3 POP POP POP SWAP4 SWAP3 POP POP POP JUMP JUMPDEST PUSH1 0x0 PUSH2 0x3664 PUSH2 0x365F PUSH2 0x365A DUP5 PUSH2 0x2888 JUMP JUMPDEST PUSH2 0x3056 JUMP JUMPDEST PUSH2 0x2888 JUMP JUMPDEST SWAP1 POP SWAP2 SWAP1 POP JUMP JUMPDEST PUSH1 0x0 DUP2 SWAP1 POP SWAP2 SWAP1 POP JUMP JUMPDEST PUSH2 0x367E DUP4 PUSH2 0x3649 JUMP JUMPDEST PUSH2 0x3692 PUSH2 0x368A DUP3 PUSH2 0x366B JUMP JUMPDEST DUP5 DUP5 SLOAD PUSH2 0x35F7 JUMP JUMPDEST DUP3 SSTORE POP POP POP POP JUMP JUMPDEST PUSH1 0x0 SWAP1 JUMP JUMPDEST PUSH2 0x36A7 PUSH2 0x369A JUMP JUMPDEST PUSH2 0x36B2 DUP2 DUP5 DUP5 PUSH2 0x3675 JUMP JUMPDEST POP POP POP JUMP JUMPDEST JUMPDEST DUP2 DUP2 LT ISZERO PUSH2 0x36D6 JUMPI PUSH2 0x36CB PUSH1 0x0 DUP3 PUSH2 0x369F JUMP JUMPDEST PUSH1 0x1 DUP2 ADD SWAP1 POP PUSH2 0x36B8 JUMP JUMPDEST POP POP JUMP JUMPDEST PUSH1 0x1F DUP3 GT ISZERO PUSH2 0x371B JUMPI PUSH2 0x36EC DUP2 PUSH2 0x35C5 JUMP JUMPDEST PUSH2 0x36F5 DUP5 PUSH2 0x35DA JUMP JUMPDEST DUP2 ADD PUSH1 0x20 DUP6 LT ISZERO PUSH2 0x3704 JUMPI DUP2 SWAP1 POP JUMPDEST PUSH2 0x3718 PUSH2 0x3710 DUP6 PUSH2 0x35DA JUMP JUMPDEST DUP4 ADD DUP3 PUSH2 0x36B7 JUMP JUMPDEST POP POP JUMPDEST POP POP POP JUMP JUMPDEST PUSH1 0x0 DUP3 DUP3 SHR SWAP1 POP SWAP3 SWAP2 POP POP JUMP JUMPDEST PUSH1 0x0 PUSH2 0x373E PUSH1 0x0 NOT DUP5 PUSH1 0x8 MUL PUSH2 0x3720 JUMP JUMPDEST NOT DUP1 DUP4 AND SWAP2 POP POP SWAP3 SWAP2 POP POP JUMP JUMPDEST PUSH1 0x0 PUSH2 0x3757 DUP4 DUP4 PUSH2 0x372D JUMP JUMPDEST SWAP2 POP DUP3 PUSH1 0x2 MUL DUP3 OR SWAP1 POP SWAP3 SWAP2 POP POP JUMP JUMPDEST PUSH2 0x3770 DUP3 PUSH2 0x2B52 JUMP JUMPDEST PUSH8 0xFFFFFFFFFFFFFFFF DUP2 GT ISZERO PUSH2 0x3789 JUMPI PUSH2 0x3788 PUSH2 0x2CED JUMP JUMPDEST JUMPDEST PUSH2 0x3793 DUP3 SLOAD PUSH2 0x3453 JUMP JUMPDEST PUSH2 0x379E DUP3 DUP3 DUP6 PUSH2 0x36DA JUMP JUMPDEST PUSH1 0x0 PUSH1 0x20 SWAP1 POP PUSH1 0x1F DUP4 GT PUSH1 0x1 DUP2 EQ PUSH2 0x37D1 JUMPI PUSH1 0x0 DUP5 ISZERO PUSH2 0x37BF JUMPI DUP3 DUP8 ADD MLOAD SWAP1 POP JUMPDEST PUSH2 0x37C9 DUP6 DUP3 PUSH2 0x374B JUMP JUMPDEST DUP7 SSTORE POP PUSH2 0x3831 JUMP JUMPDEST PUSH1 0x1F NOT DUP5 AND PUSH2 0x37DF DUP7 PUSH2 0x35C5 JUMP JUMPDEST PUSH1 0x0 JUMPDEST DUP3 DUP2 LT ISZERO PUSH2 0x3807 JUMPI DUP5 DUP10 ADD MLOAD DUP3 SSTORE PUSH1 0x1 DUP3 ADD SWAP2 POP PUSH1 0x20 DUP6 ADD SWAP5 POP PUSH1 0x20 DUP2 ADD SWAP1 POP PUSH2 0x37E2 JUMP JUMPDEST DUP7 DUP4 LT ISZERO PUSH2 0x3824 JUMPI DUP5 DUP10 ADD MLOAD PUSH2 0x3820 PUSH1 0x1F DUP10 AND DUP3 PUSH2 0x372D JUMP JUMPDEST DUP4 SSTORE POP JUMPDEST PUSH1 0x1 PUSH1 0x2 DUP9 MUL ADD DUP9 SSTORE POP POP POP JUMPDEST POP POP POP POP POP POP JUMP JUMPDEST PUSH1 0x0 PUSH1 0x20 DUP3 ADD SWAP1 POP PUSH2 0x384E PUSH1 0x0 DUP4 ADD DUP5 PUSH2 0x2B34 JUMP JUMPDEST SWAP3 SWAP2 POP POP JUMP JUMPDEST PUSH1 0x0 PUSH1 0x40 DUP3 ADD SWAP1 POP PUSH2 0x3869 PUSH1 0x0 DUP4 ADD DUP6 PUSH2 0x2B43 JUMP JUMPDEST PUSH2 0x3876 PUSH1 0x20 DUP4 ADD DUP5 PUSH2 0x2A16 JUMP JUMPDEST SWAP4 SWAP3 POP POP POP JUMP JUMPDEST PUSH32 0x4E6F7420616E20616374697665206A75726F7200000000000000000000000000 PUSH1 0x0 DUP3 ADD MSTORE POP JUMP JUMPDEST PUSH1 0x0 PUSH2 0x38B3 PUSH1 0x13 DUP4 PUSH2 0x2B5D JUMP JUMPDEST SWAP2 POP PUSH2 0x38BE DUP3 PUSH2 0x387D JUMP JUMPDEST PUSH1 0x20 DUP3 ADD SWAP1 POP SWAP2 SWAP1 POP JUMP JUMPDEST PUSH1 0x0 PUSH1 0x20 DUP3 ADD SWAP1 POP DUP2 DUP2 SUB PUSH1 0x0 DUP4 ADD MSTORE PUSH2 0x38E2 DUP2 PUSH2 0x38A6 JUMP JUMPDEST SWAP1 POP SWAP2 SWAP1 POP JUMP JUMPDEST PUSH32 0x416C726561647920766F74656400000000000000000000000000000000000000 PUSH1 0x0 DUP3 ADD MSTORE POP JUMP JUMPDEST PUSH1 0x0 PUSH2 0x391F PUSH1 0xD DUP4 PUSH2 0x2B5D JUMP JUMPDEST SWAP2 POP PUSH2 0x392A DUP3 PUSH2 0x38E9 JUMP JUMPDEST PUSH1 0x20 DUP3 ADD SWAP1 POP SWAP2 SWAP1 POP JUMP JUMPDEST PUSH1 0x0 PUSH1 0x20 DUP3 ADD SWAP1 POP DUP2 DUP2 SUB PUSH1 0x0 DUP4 ADD MSTORE PUSH2 0x394E DUP2 PUSH2 0x3912 JUMP JUMPDEST SWAP1 POP SWAP2 SWAP1 POP JUMP JUMPDEST PUSH32 0x43617365206E6F742070656E64696E6700000000000000000000000000000000 PUSH1 0x0 DUP3 ADD MSTORE POP JUMP JUMPDEST PUSH1 0x0 PUSH2 0x398B PUSH1 0x10 DUP4 PUSH2 0x2B5D JUMP JUMPDEST SWAP2 POP PUSH2 0x3996 DUP3 PUSH2 0x3955 JUMP JUMPDEST PUSH1 0x20 DUP3 ADD SWAP1 POP SWAP2 SWAP1 POP JUMP JUMPDEST PUSH1 0x0 PUSH1 0x20 DUP3 ADD SWAP1 POP DUP2 DUP2 SUB PUSH1 0x0 DUP4 ADD MSTORE PUSH2 0x39BA DUP2 PUSH2 0x397E JUMP JUMPDEST SWAP1 POP SWAP2 SWAP1 POP JUMP JUMPDEST PUSH32 0x566F74696E6720656E6465640000000000000000000000000000000000000000 PUSH1 0x0 DUP3 ADD MSTORE POP JUMP JUMPDEST PUSH1 0x0 PUSH2 0x39F7 PUSH1 0xC DUP4 PUSH2 0x2B5D JUMP JUMPDEST SWAP2 POP PUSH2 0x3A02 DUP3 PUSH2 0x39C1 JUMP JUMPDEST PUSH1 0x20 DUP3 ADD SWAP1 POP SWAP2 SWAP1 POP JUMP JUMPDEST PUSH1 0x0 PUSH1 0x20 DUP3 ADD SWAP1 POP DUP2 DUP2 SUB PUSH1 0x0 DUP4 ADD MSTORE PUSH2 0x3A26 DUP2 PUSH2 0x39EA JUMP JUMPDEST SWAP1 POP SWAP2 SWAP1 POP JUMP JUMPDEST PUSH1 0x0 PUSH2 0x3A38 DUP3 PUSH2 0x2888 JUMP JUMPDEST SWAP2 POP PUSH32 0xFFFFFFFFFFFFFFFFFFFFFFFFFFFFFFFFFFFFFFFFFFFFFFFFFFFFFFFFFFFFFFFF DUP3 SUB PUSH2 0x3A6A JUMPI PUSH2 0x3A69 PUSH2 0x3562 JUMP JUMPDEST JUMPDEST PUSH1 0x1 DUP3 ADD SWAP1 POP SWAP2 SWAP1 POP JUMP JUMPDEST PUSH32 0x4E6F742061206A75726F72000000000000000000000000000000000000000000 PUSH1 0x0 DUP3 ADD MSTORE POP JUMP JUMPDEST PUSH1 0x0 PUSH2 0x3AAB PUSH1 0xB DUP4 PUSH2 0x2B5D JUMP JUMPDEST SWAP2 POP PUSH2 0x3AB6 DUP3 PUSH2 0x3A75 JUMP JUMPDEST PUSH1 0x20 DUP3 ADD SWAP1 POP SWAP2 SWAP1 POP JUMP JUMPDEST PUSH1 0x0 PUSH1 0x20 DUP3 ADD SWAP1 POP DUP2 DUP2 SUB PUSH1 0x0 DUP4 ADD MSTORE PUSH2 0x3ADA DUP2 PUSH2 0x3A9E JUMP JUMPDEST SWAP1 POP SWAP2 SWAP1 POP JUMP JUMPDEST PUSH32 0x43616E206F6E6C79207570677261646500000000000000000000000000000000 PUSH1 0x0 DUP3 ADD MSTORE POP JUMP JUMPDEST PUSH1 0x0 PUSH2 0x3B17 PUSH1 0x10 DUP4 PUSH2 0x2B5D JUMP JUMPDEST SWAP2 POP PUSH2 0x3B22 DUP3 PUSH2 0x3AE1 JUMP JUMPDEST PUSH1 0x20 DUP3 ADD SWAP1 POP SWAP2 SWAP1 POP JUMP JUMPDEST PUSH1 0x0 PUSH1 0x20 DUP3 ADD SWAP1 POP DUP2 DUP2 SUB PUSH1 0x0 DUP4 ADD MSTORE PUSH2 0x3B46 DUP2 PUSH2 0x3B0A JUMP JUMPDEST SWAP1 POP SWAP2 SWAP1 POP JUMP JUMPDEST PUSH32 0x4E6F7420656C696769626C6520666F7220457870657274000000000000000000 PUSH1 0x0 DUP3 ADD MSTORE POP JUMP JUMPDEST PUSH1 0x0 PUSH2 0x3B83 PUSH1 0x17 DUP4 PUSH2 0x2B5D JUMP JUMPDEST SWAP2 POP PUSH2 0x3B8E DUP3 PUSH2 0x3B4D JUMP JUMPDEST PUSH1 0x20 DUP3 ADD SWAP1 POP SWAP2 SWAP1 POP JUMP JUMPDEST PUSH1 0x0 PUSH1 0x20 DUP3 ADD SWAP1 POP DUP2 DUP2 SUB PUSH1 0x0 DUP4 ADD MSTORE PUSH2 0x3BB2 DUP2 PUSH2 0x3B76 JUMP JUMPDEST SWAP1 POP SWAP2 SWAP1 POP JUMP JUMPDEST PUSH1 0x0 PUSH2 0x3BC4 DUP3 PUSH2 0x2888 JUMP JUMPDEST SWAP2 POP PUSH2 0x3BCF DUP4 PUSH2 0x2888 JUMP JUMPDEST SWAP3 POP DUP3 DUP3 SUB SWAP1 POP DUP2 DUP2 GT ISZERO PUSH2 0x3BE7 JUMPI PUSH2 0x3BE6 PUSH2 0x3562 JUMP JUMPDEST JUMPDEST SWAP3 SWAP2 POP POP JUMP JUMPDEST PUSH32 0x4E6F7420656C696769626C6520666F72204772616E64204A7572790000000000 PUSH1 0x0 DUP3 ADD MSTORE POP JUMP JUMPDEST PUSH1 0x0 PUSH2 0x3C23 PUSH1 0x1B DUP4 PUSH2 0x2B5D JUMP JUMPDEST SWAP2 POP PUSH2 0x3C2E DUP3 PUSH2 0x3BED JUMP JUMPDEST PUSH1 0x20 DUP3 ADD SWAP1 POP SWAP2 SWAP1 POP JUMP JUMPDEST PUSH1 0x0 PUSH1 0x20 DUP3 ADD SWAP1 POP DUP2 DUP2 SUB PUSH1 0x0 DUP4 ADD MSTORE PUSH2 0x3C52 DUP2 PUSH2 0x3C16 JUMP JUMPDEST SWAP1 POP SWAP2 SWAP1 POP JUMP JUMPDEST PUSH32 0x4164646974696F6E616C207374616B65207472616E73666572206661696C6564 PUSH1 0x0 DUP3 ADD MSTORE POP JUMP JUMPDEST PUSH1 0x0 PUSH2 0x3C8F PUSH1 0x20 DUP4 PUSH2 0x2B5D JUMP JUMPDEST SWAP2 POP PUSH2 0x3C9A DUP3 PUSH2 0x3C59 JUMP JUMPDEST PUSH1 0x20 DUP3 ADD SWAP1 POP SWAP2 SWAP1 POP JUMP JUMPDEST PUSH1 0x0 PUSH1 0x20 DUP3 ADD SWAP1 POP DUP2 DUP2 SUB PUSH1 0x0 DUP4 ADD MSTORE PUSH2 0x3CBE DUP2 PUSH2 0x3C82 JUMP JUMPDEST SWAP1 POP SWAP2 SWAP1 POP JUMP JUMPDEST PUSH1 0x0 PUSH1 0x40 DUP3 ADD SWAP1 POP PUSH2 0x3CDA PUSH1 0x0 DUP4 ADD DUP6 PUSH2 0x2A07 JUMP JUMPDEST PUSH2 0x3CE7 PUSH1 0x20 DUP4 ADD DUP5 PUSH2 0x2A07 JUMP JUMPDEST SWAP4 SWAP3 POP POP POP JUMP JUMPDEST PUSH32 0x4E487B7100000000000000000000000000000000000000000000000000000000 PUSH1 0x0 MSTORE PUSH1 0x32 PUSH1 0x4 MSTORE PUSH1 0x24 PUSH1 0x0 REVERT JUMPDEST PUSH32 0x416C72656164792066696E616C697A6564000000000000000000000000000000 PUSH1 0x0 DUP3 ADD MSTORE POP JUMP JUMPDEST PUSH1 0x0 PUSH2 0x3D53 PUSH1 0x11 DUP4 PUSH2 0x2B5D JUMP JUMPDEST SWAP2 POP PUSH2 0x3D5E DUP3 PUSH2 0x3D1D JUMP JUMPDEST PUSH1 0x20 DUP3 ADD SWAP1 POP SWAP2 SWAP1 POP JUMP JUMPDEST PUSH1 0x0 PUSH1 0x20 DUP3 ADD SWAP1 POP DUP2 DUP2 SUB PUSH1 0x0 DUP4 ADD MSTORE PUSH2 0x3D82 DUP2 PUSH2 0x3D46 JUMP JUMPDEST SWAP1 POP SWAP2 SWAP1 POP JUMP JUMPDEST PUSH32 0x566F74696E6720706572696F64206E6F7420656E646564000000000000000000 PUSH1 0x0 DUP3 ADD MSTORE POP JUMP JUMPDEST PUSH1 0x0 PUSH2 0x3DBF PUSH1 0x17 DUP4 PUSH2 0x2B5D JUMP JUMPDEST SWAP2 POP PUSH2 0x3DCA DUP3 PUSH2 0x3D89 JUMP JUMPDEST PUSH1 0x20 DUP3 ADD SWAP1 POP SWAP2 SWAP1 POP JUMP JUMPDEST PUSH1 0x0 PUSH1 0x20 DUP3 ADD SWAP1 POP DUP2 DUP2 SUB PUSH1 0x0 DUP4 ADD MSTORE PUSH2 0x3DEE DUP2 PUSH2 0x3DB2 JUMP JUMPDEST SWAP1 POP SWAP2 SWAP1 POP JUMP JUMPDEST PUSH32 0x4E6F20766F746573000000000000000000000000000000000000000000000000 PUSH1 0x0 DUP3 ADD MSTORE POP JUMP JUMPDEST PUSH1 0x0 PUSH2 0x3E2B PUSH1 0x8 DUP4 PUSH2 0x2B5D JUMP JUMPDEST SWAP2 POP PUSH2 0x3E36 DUP3 PUSH2 0x3DF5 JUMP JUMPDEST PUSH1 0x20 DUP3 ADD SWAP1 POP SWAP2 SWAP1 POP JUMP JUMPDEST PUSH1 0x0 PUSH1 0x20 DUP3 ADD SWAP1 POP DUP2 DUP2 SUB PUSH1 0x0 DUP4 ADD MSTORE PUSH2 0x3E5A DUP2 PUSH2 0x3E1E JUMP JUMPDEST SWAP1 POP SWAP2 SWAP1 POP JUMP JUMPDEST PUSH1 0x0 PUSH1 0x60 DUP3 ADD SWAP1 POP PUSH2 0x3E76 PUSH1 0x0 DUP4 ADD DUP7 PUSH2 0x2C2A JUMP JUMPDEST PUSH2 0x3E83 PUSH1 0x20 DUP4 ADD DUP6 PUSH2 0x2A16 JUMP JUMPDEST PUSH2 0x3E90 PUSH1 0x40 DUP4 ADD DUP5 PUSH2 0x2A16 JUMP JUMPDEST SWAP5 SWAP4 POP POP POP POP JUMP JUMPDEST PUSH32 0x4E487B7100000000000000000000000000000000000000000000000000000000 PUSH1 0x0 MSTORE PUSH1 0x12 PUSH1 0x4 MSTORE PUSH1 0x24 PUSH1 0x0 REVERT JUMPDEST PUSH1 0x0 PUSH2 0x3ED2 DUP3 PUSH2 0x2888 JUMP JUMPDEST SWAP2 POP PUSH2 0x3EDD DUP4 PUSH2 0x2888 JUMP JUMPDEST SWAP3 POP DUP3 PUSH2 0x3EED JUMPI PUSH2 0x3EEC PUSH2 0x3E98 JUMP JUMPDEST JUMPDEST DUP3 DUP3 DIV SWAP1 POP SWAP3 SWAP2 POP POP JUMP JUMPDEST PUSH1 0x0 PUSH2 0x3F03 DUP3 PUSH2 0x2888 JUMP JUMPDEST SWAP2 POP PUSH2 0x3F0E DUP4 PUSH2 0x2888 JUMP JUMPDEST SWAP3 POP DUP3 DUP3 MUL PUSH2 0x3F1C DUP2 PUSH2 0x2888 JUMP JUMPDEST SWAP2 POP DUP3 DUP3 DIV DUP5 EQ DUP4 ISZERO OR PUSH2 0x3F33 JUMPI PUSH2 0x3F32 PUSH2 0x3562 JUMP JUMPDEST JUMPDEST POP SWAP3 SWAP2 POP POP JUMP INVALID LOG2 PUSH5 0x6970667358 0x22 SLT KECCAK256 0xFC 0xFB 0xB1 0xD2 COINBASE SWAP5 0xD3 SWAP16 0xAE 0xF6 PUSH30 0x95CDE0C1F9EE2B0529481ECA5CC8EC198C991C396D64736F6C6343000814 STOP CALLER "},"methodIdentifiers":{"CASE_DURATION()":"c4a29760","CITIZEN_MIN_STAKE()":"381af86f","CITIZEN_VOTING_POWER()":"38edf777","EXPERT_MIN_STAKE()":"ddd9fa48","EXPERT_VOTING_POWER()":"ed8d71e0","GRAND_JURY_MIN_STAKE()":"5c1a58b5","GRAND_JURY_VOTING_POWER()":"fa814b75","REWARD_POOL_PER_CASE()":"b01b9128","TARGET_CITIZEN_RATIO()":"21885ea6","TARGET_EXPERT_RATIO()":"492cbd74","TARGET_GRAND_JURY_RATIO()":"e737341e","activeCases(uint256)":"af95040c","activeJurors(uint256)":"e2da844d","caseVotes(bytes32,uint256)":"6636411e","cases(bytes32)":"48ea1c23","emergencyWithdraw(uint256)":"5312ea8e","finalizeCase(bytes32)":"f9094afa","getCaseVotes(bytes32)":"1513bdb1","getJurorStats(address)":"1ddde428","getPendingCases()":"f19c7d64","hasVoted(bytes32,address)":"aadc3b72","jurors(address)":"dca5f6b0","owner()":"8da5cb5b","ozcToken()":"bb6846e6","registerAsJuror(uint256)":"3bc70ec0","renounceOwnership()":"715018a6","submitCase(uint8,string)":"51724eca","transferOwnership(address)":"f2fde38b","upgradeTier(uint8)":"a2949dd7","vote(bytes32,bool)":"9f2ce678"}}}}}