{"contracts/OzcarLoanDisbursement.sol":{"OzcarLoanDisbursement":{"abi":[{"inputs":[{"internalType":"address","name":"_paymentToken","type":"address"},{"internalType":"address","name":"_escrowContract","type":"address"}],"stateMutability":"nonpayable","type":"constructor"},{"inputs":[],"name":"AccessControlBadConfirmation","type":"error"},{"inputs":[{"internalType":"address","name":"account","type":"address"},{"internalType":"bytes32","name":"neededRole","type":"bytes32"}],"name":"AccessControlUnauthorizedAccount","type":"error"},{"anonymous":false,"inputs":[{"indexed":true,"internalType":"uint256","name":"loanId","type":"uint256"},{"indexed":true,"internalType":"address","name":"borrower","type":"address"},{"indexed":false,"internalType":"uint256","name":"amount","type":"uint256"}],"name":"LoanApproved","type":"event"},{"anonymous":false,"inputs":[{"indexed":true,"internalType":"uint256","name":"loanId","type":"uint256"},{"indexed":true,"internalType":"uint256","name":"escrowId","type":"uint256"}],"name":"LoanDisbursed","type":"event"},{"anonymous":false,"inputs":[{"indexed":true,"internalType":"bytes32","name":"role","type":"bytes32"},{"indexed":true,"internalType":"bytes32","name":"previousAdminRole","type":"bytes32"},{"indexed":true,"internalType":"bytes32","name":"newAdminRole","type":"bytes32"}],"name":"RoleAdminChanged","type":"event"},{"anonymous":false,"inputs":[{"indexed":true,"internalType":"bytes32","name":"role","type":"bytes32"},{"indexed":true,"internalType":"address","name":"account","type":"address"},{"indexed":true,"internalType":"address","name":"sender","type":"address"}],"name":"RoleGranted","type":"event"},{"anonymous":false,"inputs":[{"indexed":true,"internalType":"bytes32","name":"role","type":"bytes32"},{"indexed":true,"internalType":"address","name":"account","type":"address"},{"indexed":true,"internalType":"address","name":"sender","type":"address"}],"name":"RoleRevoked","type":"event"},{"inputs":[],"name":"DEFAULT_ADMIN_ROLE","outputs":[{"internalType":"bytes32","name":"","type":"bytes32"}],"stateMutability":"view","type":"function"},{"inputs":[],"name":"LENDER_ROLE","outputs":[{"internalType":"bytes32","name":"","type":"bytes32"}],"stateMutability":"view","type":"function"},{"inputs":[{"internalType":"address","name":"_borrower","type":"address"},{"internalType":"uint256","name":"_amount","type":"uint256"},{"internalType":"uint256","name":"_appraisalTokenId","type":"uint256"}],"name":"approveLoan","outputs":[{"internalType":"uint256","name":"","type":"uint256"}],"stateMutability":"nonpayable","type":"function"},{"inputs":[{"internalType":"uint256","name":"_loanId","type":"uint256"},{"internalType":"uint256","name":"_escrowId","type":"uint256"}],"name":"disburseToEscrow","outputs":[],"stateMutability":"nonpayable","type":"function"},{"inputs":[],"name":"escrowContract","outputs":[{"internalType":"address","name":"","type":"address"}],"stateMutability":"view","type":"function"},{"inputs":[{"internalType":"uint256","name":"","type":"uint256"}],"name":"escrowToLoan","outputs":[{"internalType":"uint256","name":"","type":"uint256"}],"stateMutability":"view","type":"function"},{"inputs":[{"internalType":"bytes32","name":"role","type":"bytes32"}],"name":"getRoleAdmin","outputs":[{"internalType":"bytes32","name":"","type":"bytes32"}],"stateMutability":"view","type":"function"},{"inputs":[{"internalType":"bytes32","name":"role","type":"bytes32"},{"internalType":"address","name":"account","type":"address"}],"name":"grantRole","outputs":[],"stateMutability":"nonpayable","type":"function"},{"inputs":[{"internalType":"bytes32","name":"role","type":"bytes32"},{"internalType":"address","name":"account","type":"address"}],"name":"hasRole","outputs":[{"internalType":"bool","name":"","type":"bool"}],"stateMutability":"view","type":"function"},{"inputs":[{"internalType":"uint256","name":"","type":"uint256"}],"name":"loans","outputs":[{"internalType":"uint256","name":"loanId","type":"uint256"},{"internalType":"address","name":"borrower","type":"address"},{"internalType":"uint256","name":"amount","type":"uint256"},{"internalType":"uint256","name":"appraisalTokenId","type":"uint256"},{"internalType":"bool","name":"disbursed","type":"bool"},{"internalType":"uint256","name":"escrowId","type":"uint256"}],"stateMutability":"view","type":"function"},{"inputs":[],"name":"paymentToken","outputs":[{"internalType":"contract IERC20","name":"","type":"address"}],"stateMutability":"view","type":"function"},{"inputs":[{"internalType":"bytes32","name":"role","type":"bytes32"},{"internalType":"address","name":"callerConfirmation","type":"address"}],"name":"renounceRole","outputs":[],"stateMutability":"nonpayable","type":"function"},{"inputs":[{"internalType":"bytes32","name":"role","type":"bytes32"},{"internalType":"address","name":"account","type":"address"}],"name":"revokeRole","outputs":[],"stateMutability":"nonpayable","type":"function"},{"inputs":[{"internalType":"bytes4","name":"interfaceId","type":"bytes4"}],"name":"supportsInterface","outputs":[{"internalType":"bool","name":"","type":"bool"}],"stateMutability":"view","type":"function"},{"inputs":[{"internalType":"address","name":"_newEscrow","type":"address"}],"name":"updateEscrow","outputs":[],"stateMutability":"nonpayable","type":"function"}],"evm":{"bytecode":{"linkReferences":{},"object":"60806040523480156200001157600080fd5b5060405162001913380380620019138339818101604052810190620000379190620002b6565b6200004c6000801b33620000d760201b60201c565b5081600160006101000a81548173ffffffffffffffffffffffffffffffffffffffff021916908373ffffffffffffffffffffffffffffffffffffffff16021790555080600260006101000a81548173ffffffffffffffffffffffffffffffffffffffff021916908373ffffffffffffffffffffffffffffffffffffffff1602179055505050620002fd565b6000620000eb8383620001da60201b60201c565b620001cf57600160008085815260200190815260200160002060000160008473ffffffffffffffffffffffffffffffffffffffff1673ffffffffffffffffffffffffffffffffffffffff16815260200190815260200160002060006101000a81548160ff0219169083151502179055506200016b6200024460201b60201c565b73ffffffffffffffffffffffffffffffffffffffff168273ffffffffffffffffffffffffffffffffffffffff16847f2f8788117e7eff1d82e926ec794901d17c78024a50270940304540a733656f0d60405160405180910390a460019050620001d4565b600090505b92915050565b600080600084815260200190815260200160002060000160008373ffffffffffffffffffffffffffffffffffffffff1673ffffffffffffffffffffffffffffffffffffffff16815260200190815260200160002060009054906101000a900460ff16905092915050565b600033905090565b600080fd5b600073ffffffffffffffffffffffffffffffffffffffff82169050919050565b60006200027e8262000251565b9050919050565b620002908162000271565b81146200029c57600080fd5b50565b600081519050620002b08162000285565b92915050565b60008060408385031215620002d057620002cf6200024c565b5b6000620002e0858286016200029f565b9250506020620002f3858286016200029f565b9150509250929050565b611606806200030d6000396000f3fe608060405234801561001057600080fd5b50600436106100f45760003560e01c80638b6a101a11610097578063d547741f11610066578063d547741f14610283578063e08d85731461029f578063e1ec3c68146102cf578063e42a96e714610304576100f4565b80638b6a101a146101e957806391d1485414610205578063a217fddf14610235578063ae0c9a4f14610253576100f4565b80632f2ff15d116100d35780632f2ff15d146101775780633013ce291461019357806336568abe146101b15780637044d098146101cd576100f4565b8062abafe1146100f957806301ffc9a714610117578063248a9ca314610147575b600080fd5b610101610322565b60405161010e9190610df6565b60405180910390f35b610131600480360381019061012c9190610e6e565b610346565b60405161013e9190610eb6565b60405180910390f35b610161600480360381019061015c9190610efd565b6103c0565b60405161016e9190610df6565b60405180910390f35b610191600480360381019061018c9190610f88565b6103df565b005b61019b610401565b6040516101a89190611027565b60405180910390f35b6101cb60048036038101906101c69190610f88565b610427565b005b6101e760048036038101906101e29190611078565b6104a2565b005b61020360048036038101906101fe91906110b8565b610809565b005b61021f600480360381019061021a9190610f88565b61085b565b60405161022c9190610eb6565b60405180910390f35b61023d6108c5565b60405161024a9190610df6565b60405180910390f35b61026d600480360381019061026891906110e5565b6108cc565b60405161027a9190611121565b60405180910390f35b61029d60048036038101906102989190610f88565b6108e4565b005b6102b960048036038101906102b4919061113c565b610906565b6040516102c69190611121565b60405180910390f35b6102e960048036038101906102e491906110e5565b610a94565b6040516102fb9695949392919061119e565b60405180910390f35b61030c610afd565b60405161031991906111ff565b60405180910390f35b7fc60d7a62d8843f2b14bc63f2a5240b187980481ad8c001a3caf4916aef3f667e81565b60007f7965db0b000000000000000000000000000000000000000000000000000000007bffffffffffffffffffffffffffffffffffffffffffffffffffffffff1916827bffffffffffffffffffffffffffffffffffffffffffffffffffffffff191614806103b957506103b882610b23565b5b9050919050565b6000806000838152602001908152602001600020600101549050919050565b6103e8826103c0565b6103f181610b8d565b6103fb8383610ba1565b50505050565b600160009054906101000a900473ffffffffffffffffffffffffffffffffffffffff1681565b61042f610c92565b73ffffffffffffffffffffffffffffffffffffffff168173ffffffffffffffffffffffffffffffffffffffff1614610493576040517f6697b23200000000000000000000000000000000000000000000000000000000815260040160405180910390fd5b61049d8282610c9a565b505050565b7fc60d7a62d8843f2b14bc63f2a5240b187980481ad8c001a3caf4916aef3f667e6104cc81610b8d565b60006004600085815260200190815260200160002090508060040160009054906101000a900460ff1615610535576040517f08c379a000000000000000000000000000000000000000000000000000000000815260040161052c90611277565b60405180910390fd5b6000600260009054906101000a900473ffffffffffffffffffffffffffffffffffffffff16905060008173ffffffffffffffffffffffffffffffffffffffff1663012f52ee866040518263ffffffff1660e01b81526004016105979190611121565b61010060405180830381865afa1580156105b5573d6000803e3d6000fd5b505050506040513d601f19601f820116820180604052508101906105d99190611326565b5050955050505050508083600201541015610629576040517f08c379a00000000000000000000000000000000000000000000000000000000081526004016106209061144e565b60405180910390fd5b60018360040160006101000a81548160ff021916908315150217905550848360050181905550856005600087815260200190815260200160002081905550600160009054906101000a900473ffffffffffffffffffffffffffffffffffffffff1673ffffffffffffffffffffffffffffffffffffffff1663095ea7b3600260009054906101000a900473ffffffffffffffffffffffffffffffffffffffff16836040518363ffffffff1660e01b81526004016106e692919061146e565b6020604051808303816000875af1158015610705573d6000803e3d6000fd5b505050506040513d601f19601f820116820180604052508101906107299190611497565b610768576040517f08c379a000000000000000000000000000000000000000000000000000000000815260040161075f90611510565b60405180910390fd5b8173ffffffffffffffffffffffffffffffffffffffff1663b6b55f25866040518263ffffffff1660e01b81526004016107a19190611121565b600060405180830381600087803b1580156107bb57600080fd5b505af11580156107cf573d6000803e3d6000fd5b5050505084867fb2e7e42df3fc0061410ecdbb2644b7b36cd803c2c7d9f20515593b59d98b988c60405160405180910390a3505050505050565b6000801b61081681610b8d565b81600260006101000a81548173ffffffffffffffffffffffffffffffffffffffff021916908373ffffffffffffffffffffffffffffffffffffffff1602179055505050565b600080600084815260200190815260200160002060000160008373ffffffffffffffffffffffffffffffffffffffff1673ffffffffffffffffffffffffffffffffffffffff16815260200190815260200160002060009054906101000a900460ff16905092915050565b6000801b81565b60056020528060005260406000206000915090505481565b6108ed826103c0565b6108f681610b8d565b6109008383610c9a565b50505050565b60007fc60d7a62d8843f2b14bc63f2a5240b187980481ad8c001a3caf4916aef3f667e61093281610b8d565b6000600360008154809291906109479061155f565b9190505590506040518060c001604052808281526020018773ffffffffffffffffffffffffffffffffffffffff1681526020018681526020018581526020016000151581526020016000815250600460008381526020019081526020016000206000820151816000015560208201518160010160006101000a81548173ffffffffffffffffffffffffffffffffffffffff021916908373ffffffffffffffffffffffffffffffffffffffff160217905550604082015181600201556060820151816003015560808201518160040160006101000a81548160ff02191690831515021790555060a082015181600501559050508573ffffffffffffffffffffffffffffffffffffffff16817f2b993938baa27c88e77a207903d275c96fa30ae5949a3ea5cd56e466e4f5c89187604051610a809190611121565b60405180910390a380925050509392505050565b60046020528060005260406000206000915090508060000154908060010160009054906101000a900473ffffffffffffffffffffffffffffffffffffffff16908060020154908060030154908060040160009054906101000a900460ff16908060050154905086565b600260009054906101000a900473ffffffffffffffffffffffffffffffffffffffff1681565b60007f01ffc9a7000000000000000000000000000000000000000000000000000000007bffffffffffffffffffffffffffffffffffffffffffffffffffffffff1916827bffffffffffffffffffffffffffffffffffffffffffffffffffffffff1916149050919050565b610b9e81610b99610c92565b610d8c565b50565b6000610bad838361085b565b610c8757600160008085815260200190815260200160002060000160008473ffffffffffffffffffffffffffffffffffffffff1673ffffffffffffffffffffffffffffffffffffffff16815260200190815260200160002060006101000a81548160ff021916908315150217905550610c24610c92565b73ffffffffffffffffffffffffffffffffffffffff168273ffffffffffffffffffffffffffffffffffffffff16847f2f8788117e7eff1d82e926ec794901d17c78024a50270940304540a733656f0d60405160405180910390a460019050610c8c565b600090505b92915050565b600033905090565b6000610ca6838361085b565b15610d8157600080600085815260200190815260200160002060000160008473ffffffffffffffffffffffffffffffffffffffff1673ffffffffffffffffffffffffffffffffffffffff16815260200190815260200160002060006101000a81548160ff021916908315150217905550610d1e610c92565b73ffffffffffffffffffffffffffffffffffffffff168273ffffffffffffffffffffffffffffffffffffffff16847ff6391f5c32d9c69d2a47ea670b442974b53935d1edc7fd64eb21e047a839171b60405160405180910390a460019050610d86565b600090505b92915050565b610d96828261085b565b610dd95780826040517fe2517d3f000000000000000000000000000000000000000000000000000000008152600401610dd09291906115a7565b60405180910390fd5b5050565b6000819050919050565b610df081610ddd565b82525050565b6000602082019050610e0b6000830184610de7565b92915050565b600080fd5b60007fffffffff0000000000000000000000000000000000000000000000000000000082169050919050565b610e4b81610e16565b8114610e5657600080fd5b50565b600081359050610e6881610e42565b92915050565b600060208284031215610e8457610e83610e11565b5b6000610e9284828501610e59565b91505092915050565b60008115159050919050565b610eb081610e9b565b82525050565b6000602082019050610ecb6000830184610ea7565b92915050565b610eda81610ddd565b8114610ee557600080fd5b50565b600081359050610ef781610ed1565b92915050565b600060208284031215610f1357610f12610e11565b5b6000610f2184828501610ee8565b91505092915050565b600073ffffffffffffffffffffffffffffffffffffffff82169050919050565b6000610f5582610f2a565b9050919050565b610f6581610f4a565b8114610f7057600080fd5b50565b600081359050610f8281610f5c565b92915050565b60008060408385031215610f9f57610f9e610e11565b5b6000610fad85828601610ee8565b9250506020610fbe85828601610f73565b9150509250929050565b6000819050919050565b6000610fed610fe8610fe384610f2a565b610fc8565b610f2a565b9050919050565b6000610fff82610fd2565b9050919050565b600061101182610ff4565b9050919050565b61102181611006565b82525050565b600060208201905061103c6000830184611018565b92915050565b6000819050919050565b61105581611042565b811461106057600080fd5b50565b6000813590506110728161104c565b92915050565b6000806040838503121561108f5761108e610e11565b5b600061109d85828601611063565b92505060206110ae85828601611063565b9150509250929050565b6000602082840312156110ce576110cd610e11565b5b60006110dc84828501610f73565b91505092915050565b6000602082840312156110fb576110fa610e11565b5b600061110984828501611063565b91505092915050565b61111b81611042565b82525050565b60006020820190506111366000830184611112565b92915050565b60008060006060848603121561115557611154610e11565b5b600061116386828701610f73565b935050602061117486828701611063565b925050604061118586828701611063565b9150509250925092565b61119881610f4a565b82525050565b600060c0820190506111b36000830189611112565b6111c0602083018861118f565b6111cd6040830187611112565b6111da6060830186611112565b6111e76080830185610ea7565b6111f460a0830184611112565b979650505050505050565b6000602082019050611214600083018461118f565b92915050565b600082825260208201905092915050565b7f4c6f616e20616c72656164792064697362757273656400000000000000000000600082015250565b600061126160168361121a565b915061126c8261122b565b602082019050919050565b6000602082019050818103600083015261129081611254565b9050919050565b6000815190506112a68161104c565b92915050565b6000815190506112bb81610f5c565b92915050565b600060ff82169050919050565b6112d7816112c1565b81146112e257600080fd5b50565b6000815190506112f4816112ce565b92915050565b61130381610e9b565b811461130e57600080fd5b50565b600081519050611320816112fa565b92915050565b600080600080600080600080610100898b03121561134757611346610e11565b5b60006113558b828c01611297565b98505060206113668b828c016112ac565b97505060406113778b828c016112ac565b96505060606113888b828c016112ac565b95505060806113998b828c01611297565b94505060a06113aa8b828c01611297565b93505060c06113bb8b828c016112e5565b92505060e06113cc8b828c01611311565b9150509295985092959890939650565b7f4c6f616e20696e73756666696369656e7420666f72207472616e73616374696f60008201527f6e00000000000000000000000000000000000000000000000000000000000000602082015250565b600061143860218361121a565b9150611443826113dc565b604082019050919050565b600060208201905081810360008301526114678161142b565b9050919050565b6000604082019050611483600083018561118f565b6114906020830184611112565b9392505050565b6000602082840312156114ad576114ac610e11565b5b60006114bb84828501611311565b91505092915050565b7f417070726f76616c206661696c65640000000000000000000000000000000000600082015250565b60006114fa600f8361121a565b9150611505826114c4565b602082019050919050565b60006020820190508181036000830152611529816114ed565b9050919050565b7f4e487b7100000000000000000000000000000000000000000000000000000000600052601160045260246000fd5b600061156a82611042565b91507fffffffffffffffffffffffffffffffffffffffffffffffffffffffffffffffff820361159c5761159b611530565b5b600182019050919050565b60006040820190506115bc600083018561118f565b6115c96020830184610de7565b939250505056fea26469706673582212209675ae12d1dd98a4809f1c086fd12d4e99a809199cd06ac80e80d642ff5246a264736f6c63430008140033","opcodes":"PUSH1 0x80 PUSH1 0x40 MSTORE CALLVALUE DUP1 ISZERO PUSH3 0x11 JUMPI PUSH1 0x0 DUP1 REVERT JUMPDEST POP PUSH1 0x40 MLOAD PUSH3 0x1913 CODESIZE SUB DUP1 PUSH3 0x1913 DUP4 CODECOPY DUP2 DUP2 ADD PUSH1 0x40 MSTORE DUP2 ADD SWAP1 PUSH3 0x37 SWAP2 SWAP1 PUSH3 0x2B6 JUMP JUMPDEST PUSH3 0x4C PUSH1 0x0 DUP1 SHL CALLER PUSH3 0xD7 PUSH1 0x20 SHL PUSH1 0x20 SHR JUMP JUMPDEST POP DUP2 PUSH1 0x1 PUSH1 0x0 PUSH2 0x100 EXP DUP2 SLOAD DUP2 PUSH20 0xFFFFFFFFFFFFFFFFFFFFFFFFFFFFFFFFFFFFFFFF MUL NOT AND SWAP1 DUP4 PUSH20 0xFFFFFFFFFFFFFFFFFFFFFFFFFFFFFFFFFFFFFFFF AND MUL OR SWAP1 SSTORE POP DUP1 PUSH1 0x2 PUSH1 0x0 PUSH2 0x100 EXP DUP2 SLOAD DUP2 PUSH20 0xFFFFFFFFFFFFFFFFFFFFFFFFFFFFFFFFFFFFFFFF MUL NOT AND SWAP1 DUP4 PUSH20 0xFFFFFFFFFFFFFFFFFFFFFFFFFFFFFFFFFFFFFFFF AND MUL OR SWAP1 SSTORE POP POP POP PUSH3 0x2FD JUMP JUMPDEST PUSH1 0x0 PUSH3 0xEB DUP4 DUP4 PUSH3 0x1DA PUSH1 0x20 SHL PUSH1 0x20 SHR JUMP JUMPDEST PUSH3 0x1CF JUMPI PUSH1 0x1 PUSH1 0x0 DUP1 DUP6 DUP2 MSTORE PUSH1 0x20 ADD SWAP1 DUP2 MSTORE PUSH1 0x20 ADD PUSH1 0x0 KECCAK256 PUSH1 0x0 ADD PUSH1 0x0 DUP5 PUSH20 0xFFFFFFFFFFFFFFFFFFFFFFFFFFFFFFFFFFFFFFFF AND PUSH20 0xFFFFFFFFFFFFFFFFFFFFFFFFFFFFFFFFFFFFFFFF AND DUP2 MSTORE PUSH1 0x20 ADD SWAP1 DUP2 MSTORE PUSH1 0x20 ADD PUSH1 0x0 KECCAK256 PUSH1 0x0 PUSH2 0x100 EXP DUP2 SLOAD DUP2 PUSH1 0xFF MUL NOT AND SWAP1 DUP4 ISZERO ISZERO MUL OR SWAP1 SSTORE POP PUSH3 0x16B PUSH3 0x244 PUSH1 0x20 SHL PUSH1 0x20 SHR JUMP JUMPDEST PUSH20 0xFFFFFFFFFFFFFFFFFFFFFFFFFFFFFFFFFFFFFFFF AND DUP3 PUSH20 0xFFFFFFFFFFFFFFFFFFFFFFFFFFFFFFFFFFFFFFFF AND DUP5 PUSH32 0x2F8788117E7EFF1D82E926EC794901D17C78024A50270940304540A733656F0D PUSH1 0x40 MLOAD PUSH1 0x40 MLOAD DUP1 SWAP2 SUB SWAP1 LOG4 PUSH1 0x1 SWAP1 POP PUSH3 0x1D4 JUMP JUMPDEST PUSH1 0x0 SWAP1 POP JUMPDEST SWAP3 SWAP2 POP POP JUMP JUMPDEST PUSH1 0x0 DUP1 PUSH1 0x0 DUP5 DUP2 MSTORE PUSH1 0x20 ADD SWAP1 DUP2 MSTORE PUSH1 0x20 ADD PUSH1 0x0 KECCAK256 PUSH1 0x0 ADD PUSH1 0x0 DUP4 PUSH20 0xFFFFFFFFFFFFFFFFFFFFFFFFFFFFFFFFFFFFFFFF AND PUSH20 0xFFFFFFFFFFFFFFFFFFFFFFFFFFFFFFFFFFFFFFFF AND DUP2 MSTORE PUSH1 0x20 ADD SWAP1 DUP2 MSTORE PUSH1 0x20 ADD PUSH1 0x0 KECCAK256 PUSH1 0x0 SWAP1 SLOAD SWAP1 PUSH2 0x100 EXP SWAP1 DIV PUSH1 0xFF AND SWAP1 POP SWAP3 SWAP2 POP POP JUMP JUMPDEST PUSH1 0x0 CALLER SWAP1 POP SWAP1 JUMP JUMPDEST PUSH1 0x0 DUP1 REVERT JUMPDEST PUSH1 0x0 PUSH20 0xFFFFFFFFFFFFFFFFFFFFFFFFFFFFFFFFFFFFFFFF DUP3 AND SWAP1 POP SWAP2 SWAP1 POP JUMP JUMPDEST PUSH1 0x0 PUSH3 0x27E DUP3 PUSH3 0x251 JUMP JUMPDEST SWAP1 POP SWAP2 SWAP1 POP JUMP JUMPDEST PUSH3 0x290 DUP2 PUSH3 0x271 JUMP JUMPDEST DUP2 EQ PUSH3 0x29C JUMPI PUSH1 0x0 DUP1 REVERT JUMPDEST POP JUMP JUMPDEST PUSH1 0x0 DUP2 MLOAD SWAP1 POP PUSH3 0x2B0 DUP2 PUSH3 0x285 JUMP JUMPDEST SWAP3 SWAP2 POP POP JUMP JUMPDEST PUSH1 0x0 DUP1 PUSH1 0x40 DUP4 DUP6 SUB SLT ISZERO PUSH3 0x2D0 JUMPI PUSH3 0x2CF PUSH3 0x24C JUMP JUMPDEST JUMPDEST PUSH1 0x0 PUSH3 0x2E0 DUP6 DUP3 DUP7 ADD PUSH3 0x29F JUMP JUMPDEST SWAP3 POP POP PUSH1 0x20 PUSH3 0x2F3 DUP6 DUP3 DUP7 ADD PUSH3 0x29F JUMP JUMPDEST SWAP2 POP POP SWAP3 POP SWAP3 SWAP1 POP JUMP JUMPDEST PUSH2 0x1606 DUP1 PUSH3 0x30D PUSH1 0x0 CODECOPY PUSH1 0x0 RETURN INVALID PUSH1 0x80 PUSH1 0x40 MSTORE CALLVALUE DUP1 ISZERO PUSH2 0x10 JUMPI PUSH1 0x0 DUP1 REVERT JUMPDEST POP PUSH1 0x4 CALLDATASIZE LT PUSH2 0xF4 JUMPI PUSH1 0x0 CALLDATALOAD PUSH1 0xE0 SHR DUP1 PUSH4 0x8B6A101A GT PUSH2 0x97 JUMPI DUP1 PUSH4 0xD547741F GT PUSH2 0x66 JUMPI DUP1 PUSH4 0xD547741F EQ PUSH2 0x283 JUMPI DUP1 PUSH4 0xE08D8573 EQ PUSH2 0x29F JUMPI DUP1 PUSH4 0xE1EC3C68 EQ PUSH2 0x2CF JUMPI DUP1 PUSH4 0xE42A96E7 EQ PUSH2 0x304 JUMPI PUSH2 0xF4 JUMP JUMPDEST DUP1 PUSH4 0x8B6A101A EQ PUSH2 0x1E9 JUMPI DUP1 PUSH4 0x91D14854 EQ PUSH2 0x205 JUMPI DUP1 PUSH4 0xA217FDDF EQ PUSH2 0x235 JUMPI DUP1 PUSH4 0xAE0C9A4F EQ PUSH2 0x253 JUMPI PUSH2 0xF4 JUMP JUMPDEST DUP1 PUSH4 0x2F2FF15D GT PUSH2 0xD3 JUMPI DUP1 PUSH4 0x2F2FF15D EQ PUSH2 0x177 JUMPI DUP1 PUSH4 0x3013CE29 EQ PUSH2 0x193 JUMPI DUP1 PUSH4 0x36568ABE EQ PUSH2 0x1B1 JUMPI DUP1 PUSH4 0x7044D098 EQ PUSH2 0x1CD JUMPI PUSH2 0xF4 JUMP JUMPDEST DUP1 PUSH3 0xABAFE1 EQ PUSH2 0xF9 JUMPI DUP1 PUSH4 0x1FFC9A7 EQ PUSH2 0x117 JUMPI DUP1 PUSH4 0x248A9CA3 EQ PUSH2 0x147 JUMPI JUMPDEST PUSH1 0x0 DUP1 REVERT JUMPDEST PUSH2 0x101 PUSH2 0x322 JUMP JUMPDEST PUSH1 0x40 MLOAD PUSH2 0x10E SWAP2 SWAP1 PUSH2 0xDF6 JUMP JUMPDEST PUSH1 0x40 MLOAD DUP1 SWAP2 SUB SWAP1 RETURN JUMPDEST PUSH2 0x131 PUSH1 0x4 DUP1 CALLDATASIZE SUB DUP2 ADD SWAP1 PUSH2 0x12C SWAP2 SWAP1 PUSH2 0xE6E JUMP JUMPDEST PUSH2 0x346 JUMP JUMPDEST PUSH1 0x40 MLOAD PUSH2 0x13E SWAP2 SWAP1 PUSH2 0xEB6 JUMP JUMPDEST PUSH1 0x40 MLOAD DUP1 SWAP2 SUB SWAP1 RETURN JUMPDEST PUSH2 0x161 PUSH1 0x4 DUP1 CALLDATASIZE SUB DUP2 ADD SWAP1 PUSH2 0x15C SWAP2 SWAP1 PUSH2 0xEFD JUMP JUMPDEST PUSH2 0x3C0 JUMP JUMPDEST PUSH1 0x40 MLOAD PUSH2 0x16E SWAP2 SWAP1 PUSH2 0xDF6 JUMP JUMPDEST PUSH1 0x40 MLOAD DUP1 SWAP2 SUB SWAP1 RETURN JUMPDEST PUSH2 0x191 PUSH1 0x4 DUP1 CALLDATASIZE SUB DUP2 ADD SWAP1 PUSH2 0x18C SWAP2 SWAP1 PUSH2 0xF88 JUMP JUMPDEST PUSH2 0x3DF JUMP JUMPDEST STOP JUMPDEST PUSH2 0x19B PUSH2 0x401 JUMP JUMPDEST PUSH1 0x40 MLOAD PUSH2 0x1A8 SWAP2 SWAP1 PUSH2 0x1027 JUMP JUMPDEST PUSH1 0x40 MLOAD DUP1 SWAP2 SUB SWAP1 RETURN JUMPDEST PUSH2 0x1CB PUSH1 0x4 DUP1 CALLDATASIZE SUB DUP2 ADD SWAP1 PUSH2 0x1C6 SWAP2 SWAP1 PUSH2 0xF88 JUMP JUMPDEST PUSH2 0x427 JUMP JUMPDEST STOP JUMPDEST PUSH2 0x1E7 PUSH1 0x4 DUP1 CALLDATASIZE SUB DUP2 ADD SWAP1 PUSH2 0x1E2 SWAP2 SWAP1 PUSH2 0x1078 JUMP JUMPDEST PUSH2 0x4A2 JUMP JUMPDEST STOP JUMPDEST PUSH2 0x203 PUSH1 0x4 DUP1 CALLDATASIZE SUB DUP2 ADD SWAP1 PUSH2 0x1FE SWAP2 SWAP1 PUSH2 0x10B8 JUMP JUMPDEST PUSH2 0x809 JUMP JUMPDEST STOP JUMPDEST PUSH2 0x21F PUSH1 0x4 DUP1 CALLDATASIZE SUB DUP2 ADD SWAP1 PUSH2 0x21A SWAP2 SWAP1 PUSH2 0xF88 JUMP JUMPDEST PUSH2 0x85B JUMP JUMPDEST PUSH1 0x40 MLOAD PUSH2 0x22C SWAP2 SWAP1 PUSH2 0xEB6 JUMP JUMPDEST PUSH1 0x40 MLOAD DUP1 SWAP2 SUB SWAP1 RETURN JUMPDEST PUSH2 0x23D PUSH2 0x8C5 JUMP JUMPDEST PUSH1 0x40 MLOAD PUSH2 0x24A SWAP2 SWAP1 PUSH2 0xDF6 JUMP JUMPDEST PUSH1 0x40 MLOAD DUP1 SWAP2 SUB SWAP1 RETURN JUMPDEST PUSH2 0x26D PUSH1 0x4 DUP1 CALLDATASIZE SUB DUP2 ADD SWAP1 PUSH2 0x268 SWAP2 SWAP1 PUSH2 0x10E5 JUMP JUMPDEST PUSH2 0x8CC JUMP JUMPDEST PUSH1 0x40 MLOAD PUSH2 0x27A SWAP2 SWAP1 PUSH2 0x1121 JUMP JUMPDEST PUSH1 0x40 MLOAD DUP1 SWAP2 SUB SWAP1 RETURN JUMPDEST PUSH2 0x29D PUSH1 0x4 DUP1 CALLDATASIZE SUB DUP2 ADD SWAP1 PUSH2 0x298 SWAP2 SWAP1 PUSH2 0xF88 JUMP JUMPDEST PUSH2 0x8E4 JUMP JUMPDEST STOP JUMPDEST PUSH2 0x2B9 PUSH1 0x4 DUP1 CALLDATASIZE SUB DUP2 ADD SWAP1 PUSH2 0x2B4 SWAP2 SWAP1 PUSH2 0x113C JUMP JUMPDEST PUSH2 0x906 JUMP JUMPDEST PUSH1 0x40 MLOAD PUSH2 0x2C6 SWAP2 SWAP1 PUSH2 0x1121 JUMP JUMPDEST PUSH1 0x40 MLOAD DUP1 SWAP2 SUB SWAP1 RETURN JUMPDEST PUSH2 0x2E9 PUSH1 0x4 DUP1 CALLDATASIZE SUB DUP2 ADD SWAP1 PUSH2 0x2E4 SWAP2 SWAP1 PUSH2 0x10E5 JUMP JUMPDEST PUSH2 0xA94 JUMP JUMPDEST PUSH1 0x40 MLOAD PUSH2 0x2FB SWAP7 SWAP6 SWAP5 SWAP4 SWAP3 SWAP2 SWAP1 PUSH2 0x119E JUMP JUMPDEST PUSH1 0x40 MLOAD DUP1 SWAP2 SUB SWAP1 RETURN JUMPDEST PUSH2 0x30C PUSH2 0xAFD JUMP JUMPDEST PUSH1 0x40 MLOAD PUSH2 0x319 SWAP2 SWAP1 PUSH2 0x11FF JUMP JUMPDEST PUSH1 0x40 MLOAD DUP1 SWAP2 SUB SWAP1 RETURN JUMPDEST PUSH32 0xC60D7A62D8843F2B14BC63F2A5240B187980481AD8C001A3CAF4916AEF3F667E DUP2 JUMP JUMPDEST PUSH1 0x0 PUSH32 0x7965DB0B00000000000000000000000000000000000000000000000000000000 PUSH28 0xFFFFFFFFFFFFFFFFFFFFFFFFFFFFFFFFFFFFFFFFFFFFFFFFFFFFFFFF NOT AND DUP3 PUSH28 0xFFFFFFFFFFFFFFFFFFFFFFFFFFFFFFFFFFFFFFFFFFFFFFFFFFFFFFFF NOT AND EQ DUP1 PUSH2 0x3B9 JUMPI POP PUSH2 0x3B8 DUP3 PUSH2 0xB23 JUMP JUMPDEST JUMPDEST SWAP1 POP SWAP2 SWAP1 POP JUMP JUMPDEST PUSH1 0x0 DUP1 PUSH1 0x0 DUP4 DUP2 MSTORE PUSH1 0x20 ADD SWAP1 DUP2 MSTORE PUSH1 0x20 ADD PUSH1 0x0 KECCAK256 PUSH1 0x1 ADD SLOAD SWAP1 POP SWAP2 SWAP1 POP JUMP JUMPDEST PUSH2 0x3E8 DUP3 PUSH2 0x3C0 JUMP JUMPDEST PUSH2 0x3F1 DUP2 PUSH2 0xB8D JUMP JUMPDEST PUSH2 0x3FB DUP4 DUP4 PUSH2 0xBA1 JUMP JUMPDEST POP POP POP POP JUMP JUMPDEST PUSH1 0x1 PUSH1 0x0 SWAP1 SLOAD SWAP1 PUSH2 0x100 EXP SWAP1 DIV PUSH20 0xFFFFFFFFFFFFFFFFFFFFFFFFFFFFFFFFFFFFFFFF AND DUP2 JUMP JUMPDEST PUSH2 0x42F PUSH2 0xC92 JUMP JUMPDEST PUSH20 0xFFFFFFFFFFFFFFFFFFFFFFFFFFFFFFFFFFFFFFFF AND DUP2 PUSH20 0xFFFFFFFFFFFFFFFFFFFFFFFFFFFFFFFFFFFFFFFF AND EQ PUSH2 0x493 JUMPI PUSH1 0x40 MLOAD PUSH32 0x6697B23200000000000000000000000000000000000000000000000000000000 DUP2 MSTORE PUSH1 0x4 ADD PUSH1 0x40 MLOAD DUP1 SWAP2 SUB SWAP1 REVERT JUMPDEST PUSH2 0x49D DUP3 DUP3 PUSH2 0xC9A JUMP JUMPDEST POP POP POP JUMP JUMPDEST PUSH32 0xC60D7A62D8843F2B14BC63F2A5240B187980481AD8C001A3CAF4916AEF3F667E PUSH2 0x4CC DUP2 PUSH2 0xB8D JUMP JUMPDEST PUSH1 0x0 PUSH1 0x4 PUSH1 0x0 DUP6 DUP2 MSTORE PUSH1 0x20 ADD SWAP1 DUP2 MSTORE PUSH1 0x20 ADD PUSH1 0x0 KECCAK256 SWAP1 POP DUP1 PUSH1 0x4 ADD PUSH1 0x0 SWAP1 SLOAD SWAP1 PUSH2 0x100 EXP SWAP1 DIV PUSH1 0xFF AND ISZERO PUSH2 0x535 JUMPI PUSH1 0x40 MLOAD PUSH32 0x8C379A000000000000000000000000000000000000000000000000000000000 DUP2 MSTORE PUSH1 0x4 ADD PUSH2 0x52C SWAP1 PUSH2 0x1277 JUMP JUMPDEST PUSH1 0x40 MLOAD DUP1 SWAP2 SUB SWAP1 REVERT JUMPDEST PUSH1 0x0 PUSH1 0x2 PUSH1 0x0 SWAP1 SLOAD SWAP1 PUSH2 0x100 EXP SWAP1 DIV PUSH20 0xFFFFFFFFFFFFFFFFFFFFFFFFFFFFFFFFFFFFFFFF AND SWAP1 POP PUSH1 0x0 DUP2 PUSH20 0xFFFFFFFFFFFFFFFFFFFFFFFFFFFFFFFFFFFFFFFF AND PUSH4 0x12F52EE DUP7 PUSH1 0x40 MLOAD DUP3 PUSH4 0xFFFFFFFF AND PUSH1 0xE0 SHL DUP2 MSTORE PUSH1 0x4 ADD PUSH2 0x597 SWAP2 SWAP1 PUSH2 0x1121 JUMP JUMPDEST PUSH2 0x100 PUSH1 0x40 MLOAD DUP1 DUP4 SUB DUP2 DUP7 GAS STATICCALL ISZERO DUP1 ISZERO PUSH2 0x5B5 JUMPI RETURNDATASIZE PUSH1 0x0 DUP1 RETURNDATACOPY RETURNDATASIZE PUSH1 0x0 REVERT JUMPDEST POP POP POP POP PUSH1 0x40 MLOAD RETURNDATASIZE PUSH1 0x1F NOT PUSH1 0x1F DUP3 ADD AND DUP3 ADD DUP1 PUSH1 0x40 MSTORE POP DUP2 ADD SWAP1 PUSH2 0x5D9 SWAP2 SWAP1 PUSH2 0x1326 JUMP JUMPDEST POP POP SWAP6 POP POP POP POP POP POP DUP1 DUP4 PUSH1 0x2 ADD SLOAD LT ISZERO PUSH2 0x629 JUMPI PUSH1 0x40 MLOAD PUSH32 0x8C379A000000000000000000000000000000000000000000000000000000000 DUP2 MSTORE PUSH1 0x4 ADD PUSH2 0x620 SWAP1 PUSH2 0x144E JUMP JUMPDEST PUSH1 0x40 MLOAD DUP1 SWAP2 SUB SWAP1 REVERT JUMPDEST PUSH1 0x1 DUP4 PUSH1 0x4 ADD PUSH1 0x0 PUSH2 0x100 EXP DUP2 SLOAD DUP2 PUSH1 0xFF MUL NOT AND SWAP1 DUP4 ISZERO ISZERO MUL OR SWAP1 SSTORE POP DUP5 DUP4 PUSH1 0x5 ADD DUP2 SWAP1 SSTORE POP DUP6 PUSH1 0x5 PUSH1 0x0 DUP8 DUP2 MSTORE PUSH1 0x20 ADD SWAP1 DUP2 MSTORE PUSH1 0x20 ADD PUSH1 0x0 KECCAK256 DUP2 SWAP1 SSTORE POP PUSH1 0x1 PUSH1 0x0 SWAP1 SLOAD SWAP1 PUSH2 0x100 EXP SWAP1 DIV PUSH20 0xFFFFFFFFFFFFFFFFFFFFFFFFFFFFFFFFFFFFFFFF AND PUSH20 0xFFFFFFFFFFFFFFFFFFFFFFFFFFFFFFFFFFFFFFFF AND PUSH4 0x95EA7B3 PUSH1 0x2 PUSH1 0x0 SWAP1 SLOAD SWAP1 PUSH2 0x100 EXP SWAP1 DIV PUSH20 0xFFFFFFFFFFFFFFFFFFFFFFFFFFFFFFFFFFFFFFFF AND DUP4 PUSH1 0x40 MLOAD DUP4 PUSH4 0xFFFFFFFF AND PUSH1 0xE0 SHL DUP2 MSTORE PUSH1 0x4 ADD PUSH2 0x6E6 SWAP3 SWAP2 SWAP1 PUSH2 0x146E JUMP JUMPDEST PUSH1 0x20 PUSH1 0x40 MLOAD DUP1 DUP4 SUB DUP2 PUSH1 0x0 DUP8 GAS CALL ISZERO DUP1 ISZERO PUSH2 0x705 JUMPI RETURNDATASIZE PUSH1 0x0 DUP1 RETURNDATACOPY RETURNDATASIZE PUSH1 0x0 REVERT JUMPDEST POP POP POP POP PUSH1 0x40 MLOAD RETURNDATASIZE PUSH1 0x1F NOT PUSH1 0x1F DUP3 ADD AND DUP3 ADD DUP1 PUSH1 0x40 MSTORE POP DUP2 ADD SWAP1 PUSH2 0x729 SWAP2 SWAP1 PUSH2 0x1497 JUMP JUMPDEST PUSH2 0x768 JUMPI PUSH1 0x40 MLOAD PUSH32 0x8C379A000000000000000000000000000000000000000000000000000000000 DUP2 MSTORE PUSH1 0x4 ADD PUSH2 0x75F SWAP1 PUSH2 0x1510 JUMP JUMPDEST PUSH1 0x40 MLOAD DUP1 SWAP2 SUB SWAP1 REVERT JUMPDEST DUP2 PUSH20 0xFFFFFFFFFFFFFFFFFFFFFFFFFFFFFFFFFFFFFFFF AND PUSH4 0xB6B55F25 DUP7 PUSH1 0x40 MLOAD DUP3 PUSH4 0xFFFFFFFF AND PUSH1 0xE0 SHL DUP2 MSTORE PUSH1 0x4 ADD PUSH2 0x7A1 SWAP2 SWAP1 PUSH2 0x1121 JUMP JUMPDEST PUSH1 0x0 PUSH1 0x40 MLOAD DUP1 DUP4 SUB DUP2 PUSH1 0x0 DUP8 DUP1 EXTCODESIZE ISZERO DUP1 ISZERO PUSH2 0x7BB JUMPI PUSH1 0x0 DUP1 REVERT JUMPDEST POP GAS CALL ISZERO DUP1 ISZERO PUSH2 0x7CF JUMPI RETURNDATASIZE PUSH1 0x0 DUP1 RETURNDATACOPY RETURNDATASIZE PUSH1 0x0 REVERT JUMPDEST POP POP POP POP DUP5 DUP7 PUSH32 0xB2E7E42DF3FC0061410ECDBB2644B7B36CD803C2C7D9F20515593B59D98B988C PUSH1 0x40 MLOAD PUSH1 0x40 MLOAD DUP1 SWAP2 SUB SWAP1 LOG3 POP POP POP POP POP POP JUMP JUMPDEST PUSH1 0x0 DUP1 SHL PUSH2 0x816 DUP2 PUSH2 0xB8D JUMP JUMPDEST DUP2 PUSH1 0x2 PUSH1 0x0 PUSH2 0x100 EXP DUP2 SLOAD DUP2 PUSH20 0xFFFFFFFFFFFFFFFFFFFFFFFFFFFFFFFFFFFFFFFF MUL NOT AND SWAP1 DUP4 PUSH20 0xFFFFFFFFFFFFFFFFFFFFFFFFFFFFFFFFFFFFFFFF AND MUL OR SWAP1 SSTORE POP POP POP JUMP JUMPDEST PUSH1 0x0 DUP1 PUSH1 0x0 DUP5 DUP2 MSTORE PUSH1 0x20 ADD SWAP1 DUP2 MSTORE PUSH1 0x20 ADD PUSH1 0x0 KECCAK256 PUSH1 0x0 ADD PUSH1 0x0 DUP4 PUSH20 0xFFFFFFFFFFFFFFFFFFFFFFFFFFFFFFFFFFFFFFFF AND PUSH20 0xFFFFFFFFFFFFFFFFFFFFFFFFFFFFFFFFFFFFFFFF AND DUP2 MSTORE PUSH1 0x20 ADD SWAP1 DUP2 MSTORE PUSH1 0x20 ADD PUSH1 0x0 KECCAK256 PUSH1 0x0 SWAP1 SLOAD SWAP1 PUSH2 0x100 EXP SWAP1 DIV PUSH1 0xFF AND SWAP1 POP SWAP3 SWAP2 POP POP JUMP JUMPDEST PUSH1 0x0 DUP1 SHL DUP2 JUMP JUMPDEST PUSH1 0x5 PUSH1 0x20 MSTORE DUP1 PUSH1 0x0 MSTORE PUSH1 0x40 PUSH1 0x0 KECCAK256 PUSH1 0x0 SWAP2 POP SWAP1 POP SLOAD DUP2 JUMP JUMPDEST PUSH2 0x8ED DUP3 PUSH2 0x3C0 JUMP JUMPDEST PUSH2 0x8F6 DUP2 PUSH2 0xB8D JUMP JUMPDEST PUSH2 0x900 DUP4 DUP4 PUSH2 0xC9A JUMP JUMPDEST POP POP POP POP JUMP JUMPDEST PUSH1 0x0 PUSH32 0xC60D7A62D8843F2B14BC63F2A5240B187980481AD8C001A3CAF4916AEF3F667E PUSH2 0x932 DUP2 PUSH2 0xB8D JUMP JUMPDEST PUSH1 0x0 PUSH1 0x3 PUSH1 0x0 DUP2 SLOAD DUP1 SWAP3 SWAP2 SWAP1 PUSH2 0x947 SWAP1 PUSH2 0x155F JUMP JUMPDEST SWAP2 SWAP1 POP SSTORE SWAP1 POP PUSH1 0x40 MLOAD DUP1 PUSH1 0xC0 ADD PUSH1 0x40 MSTORE DUP1 DUP3 DUP2 MSTORE PUSH1 0x20 ADD DUP8 PUSH20 0xFFFFFFFFFFFFFFFFFFFFFFFFFFFFFFFFFFFFFFFF AND DUP2 MSTORE PUSH1 0x20 ADD DUP7 DUP2 MSTORE PUSH1 0x20 ADD DUP6 DUP2 MSTORE PUSH1 0x20 ADD PUSH1 0x0 ISZERO ISZERO DUP2 MSTORE PUSH1 0x20 ADD PUSH1 0x0 DUP2 MSTORE POP PUSH1 0x4 PUSH1 0x0 DUP4 DUP2 MSTORE PUSH1 0x20 ADD SWAP1 DUP2 MSTORE PUSH1 0x20 ADD PUSH1 0x0 KECCAK256 PUSH1 0x0 DUP3 ADD MLOAD DUP2 PUSH1 0x0 ADD SSTORE PUSH1 0x20 DUP3 ADD MLOAD DUP2 PUSH1 0x1 ADD PUSH1 0x0 PUSH2 0x100 EXP DUP2 SLOAD DUP2 PUSH20 0xFFFFFFFFFFFFFFFFFFFFFFFFFFFFFFFFFFFFFFFF MUL NOT AND SWAP1 DUP4 PUSH20 0xFFFFFFFFFFFFFFFFFFFFFFFFFFFFFFFFFFFFFFFF AND MUL OR SWAP1 SSTORE POP PUSH1 0x40 DUP3 ADD MLOAD DUP2 PUSH1 0x2 ADD SSTORE PUSH1 0x60 DUP3 ADD MLOAD DUP2 PUSH1 0x3 ADD SSTORE PUSH1 0x80 DUP3 ADD MLOAD DUP2 PUSH1 0x4 ADD PUSH1 0x0 PUSH2 0x100 EXP DUP2 SLOAD DUP2 PUSH1 0xFF MUL NOT AND SWAP1 DUP4 ISZERO ISZERO MUL OR SWAP1 SSTORE POP PUSH1 0xA0 DUP3 ADD MLOAD DUP2 PUSH1 0x5 ADD SSTORE SWAP1 POP POP DUP6 PUSH20 0xFFFFFFFFFFFFFFFFFFFFFFFFFFFFFFFFFFFFFFFF AND DUP2 PUSH32 0x2B993938BAA27C88E77A207903D275C96FA30AE5949A3EA5CD56E466E4F5C891 DUP8 PUSH1 0x40 MLOAD PUSH2 0xA80 SWAP2 SWAP1 PUSH2 0x1121 JUMP JUMPDEST PUSH1 0x40 MLOAD DUP1 SWAP2 SUB SWAP1 LOG3 DUP1 SWAP3 POP POP POP SWAP4 SWAP3 POP POP POP JUMP JUMPDEST PUSH1 0x4 PUSH1 0x20 MSTORE DUP1 PUSH1 0x0 MSTORE PUSH1 0x40 PUSH1 0x0 KECCAK256 PUSH1 0x0 SWAP2 POP SWAP1 POP DUP1 PUSH1 0x0 ADD SLOAD SWAP1 DUP1 PUSH1 0x1 ADD PUSH1 0x0 SWAP1 SLOAD SWAP1 PUSH2 0x100 EXP SWAP1 DIV PUSH20 0xFFFFFFFFFFFFFFFFFFFFFFFFFFFFFFFFFFFFFFFF AND SWAP1 DUP1 PUSH1 0x2 ADD SLOAD SWAP1 DUP1 PUSH1 0x3 ADD SLOAD SWAP1 DUP1 PUSH1 0x4 ADD PUSH1 0x0 SWAP1 SLOAD SWAP1 PUSH2 0x100 EXP SWAP1 DIV PUSH1 0xFF AND SWAP1 DUP1 PUSH1 0x5 ADD SLOAD SWAP1 POP DUP7 JUMP JUMPDEST PUSH1 0x2 PUSH1 0x0 SWAP1 SLOAD SWAP1 PUSH2 0x100 EXP SWAP1 DIV PUSH20 0xFFFFFFFFFFFFFFFFFFFFFFFFFFFFFFFFFFFFFFFF AND DUP2 JUMP JUMPDEST PUSH1 0x0 PUSH32 0x1FFC9A700000000000000000000000000000000000000000000000000000000 PUSH28 0xFFFFFFFFFFFFFFFFFFFFFFFFFFFFFFFFFFFFFFFFFFFFFFFFFFFFFFFF NOT AND DUP3 PUSH28 0xFFFFFFFFFFFFFFFFFFFFFFFFFFFFFFFFFFFFFFFFFFFFFFFFFFFFFFFF NOT AND EQ SWAP1 POP SWAP2 SWAP1 POP JUMP JUMPDEST PUSH2 0xB9E DUP2 PUSH2 0xB99 PUSH2 0xC92 JUMP JUMPDEST PUSH2 0xD8C JUMP JUMPDEST POP JUMP JUMPDEST PUSH1 0x0 PUSH2 0xBAD DUP4 DUP4 PUSH2 0x85B JUMP JUMPDEST PUSH2 0xC87 JUMPI PUSH1 0x1 PUSH1 0x0 DUP1 DUP6 DUP2 MSTORE PUSH1 0x20 ADD SWAP1 DUP2 MSTORE PUSH1 0x20 ADD PUSH1 0x0 KECCAK256 PUSH1 0x0 ADD PUSH1 0x0 DUP5 PUSH20 0xFFFFFFFFFFFFFFFFFFFFFFFFFFFFFFFFFFFFFFFF AND PUSH20 0xFFFFFFFFFFFFFFFFFFFFFFFFFFFFFFFFFFFFFFFF AND DUP2 MSTORE PUSH1 0x20 ADD SWAP1 DUP2 MSTORE PUSH1 0x20 ADD PUSH1 0x0 KECCAK256 PUSH1 0x0 PUSH2 0x100 EXP DUP2 SLOAD DUP2 PUSH1 0xFF MUL NOT AND SWAP1 DUP4 ISZERO ISZERO MUL OR SWAP1 SSTORE POP PUSH2 0xC24 PUSH2 0xC92 JUMP JUMPDEST PUSH20 0xFFFFFFFFFFFFFFFFFFFFFFFFFFFFFFFFFFFFFFFF AND DUP3 PUSH20 0xFFFFFFFFFFFFFFFFFFFFFFFFFFFFFFFFFFFFFFFF AND DUP5 PUSH32 0x2F8788117E7EFF1D82E926EC794901D17C78024A50270940304540A733656F0D PUSH1 0x40 MLOAD PUSH1 0x40 MLOAD DUP1 SWAP2 SUB SWAP1 LOG4 PUSH1 0x1 SWAP1 POP PUSH2 0xC8C JUMP JUMPDEST PUSH1 0x0 SWAP1 POP JUMPDEST SWAP3 SWAP2 POP POP JUMP JUMPDEST PUSH1 0x0 CALLER SWAP1 POP SWAP1 JUMP JUMPDEST PUSH1 0x0 PUSH2 0xCA6 DUP4 DUP4 PUSH2 0x85B JUMP JUMPDEST ISZERO PUSH2 0xD81 JUMPI PUSH1 0x0 DUP1 PUSH1 0x0 DUP6 DUP2 MSTORE PUSH1 0x20 ADD SWAP1 DUP2 MSTORE PUSH1 0x20 ADD PUSH1 0x0 KECCAK256 PUSH1 0x0 ADD PUSH1 0x0 DUP5 PUSH20 0xFFFFFFFFFFFFFFFFFFFFFFFFFFFFFFFFFFFFFFFF AND PUSH20 0xFFFFFFFFFFFFFFFFFFFFFFFFFFFFFFFFFFFFFFFF AND DUP2 MSTORE PUSH1 0x20 ADD SWAP1 DUP2 MSTORE PUSH1 0x20 ADD PUSH1 0x0 KECCAK256 PUSH1 0x0 PUSH2 0x100 EXP DUP2 SLOAD DUP2 PUSH1 0xFF MUL NOT AND SWAP1 DUP4 ISZERO ISZERO MUL OR SWAP1 SSTORE POP PUSH2 0xD1E PUSH2 0xC92 JUMP JUMPDEST PUSH20 0xFFFFFFFFFFFFFFFFFFFFFFFFFFFFFFFFFFFFFFFF AND DUP3 PUSH20 0xFFFFFFFFFFFFFFFFFFFFFFFFFFFFFFFFFFFFFFFF AND DUP5 PUSH32 0xF6391F5C32D9C69D2A47EA670B442974B53935D1EDC7FD64EB21E047A839171B PUSH1 0x40 MLOAD PUSH1 0x40 MLOAD DUP1 SWAP2 SUB SWAP1 LOG4 PUSH1 0x1 SWAP1 POP PUSH2 0xD86 JUMP JUMPDEST PUSH1 0x0 SWAP1 POP JUMPDEST SWAP3 SWAP2 POP POP JUMP JUMPDEST PUSH2 0xD96 DUP3 DUP3 PUSH2 0x85B JUMP JUMPDEST PUSH2 0xDD9 JUMPI DUP1 DUP3 PUSH1 0x40 MLOAD PUSH32 0xE2517D3F00000000000000000000000000000000000000000000000000000000 DUP2 MSTORE PUSH1 0x4 ADD PUSH2 0xDD0 SWAP3 SWAP2 SWAP1 PUSH2 0x15A7 JUMP JUMPDEST PUSH1 0x40 MLOAD DUP1 SWAP2 SUB SWAP1 REVERT JUMPDEST POP POP JUMP JUMPDEST PUSH1 0x0 DUP2 SWAP1 POP SWAP2 SWAP1 POP JUMP JUMPDEST PUSH2 0xDF0 DUP2 PUSH2 0xDDD JUMP JUMPDEST DUP3 MSTORE POP POP JUMP JUMPDEST PUSH1 0x0 PUSH1 0x20 DUP3 ADD SWAP1 POP PUSH2 0xE0B PUSH1 0x0 DUP4 ADD DUP5 PUSH2 0xDE7 JUMP JUMPDEST SWAP3 SWAP2 POP POP JUMP JUMPDEST PUSH1 0x0 DUP1 REVERT JUMPDEST PUSH1 0x0 PUSH32 0xFFFFFFFF00000000000000000000000000000000000000000000000000000000 DUP3 AND SWAP1 POP SWAP2 SWAP1 POP JUMP JUMPDEST PUSH2 0xE4B DUP2 PUSH2 0xE16 JUMP JUMPDEST DUP2 EQ PUSH2 0xE56 JUMPI PUSH1 0x0 DUP1 REVERT JUMPDEST POP JUMP JUMPDEST PUSH1 0x0 DUP2 CALLDATALOAD SWAP1 POP PUSH2 0xE68 DUP2 PUSH2 0xE42 JUMP JUMPDEST SWAP3 SWAP2 POP POP JUMP JUMPDEST PUSH1 0x0 PUSH1 0x20 DUP3 DUP5 SUB SLT ISZERO PUSH2 0xE84 JUMPI PUSH2 0xE83 PUSH2 0xE11 JUMP JUMPDEST JUMPDEST PUSH1 0x0 PUSH2 0xE92 DUP5 DUP3 DUP6 ADD PUSH2 0xE59 JUMP JUMPDEST SWAP2 POP POP SWAP3 SWAP2 POP POP JUMP JUMPDEST PUSH1 0x0 DUP2 ISZERO ISZERO SWAP1 POP SWAP2 SWAP1 POP JUMP JUMPDEST PUSH2 0xEB0 DUP2 PUSH2 0xE9B JUMP JUMPDEST DUP3 MSTORE POP POP JUMP JUMPDEST PUSH1 0x0 PUSH1 0x20 DUP3 ADD SWAP1 POP PUSH2 0xECB PUSH1 0x0 DUP4 ADD DUP5 PUSH2 0xEA7 JUMP JUMPDEST SWAP3 SWAP2 POP POP JUMP JUMPDEST PUSH2 0xEDA DUP2 PUSH2 0xDDD JUMP JUMPDEST DUP2 EQ PUSH2 0xEE5 JUMPI PUSH1 0x0 DUP1 REVERT JUMPDEST POP JUMP JUMPDEST PUSH1 0x0 DUP2 CALLDATALOAD SWAP1 POP PUSH2 0xEF7 DUP2 PUSH2 0xED1 JUMP JUMPDEST SWAP3 SWAP2 POP POP JUMP JUMPDEST PUSH1 0x0 PUSH1 0x20 DUP3 DUP5 SUB SLT ISZERO PUSH2 0xF13 JUMPI PUSH2 0xF12 PUSH2 0xE11 JUMP JUMPDEST JUMPDEST PUSH1 0x0 PUSH2 0xF21 DUP5 DUP3 DUP6 ADD PUSH2 0xEE8 JUMP JUMPDEST SWAP2 POP POP SWAP3 SWAP2 POP POP JUMP JUMPDEST PUSH1 0x0 PUSH20 0xFFFFFFFFFFFFFFFFFFFFFFFFFFFFFFFFFFFFFFFF DUP3 AND SWAP1 POP SWAP2 SWAP1 POP JUMP JUMPDEST PUSH1 0x0 PUSH2 0xF55 DUP3 PUSH2 0xF2A JUMP JUMPDEST SWAP1 POP SWAP2 SWAP1 POP JUMP JUMPDEST PUSH2 0xF65 DUP2 PUSH2 0xF4A JUMP JUMPDEST DUP2 EQ PUSH2 0xF70 JUMPI PUSH1 0x0 DUP1 REVERT JUMPDEST POP JUMP JUMPDEST PUSH1 0x0 DUP2 CALLDATALOAD SWAP1 POP PUSH2 0xF82 DUP2 PUSH2 0xF5C JUMP JUMPDEST SWAP3 SWAP2 POP POP JUMP JUMPDEST PUSH1 0x0 DUP1 PUSH1 0x40 DUP4 DUP6 SUB SLT ISZERO PUSH2 0xF9F JUMPI PUSH2 0xF9E PUSH2 0xE11 JUMP JUMPDEST JUMPDEST PUSH1 0x0 PUSH2 0xFAD DUP6 DUP3 DUP7 ADD PUSH2 0xEE8 JUMP JUMPDEST SWAP3 POP POP PUSH1 0x20 PUSH2 0xFBE DUP6 DUP3 DUP7 ADD PUSH2 0xF73 JUMP JUMPDEST SWAP2 POP POP SWAP3 POP SWAP3 SWAP1 POP JUMP JUMPDEST PUSH1 0x0 DUP2 SWAP1 POP SWAP2 SWAP1 POP JUMP JUMPDEST PUSH1 0x0 PUSH2 0xFED PUSH2 0xFE8 PUSH2 0xFE3 DUP5 PUSH2 0xF2A JUMP JUMPDEST PUSH2 0xFC8 JUMP JUMPDEST PUSH2 0xF2A JUMP JUMPDEST SWAP1 POP SWAP2 SWAP1 POP JUMP JUMPDEST PUSH1 0x0 PUSH2 0xFFF DUP3 PUSH2 0xFD2 JUMP JUMPDEST SWAP1 POP SWAP2 SWAP1 POP JUMP JUMPDEST PUSH1 0x0 PUSH2 0x1011 DUP3 PUSH2 0xFF4 JUMP JUMPDEST SWAP1 POP SWAP2 SWAP1 POP JUMP JUMPDEST PUSH2 0x1021 DUP2 PUSH2 0x1006 JUMP JUMPDEST DUP3 MSTORE POP POP JUMP JUMPDEST PUSH1 0x0 PUSH1 0x20 DUP3 ADD SWAP1 POP PUSH2 0x103C PUSH1 0x0 DUP4 ADD DUP5 PUSH2 0x1018 JUMP JUMPDEST SWAP3 SWAP2 POP POP JUMP JUMPDEST PUSH1 0x0 DUP2 SWAP1 POP SWAP2 SWAP1 POP JUMP JUMPDEST PUSH2 0x1055 DUP2 PUSH2 0x1042 JUMP JUMPDEST DUP2 EQ PUSH2 0x1060 JUMPI PUSH1 0x0 DUP1 REVERT JUMPDEST POP JUMP JUMPDEST PUSH1 0x0 DUP2 CALLDATALOAD SWAP1 POP PUSH2 0x1072 DUP2 PUSH2 0x104C JUMP JUMPDEST SWAP3 SWAP2 POP POP JUMP JUMPDEST PUSH1 0x0 DUP1 PUSH1 0x40 DUP4 DUP6 SUB SLT ISZERO PUSH2 0x108F JUMPI PUSH2 0x108E PUSH2 0xE11 JUMP JUMPDEST JUMPDEST PUSH1 0x0 PUSH2 0x109D DUP6 DUP3 DUP7 ADD PUSH2 0x1063 JUMP JUMPDEST SWAP3 POP POP PUSH1 0x20 PUSH2 0x10AE DUP6 DUP3 DUP7 ADD PUSH2 0x1063 JUMP JUMPDEST SWAP2 POP POP SWAP3 POP SWAP3 SWAP1 POP JUMP JUMPDEST PUSH1 0x0 PUSH1 0x20 DUP3 DUP5 SUB SLT ISZERO PUSH2 0x10CE JUMPI PUSH2 0x10CD PUSH2 0xE11 JUMP JUMPDEST JUMPDEST PUSH1 0x0 PUSH2 0x10DC DUP5 DUP3 DUP6 ADD PUSH2 0xF73 JUMP JUMPDEST SWAP2 POP POP SWAP3 SWAP2 POP POP JUMP JUMPDEST PUSH1 0x0 PUSH1 0x20 DUP3 DUP5 SUB SLT ISZERO PUSH2 0x10FB JUMPI PUSH2 0x10FA PUSH2 0xE11 JUMP JUMPDEST JUMPDEST PUSH1 0x0 PUSH2 0x1109 DUP5 DUP3 DUP6 ADD PUSH2 0x1063 JUMP JUMPDEST SWAP2 POP POP SWAP3 SWAP2 POP POP JUMP JUMPDEST PUSH2 0x111B DUP2 PUSH2 0x1042 JUMP JUMPDEST DUP3 MSTORE POP POP JUMP JUMPDEST PUSH1 0x0 PUSH1 0x20 DUP3 ADD SWAP1 POP PUSH2 0x1136 PUSH1 0x0 DUP4 ADD DUP5 PUSH2 0x1112 JUMP JUMPDEST SWAP3 SWAP2 POP POP JUMP JUMPDEST PUSH1 0x0 DUP1 PUSH1 0x0 PUSH1 0x60 DUP5 DUP7 SUB SLT ISZERO PUSH2 0x1155 JUMPI PUSH2 0x1154 PUSH2 0xE11 JUMP JUMPDEST JUMPDEST PUSH1 0x0 PUSH2 0x1163 DUP7 DUP3 DUP8 ADD PUSH2 0xF73 JUMP JUMPDEST SWAP4 POP POP PUSH1 0x20 PUSH2 0x1174 DUP7 DUP3 DUP8 ADD PUSH2 0x1063 JUMP JUMPDEST SWAP3 POP POP PUSH1 0x40 PUSH2 0x1185 DUP7 DUP3 DUP8 ADD PUSH2 0x1063 JUMP JUMPDEST SWAP2 POP POP SWAP3 POP SWAP3 POP SWAP3 JUMP JUMPDEST PUSH2 0x1198 DUP2 PUSH2 0xF4A JUMP JUMPDEST DUP3 MSTORE POP POP JUMP JUMPDEST PUSH1 0x0 PUSH1 0xC0 DUP3 ADD SWAP1 POP PUSH2 0x11B3 PUSH1 0x0 DUP4 ADD DUP10 PUSH2 0x1112 JUMP JUMPDEST PUSH2 0x11C0 PUSH1 0x20 DUP4 ADD DUP9 PUSH2 0x118F JUMP JUMPDEST PUSH2 0x11CD PUSH1 0x40 DUP4 ADD DUP8 PUSH2 0x1112 JUMP JUMPDEST PUSH2 0x11DA PUSH1 0x60 DUP4 ADD DUP7 PUSH2 0x1112 JUMP JUMPDEST PUSH2 0x11E7 PUSH1 0x80 DUP4 ADD DUP6 PUSH2 0xEA7 JUMP JUMPDEST PUSH2 0x11F4 PUSH1 0xA0 DUP4 ADD DUP5 PUSH2 0x1112 JUMP JUMPDEST SWAP8 SWAP7 POP POP POP POP POP POP POP JUMP JUMPDEST PUSH1 0x0 PUSH1 0x20 DUP3 ADD SWAP1 POP PUSH2 0x1214 PUSH1 0x0 DUP4 ADD DUP5 PUSH2 0x118F JUMP JUMPDEST SWAP3 SWAP2 POP POP JUMP JUMPDEST PUSH1 0x0 DUP3 DUP3 MSTORE PUSH1 0x20 DUP3 ADD SWAP1 POP SWAP3 SWAP2 POP POP JUMP JUMPDEST PUSH32 0x4C6F616E20616C72656164792064697362757273656400000000000000000000 PUSH1 0x0 DUP3 ADD MSTORE POP JUMP JUMPDEST PUSH1 0x0 PUSH2 0x1261 PUSH1 0x16 DUP4 PUSH2 0x121A JUMP JUMPDEST SWAP2 POP PUSH2 0x126C DUP3 PUSH2 0x122B JUMP JUMPDEST PUSH1 0x20 DUP3 ADD SWAP1 POP SWAP2 SWAP1 POP JUMP JUMPDEST PUSH1 0x0 PUSH1 0x20 DUP3 ADD SWAP1 POP DUP2 DUP2 SUB PUSH1 0x0 DUP4 ADD MSTORE PUSH2 0x1290 DUP2 PUSH2 0x1254 JUMP JUMPDEST SWAP1 POP SWAP2 SWAP1 POP JUMP JUMPDEST PUSH1 0x0 DUP2 MLOAD SWAP1 POP PUSH2 0x12A6 DUP2 PUSH2 0x104C JUMP JUMPDEST SWAP3 SWAP2 POP POP JUMP JUMPDEST PUSH1 0x0 DUP2 MLOAD SWAP1 POP PUSH2 0x12BB DUP2 PUSH2 0xF5C JUMP JUMPDEST SWAP3 SWAP2 POP POP JUMP JUMPDEST PUSH1 0x0 PUSH1 0xFF DUP3 AND SWAP1 POP SWAP2 SWAP1 POP JUMP JUMPDEST PUSH2 0x12D7 DUP2 PUSH2 0x12C1 JUMP JUMPDEST DUP2 EQ PUSH2 0x12E2 JUMPI PUSH1 0x0 DUP1 REVERT JUMPDEST POP JUMP JUMPDEST PUSH1 0x0 DUP2 MLOAD SWAP1 POP PUSH2 0x12F4 DUP2 PUSH2 0x12CE JUMP JUMPDEST SWAP3 SWAP2 POP POP JUMP JUMPDEST PUSH2 0x1303 DUP2 PUSH2 0xE9B JUMP JUMPDEST DUP2 EQ PUSH2 0x130E JUMPI PUSH1 0x0 DUP1 REVERT JUMPDEST POP JUMP JUMPDEST PUSH1 0x0 DUP2 MLOAD SWAP1 POP PUSH2 0x1320 DUP2 PUSH2 0x12FA JUMP JUMPDEST SWAP3 SWAP2 POP POP JUMP JUMPDEST PUSH1 0x0 DUP1 PUSH1 0x0 DUP1 PUSH1 0x0 DUP1 PUSH1 0x0 DUP1 PUSH2 0x100 DUP10 DUP12 SUB SLT ISZERO PUSH2 0x1347 JUMPI PUSH2 0x1346 PUSH2 0xE11 JUMP JUMPDEST JUMPDEST PUSH1 0x0 PUSH2 0x1355 DUP12 DUP3 DUP13 ADD PUSH2 0x1297 JUMP JUMPDEST SWAP9 POP POP PUSH1 0x20 PUSH2 0x1366 DUP12 DUP3 DUP13 ADD PUSH2 0x12AC JUMP JUMPDEST SWAP8 POP POP PUSH1 0x40 PUSH2 0x1377 DUP12 DUP3 DUP13 ADD PUSH2 0x12AC JUMP JUMPDEST SWAP7 POP POP PUSH1 0x60 PUSH2 0x1388 DUP12 DUP3 DUP13 ADD PUSH2 0x12AC JUMP JUMPDEST SWAP6 POP POP PUSH1 0x80 PUSH2 0x1399 DUP12 DUP3 DUP13 ADD PUSH2 0x1297 JUMP JUMPDEST SWAP5 POP POP PUSH1 0xA0 PUSH2 0x13AA DUP12 DUP3 DUP13 ADD PUSH2 0x1297 JUMP JUMPDEST SWAP4 POP POP PUSH1 0xC0 PUSH2 0x13BB DUP12 DUP3 DUP13 ADD PUSH2 0x12E5 JUMP JUMPDEST SWAP3 POP POP PUSH1 0xE0 PUSH2 0x13CC DUP12 DUP3 DUP13 ADD PUSH2 0x1311 JUMP JUMPDEST SWAP2 POP POP SWAP3 SWAP6 SWAP9 POP SWAP3 SWAP6 SWAP9 SWAP1 SWAP4 SWAP7 POP JUMP JUMPDEST PUSH32 0x4C6F616E20696E73756666696369656E7420666F72207472616E73616374696F PUSH1 0x0 DUP3 ADD MSTORE PUSH32 0x6E00000000000000000000000000000000000000000000000000000000000000 PUSH1 0x20 DUP3 ADD MSTORE POP JUMP JUMPDEST PUSH1 0x0 PUSH2 0x1438 PUSH1 0x21 DUP4 PUSH2 0x121A JUMP JUMPDEST SWAP2 POP PUSH2 0x1443 DUP3 PUSH2 0x13DC JUMP JUMPDEST PUSH1 0x40 DUP3 ADD SWAP1 POP SWAP2 SWAP1 POP JUMP JUMPDEST PUSH1 0x0 PUSH1 0x20 DUP3 ADD SWAP1 POP DUP2 DUP2 SUB PUSH1 0x0 DUP4 ADD MSTORE PUSH2 0x1467 DUP2 PUSH2 0x142B JUMP JUMPDEST SWAP1 POP SWAP2 SWAP1 POP JUMP JUMPDEST PUSH1 0x0 PUSH1 0x40 DUP3 ADD SWAP1 POP PUSH2 0x1483 PUSH1 0x0 DUP4 ADD DUP6 PUSH2 0x118F JUMP JUMPDEST PUSH2 0x1490 PUSH1 0x20 DUP4 ADD DUP5 PUSH2 0x1112 JUMP JUMPDEST SWAP4 SWAP3 POP POP POP JUMP JUMPDEST PUSH1 0x0 PUSH1 0x20 DUP3 DUP5 SUB SLT ISZERO PUSH2 0x14AD JUMPI PUSH2 0x14AC PUSH2 0xE11 JUMP JUMPDEST JUMPDEST PUSH1 0x0 PUSH2 0x14BB DUP5 DUP3 DUP6 ADD PUSH2 0x1311 JUMP JUMPDEST SWAP2 POP POP SWAP3 SWAP2 POP POP JUMP JUMPDEST PUSH32 0x417070726F76616C206661696C65640000000000000000000000000000000000 PUSH1 0x0 DUP3 ADD MSTORE POP JUMP JUMPDEST PUSH1 0x0 PUSH2 0x14FA PUSH1 0xF DUP4 PUSH2 0x121A JUMP JUMPDEST SWAP2 POP PUSH2 0x1505 DUP3 PUSH2 0x14C4 JUMP JUMPDEST PUSH1 0x20 DUP3 ADD SWAP1 POP SWAP2 SWAP1 POP JUMP JUMPDEST PUSH1 0x0 PUSH1 0x20 DUP3 ADD SWAP1 POP DUP2 DUP2 SUB PUSH1 0x0 DUP4 ADD MSTORE PUSH2 0x1529 DUP2 PUSH2 0x14ED JUMP JUMPDEST SWAP1 POP SWAP2 SWAP1 POP JUMP JUMPDEST PUSH32 0x4E487B7100000000000000000000000000000000000000000000000000000000 PUSH1 0x0 MSTORE PUSH1 0x11 PUSH1 0x4 MSTORE PUSH1 0x24 PUSH1 0x0 REVERT JUMPDEST PUSH1 0x0 PUSH2 0x156A DUP3 PUSH2 0x1042 JUMP JUMPDEST SWAP2 POP PUSH32 0xFFFFFFFFFFFFFFFFFFFFFFFFFFFFFFFFFFFFFFFFFFFFFFFFFFFFFFFFFFFFFFFF DUP3 SUB PUSH2 0x159C JUMPI PUSH2 0x159B PUSH2 0x1530 JUMP JUMPDEST JUMPDEST PUSH1 0x1 DUP3 ADD SWAP1 POP SWAP2 SWAP1 POP JUMP JUMPDEST PUSH1 0x0 PUSH1 0x40 DUP3 ADD SWAP1 POP PUSH2 0x15BC PUSH1 0x0 DUP4 ADD DUP6 PUSH2 0x118F JUMP JUMPDEST PUSH2 0x15C9 PUSH1 0x20 DUP4 ADD DUP5 PUSH2 0xDE7 JUMP JUMPDEST SWAP4 SWAP3 POP POP POP JUMP INVALID LOG2 PUSH5 0x6970667358 0x22 SLT KECCAK256 SWAP7 PUSH22 0xAE12D1DD98A4809F1C086FD12D4E99A809199CD06AC8 0xE DUP1 0xD6 TIMESTAMP SELFDESTRUCT MSTORE CHAINID LOG2 PUSH5 0x736F6C6343 STOP ADDMOD EQ STOP CALLER "},"methodIdentifiers":{"DEFAULT_ADMIN_ROLE()":"a217fddf","LENDER_ROLE()":"00abafe1","approveLoan(address,uint256,uint256)":"e08d8573","disburseToEscrow(uint256,uint256)":"7044d098","escrowContract()":"e42a96e7","escrowToLoan(uint256)":"ae0c9a4f","getRoleAdmin(bytes32)":"248a9ca3","grantRole(bytes32,address)":"2f2ff15d","hasRole(bytes32,address)":"91d14854","loans(uint256)":"e1ec3c68","paymentToken()":"3013ce29","renounceRole(bytes32,address)":"36568abe","revokeRole(bytes32,address)":"d547741f","supportsInterface(bytes4)":"01ffc9a7","updateEscrow(address)":"8b6a101a"}}}}}