{"contracts/OzcarReputation.sol":{"OzcarReputation":{"abi":[{"inputs":[{"internalType":"address","name":"initialOwner","type":"address"},{"internalType":"address","name":"_token","type":"address"}],"stateMutability":"nonpayable","type":"constructor"},{"inputs":[{"internalType":"address","name":"owner","type":"address"}],"name":"OwnableInvalidOwner","type":"error"},{"inputs":[{"internalType":"address","name":"account","type":"address"}],"name":"OwnableUnauthorizedAccount","type":"error"},{"anonymous":false,"inputs":[{"indexed":true,"internalType":"address","name":"previousOwner","type":"address"},{"indexed":true,"internalType":"address","name":"newOwner","type":"address"}],"name":"OwnershipTransferred","type":"event"},{"anonymous":false,"inputs":[{"indexed":true,"internalType":"address","name":"technician","type":"address"},{"indexed":false,"internalType":"uint256","name":"newScore","type":"uint256"}],"name":"ReputationUpdated","type":"event"},{"anonymous":false,"inputs":[{"indexed":true,"internalType":"address","name":"technician","type":"address"},{"indexed":false,"internalType":"uint256","name":"severity","type":"uint256"}],"name":"Slashed","type":"event"},{"anonymous":false,"inputs":[{"indexed":true,"internalType":"address","name":"technician","type":"address"},{"indexed":false,"internalType":"uint256","name":"amount","type":"uint256"}],"name":"Staked","type":"event"},{"anonymous":false,"inputs":[{"indexed":true,"internalType":"address","name":"technician","type":"address"},{"indexed":false,"internalType":"uint256","name":"amount","type":"uint256"}],"name":"Unstaked","type":"event"},{"inputs":[],"name":"MAX_STAKE_CAP","outputs":[{"internalType":"uint256","name":"","type":"uint256"}],"stateMutability":"view","type":"function"},{"inputs":[{"internalType":"address","name":"_tech","type":"address"}],"name":"calculateReputation","outputs":[],"stateMutability":"nonpayable","type":"function"},{"inputs":[],"name":"owner","outputs":[{"internalType":"address","name":"","type":"address"}],"stateMutability":"view","type":"function"},{"inputs":[],"name":"ozcToken","outputs":[{"internalType":"contract IERC20","name":"","type":"address"}],"stateMutability":"view","type":"function"},{"inputs":[],"name":"renounceOwnership","outputs":[],"stateMutability":"nonpayable","type":"function"},{"inputs":[{"internalType":"address","name":"_tech","type":"address"},{"internalType":"uint256","name":"_severity","type":"uint256"}],"name":"slash","outputs":[],"stateMutability":"nonpayable","type":"function"},{"inputs":[{"internalType":"uint256","name":"_amount","type":"uint256"}],"name":"stake","outputs":[],"stateMutability":"nonpayable","type":"function"},{"inputs":[{"internalType":"address","name":"","type":"address"}],"name":"technicians","outputs":[{"internalType":"uint256","name":"consistencyScore","type":"uint256"},{"internalType":"uint256","name":"participationScore","type":"uint256"},{"internalType":"uint256","name":"juryScore","type":"uint256"},{"internalType":"uint256","name":"tokenStake","type":"uint256"},{"internalType":"uint256","name":"totalReputation","type":"uint256"},{"internalType":"bool","name":"isBlacklisted","type":"bool"}],"stateMutability":"view","type":"function"},{"inputs":[{"internalType":"address","name":"newOwner","type":"address"}],"name":"transferOwnership","outputs":[],"stateMutability":"nonpayable","type":"function"},{"inputs":[{"internalType":"uint256","name":"_amount","type":"uint256"}],"name":"unstake","outputs":[],"stateMutability":"nonpayable","type":"function"},{"inputs":[{"internalType":"address","name":"_tech","type":"address"},{"internalType":"uint256","name":"_d","type":"uint256"},{"internalType":"uint256","name":"_p","type":"uint256"},{"internalType":"uint256","name":"_j","type":"uint256"},{"internalType":"uint256","name":"_t","type":"uint256"}],"name":"updateStats","outputs":[],"stateMutability":"nonpayable","type":"function"}],"evm":{"bytecode":{"linkReferences":{},"object":"60806040523480156200001157600080fd5b506040516200170e3803806200170e833981810160405281019062000037919062000236565b81600073ffffffffffffffffffffffffffffffffffffffff168173ffffffffffffffffffffffffffffffffffffffff1603620000ad5760006040517f1e4fbdf7000000000000000000000000000000000000000000000000000000008152600401620000a491906200028e565b60405180910390fd5b620000be816200010860201b60201c565b5080600160006101000a81548173ffffffffffffffffffffffffffffffffffffffff021916908373ffffffffffffffffffffffffffffffffffffffff1602179055505050620002ab565b60008060009054906101000a900473ffffffffffffffffffffffffffffffffffffffff169050816000806101000a81548173ffffffffffffffffffffffffffffffffffffffff021916908373ffffffffffffffffffffffffffffffffffffffff1602179055508173ffffffffffffffffffffffffffffffffffffffff168173ffffffffffffffffffffffffffffffffffffffff167f8be0079c531659141344cd1fd0a4f28419497f9722a3daafe3b4186f6b6457e060405160405180910390a35050565b600080fd5b600073ffffffffffffffffffffffffffffffffffffffff82169050919050565b6000620001fe82620001d1565b9050919050565b6200021081620001f1565b81146200021c57600080fd5b50565b600081519050620002308162000205565b92915050565b6000806040838503121562000250576200024f620001cc565b5b600062000260858286016200021f565b925050602062000273858286016200021f565b9150509250929050565b6200028881620001f1565b82525050565b6000602082019050620002a560008301846200027d565b92915050565b61145380620002bb6000396000f3fe608060405234801561001057600080fd5b50600436106100a95760003560e01c8063715018a611610071578063715018a61461013c5780638da5cb5b1461014657806398bf9a5d14610164578063a694fc3a14610199578063bb6846e6146101b5578063f2fde38b146101d3576100a9565b806302fb4d85146100ae5780631241a45a146100ca57806327c06fd5146100e65780632e17de78146101025780635e06ac601461011e575b600080fd5b6100c860048036038101906100c39190610d33565b6101ef565b005b6100e460048036038101906100df9190610d73565b610394565b005b61010060048036038101906100fb9190610dee565b61049f565b005b61011c60048036038101906101179190610e1b565b610619565b005b610126610830565b6040516101339190610e57565b60405180910390f35b61014461083e565b005b61014e610852565b60405161015b9190610e81565b60405180910390f35b61017e60048036038101906101799190610dee565b61087b565b60405161019096959493929190610eb7565b60405180910390f35b6101b360048036038101906101ae9190610e1b565b6108c4565b005b6101bd610a9b565b6040516101ca9190610f77565b60405180910390f35b6101ed60048036038101906101e89190610dee565b610ac1565b005b6101f7610852565b73ffffffffffffffffffffffffffffffffffffffff163373ffffffffffffffffffffffffffffffffffffffff1614610264576040517f08c379a000000000000000000000000000000000000000000000000000000000815260040161025b90610fef565b60405180910390fd5b60648111156102a8576040517f08c379a000000000000000000000000000000000000000000000000000000000815260040161029f9061105b565b60405180910390fd5b6000600260008473ffffffffffffffffffffffffffffffffffffffff1673ffffffffffffffffffffffffffffffffffffffff168152602001908152602001600020905060648260646102fa91906110aa565b826004015461030991906110de565b610313919061114f565b8160040181905550605a82106103415760018160050160006101000a81548160ff0219169083151502179055505b8273ffffffffffffffffffffffffffffffffffffffff167f4ed05e9673c26d2ed44f7ef6a7f2942df0ee3b5e1e17db4b99f9dcd261a339cd836040516103879190610e57565b60405180910390a2505050565b61039c610852565b73ffffffffffffffffffffffffffffffffffffffff163373ffffffffffffffffffffffffffffffffffffffff1614610409576040517f08c379a000000000000000000000000000000000000000000000000000000000815260040161040090610fef565b60405180910390fd5b6000600260008773ffffffffffffffffffffffffffffffffffffffff1673ffffffffffffffffffffffffffffffffffffffff16815260200190815260200160002090508060050160009054906101000a900460ff16156104695750610498565b8481600001819055508381600101819055508281600201819055508181600301819055506104968661049f565b505b5050505050565b6000600260008373ffffffffffffffffffffffffffffffffffffffff1673ffffffffffffffffffffffffffffffffffffffff168152602001908152602001600020905060006064600a83600201546104f791906110de565b6014846001015461050891906110de565b6028856000015461051991906110de565b6105239190611180565b61052d9190611180565b610537919061114f565b90506000606460468361054a91906110de565b610554919061114f565b9050600069021e19e0c9bab24000006064856003015461057491906110de565b61057e919061114f565b9050606481111561058e57606490505b60006064601e8361059f91906110de565b6105a9919061114f565b905080836105b79190611180565b85600401819055508573ffffffffffffffffffffffffffffffffffffffff167ffc577563f1b9a0461e24abef1e1fcc0d33d3d881f20b5df6dda59de4aae2c82186600401546040516106099190610e57565b60405180910390a2505050505050565b80600260003373ffffffffffffffffffffffffffffffffffffffff1673ffffffffffffffffffffffffffffffffffffffff16815260200190815260200160002060030154101561069e576040517f08c379a000000000000000000000000000000000000000000000000000000000815260040161069590611200565b60405180910390fd5b80600260003373ffffffffffffffffffffffffffffffffffffffff1673ffffffffffffffffffffffffffffffffffffffff16815260200190815260200160002060030160008282546106f091906110aa565b92505081905550600160009054906101000a900473ffffffffffffffffffffffffffffffffffffffff1673ffffffffffffffffffffffffffffffffffffffff1663a9059cbb33836040518363ffffffff1660e01b8152600401610754929190611220565b6020604051808303816000875af1158015610773573d6000803e3d6000fd5b505050506040513d601f19601f820116820180604052508101906107979190611275565b6107d6576040517f08c379a00000000000000000000000000000000000000000000000000000000081526004016107cd906112ee565b60405180910390fd5b6107df3361049f565b3373ffffffffffffffffffffffffffffffffffffffff167f0f5bb82176feb1b5e747e28471aa92156a04d9f3ab9f45f28e2d704232b93f75826040516108259190610e57565b60405180910390a250565b69021e19e0c9bab240000081565b610846610b47565b6108506000610bce565b565b60008060009054906101000a900473ffffffffffffffffffffffffffffffffffffffff16905090565b60026020528060005260406000206000915090508060000154908060010154908060020154908060030154908060040154908060050160009054906101000a900460ff16905086565b60008111610907576040517f08c379a00000000000000000000000000000000000000000000000000000000081526004016108fe9061135a565b60405180910390fd5b600160009054906101000a900473ffffffffffffffffffffffffffffffffffffffff1673ffffffffffffffffffffffffffffffffffffffff166323b872dd3330846040518463ffffffff1660e01b81526004016109669392919061137a565b6020604051808303816000875af1158015610985573d6000803e3d6000fd5b505050506040513d601f19601f820116820180604052508101906109a99190611275565b6109e8576040517f08c379a00000000000000000000000000000000000000000000000000000000081526004016109df906113fd565b60405180910390fd5b80600260003373ffffffffffffffffffffffffffffffffffffffff1673ffffffffffffffffffffffffffffffffffffffff1681526020019081526020016000206003016000828254610a3a9190611180565b92505081905550610a4a3361049f565b3373ffffffffffffffffffffffffffffffffffffffff167f9e71bc8eea02a63969f509818f2dafb9254532904319f9dbda79b67bd34a5f3d82604051610a909190610e57565b60405180910390a250565b600160009054906101000a900473ffffffffffffffffffffffffffffffffffffffff1681565b610ac9610b47565b600073ffffffffffffffffffffffffffffffffffffffff168173ffffffffffffffffffffffffffffffffffffffff1603610b3b5760006040517f1e4fbdf7000000000000000000000000000000000000000000000000000000008152600401610b329190610e81565b60405180910390fd5b610b4481610bce565b50565b610b4f610c92565b73ffffffffffffffffffffffffffffffffffffffff16610b6d610852565b73ffffffffffffffffffffffffffffffffffffffff1614610bcc57610b90610c92565b6040517f118cdaa7000000000000000000000000000000000000000000000000000000008152600401610bc39190610e81565b60405180910390fd5b565b60008060009054906101000a900473ffffffffffffffffffffffffffffffffffffffff169050816000806101000a81548173ffffffffffffffffffffffffffffffffffffffff021916908373ffffffffffffffffffffffffffffffffffffffff1602179055508173ffffffffffffffffffffffffffffffffffffffff168173ffffffffffffffffffffffffffffffffffffffff167f8be0079c531659141344cd1fd0a4f28419497f9722a3daafe3b4186f6b6457e060405160405180910390a35050565b600033905090565b600080fd5b600073ffffffffffffffffffffffffffffffffffffffff82169050919050565b6000610cca82610c9f565b9050919050565b610cda81610cbf565b8114610ce557600080fd5b50565b600081359050610cf781610cd1565b92915050565b6000819050919050565b610d1081610cfd565b8114610d1b57600080fd5b50565b600081359050610d2d81610d07565b92915050565b60008060408385031215610d4a57610d49610c9a565b5b6000610d5885828601610ce8565b9250506020610d6985828601610d1e565b9150509250929050565b600080600080600060a08688031215610d8f57610d8e610c9a565b5b6000610d9d88828901610ce8565b9550506020610dae88828901610d1e565b9450506040610dbf88828901610d1e565b9350506060610dd088828901610d1e565b9250506080610de188828901610d1e565b9150509295509295909350565b600060208284031215610e0457610e03610c9a565b5b6000610e1284828501610ce8565b91505092915050565b600060208284031215610e3157610e30610c9a565b5b6000610e3f84828501610d1e565b91505092915050565b610e5181610cfd565b82525050565b6000602082019050610e6c6000830184610e48565b92915050565b610e7b81610cbf565b82525050565b6000602082019050610e966000830184610e72565b92915050565b60008115159050919050565b610eb181610e9c565b82525050565b600060c082019050610ecc6000830189610e48565b610ed96020830188610e48565b610ee66040830187610e48565b610ef36060830186610e48565b610f006080830185610e48565b610f0d60a0830184610ea8565b979650505050505050565b6000819050919050565b6000610f3d610f38610f3384610c9f565b610f18565b610c9f565b9050919050565b6000610f4f82610f22565b9050919050565b6000610f6182610f44565b9050919050565b610f7181610f56565b82525050565b6000602082019050610f8c6000830184610f68565b92915050565b600082825260208201905092915050565b7f43616c6c6572206973206e6f7420617574686f72697a65640000000000000000600082015250565b6000610fd9601883610f92565b9150610fe482610fa3565b602082019050919050565b6000602082019050818103600083015261100881610fcc565b9050919050565b7f5365766572697479203e20313030000000000000000000000000000000000000600082015250565b6000611045600e83610f92565b91506110508261100f565b602082019050919050565b6000602082019050818103600083015261107481611038565b9050919050565b7f4e487b7100000000000000000000000000000000000000000000000000000000600052601160045260246000fd5b60006110b582610cfd565b91506110c083610cfd565b92508282039050818111156110d8576110d761107b565b5b92915050565b60006110e982610cfd565b91506110f483610cfd565b925082820261110281610cfd565b915082820484148315176111195761111861107b565b5b5092915050565b7f4e487b7100000000000000000000000000000000000000000000000000000000600052601260045260246000fd5b600061115a82610cfd565b915061116583610cfd565b92508261117557611174611120565b5b828204905092915050565b600061118b82610cfd565b915061119683610cfd565b92508282019050808211156111ae576111ad61107b565b5b92915050565b7f496e73756666696369656e74207374616b650000000000000000000000000000600082015250565b60006111ea601283610f92565b91506111f5826111b4565b602082019050919050565b60006020820190508181036000830152611219816111dd565b9050919050565b60006040820190506112356000830185610e72565b6112426020830184610e48565b9392505050565b61125281610e9c565b811461125d57600080fd5b50565b60008151905061126f81611249565b92915050565b60006020828403121561128b5761128a610c9a565b5b600061129984828501611260565b91505092915050565b7f556e7374616b65207472616e73666572206661696c6564000000000000000000600082015250565b60006112d8601783610f92565b91506112e3826112a2565b602082019050919050565b60006020820190508181036000830152611307816112cb565b9050919050565b7f416d6f756e74206d757374206265203e20300000000000000000000000000000600082015250565b6000611344601283610f92565b915061134f8261130e565b602082019050919050565b6000602082019050818103600083015261137381611337565b9050919050565b600060608201905061138f6000830186610e72565b61139c6020830185610e72565b6113a96040830184610e48565b949350505050565b7f5374616b65207472616e73666572206661696c65640000000000000000000000600082015250565b60006113e7601583610f92565b91506113f2826113b1565b602082019050919050565b60006020820190508181036000830152611416816113da565b905091905056fea264697066735822122044313044ecd66a519508b3b7889b7ab45d60f6c1ebcb3232c38ff9f93599a3cb64736f6c63430008140033","opcodes":"PUSH1 0x80 PUSH1 0x40 MSTORE CALLVALUE DUP1 ISZERO PUSH3 0x11 JUMPI PUSH1 0x0 DUP1 REVERT JUMPDEST POP PUSH1 0x40 MLOAD PUSH3 0x170E CODESIZE SUB DUP1 PUSH3 0x170E DUP4 CODECOPY DUP2 DUP2 ADD PUSH1 0x40 MSTORE DUP2 ADD SWAP1 PUSH3 0x37 SWAP2 SWAP1 PUSH3 0x236 JUMP JUMPDEST DUP2 PUSH1 0x0 PUSH20 0xFFFFFFFFFFFFFFFFFFFFFFFFFFFFFFFFFFFFFFFF AND DUP2 PUSH20 0xFFFFFFFFFFFFFFFFFFFFFFFFFFFFFFFFFFFFFFFF AND SUB PUSH3 0xAD JUMPI PUSH1 0x0 PUSH1 0x40 MLOAD PUSH32 0x1E4FBDF700000000000000000000000000000000000000000000000000000000 DUP2 MSTORE PUSH1 0x4 ADD PUSH3 0xA4 SWAP2 SWAP1 PUSH3 0x28E JUMP JUMPDEST PUSH1 0x40 MLOAD DUP1 SWAP2 SUB SWAP1 REVERT JUMPDEST PUSH3 0xBE DUP2 PUSH3 0x108 PUSH1 0x20 SHL PUSH1 0x20 SHR JUMP JUMPDEST POP DUP1 PUSH1 0x1 PUSH1 0x0 PUSH2 0x100 EXP DUP2 SLOAD DUP2 PUSH20 0xFFFFFFFFFFFFFFFFFFFFFFFFFFFFFFFFFFFFFFFF MUL NOT AND SWAP1 DUP4 PUSH20 0xFFFFFFFFFFFFFFFFFFFFFFFFFFFFFFFFFFFFFFFF AND MUL OR SWAP1 SSTORE POP POP POP PUSH3 0x2AB JUMP JUMPDEST PUSH1 0x0 DUP1 PUSH1 0x0 SWAP1 SLOAD SWAP1 PUSH2 0x100 EXP SWAP1 DIV PUSH20 0xFFFFFFFFFFFFFFFFFFFFFFFFFFFFFFFFFFFFFFFF AND SWAP1 POP DUP2 PUSH1 0x0 DUP1 PUSH2 0x100 EXP DUP2 SLOAD DUP2 PUSH20 0xFFFFFFFFFFFFFFFFFFFFFFFFFFFFFFFFFFFFFFFF MUL NOT AND SWAP1 DUP4 PUSH20 0xFFFFFFFFFFFFFFFFFFFFFFFFFFFFFFFFFFFFFFFF AND MUL OR SWAP1 SSTORE POP DUP2 PUSH20 0xFFFFFFFFFFFFFFFFFFFFFFFFFFFFFFFFFFFFFFFF AND DUP2 PUSH20 0xFFFFFFFFFFFFFFFFFFFFFFFFFFFFFFFFFFFFFFFF AND PUSH32 0x8BE0079C531659141344CD1FD0A4F28419497F9722A3DAAFE3B4186F6B6457E0 PUSH1 0x40 MLOAD PUSH1 0x40 MLOAD DUP1 SWAP2 SUB SWAP1 LOG3 POP POP JUMP JUMPDEST PUSH1 0x0 DUP1 REVERT JUMPDEST PUSH1 0x0 PUSH20 0xFFFFFFFFFFFFFFFFFFFFFFFFFFFFFFFFFFFFFFFF DUP3 AND SWAP1 POP SWAP2 SWAP1 POP JUMP JUMPDEST PUSH1 0x0 PUSH3 0x1FE DUP3 PUSH3 0x1D1 JUMP JUMPDEST SWAP1 POP SWAP2 SWAP1 POP JUMP JUMPDEST PUSH3 0x210 DUP2 PUSH3 0x1F1 JUMP JUMPDEST DUP2 EQ PUSH3 0x21C JUMPI PUSH1 0x0 DUP1 REVERT JUMPDEST POP JUMP JUMPDEST PUSH1 0x0 DUP2 MLOAD SWAP1 POP PUSH3 0x230 DUP2 PUSH3 0x205 JUMP JUMPDEST SWAP3 SWAP2 POP POP JUMP JUMPDEST PUSH1 0x0 DUP1 PUSH1 0x40 DUP4 DUP6 SUB SLT ISZERO PUSH3 0x250 JUMPI PUSH3 0x24F PUSH3 0x1CC JUMP JUMPDEST JUMPDEST PUSH1 0x0 PUSH3 0x260 DUP6 DUP3 DUP7 ADD PUSH3 0x21F JUMP JUMPDEST SWAP3 POP POP PUSH1 0x20 PUSH3 0x273 DUP6 DUP3 DUP7 ADD PUSH3 0x21F JUMP JUMPDEST SWAP2 POP POP SWAP3 POP SWAP3 SWAP1 POP JUMP JUMPDEST PUSH3 0x288 DUP2 PUSH3 0x1F1 JUMP JUMPDEST DUP3 MSTORE POP POP JUMP JUMPDEST PUSH1 0x0 PUSH1 0x20 DUP3 ADD SWAP1 POP PUSH3 0x2A5 PUSH1 0x0 DUP4 ADD DUP5 PUSH3 0x27D JUMP JUMPDEST SWAP3 SWAP2 POP POP JUMP JUMPDEST PUSH2 0x1453 DUP1 PUSH3 0x2BB PUSH1 0x0 CODECOPY PUSH1 0x0 RETURN INVALID PUSH1 0x80 PUSH1 0x40 MSTORE CALLVALUE DUP1 ISZERO PUSH2 0x10 JUMPI PUSH1 0x0 DUP1 REVERT JUMPDEST POP PUSH1 0x4 CALLDATASIZE LT PUSH2 0xA9 JUMPI PUSH1 0x0 CALLDATALOAD PUSH1 0xE0 SHR DUP1 PUSH4 0x715018A6 GT PUSH2 0x71 JUMPI DUP1 PUSH4 0x715018A6 EQ PUSH2 0x13C JUMPI DUP1 PUSH4 0x8DA5CB5B EQ PUSH2 0x146 JUMPI DUP1 PUSH4 0x98BF9A5D EQ PUSH2 0x164 JUMPI DUP1 PUSH4 0xA694FC3A EQ PUSH2 0x199 JUMPI DUP1 PUSH4 0xBB6846E6 EQ PUSH2 0x1B5 JUMPI DUP1 PUSH4 0xF2FDE38B EQ PUSH2 0x1D3 JUMPI PUSH2 0xA9 JUMP JUMPDEST DUP1 PUSH4 0x2FB4D85 EQ PUSH2 0xAE JUMPI DUP1 PUSH4 0x1241A45A EQ PUSH2 0xCA JUMPI DUP1 PUSH4 0x27C06FD5 EQ PUSH2 0xE6 JUMPI DUP1 PUSH4 0x2E17DE78 EQ PUSH2 0x102 JUMPI DUP1 PUSH4 0x5E06AC60 EQ PUSH2 0x11E JUMPI JUMPDEST PUSH1 0x0 DUP1 REVERT JUMPDEST PUSH2 0xC8 PUSH1 0x4 DUP1 CALLDATASIZE SUB DUP2 ADD SWAP1 PUSH2 0xC3 SWAP2 SWAP1 PUSH2 0xD33 JUMP JUMPDEST PUSH2 0x1EF JUMP JUMPDEST STOP JUMPDEST PUSH2 0xE4 PUSH1 0x4 DUP1 CALLDATASIZE SUB DUP2 ADD SWAP1 PUSH2 0xDF SWAP2 SWAP1 PUSH2 0xD73 JUMP JUMPDEST PUSH2 0x394 JUMP JUMPDEST STOP JUMPDEST PUSH2 0x100 PUSH1 0x4 DUP1 CALLDATASIZE SUB DUP2 ADD SWAP1 PUSH2 0xFB SWAP2 SWAP1 PUSH2 0xDEE JUMP JUMPDEST PUSH2 0x49F JUMP JUMPDEST STOP JUMPDEST PUSH2 0x11C PUSH1 0x4 DUP1 CALLDATASIZE SUB DUP2 ADD SWAP1 PUSH2 0x117 SWAP2 SWAP1 PUSH2 0xE1B JUMP JUMPDEST PUSH2 0x619 JUMP JUMPDEST STOP JUMPDEST PUSH2 0x126 PUSH2 0x830 JUMP JUMPDEST PUSH1 0x40 MLOAD PUSH2 0x133 SWAP2 SWAP1 PUSH2 0xE57 JUMP JUMPDEST PUSH1 0x40 MLOAD DUP1 SWAP2 SUB SWAP1 RETURN JUMPDEST PUSH2 0x144 PUSH2 0x83E JUMP JUMPDEST STOP JUMPDEST PUSH2 0x14E PUSH2 0x852 JUMP JUMPDEST PUSH1 0x40 MLOAD PUSH2 0x15B SWAP2 SWAP1 PUSH2 0xE81 JUMP JUMPDEST PUSH1 0x40 MLOAD DUP1 SWAP2 SUB SWAP1 RETURN JUMPDEST PUSH2 0x17E PUSH1 0x4 DUP1 CALLDATASIZE SUB DUP2 ADD SWAP1 PUSH2 0x179 SWAP2 SWAP1 PUSH2 0xDEE JUMP JUMPDEST PUSH2 0x87B JUMP JUMPDEST PUSH1 0x40 MLOAD PUSH2 0x190 SWAP7 SWAP6 SWAP5 SWAP4 SWAP3 SWAP2 SWAP1 PUSH2 0xEB7 JUMP JUMPDEST PUSH1 0x40 MLOAD DUP1 SWAP2 SUB SWAP1 RETURN JUMPDEST PUSH2 0x1B3 PUSH1 0x4 DUP1 CALLDATASIZE SUB DUP2 ADD SWAP1 PUSH2 0x1AE SWAP2 SWAP1 PUSH2 0xE1B JUMP JUMPDEST PUSH2 0x8C4 JUMP JUMPDEST STOP JUMPDEST PUSH2 0x1BD PUSH2 0xA9B JUMP JUMPDEST PUSH1 0x40 MLOAD PUSH2 0x1CA SWAP2 SWAP1 PUSH2 0xF77 JUMP JUMPDEST PUSH1 0x40 MLOAD DUP1 SWAP2 SUB SWAP1 RETURN JUMPDEST PUSH2 0x1ED PUSH1 0x4 DUP1 CALLDATASIZE SUB DUP2 ADD SWAP1 PUSH2 0x1E8 SWAP2 SWAP1 PUSH2 0xDEE JUMP JUMPDEST PUSH2 0xAC1 JUMP JUMPDEST STOP JUMPDEST PUSH2 0x1F7 PUSH2 0x852 JUMP JUMPDEST PUSH20 0xFFFFFFFFFFFFFFFFFFFFFFFFFFFFFFFFFFFFFFFF AND CALLER PUSH20 0xFFFFFFFFFFFFFFFFFFFFFFFFFFFFFFFFFFFFFFFF AND EQ PUSH2 0x264 JUMPI PUSH1 0x40 MLOAD PUSH32 0x8C379A000000000000000000000000000000000000000000000000000000000 DUP2 MSTORE PUSH1 0x4 ADD PUSH2 0x25B SWAP1 PUSH2 0xFEF JUMP JUMPDEST PUSH1 0x40 MLOAD DUP1 SWAP2 SUB SWAP1 REVERT JUMPDEST PUSH1 0x64 DUP2 GT ISZERO PUSH2 0x2A8 JUMPI PUSH1 0x40 MLOAD PUSH32 0x8C379A000000000000000000000000000000000000000000000000000000000 DUP2 MSTORE PUSH1 0x4 ADD PUSH2 0x29F SWAP1 PUSH2 0x105B JUMP JUMPDEST PUSH1 0x40 MLOAD DUP1 SWAP2 SUB SWAP1 REVERT JUMPDEST PUSH1 0x0 PUSH1 0x2 PUSH1 0x0 DUP5 PUSH20 0xFFFFFFFFFFFFFFFFFFFFFFFFFFFFFFFFFFFFFFFF AND PUSH20 0xFFFFFFFFFFFFFFFFFFFFFFFFFFFFFFFFFFFFFFFF AND DUP2 MSTORE PUSH1 0x20 ADD SWAP1 DUP2 MSTORE PUSH1 0x20 ADD PUSH1 0x0 KECCAK256 SWAP1 POP PUSH1 0x64 DUP3 PUSH1 0x64 PUSH2 0x2FA SWAP2 SWAP1 PUSH2 0x10AA JUMP JUMPDEST DUP3 PUSH1 0x4 ADD SLOAD PUSH2 0x309 SWAP2 SWAP1 PUSH2 0x10DE JUMP JUMPDEST PUSH2 0x313 SWAP2 SWAP1 PUSH2 0x114F JUMP JUMPDEST DUP2 PUSH1 0x4 ADD DUP2 SWAP1 SSTORE POP PUSH1 0x5A DUP3 LT PUSH2 0x341 JUMPI PUSH1 0x1 DUP2 PUSH1 0x5 ADD PUSH1 0x0 PUSH2 0x100 EXP DUP2 SLOAD DUP2 PUSH1 0xFF MUL NOT AND SWAP1 DUP4 ISZERO ISZERO MUL OR SWAP1 SSTORE POP JUMPDEST DUP3 PUSH20 0xFFFFFFFFFFFFFFFFFFFFFFFFFFFFFFFFFFFFFFFF AND PUSH32 0x4ED05E9673C26D2ED44F7EF6A7F2942DF0EE3B5E1E17DB4B99F9DCD261A339CD DUP4 PUSH1 0x40 MLOAD PUSH2 0x387 SWAP2 SWAP1 PUSH2 0xE57 JUMP JUMPDEST PUSH1 0x40 MLOAD DUP1 SWAP2 SUB SWAP1 LOG2 POP POP POP JUMP JUMPDEST PUSH2 0x39C PUSH2 0x852 JUMP JUMPDEST PUSH20 0xFFFFFFFFFFFFFFFFFFFFFFFFFFFFFFFFFFFFFFFF AND CALLER PUSH20 0xFFFFFFFFFFFFFFFFFFFFFFFFFFFFFFFFFFFFFFFF AND EQ PUSH2 0x409 JUMPI PUSH1 0x40 MLOAD PUSH32 0x8C379A000000000000000000000000000000000000000000000000000000000 DUP2 MSTORE PUSH1 0x4 ADD PUSH2 0x400 SWAP1 PUSH2 0xFEF JUMP JUMPDEST PUSH1 0x40 MLOAD DUP1 SWAP2 SUB SWAP1 REVERT JUMPDEST PUSH1 0x0 PUSH1 0x2 PUSH1 0x0 DUP8 PUSH20 0xFFFFFFFFFFFFFFFFFFFFFFFFFFFFFFFFFFFFFFFF AND PUSH20 0xFFFFFFFFFFFFFFFFFFFFFFFFFFFFFFFFFFFFFFFF AND DUP2 MSTORE PUSH1 0x20 ADD SWAP1 DUP2 MSTORE PUSH1 0x20 ADD PUSH1 0x0 KECCAK256 SWAP1 POP DUP1 PUSH1 0x5 ADD PUSH1 0x0 SWAP1 SLOAD SWAP1 PUSH2 0x100 EXP SWAP1 DIV PUSH1 0xFF AND ISZERO PUSH2 0x469 JUMPI POP PUSH2 0x498 JUMP JUMPDEST DUP5 DUP2 PUSH1 0x0 ADD DUP2 SWAP1 SSTORE POP DUP4 DUP2 PUSH1 0x1 ADD DUP2 SWAP1 SSTORE POP DUP3 DUP2 PUSH1 0x2 ADD DUP2 SWAP1 SSTORE POP DUP2 DUP2 PUSH1 0x3 ADD DUP2 SWAP1 SSTORE POP PUSH2 0x496 DUP7 PUSH2 0x49F JUMP JUMPDEST POP JUMPDEST POP POP POP POP POP JUMP JUMPDEST PUSH1 0x0 PUSH1 0x2 PUSH1 0x0 DUP4 PUSH20 0xFFFFFFFFFFFFFFFFFFFFFFFFFFFFFFFFFFFFFFFF AND PUSH20 0xFFFFFFFFFFFFFFFFFFFFFFFFFFFFFFFFFFFFFFFF AND DUP2 MSTORE PUSH1 0x20 ADD SWAP1 DUP2 MSTORE PUSH1 0x20 ADD PUSH1 0x0 KECCAK256 SWAP1 POP PUSH1 0x0 PUSH1 0x64 PUSH1 0xA DUP4 PUSH1 0x2 ADD SLOAD PUSH2 0x4F7 SWAP2 SWAP1 PUSH2 0x10DE JUMP JUMPDEST PUSH1 0x14 DUP5 PUSH1 0x1 ADD SLOAD PUSH2 0x508 SWAP2 SWAP1 PUSH2 0x10DE JUMP JUMPDEST PUSH1 0x28 DUP6 PUSH1 0x0 ADD SLOAD PUSH2 0x519 SWAP2 SWAP1 PUSH2 0x10DE JUMP JUMPDEST PUSH2 0x523 SWAP2 SWAP1 PUSH2 0x1180 JUMP JUMPDEST PUSH2 0x52D SWAP2 SWAP1 PUSH2 0x1180 JUMP JUMPDEST PUSH2 0x537 SWAP2 SWAP1 PUSH2 0x114F JUMP JUMPDEST SWAP1 POP PUSH1 0x0 PUSH1 0x64 PUSH1 0x46 DUP4 PUSH2 0x54A SWAP2 SWAP1 PUSH2 0x10DE JUMP JUMPDEST PUSH2 0x554 SWAP2 SWAP1 PUSH2 0x114F JUMP JUMPDEST SWAP1 POP PUSH1 0x0 PUSH10 0x21E19E0C9BAB2400000 PUSH1 0x64 DUP6 PUSH1 0x3 ADD SLOAD PUSH2 0x574 SWAP2 SWAP1 PUSH2 0x10DE JUMP JUMPDEST PUSH2 0x57E SWAP2 SWAP1 PUSH2 0x114F JUMP JUMPDEST SWAP1 POP PUSH1 0x64 DUP2 GT ISZERO PUSH2 0x58E JUMPI PUSH1 0x64 SWAP1 POP JUMPDEST PUSH1 0x0 PUSH1 0x64 PUSH1 0x1E DUP4 PUSH2 0x59F SWAP2 SWAP1 PUSH2 0x10DE JUMP JUMPDEST PUSH2 0x5A9 SWAP2 SWAP1 PUSH2 0x114F JUMP JUMPDEST SWAP1 POP DUP1 DUP4 PUSH2 0x5B7 SWAP2 SWAP1 PUSH2 0x1180 JUMP JUMPDEST DUP6 PUSH1 0x4 ADD DUP2 SWAP1 SSTORE POP DUP6 PUSH20 0xFFFFFFFFFFFFFFFFFFFFFFFFFFFFFFFFFFFFFFFF AND PUSH32 0xFC577563F1B9A0461E24ABEF1E1FCC0D33D3D881F20B5DF6DDA59DE4AAE2C821 DUP7 PUSH1 0x4 ADD SLOAD PUSH1 0x40 MLOAD PUSH2 0x609 SWAP2 SWAP1 PUSH2 0xE57 JUMP JUMPDEST PUSH1 0x40 MLOAD DUP1 SWAP2 SUB SWAP1 LOG2 POP POP POP POP POP POP JUMP JUMPDEST DUP1 PUSH1 0x2 PUSH1 0x0 CALLER PUSH20 0xFFFFFFFFFFFFFFFFFFFFFFFFFFFFFFFFFFFFFFFF AND PUSH20 0xFFFFFFFFFFFFFFFFFFFFFFFFFFFFFFFFFFFFFFFF AND DUP2 MSTORE PUSH1 0x20 ADD SWAP1 DUP2 MSTORE PUSH1 0x20 ADD PUSH1 0x0 KECCAK256 PUSH1 0x3 ADD SLOAD LT ISZERO PUSH2 0x69E JUMPI PUSH1 0x40 MLOAD PUSH32 0x8C379A000000000000000000000000000000000000000000000000000000000 DUP2 MSTORE PUSH1 0x4 ADD PUSH2 0x695 SWAP1 PUSH2 0x1200 JUMP JUMPDEST PUSH1 0x40 MLOAD DUP1 SWAP2 SUB SWAP1 REVERT JUMPDEST DUP1 PUSH1 0x2 PUSH1 0x0 CALLER PUSH20 0xFFFFFFFFFFFFFFFFFFFFFFFFFFFFFFFFFFFFFFFF AND PUSH20 0xFFFFFFFFFFFFFFFFFFFFFFFFFFFFFFFFFFFFFFFF AND DUP2 MSTORE PUSH1 0x20 ADD SWAP1 DUP2 MSTORE PUSH1 0x20 ADD PUSH1 0x0 KECCAK256 PUSH1 0x3 ADD PUSH1 0x0 DUP3 DUP3 SLOAD PUSH2 0x6F0 SWAP2 SWAP1 PUSH2 0x10AA JUMP JUMPDEST SWAP3 POP POP DUP2 SWAP1 SSTORE POP PUSH1 0x1 PUSH1 0x0 SWAP1 SLOAD SWAP1 PUSH2 0x100 EXP SWAP1 DIV PUSH20 0xFFFFFFFFFFFFFFFFFFFFFFFFFFFFFFFFFFFFFFFF AND PUSH20 0xFFFFFFFFFFFFFFFFFFFFFFFFFFFFFFFFFFFFFFFF AND PUSH4 0xA9059CBB CALLER DUP4 PUSH1 0x40 MLOAD DUP4 PUSH4 0xFFFFFFFF AND PUSH1 0xE0 SHL DUP2 MSTORE PUSH1 0x4 ADD PUSH2 0x754 SWAP3 SWAP2 SWAP1 PUSH2 0x1220 JUMP JUMPDEST PUSH1 0x20 PUSH1 0x40 MLOAD DUP1 DUP4 SUB DUP2 PUSH1 0x0 DUP8 GAS CALL ISZERO DUP1 ISZERO PUSH2 0x773 JUMPI RETURNDATASIZE PUSH1 0x0 DUP1 RETURNDATACOPY RETURNDATASIZE PUSH1 0x0 REVERT JUMPDEST POP POP POP POP PUSH1 0x40 MLOAD RETURNDATASIZE PUSH1 0x1F NOT PUSH1 0x1F DUP3 ADD AND DUP3 ADD DUP1 PUSH1 0x40 MSTORE POP DUP2 ADD SWAP1 PUSH2 0x797 SWAP2 SWAP1 PUSH2 0x1275 JUMP JUMPDEST PUSH2 0x7D6 JUMPI PUSH1 0x40 MLOAD PUSH32 0x8C379A000000000000000000000000000000000000000000000000000000000 DUP2 MSTORE PUSH1 0x4 ADD PUSH2 0x7CD SWAP1 PUSH2 0x12EE JUMP JUMPDEST PUSH1 0x40 MLOAD DUP1 SWAP2 SUB SWAP1 REVERT JUMPDEST PUSH2 0x7DF CALLER PUSH2 0x49F JUMP JUMPDEST CALLER PUSH20 0xFFFFFFFFFFFFFFFFFFFFFFFFFFFFFFFFFFFFFFFF AND PUSH32 0xF5BB82176FEB1B5E747E28471AA92156A04D9F3AB9F45F28E2D704232B93F75 DUP3 PUSH1 0x40 MLOAD PUSH2 0x825 SWAP2 SWAP1 PUSH2 0xE57 JUMP JUMPDEST PUSH1 0x40 MLOAD DUP1 SWAP2 SUB SWAP1 LOG2 POP JUMP JUMPDEST PUSH10 0x21E19E0C9BAB2400000 DUP2 JUMP JUMPDEST PUSH2 0x846 PUSH2 0xB47 JUMP JUMPDEST PUSH2 0x850 PUSH1 0x0 PUSH2 0xBCE JUMP JUMPDEST JUMP JUMPDEST PUSH1 0x0 DUP1 PUSH1 0x0 SWAP1 SLOAD SWAP1 PUSH2 0x100 EXP SWAP1 DIV PUSH20 0xFFFFFFFFFFFFFFFFFFFFFFFFFFFFFFFFFFFFFFFF AND SWAP1 POP SWAP1 JUMP JUMPDEST PUSH1 0x2 PUSH1 0x20 MSTORE DUP1 PUSH1 0x0 MSTORE PUSH1 0x40 PUSH1 0x0 KECCAK256 PUSH1 0x0 SWAP2 POP SWAP1 POP DUP1 PUSH1 0x0 ADD SLOAD SWAP1 DUP1 PUSH1 0x1 ADD SLOAD SWAP1 DUP1 PUSH1 0x2 ADD SLOAD SWAP1 DUP1 PUSH1 0x3 ADD SLOAD SWAP1 DUP1 PUSH1 0x4 ADD SLOAD SWAP1 DUP1 PUSH1 0x5 ADD PUSH1 0x0 SWAP1 SLOAD SWAP1 PUSH2 0x100 EXP SWAP1 DIV PUSH1 0xFF AND SWAP1 POP DUP7 JUMP JUMPDEST PUSH1 0x0 DUP2 GT PUSH2 0x907 JUMPI PUSH1 0x40 MLOAD PUSH32 0x8C379A000000000000000000000000000000000000000000000000000000000 DUP2 MSTORE PUSH1 0x4 ADD PUSH2 0x8FE SWAP1 PUSH2 0x135A JUMP JUMPDEST PUSH1 0x40 MLOAD DUP1 SWAP2 SUB SWAP1 REVERT JUMPDEST PUSH1 0x1 PUSH1 0x0 SWAP1 SLOAD SWAP1 PUSH2 0x100 EXP SWAP1 DIV PUSH20 0xFFFFFFFFFFFFFFFFFFFFFFFFFFFFFFFFFFFFFFFF AND PUSH20 0xFFFFFFFFFFFFFFFFFFFFFFFFFFFFFFFFFFFFFFFF AND PUSH4 0x23B872DD CALLER ADDRESS DUP5 PUSH1 0x40 MLOAD DUP5 PUSH4 0xFFFFFFFF AND PUSH1 0xE0 SHL DUP2 MSTORE PUSH1 0x4 ADD PUSH2 0x966 SWAP4 SWAP3 SWAP2 SWAP1 PUSH2 0x137A JUMP JUMPDEST PUSH1 0x20 PUSH1 0x40 MLOAD DUP1 DUP4 SUB DUP2 PUSH1 0x0 DUP8 GAS CALL ISZERO DUP1 ISZERO PUSH2 0x985 JUMPI RETURNDATASIZE PUSH1 0x0 DUP1 RETURNDATACOPY RETURNDATASIZE PUSH1 0x0 REVERT JUMPDEST POP POP POP POP PUSH1 0x40 MLOAD RETURNDATASIZE PUSH1 0x1F NOT PUSH1 0x1F DUP3 ADD AND DUP3 ADD DUP1 PUSH1 0x40 MSTORE POP DUP2 ADD SWAP1 PUSH2 0x9A9 SWAP2 SWAP1 PUSH2 0x1275 JUMP JUMPDEST PUSH2 0x9E8 JUMPI PUSH1 0x40 MLOAD PUSH32 0x8C379A000000000000000000000000000000000000000000000000000000000 DUP2 MSTORE PUSH1 0x4 ADD PUSH2 0x9DF SWAP1 PUSH2 0x13FD JUMP JUMPDEST PUSH1 0x40 MLOAD DUP1 SWAP2 SUB SWAP1 REVERT JUMPDEST DUP1 PUSH1 0x2 PUSH1 0x0 CALLER PUSH20 0xFFFFFFFFFFFFFFFFFFFFFFFFFFFFFFFFFFFFFFFF AND PUSH20 0xFFFFFFFFFFFFFFFFFFFFFFFFFFFFFFFFFFFFFFFF AND DUP2 MSTORE PUSH1 0x20 ADD SWAP1 DUP2 MSTORE PUSH1 0x20 ADD PUSH1 0x0 KECCAK256 PUSH1 0x3 ADD PUSH1 0x0 DUP3 DUP3 SLOAD PUSH2 0xA3A SWAP2 SWAP1 PUSH2 0x1180 JUMP JUMPDEST SWAP3 POP POP DUP2 SWAP1 SSTORE POP PUSH2 0xA4A CALLER PUSH2 0x49F JUMP JUMPDEST CALLER PUSH20 0xFFFFFFFFFFFFFFFFFFFFFFFFFFFFFFFFFFFFFFFF AND PUSH32 0x9E71BC8EEA02A63969F509818F2DAFB9254532904319F9DBDA79B67BD34A5F3D DUP3 PUSH1 0x40 MLOAD PUSH2 0xA90 SWAP2 SWAP1 PUSH2 0xE57 JUMP JUMPDEST PUSH1 0x40 MLOAD DUP1 SWAP2 SUB SWAP1 LOG2 POP JUMP JUMPDEST PUSH1 0x1 PUSH1 0x0 SWAP1 SLOAD SWAP1 PUSH2 0x100 EXP SWAP1 DIV PUSH20 0xFFFFFFFFFFFFFFFFFFFFFFFFFFFFFFFFFFFFFFFF AND DUP2 JUMP JUMPDEST PUSH2 0xAC9 PUSH2 0xB47 JUMP JUMPDEST PUSH1 0x0 PUSH20 0xFFFFFFFFFFFFFFFFFFFFFFFFFFFFFFFFFFFFFFFF AND DUP2 PUSH20 0xFFFFFFFFFFFFFFFFFFFFFFFFFFFFFFFFFFFFFFFF AND SUB PUSH2 0xB3B JUMPI PUSH1 0x0 PUSH1 0x40 MLOAD PUSH32 0x1E4FBDF700000000000000000000000000000000000000000000000000000000 DUP2 MSTORE PUSH1 0x4 ADD PUSH2 0xB32 SWAP2 SWAP1 PUSH2 0xE81 JUMP JUMPDEST PUSH1 0x40 MLOAD DUP1 SWAP2 SUB SWAP1 REVERT JUMPDEST PUSH2 0xB44 DUP2 PUSH2 0xBCE JUMP JUMPDEST POP JUMP JUMPDEST PUSH2 0xB4F PUSH2 0xC92 JUMP JUMPDEST PUSH20 0xFFFFFFFFFFFFFFFFFFFFFFFFFFFFFFFFFFFFFFFF AND PUSH2 0xB6D PUSH2 0x852 JUMP JUMPDEST PUSH20 0xFFFFFFFFFFFFFFFFFFFFFFFFFFFFFFFFFFFFFFFF AND EQ PUSH2 0xBCC JUMPI PUSH2 0xB90 PUSH2 0xC92 JUMP JUMPDEST PUSH1 0x40 MLOAD PUSH32 0x118CDAA700000000000000000000000000000000000000000000000000000000 DUP2 MSTORE PUSH1 0x4 ADD PUSH2 0xBC3 SWAP2 SWAP1 PUSH2 0xE81 JUMP JUMPDEST PUSH1 0x40 MLOAD DUP1 SWAP2 SUB SWAP1 REVERT JUMPDEST JUMP JUMPDEST PUSH1 0x0 DUP1 PUSH1 0x0 SWAP1 SLOAD SWAP1 PUSH2 0x100 EXP SWAP1 DIV PUSH20 0xFFFFFFFFFFFFFFFFFFFFFFFFFFFFFFFFFFFFFFFF AND SWAP1 POP DUP2 PUSH1 0x0 DUP1 PUSH2 0x100 EXP DUP2 SLOAD DUP2 PUSH20 0xFFFFFFFFFFFFFFFFFFFFFFFFFFFFFFFFFFFFFFFF MUL NOT AND SWAP1 DUP4 PUSH20 0xFFFFFFFFFFFFFFFFFFFFFFFFFFFFFFFFFFFFFFFF AND MUL OR SWAP1 SSTORE POP DUP2 PUSH20 0xFFFFFFFFFFFFFFFFFFFFFFFFFFFFFFFFFFFFFFFF AND DUP2 PUSH20 0xFFFFFFFFFFFFFFFFFFFFFFFFFFFFFFFFFFFFFFFF AND PUSH32 0x8BE0079C531659141344CD1FD0A4F28419497F9722A3DAAFE3B4186F6B6457E0 PUSH1 0x40 MLOAD PUSH1 0x40 MLOAD DUP1 SWAP2 SUB SWAP1 LOG3 POP POP JUMP JUMPDEST PUSH1 0x0 CALLER SWAP1 POP SWAP1 JUMP JUMPDEST PUSH1 0x0 DUP1 REVERT JUMPDEST PUSH1 0x0 PUSH20 0xFFFFFFFFFFFFFFFFFFFFFFFFFFFFFFFFFFFFFFFF DUP3 AND SWAP1 POP SWAP2 SWAP1 POP JUMP JUMPDEST PUSH1 0x0 PUSH2 0xCCA DUP3 PUSH2 0xC9F JUMP JUMPDEST SWAP1 POP SWAP2 SWAP1 POP JUMP JUMPDEST PUSH2 0xCDA DUP2 PUSH2 0xCBF JUMP JUMPDEST DUP2 EQ PUSH2 0xCE5 JUMPI PUSH1 0x0 DUP1 REVERT JUMPDEST POP JUMP JUMPDEST PUSH1 0x0 DUP2 CALLDATALOAD SWAP1 POP PUSH2 0xCF7 DUP2 PUSH2 0xCD1 JUMP JUMPDEST SWAP3 SWAP2 POP POP JUMP JUMPDEST PUSH1 0x0 DUP2 SWAP1 POP SWAP2 SWAP1 POP JUMP JUMPDEST PUSH2 0xD10 DUP2 PUSH2 0xCFD JUMP JUMPDEST DUP2 EQ PUSH2 0xD1B JUMPI PUSH1 0x0 DUP1 REVERT JUMPDEST POP JUMP JUMPDEST PUSH1 0x0 DUP2 CALLDATALOAD SWAP1 POP PUSH2 0xD2D DUP2 PUSH2 0xD07 JUMP JUMPDEST SWAP3 SWAP2 POP POP JUMP JUMPDEST PUSH1 0x0 DUP1 PUSH1 0x40 DUP4 DUP6 SUB SLT ISZERO PUSH2 0xD4A JUMPI PUSH2 0xD49 PUSH2 0xC9A JUMP JUMPDEST JUMPDEST PUSH1 0x0 PUSH2 0xD58 DUP6 DUP3 DUP7 ADD PUSH2 0xCE8 JUMP JUMPDEST SWAP3 POP POP PUSH1 0x20 PUSH2 0xD69 DUP6 DUP3 DUP7 ADD PUSH2 0xD1E JUMP JUMPDEST SWAP2 POP POP SWAP3 POP SWAP3 SWAP1 POP JUMP JUMPDEST PUSH1 0x0 DUP1 PUSH1 0x0 DUP1 PUSH1 0x0 PUSH1 0xA0 DUP7 DUP9 SUB SLT ISZERO PUSH2 0xD8F JUMPI PUSH2 0xD8E PUSH2 0xC9A JUMP JUMPDEST JUMPDEST PUSH1 0x0 PUSH2 0xD9D DUP9 DUP3 DUP10 ADD PUSH2 0xCE8 JUMP JUMPDEST SWAP6 POP POP PUSH1 0x20 PUSH2 0xDAE DUP9 DUP3 DUP10 ADD PUSH2 0xD1E JUMP JUMPDEST SWAP5 POP POP PUSH1 0x40 PUSH2 0xDBF DUP9 DUP3 DUP10 ADD PUSH2 0xD1E JUMP JUMPDEST SWAP4 POP POP PUSH1 0x60 PUSH2 0xDD0 DUP9 DUP3 DUP10 ADD PUSH2 0xD1E JUMP JUMPDEST SWAP3 POP POP PUSH1 0x80 PUSH2 0xDE1 DUP9 DUP3 DUP10 ADD PUSH2 0xD1E JUMP JUMPDEST SWAP2 POP POP SWAP3 SWAP6 POP SWAP3 SWAP6 SWAP1 SWAP4 POP JUMP JUMPDEST PUSH1 0x0 PUSH1 0x20 DUP3 DUP5 SUB SLT ISZERO PUSH2 0xE04 JUMPI PUSH2 0xE03 PUSH2 0xC9A JUMP JUMPDEST JUMPDEST PUSH1 0x0 PUSH2 0xE12 DUP5 DUP3 DUP6 ADD PUSH2 0xCE8 JUMP JUMPDEST SWAP2 POP POP SWAP3 SWAP2 POP POP JUMP JUMPDEST PUSH1 0x0 PUSH1 0x20 DUP3 DUP5 SUB SLT ISZERO PUSH2 0xE31 JUMPI PUSH2 0xE30 PUSH2 0xC9A JUMP JUMPDEST JUMPDEST PUSH1 0x0 PUSH2 0xE3F DUP5 DUP3 DUP6 ADD PUSH2 0xD1E JUMP JUMPDEST SWAP2 POP POP SWAP3 SWAP2 POP POP JUMP JUMPDEST PUSH2 0xE51 DUP2 PUSH2 0xCFD JUMP JUMPDEST DUP3 MSTORE POP POP JUMP JUMPDEST PUSH1 0x0 PUSH1 0x20 DUP3 ADD SWAP1 POP PUSH2 0xE6C PUSH1 0x0 DUP4 ADD DUP5 PUSH2 0xE48 JUMP JUMPDEST SWAP3 SWAP2 POP POP JUMP JUMPDEST PUSH2 0xE7B DUP2 PUSH2 0xCBF JUMP JUMPDEST DUP3 MSTORE POP POP JUMP JUMPDEST PUSH1 0x0 PUSH1 0x20 DUP3 ADD SWAP1 POP PUSH2 0xE96 PUSH1 0x0 DUP4 ADD DUP5 PUSH2 0xE72 JUMP JUMPDEST SWAP3 SWAP2 POP POP JUMP JUMPDEST PUSH1 0x0 DUP2 ISZERO ISZERO SWAP1 POP SWAP2 SWAP1 POP JUMP JUMPDEST PUSH2 0xEB1 DUP2 PUSH2 0xE9C JUMP JUMPDEST DUP3 MSTORE POP POP JUMP JUMPDEST PUSH1 0x0 PUSH1 0xC0 DUP3 ADD SWAP1 POP PUSH2 0xECC PUSH1 0x0 DUP4 ADD DUP10 PUSH2 0xE48 JUMP JUMPDEST PUSH2 0xED9 PUSH1 0x20 DUP4 ADD DUP9 PUSH2 0xE48 JUMP JUMPDEST PUSH2 0xEE6 PUSH1 0x40 DUP4 ADD DUP8 PUSH2 0xE48 JUMP JUMPDEST PUSH2 0xEF3 PUSH1 0x60 DUP4 ADD DUP7 PUSH2 0xE48 JUMP JUMPDEST PUSH2 0xF00 PUSH1 0x80 DUP4 ADD DUP6 PUSH2 0xE48 JUMP JUMPDEST PUSH2 0xF0D PUSH1 0xA0 DUP4 ADD DUP5 PUSH2 0xEA8 JUMP JUMPDEST SWAP8 SWAP7 POP POP POP POP POP POP POP JUMP JUMPDEST PUSH1 0x0 DUP2 SWAP1 POP SWAP2 SWAP1 POP JUMP JUMPDEST PUSH1 0x0 PUSH2 0xF3D PUSH2 0xF38 PUSH2 0xF33 DUP5 PUSH2 0xC9F JUMP JUMPDEST PUSH2 0xF18 JUMP JUMPDEST PUSH2 0xC9F JUMP JUMPDEST SWAP1 POP SWAP2 SWAP1 POP JUMP JUMPDEST PUSH1 0x0 PUSH2 0xF4F DUP3 PUSH2 0xF22 JUMP JUMPDEST SWAP1 POP SWAP2 SWAP1 POP JUMP JUMPDEST PUSH1 0x0 PUSH2 0xF61 DUP3 PUSH2 0xF44 JUMP JUMPDEST SWAP1 POP SWAP2 SWAP1 POP JUMP JUMPDEST PUSH2 0xF71 DUP2 PUSH2 0xF56 JUMP JUMPDEST DUP3 MSTORE POP POP JUMP JUMPDEST PUSH1 0x0 PUSH1 0x20 DUP3 ADD SWAP1 POP PUSH2 0xF8C PUSH1 0x0 DUP4 ADD DUP5 PUSH2 0xF68 JUMP JUMPDEST SWAP3 SWAP2 POP POP JUMP JUMPDEST PUSH1 0x0 DUP3 DUP3 MSTORE PUSH1 0x20 DUP3 ADD SWAP1 POP SWAP3 SWAP2 POP POP JUMP JUMPDEST PUSH32 0x43616C6C6572206973206E6F7420617574686F72697A65640000000000000000 PUSH1 0x0 DUP3 ADD MSTORE POP JUMP JUMPDEST PUSH1 0x0 PUSH2 0xFD9 PUSH1 0x18 DUP4 PUSH2 0xF92 JUMP JUMPDEST SWAP2 POP PUSH2 0xFE4 DUP3 PUSH2 0xFA3 JUMP JUMPDEST PUSH1 0x20 DUP3 ADD SWAP1 POP SWAP2 SWAP1 POP JUMP JUMPDEST PUSH1 0x0 PUSH1 0x20 DUP3 ADD SWAP1 POP DUP2 DUP2 SUB PUSH1 0x0 DUP4 ADD MSTORE PUSH2 0x1008 DUP2 PUSH2 0xFCC JUMP JUMPDEST SWAP1 POP SWAP2 SWAP1 POP JUMP JUMPDEST PUSH32 0x5365766572697479203E20313030000000000000000000000000000000000000 PUSH1 0x0 DUP3 ADD MSTORE POP JUMP JUMPDEST PUSH1 0x0 PUSH2 0x1045 PUSH1 0xE DUP4 PUSH2 0xF92 JUMP JUMPDEST SWAP2 POP PUSH2 0x1050 DUP3 PUSH2 0x100F JUMP JUMPDEST PUSH1 0x20 DUP3 ADD SWAP1 POP SWAP2 SWAP1 POP JUMP JUMPDEST PUSH1 0x0 PUSH1 0x20 DUP3 ADD SWAP1 POP DUP2 DUP2 SUB PUSH1 0x0 DUP4 ADD MSTORE PUSH2 0x1074 DUP2 PUSH2 0x1038 JUMP JUMPDEST SWAP1 POP SWAP2 SWAP1 POP JUMP JUMPDEST PUSH32 0x4E487B7100000000000000000000000000000000000000000000000000000000 PUSH1 0x0 MSTORE PUSH1 0x11 PUSH1 0x4 MSTORE PUSH1 0x24 PUSH1 0x0 REVERT JUMPDEST PUSH1 0x0 PUSH2 0x10B5 DUP3 PUSH2 0xCFD JUMP JUMPDEST SWAP2 POP PUSH2 0x10C0 DUP4 PUSH2 0xCFD JUMP JUMPDEST SWAP3 POP DUP3 DUP3 SUB SWAP1 POP DUP2 DUP2 GT ISZERO PUSH2 0x10D8 JUMPI PUSH2 0x10D7 PUSH2 0x107B JUMP JUMPDEST JUMPDEST SWAP3 SWAP2 POP POP JUMP JUMPDEST PUSH1 0x0 PUSH2 0x10E9 DUP3 PUSH2 0xCFD JUMP JUMPDEST SWAP2 POP PUSH2 0x10F4 DUP4 PUSH2 0xCFD JUMP JUMPDEST SWAP3 POP DUP3 DUP3 MUL PUSH2 0x1102 DUP2 PUSH2 0xCFD JUMP JUMPDEST SWAP2 POP DUP3 DUP3 DIV DUP5 EQ DUP4 ISZERO OR PUSH2 0x1119 JUMPI PUSH2 0x1118 PUSH2 0x107B JUMP JUMPDEST JUMPDEST POP SWAP3 SWAP2 POP POP JUMP JUMPDEST PUSH32 0x4E487B7100000000000000000000000000000000000000000000000000000000 PUSH1 0x0 MSTORE PUSH1 0x12 PUSH1 0x4 MSTORE PUSH1 0x24 PUSH1 0x0 REVERT JUMPDEST PUSH1 0x0 PUSH2 0x115A DUP3 PUSH2 0xCFD JUMP JUMPDEST SWAP2 POP PUSH2 0x1165 DUP4 PUSH2 0xCFD JUMP JUMPDEST SWAP3 POP DUP3 PUSH2 0x1175 JUMPI PUSH2 0x1174 PUSH2 0x1120 JUMP JUMPDEST JUMPDEST DUP3 DUP3 DIV SWAP1 POP SWAP3 SWAP2 POP POP JUMP JUMPDEST PUSH1 0x0 PUSH2 0x118B DUP3 PUSH2 0xCFD JUMP JUMPDEST SWAP2 POP PUSH2 0x1196 DUP4 PUSH2 0xCFD JUMP JUMPDEST SWAP3 POP DUP3 DUP3 ADD SWAP1 POP DUP1 DUP3 GT ISZERO PUSH2 0x11AE JUMPI PUSH2 0x11AD PUSH2 0x107B JUMP JUMPDEST JUMPDEST SWAP3 SWAP2 POP POP JUMP JUMPDEST PUSH32 0x496E73756666696369656E74207374616B650000000000000000000000000000 PUSH1 0x0 DUP3 ADD MSTORE POP JUMP JUMPDEST PUSH1 0x0 PUSH2 0x11EA PUSH1 0x12 DUP4 PUSH2 0xF92 JUMP JUMPDEST SWAP2 POP PUSH2 0x11F5 DUP3 PUSH2 0x11B4 JUMP JUMPDEST PUSH1 0x20 DUP3 ADD SWAP1 POP SWAP2 SWAP1 POP JUMP JUMPDEST PUSH1 0x0 PUSH1 0x20 DUP3 ADD SWAP1 POP DUP2 DUP2 SUB PUSH1 0x0 DUP4 ADD MSTORE PUSH2 0x1219 DUP2 PUSH2 0x11DD JUMP JUMPDEST SWAP1 POP SWAP2 SWAP1 POP JUMP JUMPDEST PUSH1 0x0 PUSH1 0x40 DUP3 ADD SWAP1 POP PUSH2 0x1235 PUSH1 0x0 DUP4 ADD DUP6 PUSH2 0xE72 JUMP JUMPDEST PUSH2 0x1242 PUSH1 0x20 DUP4 ADD DUP5 PUSH2 0xE48 JUMP JUMPDEST SWAP4 SWAP3 POP POP POP JUMP JUMPDEST PUSH2 0x1252 DUP2 PUSH2 0xE9C JUMP JUMPDEST DUP2 EQ PUSH2 0x125D JUMPI PUSH1 0x0 DUP1 REVERT JUMPDEST POP JUMP JUMPDEST PUSH1 0x0 DUP2 MLOAD SWAP1 POP PUSH2 0x126F DUP2 PUSH2 0x1249 JUMP JUMPDEST SWAP3 SWAP2 POP POP JUMP JUMPDEST PUSH1 0x0 PUSH1 0x20 DUP3 DUP5 SUB SLT ISZERO PUSH2 0x128B JUMPI PUSH2 0x128A PUSH2 0xC9A JUMP JUMPDEST JUMPDEST PUSH1 0x0 PUSH2 0x1299 DUP5 DUP3 DUP6 ADD PUSH2 0x1260 JUMP JUMPDEST SWAP2 POP POP SWAP3 SWAP2 POP POP JUMP JUMPDEST PUSH32 0x556E7374616B65207472616E73666572206661696C6564000000000000000000 PUSH1 0x0 DUP3 ADD MSTORE POP JUMP JUMPDEST PUSH1 0x0 PUSH2 0x12D8 PUSH1 0x17 DUP4 PUSH2 0xF92 JUMP JUMPDEST SWAP2 POP PUSH2 0x12E3 DUP3 PUSH2 0x12A2 JUMP JUMPDEST PUSH1 0x20 DUP3 ADD SWAP1 POP SWAP2 SWAP1 POP JUMP JUMPDEST PUSH1 0x0 PUSH1 0x20 DUP3 ADD SWAP1 POP DUP2 DUP2 SUB PUSH1 0x0 DUP4 ADD MSTORE PUSH2 0x1307 DUP2 PUSH2 0x12CB JUMP JUMPDEST SWAP1 POP SWAP2 SWAP1 POP JUMP JUMPDEST PUSH32 0x416D6F756E74206D757374206265203E20300000000000000000000000000000 PUSH1 0x0 DUP3 ADD MSTORE POP JUMP JUMPDEST PUSH1 0x0 PUSH2 0x1344 PUSH1 0x12 DUP4 PUSH2 0xF92 JUMP JUMPDEST SWAP2 POP PUSH2 0x134F DUP3 PUSH2 0x130E JUMP JUMPDEST PUSH1 0x20 DUP3 ADD SWAP1 POP SWAP2 SWAP1 POP JUMP JUMPDEST PUSH1 0x0 PUSH1 0x20 DUP3 ADD SWAP1 POP DUP2 DUP2 SUB PUSH1 0x0 DUP4 ADD MSTORE PUSH2 0x1373 DUP2 PUSH2 0x1337 JUMP JUMPDEST SWAP1 POP SWAP2 SWAP1 POP JUMP JUMPDEST PUSH1 0x0 PUSH1 0x60 DUP3 ADD SWAP1 POP PUSH2 0x138F PUSH1 0x0 DUP4 ADD DUP7 PUSH2 0xE72 JUMP JUMPDEST PUSH2 0x139C PUSH1 0x20 DUP4 ADD DUP6 PUSH2 0xE72 JUMP JUMPDEST PUSH2 0x13A9 PUSH1 0x40 DUP4 ADD DUP5 PUSH2 0xE48 JUMP JUMPDEST SWAP5 SWAP4 POP POP POP POP JUMP JUMPDEST PUSH32 0x5374616B65207472616E73666572206661696C65640000000000000000000000 PUSH1 0x0 DUP3 ADD MSTORE POP JUMP JUMPDEST PUSH1 0x0 PUSH2 0x13E7 PUSH1 0x15 DUP4 PUSH2 0xF92 JUMP JUMPDEST SWAP2 POP PUSH2 0x13F2 DUP3 PUSH2 0x13B1 JUMP JUMPDEST PUSH1 0x20 DUP3 ADD SWAP1 POP SWAP2 SWAP1 POP JUMP JUMPDEST PUSH1 0x0 PUSH1 0x20 DUP3 ADD SWAP1 POP DUP2 DUP2 SUB PUSH1 0x0 DUP4 ADD MSTORE PUSH2 0x1416 DUP2 PUSH2 0x13DA JUMP JUMPDEST SWAP1 POP SWAP2 SWAP1 POP JUMP INVALID LOG2 PUSH5 0x6970667358 0x22 SLT KECCAK256 PREVRANDAO BALANCE ADDRESS PREVRANDAO 0xEC 0xD6 PUSH11 0x519508B3B7889B7AB45D60 0xF6 0xC1 0xEB 0xCB ORIGIN ORIGIN 0xC3 DUP16 0xF9 0xF9 CALLDATALOAD SWAP10 LOG3 0xCB PUSH5 0x736F6C6343 STOP ADDMOD EQ STOP CALLER "},"methodIdentifiers":{"MAX_STAKE_CAP()":"5e06ac60","calculateReputation(address)":"27c06fd5","owner()":"8da5cb5b","ozcToken()":"bb6846e6","renounceOwnership()":"715018a6","slash(address,uint256)":"02fb4d85","stake(uint256)":"a694fc3a","technicians(address)":"98bf9a5d","transferOwnership(address)":"f2fde38b","unstake(uint256)":"2e17de78","updateStats(address,uint256,uint256,uint256,uint256)":"1241a45a"}}}}}