{
  "_format": "hh-sol-artifact-1",
  "contractName": "OzcarReputation",
  "sourceName": "contracts/OzcarReputation.sol",
  "abi": [
    {
      "inputs": [
        {
          "internalType": "address",
          "name": "initialOwner",
          "type": "address"
        },
        {
          "internalType": "address",
          "name": "_token",
          "type": "address"
        }
      ],
      "stateMutability": "nonpayable",
      "type": "constructor"
    },
    {
      "inputs": [
        {
          "internalType": "address",
          "name": "owner",
          "type": "address"
        }
      ],
      "name": "OwnableInvalidOwner",
      "type": "error"
    },
    {
      "inputs": [
        {
          "internalType": "address",
          "name": "account",
          "type": "address"
        }
      ],
      "name": "OwnableUnauthorizedAccount",
      "type": "error"
    },
    {
      "anonymous": false,
      "inputs": [
        {
          "indexed": true,
          "internalType": "address",
          "name": "previousOwner",
          "type": "address"
        },
        {
          "indexed": true,
          "internalType": "address",
          "name": "newOwner",
          "type": "address"
        }
      ],
      "name": "OwnershipTransferred",
      "type": "event"
    },
    {
      "anonymous": false,
      "inputs": [
        {
          "indexed": true,
          "internalType": "address",
          "name": "technician",
          "type": "address"
        },
        {
          "indexed": false,
          "internalType": "uint256",
          "name": "newScore",
          "type": "uint256"
        }
      ],
      "name": "ReputationUpdated",
      "type": "event"
    },
    {
      "anonymous": false,
      "inputs": [
        {
          "indexed": true,
          "internalType": "address",
          "name": "technician",
          "type": "address"
        },
        {
          "indexed": false,
          "internalType": "uint256",
          "name": "severity",
          "type": "uint256"
        }
      ],
      "name": "Slashed",
      "type": "event"
    },
    {
      "anonymous": false,
      "inputs": [
        {
          "indexed": true,
          "internalType": "address",
          "name": "technician",
          "type": "address"
        },
        {
          "indexed": false,
          "internalType": "uint256",
          "name": "amount",
          "type": "uint256"
        }
      ],
      "name": "Staked",
      "type": "event"
    },
    {
      "anonymous": false,
      "inputs": [
        {
          "indexed": true,
          "internalType": "address",
          "name": "technician",
          "type": "address"
        },
        {
          "indexed": false,
          "internalType": "uint256",
          "name": "amount",
          "type": "uint256"
        }
      ],
      "name": "Unstaked",
      "type": "event"
    },
    {
      "inputs": [],
      "name": "MAX_STAKE_CAP",
      "outputs": [
        {
          "internalType": "uint256",
          "name": "",
          "type": "uint256"
        }
      ],
      "stateMutability": "view",
      "type": "function"
    },
    {
      "inputs": [
        {
          "internalType": "address",
          "name": "_tech",
          "type": "address"
        }
      ],
      "name": "calculateReputation",
      "outputs": [],
      "stateMutability": "nonpayable",
      "type": "function"
    },
    {
      "inputs": [],
      "name": "owner",
      "outputs": [
        {
          "internalType": "address",
          "name": "",
          "type": "address"
        }
      ],
      "stateMutability": "view",
      "type": "function"
    },
    {
      "inputs": [],
      "name": "ozcToken",
      "outputs": [
        {
          "internalType": "contract IERC20",
          "name": "",
          "type": "address"
        }
      ],
      "stateMutability": "view",
      "type": "function"
    },
    {
      "inputs": [],
      "name": "renounceOwnership",
      "outputs": [],
      "stateMutability": "nonpayable",
      "type": "function"
    },
    {
      "inputs": [
        {
          "internalType": "address",
          "name": "_tech",
          "type": "address"
        },
        {
          "internalType": "uint256",
          "name": "_severity",
          "type": "uint256"
        }
      ],
      "name": "slash",
      "outputs": [],
      "stateMutability": "nonpayable",
      "type": "function"
    },
    {
      "inputs": [
        {
          "internalType": "uint256",
          "name": "_amount",
          "type": "uint256"
        }
      ],
      "name": "stake",
      "outputs": [],
      "stateMutability": "nonpayable",
      "type": "function"
    },
    {
      "inputs": [
        {
          "internalType": "address",
          "name": "",
          "type": "address"
        }
      ],
      "name": "technicians",
      "outputs": [
        {
          "internalType": "uint256",
          "name": "consistencyScore",
          "type": "uint256"
        },
        {
          "internalType": "uint256",
          "name": "participationScore",
          "type": "uint256"
        },
        {
          "internalType": "uint256",
          "name": "juryScore",
          "type": "uint256"
        },
        {
          "internalType": "uint256",
          "name": "tokenStake",
          "type": "uint256"
        },
        {
          "internalType": "uint256",
          "name": "totalReputation",
          "type": "uint256"
        },
        {
          "internalType": "bool",
          "name": "isBlacklisted",
          "type": "bool"
        }
      ],
      "stateMutability": "view",
      "type": "function"
    },
    {
      "inputs": [
        {
          "internalType": "address",
          "name": "newOwner",
          "type": "address"
        }
      ],
      "name": "transferOwnership",
      "outputs": [],
      "stateMutability": "nonpayable",
      "type": "function"
    },
    {
      "inputs": [
        {
          "internalType": "uint256",
          "name": "_amount",
          "type": "uint256"
        }
      ],
      "name": "unstake",
      "outputs": [],
      "stateMutability": "nonpayable",
      "type": "function"
    },
    {
      "inputs": [
        {
          "internalType": "address",
          "name": "_tech",
          "type": "address"
        },
        {
          "internalType": "uint256",
          "name": "_d",
          "type": "uint256"
        },
        {
          "internalType": "uint256",
          "name": "_p",
          "type": "uint256"
        },
        {
          "internalType": "uint256",
          "name": "_j",
          "type": "uint256"
        },
        {
          "internalType": "uint256",
          "name": "_t",
          "type": "uint256"
        }
      ],
      "name": "updateStats",
      "outputs": [],
      "stateMutability": "nonpayable",
      "type": "function"
    }
  ],
  "bytecode": "0x60806040523480156200001157600080fd5b506040516200170e3803806200170e833981810160405281019062000037919062000236565b81600073ffffffffffffffffffffffffffffffffffffffff168173ffffffffffffffffffffffffffffffffffffffff1603620000ad5760006040517f1e4fbdf7000000000000000000000000000000000000000000000000000000008152600401620000a491906200028e565b60405180910390fd5b620000be816200010860201b60201c565b5080600160006101000a81548173ffffffffffffffffffffffffffffffffffffffff021916908373ffffffffffffffffffffffffffffffffffffffff1602179055505050620002ab565b60008060009054906101000a900473ffffffffffffffffffffffffffffffffffffffff169050816000806101000a81548173ffffffffffffffffffffffffffffffffffffffff021916908373ffffffffffffffffffffffffffffffffffffffff1602179055508173ffffffffffffffffffffffffffffffffffffffff168173ffffffffffffffffffffffffffffffffffffffff167f8be0079c531659141344cd1fd0a4f28419497f9722a3daafe3b4186f6b6457e060405160405180910390a35050565b600080fd5b600073ffffffffffffffffffffffffffffffffffffffff82169050919050565b6000620001fe82620001d1565b9050919050565b6200021081620001f1565b81146200021c57600080fd5b50565b600081519050620002308162000205565b92915050565b6000806040838503121562000250576200024f620001cc565b5b600062000260858286016200021f565b925050602062000273858286016200021f565b9150509250929050565b6200028881620001f1565b82525050565b6000602082019050620002a560008301846200027d565b92915050565b61145380620002bb6000396000f3fe608060405234801561001057600080fd5b50600436106100a95760003560e01c8063715018a611610071578063715018a61461013c5780638da5cb5b1461014657806398bf9a5d14610164578063a694fc3a14610199578063bb6846e6146101b5578063f2fde38b146101d3576100a9565b806302fb4d85146100ae5780631241a45a146100ca57806327c06fd5146100e65780632e17de78146101025780635e06ac601461011e575b600080fd5b6100c860048036038101906100c39190610d33565b6101ef565b005b6100e460048036038101906100df9190610d73565b610394565b005b61010060048036038101906100fb9190610dee565b61049f565b005b61011c60048036038101906101179190610e1b565b610619565b005b610126610830565b6040516101339190610e57565b60405180910390f35b61014461083e565b005b61014e610852565b60405161015b9190610e81565b60405180910390f35b61017e60048036038101906101799190610dee565b61087b565b60405161019096959493929190610eb7565b60405180910390f35b6101b360048036038101906101ae9190610e1b565b6108c4565b005b6101bd610a9b565b6040516101ca9190610f77565b60405180910390f35b6101ed60048036038101906101e89190610dee565b610ac1565b005b6101f7610852565b73ffffffffffffffffffffffffffffffffffffffff163373ffffffffffffffffffffffffffffffffffffffff1614610264576040517f08c379a000000000000000000000000000000000000000000000000000000000815260040161025b90610fef565b60405180910390fd5b60648111156102a8576040517f08c379a000000000000000000000000000000000000000000000000000000000815260040161029f9061105b565b60405180910390fd5b6000600260008473ffffffffffffffffffffffffffffffffffffffff1673ffffffffffffffffffffffffffffffffffffffff168152602001908152602001600020905060648260646102fa91906110aa565b826004015461030991906110de565b610313919061114f565b8160040181905550605a82106103415760018160050160006101000a81548160ff0219169083151502179055505b8273ffffffffffffffffffffffffffffffffffffffff167f4ed05e9673c26d2ed44f7ef6a7f2942df0ee3b5e1e17db4b99f9dcd261a339cd836040516103879190610e57565b60405180910390a2505050565b61039c610852565b73ffffffffffffffffffffffffffffffffffffffff163373ffffffffffffffffffffffffffffffffffffffff1614610409576040517f08c379a000000000000000000000000000000000000000000000000000000000815260040161040090610fef565b60405180910390fd5b6000600260008773ffffffffffffffffffffffffffffffffffffffff1673ffffffffffffffffffffffffffffffffffffffff16815260200190815260200160002090508060050160009054906101000a900460ff16156104695750610498565b8481600001819055508381600101819055508281600201819055508181600301819055506104968661049f565b505b5050505050565b6000600260008373ffffffffffffffffffffffffffffffffffffffff1673ffffffffffffffffffffffffffffffffffffffff168152602001908152602001600020905060006064600a83600201546104f791906110de565b6014846001015461050891906110de565b6028856000015461051991906110de565b6105239190611180565b61052d9190611180565b610537919061114f565b90506000606460468361054a91906110de565b610554919061114f565b9050600069021e19e0c9bab24000006064856003015461057491906110de565b61057e919061114f565b9050606481111561058e57606490505b60006064601e8361059f91906110de565b6105a9919061114f565b905080836105b79190611180565b85600401819055508573ffffffffffffffffffffffffffffffffffffffff167ffc577563f1b9a0461e24abef1e1fcc0d33d3d881f20b5df6dda59de4aae2c82186600401546040516106099190610e57565b60405180910390a2505050505050565b80600260003373ffffffffffffffffffffffffffffffffffffffff1673ffffffffffffffffffffffffffffffffffffffff16815260200190815260200160002060030154101561069e576040517f08c379a000000000000000000000000000000000000000000000000000000000815260040161069590611200565b60405180910390fd5b80600260003373ffffffffffffffffffffffffffffffffffffffff1673ffffffffffffffffffffffffffffffffffffffff16815260200190815260200160002060030160008282546106f091906110aa565b92505081905550600160009054906101000a900473ffffffffffffffffffffffffffffffffffffffff1673ffffffffffffffffffffffffffffffffffffffff1663a9059cbb33836040518363ffffffff1660e01b8152600401610754929190611220565b6020604051808303816000875af1158015610773573d6000803e3d6000fd5b505050506040513d601f19601f820116820180604052508101906107979190611275565b6107d6576040517f08c379a00000000000000000000000000000000000000000000000000000000081526004016107cd906112ee565b60405180910390fd5b6107df3361049f565b3373ffffffffffffffffffffffffffffffffffffffff167f0f5bb82176feb1b5e747e28471aa92156a04d9f3ab9f45f28e2d704232b93f75826040516108259190610e57565b60405180910390a250565b69021e19e0c9bab240000081565b610846610b47565b6108506000610bce565b565b60008060009054906101000a900473ffffffffffffffffffffffffffffffffffffffff16905090565b60026020528060005260406000206000915090508060000154908060010154908060020154908060030154908060040154908060050160009054906101000a900460ff16905086565b60008111610907576040517f08c379a00000000000000000000000000000000000000000000000000000000081526004016108fe9061135a565b60405180910390fd5b600160009054906101000a900473ffffffffffffffffffffffffffffffffffffffff1673ffffffffffffffffffffffffffffffffffffffff166323b872dd3330846040518463ffffffff1660e01b81526004016109669392919061137a565b6020604051808303816000875af1158015610985573d6000803e3d6000fd5b505050506040513d601f19601f820116820180604052508101906109a99190611275565b6109e8576040517f08c379a00000000000000000000000000000000000000000000000000000000081526004016109df906113fd565b60405180910390fd5b80600260003373ffffffffffffffffffffffffffffffffffffffff1673ffffffffffffffffffffffffffffffffffffffff1681526020019081526020016000206003016000828254610a3a9190611180565b92505081905550610a4a3361049f565b3373ffffffffffffffffffffffffffffffffffffffff167f9e71bc8eea02a63969f509818f2dafb9254532904319f9dbda79b67bd34a5f3d82604051610a909190610e57565b60405180910390a250565b600160009054906101000a900473ffffffffffffffffffffffffffffffffffffffff1681565b610ac9610b47565b600073ffffffffffffffffffffffffffffffffffffffff168173ffffffffffffffffffffffffffffffffffffffff1603610b3b5760006040517f1e4fbdf7000000000000000000000000000000000000000000000000000000008152600401610b329190610e81565b60405180910390fd5b610b4481610bce565b50565b610b4f610c92565b73ffffffffffffffffffffffffffffffffffffffff16610b6d610852565b73ffffffffffffffffffffffffffffffffffffffff1614610bcc57610b90610c92565b6040517f118cdaa7000000000000000000000000000000000000000000000000000000008152600401610bc39190610e81565b60405180910390fd5b565b60008060009054906101000a900473ffffffffffffffffffffffffffffffffffffffff169050816000806101000a81548173ffffffffffffffffffffffffffffffffffffffff021916908373ffffffffffffffffffffffffffffffffffffffff1602179055508173ffffffffffffffffffffffffffffffffffffffff168173ffffffffffffffffffffffffffffffffffffffff167f8be0079c531659141344cd1fd0a4f28419497f9722a3daafe3b4186f6b6457e060405160405180910390a35050565b600033905090565b600080fd5b600073ffffffffffffffffffffffffffffffffffffffff82169050919050565b6000610cca82610c9f565b9050919050565b610cda81610cbf565b8114610ce557600080fd5b50565b600081359050610cf781610cd1565b92915050565b6000819050919050565b610d1081610cfd565b8114610d1b57600080fd5b50565b600081359050610d2d81610d07565b92915050565b60008060408385031215610d4a57610d49610c9a565b5b6000610d5885828601610ce8565b9250506020610d6985828601610d1e565b9150509250929050565b600080600080600060a08688031215610d8f57610d8e610c9a565b5b6000610d9d88828901610ce8565b9550506020610dae88828901610d1e565b9450506040610dbf88828901610d1e565b9350506060610dd088828901610d1e565b9250506080610de188828901610d1e565b9150509295509295909350565b600060208284031215610e0457610e03610c9a565b5b6000610e1284828501610ce8565b91505092915050565b600060208284031215610e3157610e30610c9a565b5b6000610e3f84828501610d1e565b91505092915050565b610e5181610cfd565b82525050565b6000602082019050610e6c6000830184610e48565b92915050565b610e7b81610cbf565b82525050565b6000602082019050610e966000830184610e72565b92915050565b60008115159050919050565b610eb181610e9c565b82525050565b600060c082019050610ecc6000830189610e48565b610ed96020830188610e48565b610ee66040830187610e48565b610ef36060830186610e48565b610f006080830185610e48565b610f0d60a0830184610ea8565b979650505050505050565b6000819050919050565b6000610f3d610f38610f3384610c9f565b610f18565b610c9f565b9050919050565b6000610f4f82610f22565b9050919050565b6000610f6182610f44565b9050919050565b610f7181610f56565b82525050565b6000602082019050610f8c6000830184610f68565b92915050565b600082825260208201905092915050565b7f43616c6c6572206973206e6f7420617574686f72697a65640000000000000000600082015250565b6000610fd9601883610f92565b9150610fe482610fa3565b602082019050919050565b6000602082019050818103600083015261100881610fcc565b9050919050565b7f5365766572697479203e20313030000000000000000000000000000000000000600082015250565b6000611045600e83610f92565b91506110508261100f565b602082019050919050565b6000602082019050818103600083015261107481611038565b9050919050565b7f4e487b7100000000000000000000000000000000000000000000000000000000600052601160045260246000fd5b60006110b582610cfd565b91506110c083610cfd565b92508282039050818111156110d8576110d761107b565b5b92915050565b60006110e982610cfd565b91506110f483610cfd565b925082820261110281610cfd565b915082820484148315176111195761111861107b565b5b5092915050565b7f4e487b7100000000000000000000000000000000000000000000000000000000600052601260045260246000fd5b600061115a82610cfd565b915061116583610cfd565b92508261117557611174611120565b5b828204905092915050565b600061118b82610cfd565b915061119683610cfd565b92508282019050808211156111ae576111ad61107b565b5b92915050565b7f496e73756666696369656e74207374616b650000000000000000000000000000600082015250565b60006111ea601283610f92565b91506111f5826111b4565b602082019050919050565b60006020820190508181036000830152611219816111dd565b9050919050565b60006040820190506112356000830185610e72565b6112426020830184610e48565b9392505050565b61125281610e9c565b811461125d57600080fd5b50565b60008151905061126f81611249565b92915050565b60006020828403121561128b5761128a610c9a565b5b600061129984828501611260565b91505092915050565b7f556e7374616b65207472616e73666572206661696c6564000000000000000000600082015250565b60006112d8601783610f92565b91506112e3826112a2565b602082019050919050565b60006020820190508181036000830152611307816112cb565b9050919050565b7f416d6f756e74206d757374206265203e20300000000000000000000000000000600082015250565b6000611344601283610f92565b915061134f8261130e565b602082019050919050565b6000602082019050818103600083015261137381611337565b9050919050565b600060608201905061138f6000830186610e72565b61139c6020830185610e72565b6113a96040830184610e48565b949350505050565b7f5374616b65207472616e73666572206661696c65640000000000000000000000600082015250565b60006113e7601583610f92565b91506113f2826113b1565b602082019050919050565b60006020820190508181036000830152611416816113da565b905091905056fea264697066735822122044313044ecd66a519508b3b7889b7ab45d60f6c1ebcb3232c38ff9f93599a3cb64736f6c63430008140033",
  "linkReferences": {},
  "deployedLinkReferences": {}
}