{
  "_format": "hh-sol-artifact-1",
  "contractName": "OzcarEscrow",
  "sourceName": "contracts/OzcarEscrow.sol",
  "abi": [
    {
      "inputs": [
        {
          "internalType": "address",
          "name": "initialAdmin",
          "type": "address"
        },
        {
          "internalType": "address",
          "name": "_paymentToken",
          "type": "address"
        }
      ],
      "stateMutability": "nonpayable",
      "type": "constructor"
    },
    {
      "inputs": [],
      "name": "AccessControlBadConfirmation",
      "type": "error"
    },
    {
      "inputs": [
        {
          "internalType": "address",
          "name": "account",
          "type": "address"
        },
        {
          "internalType": "bytes32",
          "name": "neededRole",
          "type": "bytes32"
        }
      ],
      "name": "AccessControlUnauthorizedAccount",
      "type": "error"
    },
    {
      "inputs": [],
      "name": "EnforcedPause",
      "type": "error"
    },
    {
      "inputs": [],
      "name": "ExpectedPause",
      "type": "error"
    },
    {
      "anonymous": false,
      "inputs": [
        {
          "indexed": true,
          "internalType": "uint256",
          "name": "escrowId",
          "type": "uint256"
        }
      ],
      "name": "DeliveryConfirmed",
      "type": "event"
    },
    {
      "anonymous": false,
      "inputs": [
        {
          "indexed": true,
          "internalType": "uint256",
          "name": "escrowId",
          "type": "uint256"
        },
        {
          "indexed": false,
          "internalType": "uint256",
          "name": "amount",
          "type": "uint256"
        }
      ],
      "name": "Deposited",
      "type": "event"
    },
    {
      "anonymous": false,
      "inputs": [
        {
          "indexed": true,
          "internalType": "uint256",
          "name": "escrowId",
          "type": "uint256"
        }
      ],
      "name": "DisputeRaised",
      "type": "event"
    },
    {
      "anonymous": false,
      "inputs": [
        {
          "indexed": true,
          "internalType": "uint256",
          "name": "escrowId",
          "type": "uint256"
        },
        {
          "indexed": false,
          "internalType": "address",
          "name": "buyer",
          "type": "address"
        },
        {
          "indexed": false,
          "internalType": "address",
          "name": "seller",
          "type": "address"
        },
        {
          "indexed": false,
          "internalType": "uint256",
          "name": "tokenId",
          "type": "uint256"
        },
        {
          "indexed": false,
          "internalType": "uint256",
          "name": "price",
          "type": "uint256"
        }
      ],
      "name": "EscrowCreated",
      "type": "event"
    },
    {
      "anonymous": false,
      "inputs": [
        {
          "indexed": true,
          "internalType": "uint256",
          "name": "escrowId",
          "type": "uint256"
        },
        {
          "indexed": false,
          "internalType": "string",
          "name": "reason",
          "type": "string"
        }
      ],
      "name": "EscrowFrozen",
      "type": "event"
    },
    {
      "anonymous": false,
      "inputs": [
        {
          "indexed": true,
          "internalType": "uint256",
          "name": "escrowId",
          "type": "uint256"
        }
      ],
      "name": "EscrowUnfrozen",
      "type": "event"
    },
    {
      "anonymous": false,
      "inputs": [
        {
          "indexed": true,
          "internalType": "uint256",
          "name": "escrowId",
          "type": "uint256"
        },
        {
          "indexed": false,
          "internalType": "address",
          "name": "seller",
          "type": "address"
        },
        {
          "indexed": false,
          "internalType": "uint256",
          "name": "amount",
          "type": "uint256"
        }
      ],
      "name": "FundsReleased",
      "type": "event"
    },
    {
      "anonymous": false,
      "inputs": [
        {
          "indexed": false,
          "internalType": "address",
          "name": "account",
          "type": "address"
        }
      ],
      "name": "Paused",
      "type": "event"
    },
    {
      "anonymous": false,
      "inputs": [
        {
          "indexed": true,
          "internalType": "bytes32",
          "name": "role",
          "type": "bytes32"
        },
        {
          "indexed": true,
          "internalType": "bytes32",
          "name": "previousAdminRole",
          "type": "bytes32"
        },
        {
          "indexed": true,
          "internalType": "bytes32",
          "name": "newAdminRole",
          "type": "bytes32"
        }
      ],
      "name": "RoleAdminChanged",
      "type": "event"
    },
    {
      "anonymous": false,
      "inputs": [
        {
          "indexed": true,
          "internalType": "bytes32",
          "name": "role",
          "type": "bytes32"
        },
        {
          "indexed": true,
          "internalType": "address",
          "name": "account",
          "type": "address"
        },
        {
          "indexed": true,
          "internalType": "address",
          "name": "sender",
          "type": "address"
        }
      ],
      "name": "RoleGranted",
      "type": "event"
    },
    {
      "anonymous": false,
      "inputs": [
        {
          "indexed": true,
          "internalType": "bytes32",
          "name": "role",
          "type": "bytes32"
        },
        {
          "indexed": true,
          "internalType": "address",
          "name": "account",
          "type": "address"
        },
        {
          "indexed": true,
          "internalType": "address",
          "name": "sender",
          "type": "address"
        }
      ],
      "name": "RoleRevoked",
      "type": "event"
    },
    {
      "anonymous": false,
      "inputs": [
        {
          "indexed": false,
          "internalType": "address",
          "name": "account",
          "type": "address"
        }
      ],
      "name": "Unpaused",
      "type": "event"
    },
    {
      "inputs": [],
      "name": "ADMIN_ROLE",
      "outputs": [
        {
          "internalType": "bytes32",
          "name": "",
          "type": "bytes32"
        }
      ],
      "stateMutability": "view",
      "type": "function"
    },
    {
      "inputs": [],
      "name": "DEFAULT_ADMIN_ROLE",
      "outputs": [
        {
          "internalType": "bytes32",
          "name": "",
          "type": "bytes32"
        }
      ],
      "stateMutability": "view",
      "type": "function"
    },
    {
      "inputs": [],
      "name": "FUNDER_ROLE",
      "outputs": [
        {
          "internalType": "bytes32",
          "name": "",
          "type": "bytes32"
        }
      ],
      "stateMutability": "view",
      "type": "function"
    },
    {
      "inputs": [
        {
          "internalType": "uint256",
          "name": "_escrowId",
          "type": "uint256"
        }
      ],
      "name": "confirmDelivery",
      "outputs": [],
      "stateMutability": "nonpayable",
      "type": "function"
    },
    {
      "inputs": [
        {
          "internalType": "address",
          "name": "_nftContract",
          "type": "address"
        },
        {
          "internalType": "uint256",
          "name": "_tokenId",
          "type": "uint256"
        },
        {
          "internalType": "address",
          "name": "_buyer",
          "type": "address"
        },
        {
          "internalType": "uint256",
          "name": "_price",
          "type": "uint256"
        }
      ],
      "name": "createEscrow",
      "outputs": [
        {
          "internalType": "uint256",
          "name": "",
          "type": "uint256"
        }
      ],
      "stateMutability": "nonpayable",
      "type": "function"
    },
    {
      "inputs": [
        {
          "internalType": "uint256",
          "name": "_escrowId",
          "type": "uint256"
        }
      ],
      "name": "deposit",
      "outputs": [],
      "stateMutability": "nonpayable",
      "type": "function"
    },
    {
      "inputs": [
        {
          "internalType": "uint256",
          "name": "",
          "type": "uint256"
        }
      ],
      "name": "escrows",
      "outputs": [
        {
          "internalType": "uint256",
          "name": "escrowId",
          "type": "uint256"
        },
        {
          "internalType": "address",
          "name": "buyer",
          "type": "address"
        },
        {
          "internalType": "address",
          "name": "seller",
          "type": "address"
        },
        {
          "internalType": "address",
          "name": "nftContract",
          "type": "address"
        },
        {
          "internalType": "uint256",
          "name": "tokenId",
          "type": "uint256"
        },
        {
          "internalType": "uint256",
          "name": "price",
          "type": "uint256"
        },
        {
          "internalType": "enum OzcarEscrow.State",
          "name": "state",
          "type": "uint8"
        },
        {
          "internalType": "bool",
          "name": "isFunded",
          "type": "bool"
        },
        {
          "internalType": "bool",
          "name": "isFrozen",
          "type": "bool"
        }
      ],
      "stateMutability": "view",
      "type": "function"
    },
    {
      "inputs": [
        {
          "internalType": "uint256",
          "name": "_escrowId",
          "type": "uint256"
        },
        {
          "internalType": "string",
          "name": "_reason",
          "type": "string"
        }
      ],
      "name": "freezeEscrow",
      "outputs": [],
      "stateMutability": "nonpayable",
      "type": "function"
    },
    {
      "inputs": [
        {
          "internalType": "bytes32",
          "name": "role",
          "type": "bytes32"
        }
      ],
      "name": "getRoleAdmin",
      "outputs": [
        {
          "internalType": "bytes32",
          "name": "",
          "type": "bytes32"
        }
      ],
      "stateMutability": "view",
      "type": "function"
    },
    {
      "inputs": [
        {
          "internalType": "bytes32",
          "name": "role",
          "type": "bytes32"
        },
        {
          "internalType": "address",
          "name": "account",
          "type": "address"
        }
      ],
      "name": "grantRole",
      "outputs": [],
      "stateMutability": "nonpayable",
      "type": "function"
    },
    {
      "inputs": [
        {
          "internalType": "bytes32",
          "name": "role",
          "type": "bytes32"
        },
        {
          "internalType": "address",
          "name": "account",
          "type": "address"
        }
      ],
      "name": "hasRole",
      "outputs": [
        {
          "internalType": "bool",
          "name": "",
          "type": "bool"
        }
      ],
      "stateMutability": "view",
      "type": "function"
    },
    {
      "inputs": [],
      "name": "nextEscrowId",
      "outputs": [
        {
          "internalType": "uint256",
          "name": "",
          "type": "uint256"
        }
      ],
      "stateMutability": "view",
      "type": "function"
    },
    {
      "inputs": [],
      "name": "pause",
      "outputs": [],
      "stateMutability": "nonpayable",
      "type": "function"
    },
    {
      "inputs": [],
      "name": "paused",
      "outputs": [
        {
          "internalType": "bool",
          "name": "",
          "type": "bool"
        }
      ],
      "stateMutability": "view",
      "type": "function"
    },
    {
      "inputs": [],
      "name": "paymentToken",
      "outputs": [
        {
          "internalType": "contract IERC20",
          "name": "",
          "type": "address"
        }
      ],
      "stateMutability": "view",
      "type": "function"
    },
    {
      "inputs": [
        {
          "internalType": "uint256",
          "name": "_escrowId",
          "type": "uint256"
        }
      ],
      "name": "raiseDispute",
      "outputs": [],
      "stateMutability": "nonpayable",
      "type": "function"
    },
    {
      "inputs": [
        {
          "internalType": "bytes32",
          "name": "role",
          "type": "bytes32"
        },
        {
          "internalType": "address",
          "name": "callerConfirmation",
          "type": "address"
        }
      ],
      "name": "renounceRole",
      "outputs": [],
      "stateMutability": "nonpayable",
      "type": "function"
    },
    {
      "inputs": [
        {
          "internalType": "uint256",
          "name": "_escrowId",
          "type": "uint256"
        },
        {
          "internalType": "bool",
          "name": "refundBuyer",
          "type": "bool"
        }
      ],
      "name": "resolveDispute",
      "outputs": [],
      "stateMutability": "nonpayable",
      "type": "function"
    },
    {
      "inputs": [
        {
          "internalType": "bytes32",
          "name": "role",
          "type": "bytes32"
        },
        {
          "internalType": "address",
          "name": "account",
          "type": "address"
        }
      ],
      "name": "revokeRole",
      "outputs": [],
      "stateMutability": "nonpayable",
      "type": "function"
    },
    {
      "inputs": [
        {
          "internalType": "bytes4",
          "name": "interfaceId",
          "type": "bytes4"
        }
      ],
      "name": "supportsInterface",
      "outputs": [
        {
          "internalType": "bool",
          "name": "",
          "type": "bool"
        }
      ],
      "stateMutability": "view",
      "type": "function"
    },
    {
      "inputs": [
        {
          "internalType": "uint256",
          "name": "_escrowId",
          "type": "uint256"
        }
      ],
      "name": "unfreezeEscrow",
      "outputs": [],
      "stateMutability": "nonpayable",
      "type": "function"
    },
    {
      "inputs": [],
      "name": "unpause",
      "outputs": [],
      "stateMutability": "nonpayable",
      "type": "function"
    }
  ],
  "bytecode": "0x60806040523480156200001157600080fd5b5060405162002f0d38038062002f0d8339818101604052810190620000379190620002a7565b6200004c6000801b83620000c860201b60201c565b506200007f7fa49807205ce4d355092ef5a8a18f56e8913cf4a201fbe287825b095693c2177583620000c860201b60201c565b50806001806101000a81548173ffffffffffffffffffffffffffffffffffffffff021916908373ffffffffffffffffffffffffffffffffffffffff1602179055505050620002ee565b6000620000dc8383620001cb60201b60201c565b620001c057600160008085815260200190815260200160002060000160008473ffffffffffffffffffffffffffffffffffffffff1673ffffffffffffffffffffffffffffffffffffffff16815260200190815260200160002060006101000a81548160ff0219169083151502179055506200015c6200023560201b60201c565b73ffffffffffffffffffffffffffffffffffffffff168273ffffffffffffffffffffffffffffffffffffffff16847f2f8788117e7eff1d82e926ec794901d17c78024a50270940304540a733656f0d60405160405180910390a460019050620001c5565b600090505b92915050565b600080600084815260200190815260200160002060000160008373ffffffffffffffffffffffffffffffffffffffff1673ffffffffffffffffffffffffffffffffffffffff16815260200190815260200160002060009054906101000a900460ff16905092915050565b600033905090565b600080fd5b600073ffffffffffffffffffffffffffffffffffffffff82169050919050565b60006200026f8262000242565b9050919050565b620002818162000262565b81146200028d57600080fd5b50565b600081519050620002a18162000276565b92915050565b60008060408385031215620002c157620002c06200023d565b5b6000620002d18582860162000290565b9250506020620002e48582860162000290565b9150509250929050565b612c0f80620002fe6000396000f3fe608060405234801561001057600080fd5b50600436106101425760003560e01c80635c975abb116100b857806391d148541161007c57806391d1485414610345578063a217fddf14610375578063a5c1674e14610393578063b6b55f25146103af578063d547741f146103cb578063fd84cb97146103e757610142565b80635c975abb146102b1578063694ebe05146102cf57806375b238fc146102ff5780638456cb591461031d57806389cb29dd1461032757610142565b80633013ce291161010a5780633013ce291461021757806334aedecd1461023557806334b25ee21461025357806336568abe1461026f5780633f4ba83a1461028b5780634de36ba21461029557610142565b8063012f52ee1461014757806301ffc9a71461017f5780631bc1bd40146101af578063248a9ca3146101cb5780632f2ff15d146101fb575b600080fd5b610161600480360381019061015c9190611fb3565b610403565b604051610176999897969594939291906120c2565b60405180910390f35b610199600480360381019061019491906121a7565b6104d8565b6040516101a691906121d4565b60405180910390f35b6101c960048036038101906101c49190611fb3565b610552565b005b6101e560048036038101906101e09190612225565b6105dc565b6040516101f29190612261565b60405180910390f35b610215600480360381019061021091906122a8565b6105fb565b005b61021f61061d565b60405161022c9190612347565b60405180910390f35b61023d610641565b60405161024a9190612261565b60405180910390f35b61026d6004803603810190610268919061238e565b610665565b005b610289600480360381019061028491906122a8565b610af7565b005b610293610b72565b005b6102af60048036038101906102aa9190612433565b610ba7565b005b6102b9610c40565b6040516102c691906121d4565b60405180910390f35b6102e960048036038101906102e49190612493565b610c57565b6040516102f691906124fa565b60405180910390f35b610307610fc8565b6040516103149190612261565b60405180910390f35b610325610fec565b005b61032f611021565b60405161033c91906124fa565b60405180910390f35b61035f600480360381019061035a91906122a8565b611027565b60405161036c91906121d4565b60405180910390f35b61037d611091565b60405161038a9190612261565b60405180910390f35b6103ad60048036038101906103a89190611fb3565b611098565b005b6103c960048036038101906103c49190611fb3565b611312565b005b6103e560048036038101906103e091906122a8565b6116f4565b005b61040160048036038101906103fc9190611fb3565b611716565b005b60036020528060005260406000206000915090508060000154908060010160009054906101000a900473ffffffffffffffffffffffffffffffffffffffff16908060020160009054906101000a900473ffffffffffffffffffffffffffffffffffffffff16908060030160009054906101000a900473ffffffffffffffffffffffffffffffffffffffff16908060040154908060050154908060060160009054906101000a900460ff16908060060160019054906101000a900460ff16908060060160029054906101000a900460ff16905089565b60007f7965db0b000000000000000000000000000000000000000000000000000000007bffffffffffffffffffffffffffffffffffffffffffffffffffffffff1916827bffffffffffffffffffffffffffffffffffffffffffffffffffffffff1916148061054b575061054a82611b73565b5b9050919050565b7fa49807205ce4d355092ef5a8a18f56e8913cf4a201fbe287825b095693c2177561057c81611bdd565b60006003600084815260200190815260200160002060060160026101000a81548160ff021916908315150217905550817f5d6a031db7274f301889023c935135cdcf9db8adf8cfc7bdaa4c7b6f014466d360405160405180910390a25050565b6000806000838152602001908152602001600020600101549050919050565b610604826105dc565b61060d81611bdd565b6106178383611bf1565b50505050565b60018054906101000a900473ffffffffffffffffffffffffffffffffffffffff1681565b7f0914bb97ca83e85ef385857d9d418f187ff630589e0c9f44db92976d8e4519cb81565b61066d611ce2565b7fa49807205ce4d355092ef5a8a18f56e8913cf4a201fbe287825b095693c2177561069781611bdd565b8260038060048111156106ad576106ac612030565b5b6003600084815260200190815260200160002060060160009054906101000a900460ff1660048111156106e3576106e2612030565b5b14610723576040517f08c379a000000000000000000000000000000000000000000000000000000000815260040161071a90612572565b60405180910390fd5b846003600082815260200190815260200160002060060160029054906101000a900460ff1615610788576040517f08c379a000000000000000000000000000000000000000000000000000000000815260040161077f90612604565b60405180910390fd5b600060036000888152602001908152602001600020905085156108dc5760048160060160006101000a81548160ff021916908360048111156107cd576107cc612030565b5b021790555060018054906101000a900473ffffffffffffffffffffffffffffffffffffffff1673ffffffffffffffffffffffffffffffffffffffff1663a9059cbb8260010160009054906101000a900473ffffffffffffffffffffffffffffffffffffffff1683600501546040518363ffffffff1660e01b8152600401610855929190612624565b6020604051808303816000875af1158015610874573d6000803e3d6000fd5b505050506040513d601f19601f820116820180604052508101906108989190612662565b6108d7576040517f08c379a00000000000000000000000000000000000000000000000000000000081526004016108ce906126db565b60405180910390fd5b610aee565b60028160060160006101000a81548160ff0219169083600481111561090457610903612030565b5b021790555060018054906101000a900473ffffffffffffffffffffffffffffffffffffffff1673ffffffffffffffffffffffffffffffffffffffff1663a9059cbb8260020160009054906101000a900473ffffffffffffffffffffffffffffffffffffffff1683600501546040518363ffffffff1660e01b815260040161098c929190612624565b6020604051808303816000875af11580156109ab573d6000803e3d6000fd5b505050506040513d601f19601f820116820180604052508101906109cf9190612662565b610a0e576040517f08c379a0000000000000000000000000000000000000000000000000000000008152600401610a0590612747565b60405180910390fd5b8060030160009054906101000a900473ffffffffffffffffffffffffffffffffffffffff1673ffffffffffffffffffffffffffffffffffffffff166323b872dd8260020160009054906101000a900473ffffffffffffffffffffffffffffffffffffffff168360010160009054906101000a900473ffffffffffffffffffffffffffffffffffffffff1684600401546040518463ffffffff1660e01b8152600401610abb93929190612767565b600060405180830381600087803b158015610ad557600080fd5b505af1158015610ae9573d6000803e3d6000fd5b505050505b50505050505050565b610aff611d23565b73ffffffffffffffffffffffffffffffffffffffff168173ffffffffffffffffffffffffffffffffffffffff1614610b63576040517f6697b23200000000000000000000000000000000000000000000000000000000815260040160405180910390fd5b610b6d8282611d2b565b505050565b7fa49807205ce4d355092ef5a8a18f56e8913cf4a201fbe287825b095693c21775610b9c81611bdd565b610ba4611e1d565b50565b7fa49807205ce4d355092ef5a8a18f56e8913cf4a201fbe287825b095693c21775610bd181611bdd565b60016003600086815260200190815260200160002060060160026101000a81548160ff021916908315150217905550837f6135f8a348e231c3ff07b552ae7aa85f03012957ac4458f980cf3d02f819f3488484604051610c329291906127eb565b60405180910390a250505050565b6000600160009054906101000a900460ff16905090565b6000610c61611ce2565b60008590503373ffffffffffffffffffffffffffffffffffffffff168173ffffffffffffffffffffffffffffffffffffffff16636352211e876040518263ffffffff1660e01b8152600401610cb691906124fa565b602060405180830381865afa158015610cd3573d6000803e3d6000fd5b505050506040513d601f19601f82011682018060405250810190610cf79190612824565b73ffffffffffffffffffffffffffffffffffffffff1614610d4d576040517f08c379a0000000000000000000000000000000000000000000000000000000008152600401610d449061289d565b60405180910390fd5b600060026000815480929190610d62906128ec565b9190505590506040518061012001604052808281526020018673ffffffffffffffffffffffffffffffffffffffff1681526020013373ffffffffffffffffffffffffffffffffffffffff1681526020018873ffffffffffffffffffffffffffffffffffffffff16815260200187815260200185815260200160006004811115610dee57610ded612030565b5b815260200160001515815260200160001515815250600360008381526020019081526020016000206000820151816000015560208201518160010160006101000a81548173ffffffffffffffffffffffffffffffffffffffff021916908373ffffffffffffffffffffffffffffffffffffffff16021790555060408201518160020160006101000a81548173ffffffffffffffffffffffffffffffffffffffff021916908373ffffffffffffffffffffffffffffffffffffffff16021790555060608201518160030160006101000a81548173ffffffffffffffffffffffffffffffffffffffff021916908373ffffffffffffffffffffffffffffffffffffffff1602179055506080820151816004015560a0820151816005015560c08201518160060160006101000a81548160ff02191690836004811115610f3457610f33612030565b5b021790555060e08201518160060160016101000a81548160ff0219169083151502179055506101008201518160060160026101000a81548160ff021916908315150217905550905050807f59e4b8728799382406714f1c57de5c893d2772f9a8bf9950c5afe4397e64865486338988604051610fb39493929190612934565b60405180910390a28092505050949350505050565b7fa49807205ce4d355092ef5a8a18f56e8913cf4a201fbe287825b095693c2177581565b7fa49807205ce4d355092ef5a8a18f56e8913cf4a201fbe287825b095693c2177561101681611bdd565b61101e611e80565b50565b60025481565b600080600084815260200190815260200160002060000160008373ffffffffffffffffffffffffffffffffffffffff1673ffffffffffffffffffffffffffffffffffffffff16815260200190815260200160002060009054906101000a900460ff16905092915050565b6000801b81565b6110a0611ce2565b8060018060048111156110b6576110b5612030565b5b6003600084815260200190815260200160002060060160009054906101000a900460ff1660048111156110ec576110eb612030565b5b1461112c576040517f08c379a000000000000000000000000000000000000000000000000000000000815260040161112390612572565b60405180910390fd5b826003600082815260200190815260200160002060060160029054906101000a900460ff1615611191576040517f08c379a000000000000000000000000000000000000000000000000000000000815260040161118890612604565b60405180910390fd5b6003600085815260200190815260200160002060010160009054906101000a900473ffffffffffffffffffffffffffffffffffffffff1673ffffffffffffffffffffffffffffffffffffffff163373ffffffffffffffffffffffffffffffffffffffff16148061126257506003600085815260200190815260200160002060020160009054906101000a900473ffffffffffffffffffffffffffffffffffffffff1673ffffffffffffffffffffffffffffffffffffffff163373ffffffffffffffffffffffffffffffffffffffff16145b6112a1576040517f08c379a0000000000000000000000000000000000000000000000000000000008152600401611298906129c5565b60405180910390fd5b600380600086815260200190815260200160002060060160006101000a81548160ff021916908360048111156112da576112d9612030565b5b0217905550837f04901f83201c8724eadf084436db8aa391820bae6d11f9f78a17edb6f2eef3cf60405160405180910390a250505050565b61131a611ce2565b8060008060048111156113305761132f612030565b5b6003600084815260200190815260200160002060060160009054906101000a900460ff16600481111561136657611365612030565b5b146113a6576040517f08c379a000000000000000000000000000000000000000000000000000000000815260040161139d90612572565b60405180910390fd5b826003600082815260200190815260200160002060060160029054906101000a900460ff161561140b576040517f08c379a000000000000000000000000000000000000000000000000000000000815260040161140290612604565b60405180910390fd5b600060036000868152602001908152602001600020905061144c7f0914bb97ca83e85ef385857d9d418f187ff630589e0c9f44db92976d8e4519cb33611027565b61158457600073ffffffffffffffffffffffffffffffffffffffff168160010160009054906101000a900473ffffffffffffffffffffffffffffffffffffffff1673ffffffffffffffffffffffffffffffffffffffff161461153f578060010160009054906101000a900473ffffffffffffffffffffffffffffffffffffffff1673ffffffffffffffffffffffffffffffffffffffff163373ffffffffffffffffffffffffffffffffffffffff161461153a576040517f08c379a000000000000000000000000000000000000000000000000000000000815260040161153190612a31565b60405180910390fd5b611583565b338160010160006101000a81548173ffffffffffffffffffffffffffffffffffffffff021916908373ffffffffffffffffffffffffffffffffffffffff1602179055505b5b60018054906101000a900473ffffffffffffffffffffffffffffffffffffffff1673ffffffffffffffffffffffffffffffffffffffff166323b872dd333084600501546040518463ffffffff1660e01b81526004016115e593929190612767565b6020604051808303816000875af1158015611604573d6000803e3d6000fd5b505050506040513d601f19601f820116820180604052508101906116289190612662565b611667576040517f08c379a000000000000000000000000000000000000000000000000000000000815260040161165e90612a9d565b60405180910390fd5b60018160060160016101000a81548160ff02191690831515021790555060018160060160006101000a81548160ff021916908360048111156116ac576116ab612030565b5b0217905550847f06da3309189fa49284f335d2c2bcb4cb0b8ad2a59ad92a9bdebeeb8f1ceba51182600501546040516116e591906124fa565b60405180910390a25050505050565b6116fd826105dc565b61170681611bdd565b6117108383611d2b565b50505050565b61171e611ce2565b806003600082815260200190815260200160002060010160009054906101000a900473ffffffffffffffffffffffffffffffffffffffff1673ffffffffffffffffffffffffffffffffffffffff163373ffffffffffffffffffffffffffffffffffffffff16146117c3576040517f08c379a00000000000000000000000000000000000000000000000000000000081526004016117ba90612b09565b60405180910390fd5b8160018060048111156117d9576117d8612030565b5b6003600084815260200190815260200160002060060160009054906101000a900460ff16600481111561180f5761180e612030565b5b1461184f576040517f08c379a000000000000000000000000000000000000000000000000000000000815260040161184690612572565b60405180910390fd5b836003600082815260200190815260200160002060060160029054906101000a900460ff16156118b4576040517f08c379a00000000000000000000000000000000000000000000000000000000081526004016118ab90612604565b60405180910390fd5b600060036000878152602001908152602001600020905060028160060160006101000a81548160ff021916908360048111156118f3576118f2612030565b5b021790555060018054906101000a900473ffffffffffffffffffffffffffffffffffffffff1673ffffffffffffffffffffffffffffffffffffffff1663a9059cbb8260020160009054906101000a900473ffffffffffffffffffffffffffffffffffffffff1683600501546040518363ffffffff1660e01b815260040161197b929190612624565b6020604051808303816000875af115801561199a573d6000803e3d6000fd5b505050506040513d601f19601f820116820180604052508101906119be9190612662565b6119fd576040517f08c379a00000000000000000000000000000000000000000000000000000000081526004016119f490612b75565b60405180910390fd5b8060030160009054906101000a900473ffffffffffffffffffffffffffffffffffffffff1673ffffffffffffffffffffffffffffffffffffffff166323b872dd8260020160009054906101000a900473ffffffffffffffffffffffffffffffffffffffff168360010160009054906101000a900473ffffffffffffffffffffffffffffffffffffffff1684600401546040518463ffffffff1660e01b8152600401611aaa93929190612767565b600060405180830381600087803b158015611ac457600080fd5b505af1158015611ad8573d6000803e3d6000fd5b50505050857f375b4005eeae25d0e37d56e1b3841d3bb394b277efa2548de3293f5dcb7a349360405160405180910390a2857f6e3c6096795c8298a218b2cfb8bde42726ff7c9a3d27b4d3ba41ab7f74feb5fb8260020160009054906101000a900473ffffffffffffffffffffffffffffffffffffffff168360050154604051611b63929190612624565b60405180910390a2505050505050565b60007f01ffc9a7000000000000000000000000000000000000000000000000000000007bffffffffffffffffffffffffffffffffffffffffffffffffffffffff1916827bffffffffffffffffffffffffffffffffffffffffffffffffffffffff1916149050919050565b611bee81611be9611d23565b611ee2565b50565b6000611bfd8383611027565b611cd757600160008085815260200190815260200160002060000160008473ffffffffffffffffffffffffffffffffffffffff1673ffffffffffffffffffffffffffffffffffffffff16815260200190815260200160002060006101000a81548160ff021916908315150217905550611c74611d23565b73ffffffffffffffffffffffffffffffffffffffff168273ffffffffffffffffffffffffffffffffffffffff16847f2f8788117e7eff1d82e926ec794901d17c78024a50270940304540a733656f0d60405160405180910390a460019050611cdc565b600090505b92915050565b611cea610c40565b15611d21576040517fd93c066500000000000000000000000000000000000000000000000000000000815260040160405180910390fd5b565b600033905090565b6000611d378383611027565b15611e1257600080600085815260200190815260200160002060000160008473ffffffffffffffffffffffffffffffffffffffff1673ffffffffffffffffffffffffffffffffffffffff16815260200190815260200160002060006101000a81548160ff021916908315150217905550611daf611d23565b73ffffffffffffffffffffffffffffffffffffffff168273ffffffffffffffffffffffffffffffffffffffff16847ff6391f5c32d9c69d2a47ea670b442974b53935d1edc7fd64eb21e047a839171b60405160405180910390a460019050611e17565b600090505b92915050565b611e25611f33565b6000600160006101000a81548160ff0219169083151502179055507f5db9ee0a495bf2e6ff9c91a7834c1ba4fdd244a5e8aa4e537bd38aeae4b073aa611e69611d23565b604051611e769190612b95565b60405180910390a1565b611e88611ce2565b60018060006101000a81548160ff0219169083151502179055507f62e78cea01bee320cd4e420270b5ea74000d11b0c9f74754ebdbfc544b05a258611ecb611d23565b604051611ed89190612b95565b60405180910390a1565b611eec8282611027565b611f2f5780826040517fe2517d3f000000000000000000000000000000000000000000000000000000008152600401611f26929190612bb0565b60405180910390fd5b5050565b611f3b610c40565b611f71576040517f8dfc202b00000000000000000000000000000000000000000000000000000000815260040160405180910390fd5b565b600080fd5b600080fd5b6000819050919050565b611f9081611f7d565b8114611f9b57600080fd5b50565b600081359050611fad81611f87565b92915050565b600060208284031215611fc957611fc8611f73565b5b6000611fd784828501611f9e565b91505092915050565b611fe981611f7d565b82525050565b600073ffffffffffffffffffffffffffffffffffffffff82169050919050565b600061201a82611fef565b9050919050565b61202a8161200f565b82525050565b7f4e487b7100000000000000000000000000000000000000000000000000000000600052602160045260246000fd5b600581106120705761206f612030565b5b50565b60008190506120818261205f565b919050565b600061209182612073565b9050919050565b6120a181612086565b82525050565b60008115159050919050565b6120bc816120a7565b82525050565b6000610120820190506120d8600083018c611fe0565b6120e5602083018b612021565b6120f2604083018a612021565b6120ff6060830189612021565b61210c6080830188611fe0565b61211960a0830187611fe0565b61212660c0830186612098565b61213360e08301856120b3565b6121416101008301846120b3565b9a9950505050505050505050565b60007fffffffff0000000000000000000000000000000000000000000000000000000082169050919050565b6121848161214f565b811461218f57600080fd5b50565b6000813590506121a18161217b565b92915050565b6000602082840312156121bd576121bc611f73565b5b60006121cb84828501612192565b91505092915050565b60006020820190506121e960008301846120b3565b92915050565b6000819050919050565b612202816121ef565b811461220d57600080fd5b50565b60008135905061221f816121f9565b92915050565b60006020828403121561223b5761223a611f73565b5b600061224984828501612210565b91505092915050565b61225b816121ef565b82525050565b60006020820190506122766000830184612252565b92915050565b6122858161200f565b811461229057600080fd5b50565b6000813590506122a28161227c565b92915050565b600080604083850312156122bf576122be611f73565b5b60006122cd85828601612210565b92505060206122de85828601612293565b9150509250929050565b6000819050919050565b600061230d61230861230384611fef565b6122e8565b611fef565b9050919050565b600061231f826122f2565b9050919050565b600061233182612314565b9050919050565b61234181612326565b82525050565b600060208201905061235c6000830184612338565b92915050565b61236b816120a7565b811461237657600080fd5b50565b60008135905061238881612362565b92915050565b600080604083850312156123a5576123a4611f73565b5b60006123b385828601611f9e565b92505060206123c485828601612379565b9150509250929050565b600080fd5b600080fd5b600080fd5b60008083601f8401126123f3576123f26123ce565b5b8235905067ffffffffffffffff8111156124105761240f6123d3565b5b60208301915083600182028301111561242c5761242b6123d8565b5b9250929050565b60008060006040848603121561244c5761244b611f73565b5b600061245a86828701611f9e565b935050602084013567ffffffffffffffff81111561247b5761247a611f78565b5b612487868287016123dd565b92509250509250925092565b600080600080608085870312156124ad576124ac611f73565b5b60006124bb87828801612293565b94505060206124cc87828801611f9e565b93505060406124dd87828801612293565b92505060606124ee87828801611f9e565b91505092959194509250565b600060208201905061250f6000830184611fe0565b92915050565b600082825260208201905092915050565b7f496e76616c696420737461746500000000000000000000000000000000000000600082015250565b600061255c600d83612515565b915061256782612526565b602082019050919050565b6000602082019050818103600083015261258b8161254f565b9050919050565b7f457363726f772069732066726f7a656e2062792073656375726974792073656e60008201527f74696e656c000000000000000000000000000000000000000000000000000000602082015250565b60006125ee602583612515565b91506125f982612592565b604082019050919050565b6000602082019050818103600083015261261d816125e1565b9050919050565b60006040820190506126396000830185612021565b6126466020830184611fe0565b9392505050565b60008151905061265c81612362565b92915050565b60006020828403121561267857612677611f73565b5b60006126868482850161264d565b91505092915050565b7f526566756e64207472616e73666572206661696c656400000000000000000000600082015250565b60006126c5601683612515565b91506126d08261268f565b602082019050919050565b600060208201905081810360008301526126f4816126b8565b9050919050565b7f53656c6c6572207472616e73666572206661696c656400000000000000000000600082015250565b6000612731601683612515565b915061273c826126fb565b602082019050919050565b6000602082019050818103600083015261276081612724565b9050919050565b600060608201905061277c6000830186612021565b6127896020830185612021565b6127966040830184611fe0565b949350505050565b82818337600083830152505050565b6000601f19601f8301169050919050565b60006127ca8385612515565b93506127d783858461279e565b6127e0836127ad565b840190509392505050565b600060208201905081810360008301526128068184866127be565b90509392505050565b60008151905061281e8161227c565b92915050565b60006020828403121561283a57612839611f73565b5b60006128488482850161280f565b91505092915050565b7f53656c6c6572206d757374206f776e207468652076656869636c650000000000600082015250565b6000612887601b83612515565b915061289282612851565b602082019050919050565b600060208201905081810360008301526128b68161287a565b9050919050565b7f4e487b7100000000000000000000000000000000000000000000000000000000600052601160045260246000fd5b60006128f782611f7d565b91507fffffffffffffffffffffffffffffffffffffffffffffffffffffffffffffffff8203612929576129286128bd565b5b600182019050919050565b60006080820190506129496000830187612021565b6129566020830186612021565b6129636040830185611fe0565b6129706060830184611fe0565b95945050505050565b7f4f6e6c79207061727469636970616e74732063616e2064697370757465000000600082015250565b60006129af601d83612515565b91506129ba82612979565b602082019050919050565b600060208201905081810360008301526129de816129a2565b9050919050565b7f4f6e6c79206275796572206f722066756e6465722063616e206465706f736974600082015250565b6000612a1b602083612515565b9150612a26826129e5565b602082019050919050565b60006020820190508181036000830152612a4a81612a0e565b9050919050565b7f5061796d656e74206661696c6564000000000000000000000000000000000000600082015250565b6000612a87600e83612515565b9150612a9282612a51565b602082019050919050565b60006020820190508181036000830152612ab681612a7a565b9050919050565b7f4f6e6c792062757965722063616e2063616c6c20746869730000000000000000600082015250565b6000612af3601883612515565b9150612afe82612abd565b602082019050919050565b60006020820190508181036000830152612b2281612ae6565b9050919050565b7f546f6b656e207472616e73666572206661696c65640000000000000000000000600082015250565b6000612b5f601583612515565b9150612b6a82612b29565b602082019050919050565b60006020820190508181036000830152612b8e81612b52565b9050919050565b6000602082019050612baa6000830184612021565b92915050565b6000604082019050612bc56000830185612021565b612bd26020830184612252565b939250505056fea264697066735822122024a711ffa6f34982f26e6886ad5b6b7efa40179459ed2df9f55c1898b3432bef64736f6c63430008140033",
  "linkReferences": {},
  "deployedLinkReferences": {}
}