{
  "_format": "hh-sol-artifact-1",
  "contractName": "OzcarTradeInSettlement",
  "sourceName": "contracts/OzcarTradeInSettlement.sol",
  "abi": [
    {
      "inputs": [
        {
          "internalType": "address",
          "name": "initialOwner",
          "type": "address"
        }
      ],
      "stateMutability": "nonpayable",
      "type": "constructor"
    },
    {
      "inputs": [
        {
          "internalType": "address",
          "name": "owner",
          "type": "address"
        }
      ],
      "name": "OwnableInvalidOwner",
      "type": "error"
    },
    {
      "inputs": [
        {
          "internalType": "address",
          "name": "account",
          "type": "address"
        }
      ],
      "name": "OwnableUnauthorizedAccount",
      "type": "error"
    },
    {
      "inputs": [],
      "name": "ReentrancyGuardReentrantCall",
      "type": "error"
    },
    {
      "anonymous": false,
      "inputs": [
        {
          "indexed": true,
          "internalType": "uint256",
          "name": "tradeId",
          "type": "uint256"
        },
        {
          "indexed": false,
          "internalType": "uint256",
          "name": "amount",
          "type": "uint256"
        }
      ],
      "name": "FundsLocked",
      "type": "event"
    },
    {
      "anonymous": false,
      "inputs": [
        {
          "indexed": true,
          "internalType": "uint256",
          "name": "tradeId",
          "type": "uint256"
        },
        {
          "indexed": false,
          "internalType": "string",
          "name": "ipfsHash",
          "type": "string"
        }
      ],
      "name": "InspectionVerified",
      "type": "event"
    },
    {
      "anonymous": false,
      "inputs": [
        {
          "indexed": true,
          "internalType": "address",
          "name": "previousOwner",
          "type": "address"
        },
        {
          "indexed": true,
          "internalType": "address",
          "name": "newOwner",
          "type": "address"
        }
      ],
      "name": "OwnershipTransferred",
      "type": "event"
    },
    {
      "anonymous": false,
      "inputs": [
        {
          "indexed": true,
          "internalType": "uint256",
          "name": "tradeId",
          "type": "uint256"
        }
      ],
      "name": "TradeCompleted",
      "type": "event"
    },
    {
      "anonymous": false,
      "inputs": [
        {
          "indexed": true,
          "internalType": "uint256",
          "name": "tradeId",
          "type": "uint256"
        },
        {
          "indexed": true,
          "internalType": "address",
          "name": "seller",
          "type": "address"
        },
        {
          "indexed": true,
          "internalType": "address",
          "name": "buyer",
          "type": "address"
        },
        {
          "indexed": false,
          "internalType": "uint256",
          "name": "amount",
          "type": "uint256"
        }
      ],
      "name": "TradeCreated",
      "type": "event"
    },
    {
      "anonymous": false,
      "inputs": [
        {
          "indexed": true,
          "internalType": "uint256",
          "name": "tradeId",
          "type": "uint256"
        }
      ],
      "name": "TradeRefunded",
      "type": "event"
    },
    {
      "inputs": [
        {
          "internalType": "uint256",
          "name": "_tradeId",
          "type": "uint256"
        }
      ],
      "name": "completeTrade",
      "outputs": [],
      "stateMutability": "nonpayable",
      "type": "function"
    },
    {
      "inputs": [
        {
          "internalType": "uint256",
          "name": "_tradeId",
          "type": "uint256"
        },
        {
          "internalType": "string",
          "name": "_ipfsHash",
          "type": "string"
        }
      ],
      "name": "confirmInspection",
      "outputs": [],
      "stateMutability": "nonpayable",
      "type": "function"
    },
    {
      "inputs": [
        {
          "internalType": "address",
          "name": "_seller",
          "type": "address"
        },
        {
          "internalType": "address",
          "name": "_token",
          "type": "address"
        },
        {
          "internalType": "uint256",
          "name": "_amount",
          "type": "uint256"
        },
        {
          "internalType": "string",
          "name": "_vehicleVin",
          "type": "string"
        },
        {
          "internalType": "uint256",
          "name": "_durationSeconds",
          "type": "uint256"
        }
      ],
      "name": "createTrade",
      "outputs": [
        {
          "internalType": "uint256",
          "name": "",
          "type": "uint256"
        }
      ],
      "stateMutability": "nonpayable",
      "type": "function"
    },
    {
      "inputs": [
        {
          "internalType": "uint256",
          "name": "_tradeId",
          "type": "uint256"
        }
      ],
      "name": "depositFunds",
      "outputs": [],
      "stateMutability": "payable",
      "type": "function"
    },
    {
      "inputs": [],
      "name": "owner",
      "outputs": [
        {
          "internalType": "address",
          "name": "",
          "type": "address"
        }
      ],
      "stateMutability": "view",
      "type": "function"
    },
    {
      "inputs": [
        {
          "internalType": "uint256",
          "name": "_tradeId",
          "type": "uint256"
        }
      ],
      "name": "refundTrade",
      "outputs": [],
      "stateMutability": "nonpayable",
      "type": "function"
    },
    {
      "inputs": [],
      "name": "renounceOwnership",
      "outputs": [],
      "stateMutability": "nonpayable",
      "type": "function"
    },
    {
      "inputs": [],
      "name": "tradeCounter",
      "outputs": [
        {
          "internalType": "uint256",
          "name": "",
          "type": "uint256"
        }
      ],
      "stateMutability": "view",
      "type": "function"
    },
    {
      "inputs": [
        {
          "internalType": "uint256",
          "name": "",
          "type": "uint256"
        }
      ],
      "name": "trades",
      "outputs": [
        {
          "internalType": "uint256",
          "name": "tradeId",
          "type": "uint256"
        },
        {
          "internalType": "address",
          "name": "seller",
          "type": "address"
        },
        {
          "internalType": "address",
          "name": "buyer",
          "type": "address"
        },
        {
          "internalType": "address",
          "name": "tokenDetails",
          "type": "address"
        },
        {
          "internalType": "uint256",
          "name": "amount",
          "type": "uint256"
        },
        {
          "internalType": "uint256",
          "name": "validUntil",
          "type": "uint256"
        },
        {
          "internalType": "enum OzcarTradeInSettlement.State",
          "name": "state",
          "type": "uint8"
        },
        {
          "internalType": "string",
          "name": "vehicleVin",
          "type": "string"
        },
        {
          "internalType": "string",
          "name": "inspectionIpfsHash",
          "type": "string"
        }
      ],
      "stateMutability": "view",
      "type": "function"
    },
    {
      "inputs": [
        {
          "internalType": "address",
          "name": "newOwner",
          "type": "address"
        }
      ],
      "name": "transferOwnership",
      "outputs": [],
      "stateMutability": "nonpayable",
      "type": "function"
    }
  ],
  "bytecode": "0x60806040523480156200001157600080fd5b5060405162002b8b38038062002b8b8339818101604052810190620000379190620001fb565b80600073ffffffffffffffffffffffffffffffffffffffff168173ffffffffffffffffffffffffffffffffffffffff1603620000ad5760006040517f1e4fbdf7000000000000000000000000000000000000000000000000000000008152600401620000a491906200023e565b60405180910390fd5b620000be81620000cd60201b60201c565b5060018081905550506200025b565b60008060009054906101000a900473ffffffffffffffffffffffffffffffffffffffff169050816000806101000a81548173ffffffffffffffffffffffffffffffffffffffff021916908373ffffffffffffffffffffffffffffffffffffffff1602179055508173ffffffffffffffffffffffffffffffffffffffff168173ffffffffffffffffffffffffffffffffffffffff167f8be0079c531659141344cd1fd0a4f28419497f9722a3daafe3b4186f6b6457e060405160405180910390a35050565b600080fd5b600073ffffffffffffffffffffffffffffffffffffffff82169050919050565b6000620001c38262000196565b9050919050565b620001d581620001b6565b8114620001e157600080fd5b50565b600081519050620001f581620001ca565b92915050565b60006020828403121562000214576200021362000191565b5b60006200022484828501620001e4565b91505092915050565b6200023881620001b6565b82525050565b60006020820190506200025560008301846200022d565b92915050565b612920806200026b6000396000f3fe6080604052600436106100915760003560e01c80638da5cb5b116100595780638da5cb5b14610162578063ad2215511461018d578063b4195c47146101b6578063c96068ce146101df578063f2fde38b1461021c57610091565b80631e010551146100965780631e6c598e146100bf5780633b76594d14610104578063660d15b514610120578063715018a61461014b575b600080fd5b3480156100a257600080fd5b506100bd60048036038101906100b8919061197a565b610245565b005b3480156100cb57600080fd5b506100e660048036038101906100e191906119d6565b610358565b6040516100fb99989796959493929190611b49565b60405180910390f35b61011e600480360381019061011991906119d6565b610523565b005b34801561012c57600080fd5b50610135610852565b6040516101429190611be4565b60405180910390f35b34801561015757600080fd5b50610160610858565b005b34801561016e57600080fd5b5061017761086c565b6040516101849190611bff565b60405180910390f35b34801561019957600080fd5b506101b460048036038101906101af91906119d6565b610895565b005b3480156101c257600080fd5b506101dd60048036038101906101d891906119d6565b610e4b565b005b3480156101eb57600080fd5b5061020660048036038101906102019190611c46565b61126e565b6040516102139190611be4565b60405180910390f35b34801561022857600080fd5b50610243600480360381019061023e9190611cdd565b6115c2565b005b61024d611648565b60006002600084815260200190815260200160002090506001600481111561027857610277611a53565b5b8160060160009054906101000a900460ff16600481111561029c5761029b611a53565b5b146102dc576040517f08c379a00000000000000000000000000000000000000000000000000000000081526004016102d390611d56565b60405180910390fd5b818160080190816102ed9190611f82565b5060028160060160006101000a81548160ff0219169083600481111561031657610315611a53565b5b0217905550827f84b1c326ced780f52e1d01bcf27efbffb16f4223c4502e32549e7431216f28ba8360405161034b9190612054565b60405180910390a2505050565b60026020528060005260406000206000915090508060000154908060010160009054906101000a900473ffffffffffffffffffffffffffffffffffffffff16908060020160009054906101000a900473ffffffffffffffffffffffffffffffffffffffff16908060030160009054906101000a900473ffffffffffffffffffffffffffffffffffffffff16908060040154908060050154908060060160009054906101000a900460ff169080600701805461041290611da5565b80601f016020809104026020016040519081016040528092919081815260200182805461043e90611da5565b801561048b5780601f106104605761010080835404028352916020019161048b565b820191906000526020600020905b81548152906001019060200180831161046e57829003601f168201915b5050505050908060080180546104a090611da5565b80601f01602080910402602001604051908101604052809291908181526020018280546104cc90611da5565b80156105195780601f106104ee57610100808354040283529160200191610519565b820191906000526020600020905b8154815290600101906020018083116104fc57829003601f168201915b5050505050905089565b61052b6116cf565b60006002600083815260200190815260200160002090506000600481111561055657610555611a53565b5b8160060160009054906101000a900460ff16600481111561057a57610579611a53565b5b146105ba576040517f08c379a00000000000000000000000000000000000000000000000000000000081526004016105b1906120c2565b60405180910390fd5b8060020160009054906101000a900473ffffffffffffffffffffffffffffffffffffffff1673ffffffffffffffffffffffffffffffffffffffff163373ffffffffffffffffffffffffffffffffffffffff161461064c576040517f08c379a00000000000000000000000000000000000000000000000000000000081526004016106439061212e565b60405180910390fd5b600073ffffffffffffffffffffffffffffffffffffffff168160030160009054906101000a900473ffffffffffffffffffffffffffffffffffffffff1673ffffffffffffffffffffffffffffffffffffffff16036106ef57806004015434146106ea576040517f08c379a00000000000000000000000000000000000000000000000000000000081526004016106e19061219a565b60405180910390fd5b6107dd565b60008160030160009054906101000a900473ffffffffffffffffffffffffffffffffffffffff1690508073ffffffffffffffffffffffffffffffffffffffff166323b872dd333085600401546040518463ffffffff1660e01b8152600401610759939291906121ba565b6020604051808303816000875af1158015610778573d6000803e3d6000fd5b505050506040513d601f19601f8201168201806040525081019061079c9190612229565b6107db576040517f08c379a00000000000000000000000000000000000000000000000000000000081526004016107d2906122a2565b60405180910390fd5b505b60018160060160006101000a81548160ff0219169083600481111561080557610804611a53565b5b0217905550817fbedc4e5ac6876307c4b4b5761039aa2ebce89052490a34e15cc655d9142ba0dc826004015460405161083e9190611be4565b60405180910390a25061084f611715565b50565b60035481565b610860611648565b61086a600061171e565b565b60008060009054906101000a900473ffffffffffffffffffffffffffffffffffffffff16905090565b61089d6116cf565b6000600260008381526020019081526020016000209050600260048111156108c8576108c7611a53565b5b8160060160009054906101000a900460ff1660048111156108ec576108eb611a53565b5b1461092c576040517f08c379a00000000000000000000000000000000000000000000000000000000081526004016109239061230e565b60405180910390fd5b61093461086c565b73ffffffffffffffffffffffffffffffffffffffff163373ffffffffffffffffffffffffffffffffffffffff1614806109bc57508060020160009054906101000a900473ffffffffffffffffffffffffffffffffffffffff1673ffffffffffffffffffffffffffffffffffffffff163373ffffffffffffffffffffffffffffffffffffffff16145b6109fb576040517f08c379a00000000000000000000000000000000000000000000000000000000081526004016109f29061237a565b60405180910390fd5b60038160060160006101000a81548160ff02191690836004811115610a2357610a22611a53565b5b0217905550600061271060328360040154610a3e91906123c9565b610a48919061243a565b90506000818360040154610a5c919061246b565b9050600073ffffffffffffffffffffffffffffffffffffffff168360030160009054906101000a900473ffffffffffffffffffffffffffffffffffffffff1673ffffffffffffffffffffffffffffffffffffffff1603610c405760008360010160009054906101000a900473ffffffffffffffffffffffffffffffffffffffff1673ffffffffffffffffffffffffffffffffffffffff1682604051610b00906124d0565b60006040518083038185875af1925050503d8060008114610b3d576040519150601f19603f3d011682016040523d82523d6000602084013e610b42565b606091505b5050905080610b86576040517f08c379a0000000000000000000000000000000000000000000000000000000008152600401610b7d90612531565b60405180910390fd5b6000610b9061086c565b73ffffffffffffffffffffffffffffffffffffffff1684604051610bb3906124d0565b60006040518083038185875af1925050503d8060008114610bf0576040519150601f19603f3d011682016040523d82523d6000602084013e610bf5565b606091505b5050905080610c39576040517f08c379a0000000000000000000000000000000000000000000000000000000008152600401610c309061259d565b60405180910390fd5b5050610e10565b60008360030160009054906101000a900473ffffffffffffffffffffffffffffffffffffffff1690508073ffffffffffffffffffffffffffffffffffffffff1663a9059cbb8560010160009054906101000a900473ffffffffffffffffffffffffffffffffffffffff16846040518363ffffffff1660e01b8152600401610cc89291906125bd565b6020604051808303816000875af1158015610ce7573d6000803e3d6000fd5b505050506040513d601f19601f82011682018060405250810190610d0b9190612229565b610d4a576040517f08c379a0000000000000000000000000000000000000000000000000000000008152600401610d4190612632565b60405180910390fd5b8073ffffffffffffffffffffffffffffffffffffffff1663a9059cbb610d6e61086c565b856040518363ffffffff1660e01b8152600401610d8c9291906125bd565b6020604051808303816000875af1158015610dab573d6000803e3d6000fd5b505050506040513d601f19601f82011682018060405250810190610dcf9190612229565b610e0e576040517f08c379a0000000000000000000000000000000000000000000000000000000008152600401610e059061259d565b60405180910390fd5b505b837f60f91a26281f20fb528663f4da55773c83e2ee8a7a5dddb6d1753749e81dc49b60405160405180910390a2505050610e48611715565b50565b610e536116cf565b600060026000838152602001908152602001600020905060016004811115610e7e57610e7d611a53565b5b8160060160009054906101000a900460ff166004811115610ea257610ea1611a53565b5b14610ee2576040517f08c379a0000000000000000000000000000000000000000000000000000000008152600401610ed990611d56565b60405180910390fd5b6000816005015442119050610ef561086c565b73ffffffffffffffffffffffffffffffffffffffff163373ffffffffffffffffffffffffffffffffffffffff161480610f8657508160020160009054906101000a900473ffffffffffffffffffffffffffffffffffffffff1673ffffffffffffffffffffffffffffffffffffffff163373ffffffffffffffffffffffffffffffffffffffff16148015610f855750805b5b610fc5576040517f08c379a0000000000000000000000000000000000000000000000000000000008152600401610fbc9061269e565b60405180910390fd5b60048260060160006101000a81548160ff02191690836004811115610fed57610fec611a53565b5b0217905550600073ffffffffffffffffffffffffffffffffffffffff168260030160009054906101000a900473ffffffffffffffffffffffffffffffffffffffff1673ffffffffffffffffffffffffffffffffffffffff16036111245760008260020160009054906101000a900473ffffffffffffffffffffffffffffffffffffffff1673ffffffffffffffffffffffffffffffffffffffff168360040154604051611098906124d0565b60006040518083038185875af1925050503d80600081146110d5576040519150601f19603f3d011682016040523d82523d6000602084013e6110da565b606091505b505090508061111e576040517f08c379a00000000000000000000000000000000000000000000000000000000081526004016111159061270a565b60405180910390fd5b50611234565b60008260030160009054906101000a900473ffffffffffffffffffffffffffffffffffffffff1690508073ffffffffffffffffffffffffffffffffffffffff1663a9059cbb8460020160009054906101000a900473ffffffffffffffffffffffffffffffffffffffff1685600401546040518363ffffffff1660e01b81526004016111b09291906125bd565b6020604051808303816000875af11580156111cf573d6000803e3d6000fd5b505050506040513d601f19601f820116820180604052508101906111f39190612229565b611232576040517f08c379a000000000000000000000000000000000000000000000000000000000815260040161122990612776565b60405180910390fd5b505b827f90efc0e09d27ee22d367486717a0d52c094630ad5011bc98fa942fe2b2246ada60405160405180910390a2505061126b611715565b50565b60008073ffffffffffffffffffffffffffffffffffffffff168673ffffffffffffffffffffffffffffffffffffffff16036112de576040517f08c379a00000000000000000000000000000000000000000000000000000000081526004016112d5906127e2565b60405180910390fd5b60008411611321576040517f08c379a00000000000000000000000000000000000000000000000000000000081526004016113189061284e565b60405180910390fd5b60006003600081546113329061286e565b91905081905590506040518061012001604052808281526020018873ffffffffffffffffffffffffffffffffffffffff1681526020013373ffffffffffffffffffffffffffffffffffffffff1681526020018773ffffffffffffffffffffffffffffffffffffffff16815260200186815260200184426113b291906128b6565b8152602001600060048111156113cb576113ca611a53565b5b815260200185815260200160405180602001604052806000815250815250600260008381526020019081526020016000206000820151816000015560208201518160010160006101000a81548173ffffffffffffffffffffffffffffffffffffffff021916908373ffffffffffffffffffffffffffffffffffffffff16021790555060408201518160020160006101000a81548173ffffffffffffffffffffffffffffffffffffffff021916908373ffffffffffffffffffffffffffffffffffffffff16021790555060608201518160030160006101000a81548173ffffffffffffffffffffffffffffffffffffffff021916908373ffffffffffffffffffffffffffffffffffffffff1602179055506080820151816004015560a0820151816005015560c08201518160060160006101000a81548160ff0219169083600481111561151a57611519611a53565b5b021790555060e08201518160070190816115349190611f82565b5061010082015181600801908161154b9190611f82565b509050503373ffffffffffffffffffffffffffffffffffffffff168773ffffffffffffffffffffffffffffffffffffffff16827f7db1856a9087992b8c7c25a7f1622a9b144ff325953aee6bbb6d38d762c189f6886040516115ad9190611be4565b60405180910390a48091505095945050505050565b6115ca611648565b600073ffffffffffffffffffffffffffffffffffffffff168173ffffffffffffffffffffffffffffffffffffffff160361163c5760006040517f1e4fbdf70000000000000000000000000000000000000000000000000000000081526004016116339190611bff565b60405180910390fd5b6116458161171e565b50565b6116506117e2565b73ffffffffffffffffffffffffffffffffffffffff1661166e61086c565b73ffffffffffffffffffffffffffffffffffffffff16146116cd576116916117e2565b6040517f118cdaa70000000000000000000000000000000000000000000000000000000081526004016116c49190611bff565b60405180910390fd5b565b60026001540361170b576040517f3ee5aeb500000000000000000000000000000000000000000000000000000000815260040160405180910390fd5b6002600181905550565b60018081905550565b60008060009054906101000a900473ffffffffffffffffffffffffffffffffffffffff169050816000806101000a81548173ffffffffffffffffffffffffffffffffffffffff021916908373ffffffffffffffffffffffffffffffffffffffff1602179055508173ffffffffffffffffffffffffffffffffffffffff168173ffffffffffffffffffffffffffffffffffffffff167f8be0079c531659141344cd1fd0a4f28419497f9722a3daafe3b4186f6b6457e060405160405180910390a35050565b600033905090565b6000604051905090565b600080fd5b600080fd5b6000819050919050565b611811816117fe565b811461181c57600080fd5b50565b60008135905061182e81611808565b92915050565b600080fd5b600080fd5b6000601f19601f8301169050919050565b7f4e487b7100000000000000000000000000000000000000000000000000000000600052604160045260246000fd5b6118878261183e565b810181811067ffffffffffffffff821117156118a6576118a561184f565b5b80604052505050565b60006118b96117ea565b90506118c5828261187e565b919050565b600067ffffffffffffffff8211156118e5576118e461184f565b5b6118ee8261183e565b9050602081019050919050565b82818337600083830152505050565b600061191d611918846118ca565b6118af565b90508281526020810184848401111561193957611938611839565b5b6119448482856118fb565b509392505050565b600082601f83011261196157611960611834565b5b813561197184826020860161190a565b91505092915050565b60008060408385031215611991576119906117f4565b5b600061199f8582860161181f565b925050602083013567ffffffffffffffff8111156119c0576119bf6117f9565b5b6119cc8582860161194c565b9150509250929050565b6000602082840312156119ec576119eb6117f4565b5b60006119fa8482850161181f565b91505092915050565b611a0c816117fe565b82525050565b600073ffffffffffffffffffffffffffffffffffffffff82169050919050565b6000611a3d82611a12565b9050919050565b611a4d81611a32565b82525050565b7f4e487b7100000000000000000000000000000000000000000000000000000000600052602160045260246000fd5b60058110611a9357611a92611a53565b5b50565b6000819050611aa482611a82565b919050565b6000611ab482611a96565b9050919050565b611ac481611aa9565b82525050565b600081519050919050565b600082825260208201905092915050565b60005b83811015611b04578082015181840152602081019050611ae9565b60008484015250505050565b6000611b1b82611aca565b611b258185611ad5565b9350611b35818560208601611ae6565b611b3e8161183e565b840191505092915050565b600061012082019050611b5f600083018c611a03565b611b6c602083018b611a44565b611b79604083018a611a44565b611b866060830189611a44565b611b936080830188611a03565b611ba060a0830187611a03565b611bad60c0830186611abb565b81810360e0830152611bbf8185611b10565b9050818103610100830152611bd48184611b10565b90509a9950505050505050505050565b6000602082019050611bf96000830184611a03565b92915050565b6000602082019050611c146000830184611a44565b92915050565b611c2381611a32565b8114611c2e57600080fd5b50565b600081359050611c4081611c1a565b92915050565b600080600080600060a08688031215611c6257611c616117f4565b5b6000611c7088828901611c31565b9550506020611c8188828901611c31565b9450506040611c928882890161181f565b935050606086013567ffffffffffffffff811115611cb357611cb26117f9565b5b611cbf8882890161194c565b9250506080611cd08882890161181f565b9150509295509295909350565b600060208284031215611cf357611cf26117f4565b5b6000611d0184828501611c31565b91505092915050565b7f46756e6473206e6f74206c6f636b656400000000000000000000000000000000600082015250565b6000611d40601083611ad5565b9150611d4b82611d0a565b602082019050919050565b60006020820190508181036000830152611d6f81611d33565b9050919050565b7f4e487b7100000000000000000000000000000000000000000000000000000000600052602260045260246000fd5b60006002820490506001821680611dbd57607f821691505b602082108103611dd057611dcf611d76565b5b50919050565b60008190508160005260206000209050919050565b60006020601f8301049050919050565b600082821b905092915050565b600060088302611e387fffffffffffffffffffffffffffffffffffffffffffffffffffffffffffffffff82611dfb565b611e428683611dfb565b95508019841693508086168417925050509392505050565b6000819050919050565b6000611e7f611e7a611e75846117fe565b611e5a565b6117fe565b9050919050565b6000819050919050565b611e9983611e64565b611ead611ea582611e86565b848454611e08565b825550505050565b600090565b611ec2611eb5565b611ecd818484611e90565b505050565b5b81811015611ef157611ee6600082611eba565b600181019050611ed3565b5050565b601f821115611f3657611f0781611dd6565b611f1084611deb565b81016020851015611f1f578190505b611f33611f2b85611deb565b830182611ed2565b50505b505050565b600082821c905092915050565b6000611f5960001984600802611f3b565b1980831691505092915050565b6000611f728383611f48565b9150826002028217905092915050565b611f8b82611aca565b67ffffffffffffffff811115611fa457611fa361184f565b5b611fae8254611da5565b611fb9828285611ef5565b600060209050601f831160018114611fec5760008415611fda578287015190505b611fe48582611f66565b86555061204c565b601f198416611ffa86611dd6565b60005b8281101561202257848901518255600182019150602085019450602081019050611ffd565b8683101561203f578489015161203b601f891682611f48565b8355505b6001600288020188555050505b505050505050565b6000602082019050818103600083015261206e8184611b10565b905092915050565b7f496e76616c696420737461746500000000000000000000000000000000000000600082015250565b60006120ac600d83611ad5565b91506120b782612076565b602082019050919050565b600060208201905081810360008301526120db8161209f565b9050919050565b7f4f6e6c792062757965722063616e206465706f73697400000000000000000000600082015250565b6000612118601683611ad5565b9150612123826120e2565b602082019050919050565b600060208201905081810360008301526121478161210b565b9050919050565b7f496e636f72726563742045544820616d6f756e74000000000000000000000000600082015250565b6000612184601483611ad5565b915061218f8261214e565b602082019050919050565b600060208201905081810360008301526121b381612177565b9050919050565b60006060820190506121cf6000830186611a44565b6121dc6020830185611a44565b6121e96040830184611a03565b949350505050565b60008115159050919050565b612206816121f1565b811461221157600080fd5b50565b600081519050612223816121fd565b92915050565b60006020828403121561223f5761223e6117f4565b5b600061224d84828501612214565b91505092915050565b7f546f6b656e207472616e73666572206661696c65640000000000000000000000600082015250565b600061228c601583611ad5565b915061229782612256565b602082019050919050565b600060208201905081810360008301526122bb8161227f565b9050919050565b7f496e7370656374696f6e206e6f74207061737365640000000000000000000000600082015250565b60006122f8601583611ad5565b9150612303826122c2565b602082019050919050565b60006020820190508181036000830152612327816122eb565b9050919050565b7f556e617574686f72697a65640000000000000000000000000000000000000000600082015250565b6000612364600c83611ad5565b915061236f8261232e565b602082019050919050565b6000602082019050818103600083015261239381612357565b9050919050565b7f4e487b7100000000000000000000000000000000000000000000000000000000600052601160045260246000fd5b60006123d4826117fe565b91506123df836117fe565b92508282026123ed816117fe565b915082820484148315176124045761240361239a565b5b5092915050565b7f4e487b7100000000000000000000000000000000000000000000000000000000600052601260045260246000fd5b6000612445826117fe565b9150612450836117fe565b9250826124605761245f61240b565b5b828204905092915050565b6000612476826117fe565b9150612481836117fe565b92508282039050818111156124995761249861239a565b5b92915050565b600081905092915050565b50565b60006124ba60008361249f565b91506124c5826124aa565b600082019050919050565b60006124db826124ad565b9150819050919050565b7f5472616e7366657220746f2073656c6c6572206661696c656400000000000000600082015250565b600061251b601983611ad5565b9150612526826124e5565b602082019050919050565b6000602082019050818103600083015261254a8161250e565b9050919050565b7f466565207472616e73666572206661696c656400000000000000000000000000600082015250565b6000612587601383611ad5565b915061259282612551565b602082019050919050565b600060208201905081810360008301526125b68161257a565b9050919050565b60006040820190506125d26000830185611a44565b6125df6020830184611a03565b9392505050565b7f546f6b656e207472616e7366657220746f2073656c6c6572206661696c656400600082015250565b600061261c601f83611ad5565b9150612627826125e6565b602082019050919050565b6000602082019050818103600083015261264b8161260f565b9050919050565b7f526566756e64206e6f7420617661696c61626c65000000000000000000000000600082015250565b6000612688601483611ad5565b915061269382612652565b602082019050919050565b600060208201905081810360008301526126b78161267b565b9050919050565b7f526566756e64206661696c656400000000000000000000000000000000000000600082015250565b60006126f4600d83611ad5565b91506126ff826126be565b602082019050919050565b60006020820190508181036000830152612723816126e7565b9050919050565b7f546f6b656e20726566756e64206661696c656400000000000000000000000000600082015250565b6000612760601383611ad5565b915061276b8261272a565b602082019050919050565b6000602082019050818103600083015261278f81612753565b9050919050565b7f496e76616c69642073656c6c6572000000000000000000000000000000000000600082015250565b60006127cc600e83611ad5565b91506127d782612796565b602082019050919050565b600060208201905081810360008301526127fb816127bf565b9050919050565b7f496e76616c696420616d6f756e74000000000000000000000000000000000000600082015250565b6000612838600e83611ad5565b915061284382612802565b602082019050919050565b600060208201905081810360008301526128678161282b565b9050919050565b6000612879826117fe565b91507fffffffffffffffffffffffffffffffffffffffffffffffffffffffffffffffff82036128ab576128aa61239a565b5b600182019050919050565b60006128c1826117fe565b91506128cc836117fe565b92508282019050808211156128e4576128e361239a565b5b9291505056fea2646970667358221220ba1c9b2e0602094169550c0f0f26245bd7f30b7b4f7f34ebd63bf8472a4613f364736f6c63430008140033",
  "linkReferences": {},
  "deployedLinkReferences": {}
}