{
  "_format": "hh-sol-artifact-1",
  "contractName": "OzcarGovernance",
  "sourceName": "contracts/OzcarGovernance.sol",
  "abi": [
    {
      "inputs": [
        {
          "internalType": "address",
          "name": "initialOwner",
          "type": "address"
        },
        {
          "internalType": "address",
          "name": "_ozcToken",
          "type": "address"
        },
        {
          "internalType": "address",
          "name": "_reputation",
          "type": "address"
        }
      ],
      "stateMutability": "nonpayable",
      "type": "constructor"
    },
    {
      "inputs": [
        {
          "internalType": "address",
          "name": "owner",
          "type": "address"
        }
      ],
      "name": "OwnableInvalidOwner",
      "type": "error"
    },
    {
      "inputs": [
        {
          "internalType": "address",
          "name": "account",
          "type": "address"
        }
      ],
      "name": "OwnableUnauthorizedAccount",
      "type": "error"
    },
    {
      "anonymous": false,
      "inputs": [
        {
          "indexed": true,
          "internalType": "address",
          "name": "juror",
          "type": "address"
        },
        {
          "indexed": false,
          "internalType": "uint256",
          "name": "newAccuracy",
          "type": "uint256"
        }
      ],
      "name": "AccuracyUpdated",
      "type": "event"
    },
    {
      "anonymous": false,
      "inputs": [
        {
          "indexed": true,
          "internalType": "bytes32",
          "name": "caseId",
          "type": "bytes32"
        },
        {
          "indexed": false,
          "internalType": "uint256",
          "name": "score",
          "type": "uint256"
        }
      ],
      "name": "AnomalyDetected",
      "type": "event"
    },
    {
      "anonymous": false,
      "inputs": [
        {
          "indexed": true,
          "internalType": "bytes32",
          "name": "caseId",
          "type": "bytes32"
        },
        {
          "indexed": false,
          "internalType": "bool",
          "name": "finalDecision",
          "type": "bool"
        },
        {
          "indexed": false,
          "internalType": "uint256",
          "name": "validVotes",
          "type": "uint256"
        },
        {
          "indexed": false,
          "internalType": "uint256",
          "name": "invalidVotes",
          "type": "uint256"
        }
      ],
      "name": "CaseFinalized",
      "type": "event"
    },
    {
      "anonymous": false,
      "inputs": [
        {
          "indexed": true,
          "internalType": "bytes32",
          "name": "caseId",
          "type": "bytes32"
        },
        {
          "indexed": false,
          "internalType": "enum OzcarGovernance.CaseType",
          "name": "caseType",
          "type": "uint8"
        },
        {
          "indexed": true,
          "internalType": "address",
          "name": "submitter",
          "type": "address"
        }
      ],
      "name": "CaseSubmitted",
      "type": "event"
    },
    {
      "anonymous": false,
      "inputs": [
        {
          "indexed": true,
          "internalType": "address",
          "name": "juror",
          "type": "address"
        },
        {
          "indexed": false,
          "internalType": "enum OzcarGovernance.JuryTier",
          "name": "tier",
          "type": "uint8"
        }
      ],
      "name": "JurorRegistered",
      "type": "event"
    },
    {
      "anonymous": false,
      "inputs": [
        {
          "indexed": true,
          "internalType": "address",
          "name": "juror",
          "type": "address"
        },
        {
          "indexed": false,
          "internalType": "enum OzcarGovernance.JuryTier",
          "name": "oldTier",
          "type": "uint8"
        },
        {
          "indexed": false,
          "internalType": "enum OzcarGovernance.JuryTier",
          "name": "newTier",
          "type": "uint8"
        }
      ],
      "name": "JurorUpgraded",
      "type": "event"
    },
    {
      "anonymous": false,
      "inputs": [
        {
          "indexed": true,
          "internalType": "address",
          "name": "previousOwner",
          "type": "address"
        },
        {
          "indexed": true,
          "internalType": "address",
          "name": "newOwner",
          "type": "address"
        }
      ],
      "name": "OwnershipTransferred",
      "type": "event"
    },
    {
      "anonymous": false,
      "inputs": [
        {
          "indexed": true,
          "internalType": "address",
          "name": "juror",
          "type": "address"
        },
        {
          "indexed": false,
          "internalType": "uint256",
          "name": "amount",
          "type": "uint256"
        }
      ],
      "name": "RewardDistributed",
      "type": "event"
    },
    {
      "anonymous": false,
      "inputs": [
        {
          "indexed": true,
          "internalType": "bytes32",
          "name": "caseId",
          "type": "bytes32"
        },
        {
          "indexed": true,
          "internalType": "address",
          "name": "juror",
          "type": "address"
        },
        {
          "indexed": false,
          "internalType": "bool",
          "name": "decision",
          "type": "bool"
        }
      ],
      "name": "Voted",
      "type": "event"
    },
    {
      "inputs": [],
      "name": "ANOMALY_THRESHOLD",
      "outputs": [
        {
          "internalType": "uint256",
          "name": "",
          "type": "uint256"
        }
      ],
      "stateMutability": "view",
      "type": "function"
    },
    {
      "inputs": [],
      "name": "CASE_DURATION",
      "outputs": [
        {
          "internalType": "uint256",
          "name": "",
          "type": "uint256"
        }
      ],
      "stateMutability": "view",
      "type": "function"
    },
    {
      "inputs": [],
      "name": "CITIZEN_MIN_STAKE",
      "outputs": [
        {
          "internalType": "uint256",
          "name": "",
          "type": "uint256"
        }
      ],
      "stateMutability": "view",
      "type": "function"
    },
    {
      "inputs": [],
      "name": "CITIZEN_VOTING_POWER",
      "outputs": [
        {
          "internalType": "uint256",
          "name": "",
          "type": "uint256"
        }
      ],
      "stateMutability": "view",
      "type": "function"
    },
    {
      "inputs": [],
      "name": "EXPERT_MIN_STAKE",
      "outputs": [
        {
          "internalType": "uint256",
          "name": "",
          "type": "uint256"
        }
      ],
      "stateMutability": "view",
      "type": "function"
    },
    {
      "inputs": [],
      "name": "EXPERT_VOTING_POWER",
      "outputs": [
        {
          "internalType": "uint256",
          "name": "",
          "type": "uint256"
        }
      ],
      "stateMutability": "view",
      "type": "function"
    },
    {
      "inputs": [],
      "name": "GRAND_JURY_MIN_STAKE",
      "outputs": [
        {
          "internalType": "uint256",
          "name": "",
          "type": "uint256"
        }
      ],
      "stateMutability": "view",
      "type": "function"
    },
    {
      "inputs": [],
      "name": "GRAND_JURY_VOTING_POWER",
      "outputs": [
        {
          "internalType": "uint256",
          "name": "",
          "type": "uint256"
        }
      ],
      "stateMutability": "view",
      "type": "function"
    },
    {
      "inputs": [],
      "name": "REWARD_POOL_PER_CASE",
      "outputs": [
        {
          "internalType": "uint256",
          "name": "",
          "type": "uint256"
        }
      ],
      "stateMutability": "view",
      "type": "function"
    },
    {
      "inputs": [],
      "name": "TARGET_CITIZEN_RATIO",
      "outputs": [
        {
          "internalType": "uint256",
          "name": "",
          "type": "uint256"
        }
      ],
      "stateMutability": "view",
      "type": "function"
    },
    {
      "inputs": [],
      "name": "TARGET_EXPERT_RATIO",
      "outputs": [
        {
          "internalType": "uint256",
          "name": "",
          "type": "uint256"
        }
      ],
      "stateMutability": "view",
      "type": "function"
    },
    {
      "inputs": [],
      "name": "TARGET_GRAND_JURY_RATIO",
      "outputs": [
        {
          "internalType": "uint256",
          "name": "",
          "type": "uint256"
        }
      ],
      "stateMutability": "view",
      "type": "function"
    },
    {
      "inputs": [
        {
          "internalType": "uint256",
          "name": "",
          "type": "uint256"
        }
      ],
      "name": "activeCases",
      "outputs": [
        {
          "internalType": "bytes32",
          "name": "",
          "type": "bytes32"
        }
      ],
      "stateMutability": "view",
      "type": "function"
    },
    {
      "inputs": [
        {
          "internalType": "uint256",
          "name": "",
          "type": "uint256"
        }
      ],
      "name": "activeJurors",
      "outputs": [
        {
          "internalType": "address",
          "name": "",
          "type": "address"
        }
      ],
      "stateMutability": "view",
      "type": "function"
    },
    {
      "inputs": [
        {
          "internalType": "bytes32",
          "name": "",
          "type": "bytes32"
        },
        {
          "internalType": "uint256",
          "name": "",
          "type": "uint256"
        }
      ],
      "name": "caseVotes",
      "outputs": [
        {
          "internalType": "address",
          "name": "juror",
          "type": "address"
        },
        {
          "internalType": "enum OzcarGovernance.JuryTier",
          "name": "tier",
          "type": "uint8"
        },
        {
          "internalType": "bool",
          "name": "decision",
          "type": "bool"
        },
        {
          "internalType": "uint256",
          "name": "votingPower",
          "type": "uint256"
        },
        {
          "internalType": "uint256",
          "name": "timestamp",
          "type": "uint256"
        }
      ],
      "stateMutability": "view",
      "type": "function"
    },
    {
      "inputs": [
        {
          "internalType": "bytes32",
          "name": "",
          "type": "bytes32"
        }
      ],
      "name": "cases",
      "outputs": [
        {
          "internalType": "bytes32",
          "name": "id",
          "type": "bytes32"
        },
        {
          "internalType": "enum OzcarGovernance.CaseType",
          "name": "caseType",
          "type": "uint8"
        },
        {
          "internalType": "address",
          "name": "submitter",
          "type": "address"
        },
        {
          "internalType": "string",
          "name": "ipfsHash",
          "type": "string"
        },
        {
          "internalType": "uint256",
          "name": "createdAt",
          "type": "uint256"
        },
        {
          "internalType": "uint256",
          "name": "deadline",
          "type": "uint256"
        },
        {
          "internalType": "enum OzcarGovernance.CaseStatus",
          "name": "status",
          "type": "uint8"
        },
        {
          "internalType": "bool",
          "name": "finalized",
          "type": "bool"
        },
        {
          "internalType": "uint256",
          "name": "anomalyScore",
          "type": "uint256"
        }
      ],
      "stateMutability": "view",
      "type": "function"
    },
    {
      "inputs": [
        {
          "internalType": "uint256",
          "name": "_amount",
          "type": "uint256"
        }
      ],
      "name": "emergencyWithdraw",
      "outputs": [],
      "stateMutability": "nonpayable",
      "type": "function"
    },
    {
      "inputs": [
        {
          "internalType": "bytes32",
          "name": "_caseId",
          "type": "bytes32"
        },
        {
          "internalType": "uint256",
          "name": "_anomalyScore",
          "type": "uint256"
        }
      ],
      "name": "finalizeCase",
      "outputs": [],
      "stateMutability": "nonpayable",
      "type": "function"
    },
    {
      "inputs": [
        {
          "internalType": "bytes32",
          "name": "_caseId",
          "type": "bytes32"
        }
      ],
      "name": "getCaseVotes",
      "outputs": [
        {
          "components": [
            {
              "internalType": "address",
              "name": "juror",
              "type": "address"
            },
            {
              "internalType": "enum OzcarGovernance.JuryTier",
              "name": "tier",
              "type": "uint8"
            },
            {
              "internalType": "bool",
              "name": "decision",
              "type": "bool"
            },
            {
              "internalType": "uint256",
              "name": "votingPower",
              "type": "uint256"
            },
            {
              "internalType": "uint256",
              "name": "timestamp",
              "type": "uint256"
            }
          ],
          "internalType": "struct OzcarGovernance.Vote[]",
          "name": "",
          "type": "tuple[]"
        }
      ],
      "stateMutability": "view",
      "type": "function"
    },
    {
      "inputs": [
        {
          "internalType": "address",
          "name": "_juror",
          "type": "address"
        }
      ],
      "name": "getJurorStats",
      "outputs": [
        {
          "internalType": "enum OzcarGovernance.JuryTier",
          "name": "tier",
          "type": "uint8"
        },
        {
          "internalType": "uint256",
          "name": "votingPower",
          "type": "uint256"
        },
        {
          "internalType": "uint256",
          "name": "accuracy",
          "type": "uint256"
        },
        {
          "internalType": "uint256",
          "name": "totalVotes",
          "type": "uint256"
        },
        {
          "internalType": "uint256",
          "name": "correctVotes",
          "type": "uint256"
        },
        {
          "internalType": "bool",
          "name": "isTrial",
          "type": "bool"
        }
      ],
      "stateMutability": "view",
      "type": "function"
    },
    {
      "inputs": [],
      "name": "getPendingCases",
      "outputs": [
        {
          "internalType": "bytes32[]",
          "name": "",
          "type": "bytes32[]"
        }
      ],
      "stateMutability": "view",
      "type": "function"
    },
    {
      "inputs": [
        {
          "internalType": "address",
          "name": "_juror",
          "type": "address"
        }
      ],
      "name": "getWeightedVotingPower",
      "outputs": [
        {
          "internalType": "uint256",
          "name": "",
          "type": "uint256"
        }
      ],
      "stateMutability": "view",
      "type": "function"
    },
    {
      "inputs": [
        {
          "internalType": "bytes32",
          "name": "",
          "type": "bytes32"
        },
        {
          "internalType": "address",
          "name": "",
          "type": "address"
        }
      ],
      "name": "hasVoted",
      "outputs": [
        {
          "internalType": "bool",
          "name": "",
          "type": "bool"
        }
      ],
      "stateMutability": "view",
      "type": "function"
    },
    {
      "inputs": [
        {
          "internalType": "address",
          "name": "",
          "type": "address"
        }
      ],
      "name": "jurors",
      "outputs": [
        {
          "internalType": "address",
          "name": "wallet",
          "type": "address"
        },
        {
          "internalType": "enum OzcarGovernance.JuryTier",
          "name": "tier",
          "type": "uint8"
        },
        {
          "internalType": "uint256",
          "name": "votingPower",
          "type": "uint256"
        },
        {
          "internalType": "uint256",
          "name": "accuracy",
          "type": "uint256"
        },
        {
          "internalType": "uint256",
          "name": "totalVotes",
          "type": "uint256"
        },
        {
          "internalType": "uint256",
          "name": "correctVotes",
          "type": "uint256"
        },
        {
          "internalType": "uint256",
          "name": "ownedVehicles",
          "type": "uint256"
        },
        {
          "internalType": "uint256",
          "name": "stakingAmount",
          "type": "uint256"
        },
        {
          "internalType": "bool",
          "name": "isActive",
          "type": "bool"
        },
        {
          "internalType": "bool",
          "name": "isTrial",
          "type": "bool"
        },
        {
          "internalType": "uint256",
          "name": "joinedAt",
          "type": "uint256"
        }
      ],
      "stateMutability": "view",
      "type": "function"
    },
    {
      "inputs": [],
      "name": "owner",
      "outputs": [
        {
          "internalType": "address",
          "name": "",
          "type": "address"
        }
      ],
      "stateMutability": "view",
      "type": "function"
    },
    {
      "inputs": [],
      "name": "ozcToken",
      "outputs": [
        {
          "internalType": "contract IERC20",
          "name": "",
          "type": "address"
        }
      ],
      "stateMutability": "view",
      "type": "function"
    },
    {
      "inputs": [
        {
          "internalType": "uint256",
          "name": "_ownedVehicles",
          "type": "uint256"
        }
      ],
      "name": "registerAsJuror",
      "outputs": [],
      "stateMutability": "nonpayable",
      "type": "function"
    },
    {
      "inputs": [],
      "name": "renounceOwnership",
      "outputs": [],
      "stateMutability": "nonpayable",
      "type": "function"
    },
    {
      "inputs": [],
      "name": "reputation",
      "outputs": [
        {
          "internalType": "contract OzcarReputation",
          "name": "",
          "type": "address"
        }
      ],
      "stateMutability": "view",
      "type": "function"
    },
    {
      "inputs": [
        {
          "internalType": "enum OzcarGovernance.CaseType",
          "name": "_caseType",
          "type": "uint8"
        },
        {
          "internalType": "string",
          "name": "_ipfsHash",
          "type": "string"
        }
      ],
      "name": "submitCase",
      "outputs": [
        {
          "internalType": "bytes32",
          "name": "",
          "type": "bytes32"
        }
      ],
      "stateMutability": "nonpayable",
      "type": "function"
    },
    {
      "inputs": [
        {
          "internalType": "address",
          "name": "newOwner",
          "type": "address"
        }
      ],
      "name": "transferOwnership",
      "outputs": [],
      "stateMutability": "nonpayable",
      "type": "function"
    },
    {
      "inputs": [
        {
          "internalType": "enum OzcarGovernance.JuryTier",
          "name": "_newTier",
          "type": "uint8"
        }
      ],
      "name": "upgradeTier",
      "outputs": [],
      "stateMutability": "nonpayable",
      "type": "function"
    },
    {
      "inputs": [
        {
          "internalType": "bytes32",
          "name": "_caseId",
          "type": "bytes32"
        },
        {
          "internalType": "bool",
          "name": "_decision",
          "type": "bool"
        }
      ],
      "name": "vote",
      "outputs": [],
      "stateMutability": "nonpayable",
      "type": "function"
    }
  ],
  "bytecode": "0x60806040523480156200001157600080fd5b506040516200481238038062004812833981810160405281019062000037919062000278565b82600073ffffffffffffffffffffffffffffffffffffffff168173ffffffffffffffffffffffffffffffffffffffff1603620000ad5760006040517f1e4fbdf7000000000000000000000000000000000000000000000000000000008152600401620000a49190620002e5565b60405180910390fd5b620000be816200014a60201b60201c565b5081600160006101000a81548173ffffffffffffffffffffffffffffffffffffffff021916908373ffffffffffffffffffffffffffffffffffffffff16021790555080600260006101000a81548173ffffffffffffffffffffffffffffffffffffffff021916908373ffffffffffffffffffffffffffffffffffffffff16021790555050505062000302565b60008060009054906101000a900473ffffffffffffffffffffffffffffffffffffffff169050816000806101000a81548173ffffffffffffffffffffffffffffffffffffffff021916908373ffffffffffffffffffffffffffffffffffffffff1602179055508173ffffffffffffffffffffffffffffffffffffffff168173ffffffffffffffffffffffffffffffffffffffff167f8be0079c531659141344cd1fd0a4f28419497f9722a3daafe3b4186f6b6457e060405160405180910390a35050565b600080fd5b600073ffffffffffffffffffffffffffffffffffffffff82169050919050565b6000620002408262000213565b9050919050565b620002528162000233565b81146200025e57600080fd5b50565b600081519050620002728162000247565b92915050565b6000806000606084860312156200029457620002936200020e565b5b6000620002a48682870162000261565b9350506020620002b78682870162000261565b9250506040620002ca8682870162000261565b9150509250925092565b620002df8162000233565b82525050565b6000602082019050620002fc6000830184620002d4565b92915050565b61450080620003126000396000f3fe608060405234801561001057600080fd5b50600436106101fb5760003560e01c80638da5cb5b1161011a578063c52164c6116100ad578063e737341e1161007c578063e737341e146105f9578063ed8d71e014610617578063f19c7d6414610635578063f2fde38b14610653578063fa814b751461066f576101fb565b8063c52164c614610553578063dca5f6b014610571578063ddd9fa48146105ab578063e2da844d146105c9576101fb565b8063af95040c116100e9578063af95040c146104c9578063b01b9128146104f9578063bb6846e614610517578063c4a2976014610535576101fb565b80638da5cb5b146104435780639f2ce67814610461578063a2949dd71461047d578063aadc3b7214610499576101fb565b806349cc6615116101925780635c1a58b5116101615780635c1a58b5146103b75780636636411e146103d5578063715018a6146104095780637e7d8d3a14610413576101fb565b806349cc66151461033157806351724eca1461034f5780635312ea8e1461037f5780635b7c6d7e1461039b576101fb565b806338edf777116101ce57806338edf777146102a15780633bc70ec0146102bf57806348ea1c23146102db578063492cbd7414610313576101fb565b80631513bdb1146102005780631ddde4281461023057806321885ea614610265578063381af86f14610283575b600080fd5b61021a60048036038101906102159190612bb5565b61068d565b6040516102279190612de5565b60405180910390f35b61024a60048036038101906102459190612e33565b6107bf565b60405161025c96959493929190612e8d565b60405180910390f35b61026d61095d565b60405161027a9190612eee565b60405180910390f35b61028b610962565b6040516102989190612eee565b60405180910390f35b6102a9610967565b6040516102b69190612eee565b60405180910390f35b6102d960048036038101906102d49190612f35565b61096c565b005b6102f560048036038101906102f09190612bb5565b610e5e565b60405161030a999897969594939291906130a0565b60405180910390f35b61031b610f7b565b6040516103289190612eee565b60405180910390f35b610339610f80565b6040516103469190612eee565b60405180910390f35b6103696004803603810190610364919061328e565b610f86565b60405161037691906132ea565b60405180910390f35b61039960048036038101906103949190612f35565b6111e1565b005b6103b560048036038101906103b09190613305565b611294565b005b6103bf6116ab565b6040516103cc9190612eee565b60405180910390f35b6103ef60048036038101906103ea9190613305565b6116b0565b604051610400959493929190613345565b60405180910390f35b61041161173d565b005b61042d60048036038101906104289190612e33565b611751565b60405161043a9190612eee565b60405180910390f35b61044b6118d0565b6040516104589190613398565b60405180910390f35b61047b600480360381019061047691906133df565b6118f9565b005b61049760048036038101906104929190613444565b611ec5565b005b6104b360048036038101906104ae9190613471565b6122b7565b6040516104c091906134b1565b60405180910390f35b6104e360048036038101906104de9190612f35565b6122e6565b6040516104f091906132ea565b60405180910390f35b61050161230a565b60405161050e9190612eee565b60405180910390f35b61051f612317565b60405161052c919061352b565b60405180910390f35b61053d61233d565b60405161054a9190612eee565b60405180910390f35b61055b612344565b6040516105689190613567565b60405180910390f35b61058b60048036038101906105869190612e33565b61236a565b6040516105a29b9a99989796959493929190613582565b60405180910390f35b6105b361240b565b6040516105c09190612eee565b60405180910390f35b6105e360048036038101906105de9190612f35565b612410565b6040516105f09190613398565b60405180910390f35b61060161244f565b60405161060e9190612eee565b60405180910390f35b61061f612454565b60405161062c9190612eee565b60405180910390f35b61063d612459565b60405161064a91906136eb565b60405180910390f35b61066d60048036038101906106689190612e33565b612631565b005b6106776126b7565b6040516106849190612eee565b60405180910390f35b606060056000838152602001908152602001600020805480602002602001604051908101604052809291908181526020016000905b828210156107b457838290600052602060002090600302016040518060a00160405290816000820160009054906101000a900473ffffffffffffffffffffffffffffffffffffffff1673ffffffffffffffffffffffffffffffffffffffff1673ffffffffffffffffffffffffffffffffffffffff1681526020016000820160149054906101000a900460ff1660028111156107605761075f612c4f565b5b600281111561077257610771612c4f565b5b81526020016000820160159054906101000a900460ff1615151515815260200160018201548152602001600282015481525050815260200190600101906106c2565b505050509050919050565b6000806000806000806000600360008973ffffffffffffffffffffffffffffffffffffffff1673ffffffffffffffffffffffffffffffffffffffff168152602001908152602001600020604051806101600160405290816000820160009054906101000a900473ffffffffffffffffffffffffffffffffffffffff1673ffffffffffffffffffffffffffffffffffffffff1673ffffffffffffffffffffffffffffffffffffffff1681526020016000820160149054906101000a900460ff1660028111156108905761088f612c4f565b5b60028111156108a2576108a1612c4f565b5b81526020016001820154815260200160028201548152602001600382015481526020016004820154815260200160058201548152602001600682015481526020016007820160009054906101000a900460ff161515151581526020016007820160019054906101000a900460ff161515151581526020016008820154815250509050806020015161093289611751565b826060015183608001518460a001518561012001519650965096509650965096505091939550919395565b604681565b600081565b600181565b600360003373ffffffffffffffffffffffffffffffffffffffff1673ffffffffffffffffffffffffffffffffffffffff16815260200190815260200160002060070160009054906101000a900460ff16156109fc576040517f08c379a00000000000000000000000000000000000000000000000000000000081526004016109f390613759565b60405180910390fd5b6001811015610a40576040517f08c379a0000000000000000000000000000000000000000000000000000000008152600401610a37906137c5565b60405180910390fd5b60008081600160009054906101000a900473ffffffffffffffffffffffffffffffffffffffff1673ffffffffffffffffffffffffffffffffffffffff166370a08231336040518263ffffffff1660e01b8152600401610a9f9190613398565b602060405180830381865afa158015610abc573d6000803e3d6000fd5b505050506040513d601f19601f82011682018060405250810190610ae091906137fa565b1015610aef5760009150600190505b6000821115610bda57600160009054906101000a900473ffffffffffffffffffffffffffffffffffffffff1673ffffffffffffffffffffffffffffffffffffffff166323b872dd3330856040518463ffffffff1660e01b8152600401610b5793929190613827565b6020604051808303816000875af1158015610b76573d6000803e3d6000fd5b505050506040513d601f19601f82011682018060405250810190610b9a9190613873565b610bd9576040517f08c379a0000000000000000000000000000000000000000000000000000000008152600401610bd0906138ec565b60405180910390fd5b5b6040518061016001604052803373ffffffffffffffffffffffffffffffffffffffff16815260200160006002811115610c1657610c15612c4f565b5b815260200182610c27576001610c2a565b60015b8152602001600081526020016000815260200160008152602001848152602001838152602001600115158152602001821515815260200142815250600360003373ffffffffffffffffffffffffffffffffffffffff1673ffffffffffffffffffffffffffffffffffffffff16815260200190815260200160002060008201518160000160006101000a81548173ffffffffffffffffffffffffffffffffffffffff021916908373ffffffffffffffffffffffffffffffffffffffff16021790555060208201518160000160146101000a81548160ff02191690836002811115610d1657610d15612c4f565b5b021790555060408201518160010155606082015181600201556080820151816003015560a0820151816004015560c0820151816005015560e082015181600601556101008201518160070160006101000a81548160ff0219169083151502179055506101208201518160070160016101000a81548160ff02191690831515021790555061014082015181600801559050506007339080600181540180825580915050600190039060005260206000200160009091909190916101000a81548173ffffffffffffffffffffffffffffffffffffffff021916908373ffffffffffffffffffffffffffffffffffffffff1602179055503373ffffffffffffffffffffffffffffffffffffffff167f7855ba29ca8454697607aa251043ef55a210106ef4adccc63b1c8bfeb55b6e676000604051610e51919061390c565b60405180910390a2505050565b60046020528060005260406000206000915090508060000154908060010160009054906101000a900460ff16908060010160019054906101000a900473ffffffffffffffffffffffffffffffffffffffff1690806002018054610ec090613956565b80601f0160208091040260200160405190810160405280929190818152602001828054610eec90613956565b8015610f395780601f10610f0e57610100808354040283529160200191610f39565b820191906000526020600020905b815481529060010190602001808311610f1c57829003601f168201915b5050505050908060030154908060040154908060050160009054906101000a900460ff16908060050160019054906101000a900460ff16908060060154905089565b601481565b6102bc81565b600080334284604051602001610f9e93929190613a2c565b604051602081830303815290604052805190602001209050604051806101200160405280828152602001856006811115610fdb57610fda612c4f565b5b81526020013373ffffffffffffffffffffffffffffffffffffffff16815260200184815260200142815260200162015180426110179190613a94565b8152602001600060038111156110305761102f612c4f565b5b81526020016000151581526020016000815250600460008381526020019081526020016000206000820151816000015560208201518160010160006101000a81548160ff0219169083600681111561108b5761108a612c4f565b5b021790555060408201518160010160016101000a81548173ffffffffffffffffffffffffffffffffffffffff021916908373ffffffffffffffffffffffffffffffffffffffff16021790555060608201518160020190816110ec9190613c6a565b506080820151816003015560a0820151816004015560c08201518160050160006101000a81548160ff0219169083600381111561112c5761112b612c4f565b5b021790555060e08201518160050160016101000a81548160ff021916908315150217905550610100820151816006015590505060088190806001815401808255809150506001900390600052602060002001600090919091909150553373ffffffffffffffffffffffffffffffffffffffff16817ffdd8847731ab35ac10a0f03462f1a89d583ff8db9353b7e775a0bbb8e490ac7d866040516111cf9190613d3c565b60405180910390a38091505092915050565b6111e96126bc565b600160009054906101000a900473ffffffffffffffffffffffffffffffffffffffff1673ffffffffffffffffffffffffffffffffffffffff1663a9059cbb61122f6118d0565b836040518363ffffffff1660e01b815260040161124d929190613d57565b6020604051808303816000875af115801561126c573d6000803e3d6000fd5b505050506040513d601f19601f820116820180604052508101906112909190613873565b5050565b61129c6126bc565b60006004600084815260200190815260200160002090508060050160019054906101000a900460ff1615611305576040517f08c379a00000000000000000000000000000000000000000000000000000000081526004016112fc90613dcc565b60405180910390fd5b806004015442101561134c576040517f08c379a000000000000000000000000000000000000000000000000000000000815260040161134390613e38565b60405180910390fd5b8181600601819055506102bc82106113e65760028160050160006101000a81548160ff0219169083600381111561138657611385612c4f565b5b021790555060018160050160016101000a81548160ff021916908315150217905550827f82049ab1a1dded6f9505013e08965dc100a583bee68009fc7632982add3b9be9836040516113d89190612eee565b60405180910390a2506116a7565b600060056000858152602001908152602001600020805480602002602001604051908101604052809291908181526020016000905b8282101561150d57838290600052602060002090600302016040518060a00160405290816000820160009054906101000a900473ffffffffffffffffffffffffffffffffffffffff1673ffffffffffffffffffffffffffffffffffffffff1673ffffffffffffffffffffffffffffffffffffffff1681526020016000820160149054906101000a900460ff1660028111156114b9576114b8612c4f565b5b60028111156114cb576114ca612c4f565b5b81526020016000820160159054906101000a900460ff16151515158152602001600182015481526020016002820154815250508152602001906001019061141b565b5050505090506000815111611557576040517f08c379a000000000000000000000000000000000000000000000000000000000815260040161154e90613ea4565b60405180910390fd5b60008060005b83518110156115fb5783818151811061157957611578613ec4565b5b602002602001015160400151156115bb5783818151811061159d5761159c613ec4565b5b602002602001015160600151836115b49190613a94565b92506115e8565b8381815181106115ce576115cd613ec4565b5b602002602001015160600151826115e59190613a94565b91505b80806115f390613ef3565b91505061155d565b50600081831190508061160f576002611612565b60015b8560050160006101000a81548160ff0219169083600381111561163857611637612c4f565b5b021790555060018560050160016101000a81548160ff021916908315150217905550611665878286612743565b867f7dfd85b4f8d09e161eb4f72d683098ee1573b08082d2298bdcf70e7e8ddd0f8882858560405161169993929190613f3b565b60405180910390a250505050505b5050565b600081565b600560205281600052604060002081815481106116cc57600080fd5b9060005260206000209060030201600091509150508060000160009054906101000a900473ffffffffffffffffffffffffffffffffffffffff16908060000160149054906101000a900460ff16908060000160159054906101000a900460ff16908060010154908060020154905085565b6117456126bc565b61174f60006129d0565b565b6000600360008373ffffffffffffffffffffffffffffffffffffffff1673ffffffffffffffffffffffffffffffffffffffff16815260200190815260200160002060070160009054906101000a900460ff166117b057600090506118cb565b6000600260009054906101000a900473ffffffffffffffffffffffffffffffffffffffff1673ffffffffffffffffffffffffffffffffffffffff166398bf9a5d846040518263ffffffff1660e01b815260040161180d9190613398565b60c060405180830381865afa15801561182a573d6000803e3d6000fd5b505050506040513d601f19601f8201168201806040525081019061184e9190613f72565b509450505050506000600360008573ffffffffffffffffffffffffffffffffffffffff1673ffffffffffffffffffffffffffffffffffffffff16815260200190815260200160002060010154905060008260326118ab9190613a94565b9050606481836118bb9190613fff565b6118c59190614070565b93505050505b919050565b60008060009054906101000a900473ffffffffffffffffffffffffffffffffffffffff16905090565b600360003373ffffffffffffffffffffffffffffffffffffffff1673ffffffffffffffffffffffffffffffffffffffff16815260200190815260200160002060070160009054906101000a900460ff16611988576040517f08c379a000000000000000000000000000000000000000000000000000000000815260040161197f906140ed565b60405180910390fd5b6006600083815260200190815260200160002060003373ffffffffffffffffffffffffffffffffffffffff1673ffffffffffffffffffffffffffffffffffffffff16815260200190815260200160002060009054906101000a900460ff1615611a26576040517f08c379a0000000000000000000000000000000000000000000000000000000008152600401611a1d90614159565b60405180910390fd5b60006003811115611a3a57611a39612c4f565b5b6004600084815260200190815260200160002060050160009054906101000a900460ff166003811115611a7057611a6f612c4f565b5b14611ab0576040517f08c379a0000000000000000000000000000000000000000000000000000000008152600401611aa7906141c5565b60405180910390fd5b60046000838152602001908152602001600020600401544210611b08576040517f08c379a0000000000000000000000000000000000000000000000000000000008152600401611aff90614231565b60405180910390fd5b6000600360003373ffffffffffffffffffffffffffffffffffffffff1673ffffffffffffffffffffffffffffffffffffffff168152602001908152602001600020604051806101600160405290816000820160009054906101000a900473ffffffffffffffffffffffffffffffffffffffff1673ffffffffffffffffffffffffffffffffffffffff1673ffffffffffffffffffffffffffffffffffffffff1681526020016000820160149054906101000a900460ff166002811115611bd057611bcf612c4f565b5b6002811115611be257611be1612c4f565b5b81526020016001820154815260200160028201548152602001600382015481526020016004820154815260200160058201548152602001600682015481526020016007820160009054906101000a900460ff161515151581526020016007820160019054906101000a900460ff1615151515815260200160088201548152505090506000611c6f33611751565b9050600560008581526020019081526020016000206040518060a001604052803373ffffffffffffffffffffffffffffffffffffffff16815260200184602001516002811115611cc257611cc1612c4f565b5b8152602001851515815260200183815260200142815250908060018154018082558091505060019003906000526020600020906003020160009091909190915060008201518160000160006101000a81548173ffffffffffffffffffffffffffffffffffffffff021916908373ffffffffffffffffffffffffffffffffffffffff16021790555060208201518160000160146101000a81548160ff02191690836002811115611d7457611d73612c4f565b5b021790555060408201518160000160156101000a81548160ff0219169083151502179055506060820151816001015560808201518160020155505060016006600086815260200190815260200160002060003373ffffffffffffffffffffffffffffffffffffffff1673ffffffffffffffffffffffffffffffffffffffff16815260200190815260200160002060006101000a81548160ff021916908315150217905550600360003373ffffffffffffffffffffffffffffffffffffffff1673ffffffffffffffffffffffffffffffffffffffff1681526020019081526020016000206003016000815480929190611e6b90613ef3565b91905055503373ffffffffffffffffffffffffffffffffffffffff16847f16efd9a5766ad43ca179f5ef58b8748c48ddedd2dd2a228460465bfa90d4d06985604051611eb791906134b1565b60405180910390a350505050565b6000600360003373ffffffffffffffffffffffffffffffffffffffff1673ffffffffffffffffffffffffffffffffffffffff16815260200190815260200160002090508060070160009054906101000a900460ff16611f59576040517f08c379a0000000000000000000000000000000000000000000000000000000008152600401611f509061429d565b60405180910390fd5b8060000160149054906101000a900460ff166002811115611f7d57611f7c612c4f565b5b826002811115611f9057611f8f612c4f565b5b11611fd0576040517f08c379a0000000000000000000000000000000000000000000000000000000008152600401611fc790614309565b60405180910390fd5b60008060016002811115611fe757611fe6612c4f565b5b846002811115611ffa57611ff9612c4f565b5b03612073576002836005015410158061201857506055836002015410155b612057576040517f08c379a000000000000000000000000000000000000000000000000000000000815260040161204e90614375565b60405180910390fd5b826006015460006120689190614395565b91506003905061210f565b60028081111561208657612085612c4f565b5b84600281111561209957612098612c4f565b5b0361210e57600383600501541015806120b75750605f836002015410155b6120f6576040517f08c379a00000000000000000000000000000000000000000000000000000000081526004016120ed90614415565b60405180910390fd5b826006015460006121079190614395565b9150600590505b5b600082111561221557600160009054906101000a900473ffffffffffffffffffffffffffffffffffffffff1673ffffffffffffffffffffffffffffffffffffffff166323b872dd3330856040518463ffffffff1660e01b815260040161217793929190613827565b6020604051808303816000875af1158015612196573d6000803e3d6000fd5b505050506040513d601f19601f820116820180604052508101906121ba9190613873565b6121f9576040517f08c379a00000000000000000000000000000000000000000000000000000000081526004016121f090614481565b60405180910390fd5b8183600601600082825461220d9190613a94565b925050819055505b60008360000160149054906101000a900460ff169050848460000160146101000a81548160ff0219169083600281111561225257612251612c4f565b5b02179055508184600101819055503373ffffffffffffffffffffffffffffffffffffffff167ffdab712786afc3b366bdb70e1353d20cf7d17170e663bd0349b1a1c06c44d95882876040516122a89291906144a1565b60405180910390a25050505050565b60066020528160005260406000206020528060005260406000206000915091509054906101000a900460ff1681565b600881815481106122f657600080fd5b906000526020600020016000915090505481565b683635c9adc5dea0000081565b600160009054906101000a900473ffffffffffffffffffffffffffffffffffffffff1681565b6201518081565b600260009054906101000a900473ffffffffffffffffffffffffffffffffffffffff1681565b60036020528060005260406000206000915090508060000160009054906101000a900473ffffffffffffffffffffffffffffffffffffffff16908060000160149054906101000a900460ff16908060010154908060020154908060030154908060040154908060050154908060060154908060070160009054906101000a900460ff16908060070160019054906101000a900460ff1690806008015490508b565b600081565b6007818154811061242057600080fd5b906000526020600020016000915054906101000a900473ffffffffffffffffffffffffffffffffffffffff1681565b600a81565b600381565b60606000805b6008805490508110156124fb57600060038111156124805761247f612c4f565b5b600460006008848154811061249857612497613ec4565b5b9060005260206000200154815260200190815260200160002060050160009054906101000a900460ff1660038111156124d4576124d3612c4f565b5b036124e85781806124e490613ef3565b9250505b80806124f390613ef3565b91505061245f565b5060008167ffffffffffffffff81111561251857612517613163565b5b6040519080825280602002602001820160405280156125465781602001602082028036833780820191505090505b5090506000805b600880549050811015612627576000600381111561256e5761256d612c4f565b5b600460006008848154811061258657612585613ec4565b5b9060005260206000200154815260200190815260200160002060050160009054906101000a900460ff1660038111156125c2576125c1612c4f565b5b0361261457600881815481106125db576125da613ec4565b5b90600052602060002001548383815181106125f9576125f8613ec4565b5b602002602001018181525050818061261090613ef3565b9250505b808061261f90613ef3565b91505061254d565b5081935050505090565b6126396126bc565b600073ffffffffffffffffffffffffffffffffffffffff168173ffffffffffffffffffffffffffffffffffffffff16036126ab5760006040517f1e4fbdf70000000000000000000000000000000000000000000000000000000081526004016126a29190613398565b60405180910390fd5b6126b4816129d0565b50565b600581565b6126c4612a94565b73ffffffffffffffffffffffffffffffffffffffff166126e26118d0565b73ffffffffffffffffffffffffffffffffffffffff161461274157612705612a94565b6040517f118cdaa70000000000000000000000000000000000000000000000000000000081526004016127389190613398565b60405180910390fd5b565b6000805b82518110156127b95783151583828151811061276657612765613ec4565b5b6020026020010151604001511515036127a65782818151811061278c5761278b613ec4565b5b602002602001015160600151826127a39190613a94565b91505b80806127b190613ef3565b915050612747565b50600081036127c857506129cb565b60005b82518110156129c85760008382815181106127e9576127e8613ec4565b5b602002602001015160000151905084151584838151811061280d5761280c613ec4565b5b6020026020010151604001511515036129ab5760008385848151811061283657612835613ec4565b5b602002602001015160600151683635c9adc5dea000006128569190613fff565b6128609190614070565b9050600160009054906101000a900473ffffffffffffffffffffffffffffffffffffffff1673ffffffffffffffffffffffffffffffffffffffff1663a9059cbb83836040518363ffffffff1660e01b81526004016128bf929190613d57565b6020604051808303816000875af11580156128de573d6000803e3d6000fd5b505050506040513d601f19601f820116820180604052508101906129029190613873565b50600360008373ffffffffffffffffffffffffffffffffffffffff1673ffffffffffffffffffffffffffffffffffffffff168152602001908152602001600020600401600081548092919061295690613ef3565b91905055508173ffffffffffffffffffffffffffffffffffffffff167fe34918ff1c7084970068b53fd71ad6d8b04e9f15d3886cbf006443e6cdc52ea6826040516129a19190612eee565b60405180910390a2505b6129b481612a9c565b5080806129c090613ef3565b9150506127cb565b50505b505050565b60008060009054906101000a900473ffffffffffffffffffffffffffffffffffffffff169050816000806101000a81548173ffffffffffffffffffffffffffffffffffffffff021916908373ffffffffffffffffffffffffffffffffffffffff1602179055508173ffffffffffffffffffffffffffffffffffffffff168173ffffffffffffffffffffffffffffffffffffffff167f8be0079c531659141344cd1fd0a4f28419497f9722a3daafe3b4186f6b6457e060405160405180910390a35050565b600033905090565b6000600360008373ffffffffffffffffffffffffffffffffffffffff1673ffffffffffffffffffffffffffffffffffffffff1681526020019081526020016000209050600081600301541115612b6757806003015460648260040154612b029190613fff565b612b0c9190614070565b81600201819055508173ffffffffffffffffffffffffffffffffffffffff167f16d0848e499fa9fd0f755c0563c69a05617a0663a704dabd1933f6f75fa3f2198260020154604051612b5e9190612eee565b60405180910390a25b5050565b6000604051905090565b600080fd5b600080fd5b6000819050919050565b612b9281612b7f565b8114612b9d57600080fd5b50565b600081359050612baf81612b89565b92915050565b600060208284031215612bcb57612bca612b75565b5b6000612bd984828501612ba0565b91505092915050565b600081519050919050565b600082825260208201905092915050565b6000819050602082019050919050565b600073ffffffffffffffffffffffffffffffffffffffff82169050919050565b6000612c3982612c0e565b9050919050565b612c4981612c2e565b82525050565b7f4e487b7100000000000000000000000000000000000000000000000000000000600052602160045260246000fd5b60038110612c8f57612c8e612c4f565b5b50565b6000819050612ca082612c7e565b919050565b6000612cb082612c92565b9050919050565b612cc081612ca5565b82525050565b60008115159050919050565b612cdb81612cc6565b82525050565b6000819050919050565b612cf481612ce1565b82525050565b60a082016000820151612d106000850182612c40565b506020820151612d236020850182612cb7565b506040820151612d366040850182612cd2565b506060820151612d496060850182612ceb565b506080820151612d5c6080850182612ceb565b50505050565b6000612d6e8383612cfa565b60a08301905092915050565b6000602082019050919050565b6000612d9282612be2565b612d9c8185612bed565b9350612da783612bfe565b8060005b83811015612dd8578151612dbf8882612d62565b9750612dca83612d7a565b925050600181019050612dab565b5085935050505092915050565b60006020820190508181036000830152612dff8184612d87565b905092915050565b612e1081612c2e565b8114612e1b57600080fd5b50565b600081359050612e2d81612e07565b92915050565b600060208284031215612e4957612e48612b75565b5b6000612e5784828501612e1e565b91505092915050565b612e6981612ca5565b82525050565b612e7881612ce1565b82525050565b612e8781612cc6565b82525050565b600060c082019050612ea26000830189612e60565b612eaf6020830188612e6f565b612ebc6040830187612e6f565b612ec96060830186612e6f565b612ed66080830185612e6f565b612ee360a0830184612e7e565b979650505050505050565b6000602082019050612f036000830184612e6f565b92915050565b612f1281612ce1565b8114612f1d57600080fd5b50565b600081359050612f2f81612f09565b92915050565b600060208284031215612f4b57612f4a612b75565b5b6000612f5984828501612f20565b91505092915050565b612f6b81612b7f565b82525050565b60078110612f8257612f81612c4f565b5b50565b6000819050612f9382612f71565b919050565b6000612fa382612f85565b9050919050565b612fb381612f98565b82525050565b612fc281612c2e565b82525050565b600081519050919050565b600082825260208201905092915050565b60005b83811015613002578082015181840152602081019050612fe7565b60008484015250505050565b6000601f19601f8301169050919050565b600061302a82612fc8565b6130348185612fd3565b9350613044818560208601612fe4565b61304d8161300e565b840191505092915050565b6004811061306957613068612c4f565b5b50565b600081905061307a82613058565b919050565b600061308a8261306c565b9050919050565b61309a8161307f565b82525050565b6000610120820190506130b6600083018c612f62565b6130c3602083018b612faa565b6130d0604083018a612fb9565b81810360608301526130e2818961301f565b90506130f16080830188612e6f565b6130fe60a0830187612e6f565b61310b60c0830186613091565b61311860e0830185612e7e565b613126610100830184612e6f565b9a9950505050505050505050565b6007811061314157600080fd5b50565b60008135905061315381613134565b92915050565b600080fd5b600080fd5b7f4e487b7100000000000000000000000000000000000000000000000000000000600052604160045260246000fd5b61319b8261300e565b810181811067ffffffffffffffff821117156131ba576131b9613163565b5b80604052505050565b60006131cd612b6b565b90506131d98282613192565b919050565b600067ffffffffffffffff8211156131f9576131f8613163565b5b6132028261300e565b9050602081019050919050565b82818337600083830152505050565b600061323161322c846131de565b6131c3565b90508281526020810184848401111561324d5761324c61315e565b5b61325884828561320f565b509392505050565b600082601f83011261327557613274613159565b5b813561328584826020860161321e565b91505092915050565b600080604083850312156132a5576132a4612b75565b5b60006132b385828601613144565b925050602083013567ffffffffffffffff8111156132d4576132d3612b7a565b5b6132e085828601613260565b9150509250929050565b60006020820190506132ff6000830184612f62565b92915050565b6000806040838503121561331c5761331b612b75565b5b600061332a85828601612ba0565b925050602061333b85828601612f20565b9150509250929050565b600060a08201905061335a6000830188612fb9565b6133676020830187612e60565b6133746040830186612e7e565b6133816060830185612e6f565b61338e6080830184612e6f565b9695505050505050565b60006020820190506133ad6000830184612fb9565b92915050565b6133bc81612cc6565b81146133c757600080fd5b50565b6000813590506133d9816133b3565b92915050565b600080604083850312156133f6576133f5612b75565b5b600061340485828601612ba0565b9250506020613415858286016133ca565b9150509250929050565b6003811061342c57600080fd5b50565b60008135905061343e8161341f565b92915050565b60006020828403121561345a57613459612b75565b5b60006134688482850161342f565b91505092915050565b6000806040838503121561348857613487612b75565b5b600061349685828601612ba0565b92505060206134a785828601612e1e565b9150509250929050565b60006020820190506134c66000830184612e7e565b92915050565b6000819050919050565b60006134f16134ec6134e784612c0e565b6134cc565b612c0e565b9050919050565b6000613503826134d6565b9050919050565b6000613515826134f8565b9050919050565b6135258161350a565b82525050565b6000602082019050613540600083018461351c565b92915050565b6000613551826134f8565b9050919050565b61356181613546565b82525050565b600060208201905061357c6000830184613558565b92915050565b600061016082019050613598600083018e612fb9565b6135a5602083018d612e60565b6135b2604083018c612e6f565b6135bf606083018b612e6f565b6135cc608083018a612e6f565b6135d960a0830189612e6f565b6135e660c0830188612e6f565b6135f360e0830187612e6f565b613601610100830186612e7e565b61360f610120830185612e7e565b61361d610140830184612e6f565b9c9b505050505050505050505050565b600081519050919050565b600082825260208201905092915050565b6000819050602082019050919050565b61366281612b7f565b82525050565b60006136748383613659565b60208301905092915050565b6000602082019050919050565b60006136988261362d565b6136a28185613638565b93506136ad83613649565b8060005b838110156136de5781516136c58882613668565b97506136d083613680565b9250506001810190506136b1565b5085935050505092915050565b60006020820190508181036000830152613705818461368d565b905092915050565b7f416c726561647920726567697374657265640000000000000000000000000000600082015250565b6000613743601283612fd3565b915061374e8261370d565b602082019050919050565b6000602082019050818103600083015261377281613736565b9050919050565b7f4d757374206f776e206174206c6561737420312076656869636c650000000000600082015250565b60006137af601b83612fd3565b91506137ba82613779565b602082019050919050565b600060208201905081810360008301526137de816137a2565b9050919050565b6000815190506137f481612f09565b92915050565b6000602082840312156138105761380f612b75565b5b600061381e848285016137e5565b91505092915050565b600060608201905061383c6000830186612fb9565b6138496020830185612fb9565b6138566040830184612e6f565b949350505050565b60008151905061386d816133b3565b92915050565b60006020828403121561388957613888612b75565b5b60006138978482850161385e565b91505092915050565b7f5374616b65207472616e73666572206661696c65640000000000000000000000600082015250565b60006138d6601583612fd3565b91506138e1826138a0565b602082019050919050565b60006020820190508181036000830152613905816138c9565b9050919050565b60006020820190506139216000830184612e60565b92915050565b7f4e487b7100000000000000000000000000000000000000000000000000000000600052602260045260246000fd5b6000600282049050600182168061396e57607f821691505b60208210810361398157613980613927565b5b50919050565b60008160601b9050919050565b600061399f82613987565b9050919050565b60006139b182613994565b9050919050565b6139c96139c482612c2e565b6139a6565b82525050565b6000819050919050565b6139ea6139e582612ce1565b6139cf565b82525050565b600081905092915050565b6000613a0682612fc8565b613a1081856139f0565b9350613a20818560208601612fe4565b80840191505092915050565b6000613a3882866139b8565b601482019150613a4882856139d9565b602082019150613a5882846139fb565b9150819050949350505050565b7f4e487b7100000000000000000000000000000000000000000000000000000000600052601160045260246000fd5b6000613a9f82612ce1565b9150613aaa83612ce1565b9250828201905080821115613ac257613ac1613a65565b5b92915050565b60008190508160005260206000209050919050565b60006020601f8301049050919050565b600082821b905092915050565b600060088302613b2a7fffffffffffffffffffffffffffffffffffffffffffffffffffffffffffffffff82613aed565b613b348683613aed565b95508019841693508086168417925050509392505050565b6000613b67613b62613b5d84612ce1565b6134cc565b612ce1565b9050919050565b6000819050919050565b613b8183613b4c565b613b95613b8d82613b6e565b848454613afa565b825550505050565b600090565b613baa613b9d565b613bb5818484613b78565b505050565b5b81811015613bd957613bce600082613ba2565b600181019050613bbb565b5050565b601f821115613c1e57613bef81613ac8565b613bf884613add565b81016020851015613c07578190505b613c1b613c1385613add565b830182613bba565b50505b505050565b600082821c905092915050565b6000613c4160001984600802613c23565b1980831691505092915050565b6000613c5a8383613c30565b9150826002028217905092915050565b613c7382612fc8565b67ffffffffffffffff811115613c8c57613c8b613163565b5b613c968254613956565b613ca1828285613bdd565b600060209050601f831160018114613cd45760008415613cc2578287015190505b613ccc8582613c4e565b865550613d34565b601f198416613ce286613ac8565b60005b82811015613d0a57848901518255600182019150602085019450602081019050613ce5565b86831015613d275784890151613d23601f891682613c30565b8355505b6001600288020188555050505b505050505050565b6000602082019050613d516000830184612faa565b92915050565b6000604082019050613d6c6000830185612fb9565b613d796020830184612e6f565b9392505050565b7f416c72656164792066696e616c697a6564000000000000000000000000000000600082015250565b6000613db6601183612fd3565b9150613dc182613d80565b602082019050919050565b60006020820190508181036000830152613de581613da9565b9050919050565b7f566f74696e6720706572696f64206e6f7420656e646564000000000000000000600082015250565b6000613e22601783612fd3565b9150613e2d82613dec565b602082019050919050565b60006020820190508181036000830152613e5181613e15565b9050919050565b7f4e6f20766f746573000000000000000000000000000000000000000000000000600082015250565b6000613e8e600883612fd3565b9150613e9982613e58565b602082019050919050565b60006020820190508181036000830152613ebd81613e81565b9050919050565b7f4e487b7100000000000000000000000000000000000000000000000000000000600052603260045260246000fd5b6000613efe82612ce1565b91507fffffffffffffffffffffffffffffffffffffffffffffffffffffffffffffffff8203613f3057613f2f613a65565b5b600182019050919050565b6000606082019050613f506000830186612e7e565b613f5d6020830185612e6f565b613f6a6040830184612e6f565b949350505050565b60008060008060008060c08789031215613f8f57613f8e612b75565b5b6000613f9d89828a016137e5565b9650506020613fae89828a016137e5565b9550506040613fbf89828a016137e5565b9450506060613fd089828a016137e5565b9350506080613fe189828a016137e5565b92505060a0613ff289828a0161385e565b9150509295509295509295565b600061400a82612ce1565b915061401583612ce1565b925082820261402381612ce1565b9150828204841483151761403a57614039613a65565b5b5092915050565b7f4e487b7100000000000000000000000000000000000000000000000000000000600052601260045260246000fd5b600061407b82612ce1565b915061408683612ce1565b92508261409657614095614041565b5b828204905092915050565b7f4e6f7420616e20616374697665206a75726f7200000000000000000000000000600082015250565b60006140d7601383612fd3565b91506140e2826140a1565b602082019050919050565b60006020820190508181036000830152614106816140ca565b9050919050565b7f416c726561647920766f74656400000000000000000000000000000000000000600082015250565b6000614143600d83612fd3565b915061414e8261410d565b602082019050919050565b6000602082019050818103600083015261417281614136565b9050919050565b7f43617365206e6f742070656e64696e6700000000000000000000000000000000600082015250565b60006141af601083612fd3565b91506141ba82614179565b602082019050919050565b600060208201905081810360008301526141de816141a2565b9050919050565b7f566f74696e6720656e6465640000000000000000000000000000000000000000600082015250565b600061421b600c83612fd3565b9150614226826141e5565b602082019050919050565b6000602082019050818103600083015261424a8161420e565b9050919050565b7f4e6f742061206a75726f72000000000000000000000000000000000000000000600082015250565b6000614287600b83612fd3565b915061429282614251565b602082019050919050565b600060208201905081810360008301526142b68161427a565b9050919050565b7f43616e206f6e6c79207570677261646500000000000000000000000000000000600082015250565b60006142f3601083612fd3565b91506142fe826142bd565b602082019050919050565b60006020820190508181036000830152614322816142e6565b9050919050565b7f4e6f7420656c696769626c6520666f7220457870657274000000000000000000600082015250565b600061435f601783612fd3565b915061436a82614329565b602082019050919050565b6000602082019050818103600083015261438e81614352565b9050919050565b60006143a082612ce1565b91506143ab83612ce1565b92508282039050818111156143c3576143c2613a65565b5b92915050565b7f4e6f7420656c696769626c6520666f72204772616e64204a7572790000000000600082015250565b60006143ff601b83612fd3565b915061440a826143c9565b602082019050919050565b6000602082019050818103600083015261442e816143f2565b9050919050565b7f4164646974696f6e616c207374616b65207472616e73666572206661696c6564600082015250565b600061446b602083612fd3565b915061447682614435565b602082019050919050565b6000602082019050818103600083015261449a8161445e565b9050919050565b60006040820190506144b66000830185612e60565b6144c36020830184612e60565b939250505056fea2646970667358221220b9539d768338a1fd87facf557c6f53bb38ec97cac5508e36c3bf7ba1ce5e627d64736f6c63430008140033",
  "linkReferences": {},
  "deployedLinkReferences": {}
}