{
  "_format": "hh-sol-artifact-1",
  "contractName": "OzcarLoanDisbursement",
  "sourceName": "contracts/OzcarLoanDisbursement.sol",
  "abi": [
    {
      "inputs": [
        {
          "internalType": "address",
          "name": "_paymentToken",
          "type": "address"
        },
        {
          "internalType": "address",
          "name": "_escrowContract",
          "type": "address"
        }
      ],
      "stateMutability": "nonpayable",
      "type": "constructor"
    },
    {
      "inputs": [],
      "name": "AccessControlBadConfirmation",
      "type": "error"
    },
    {
      "inputs": [
        {
          "internalType": "address",
          "name": "account",
          "type": "address"
        },
        {
          "internalType": "bytes32",
          "name": "neededRole",
          "type": "bytes32"
        }
      ],
      "name": "AccessControlUnauthorizedAccount",
      "type": "error"
    },
    {
      "anonymous": false,
      "inputs": [
        {
          "indexed": true,
          "internalType": "uint256",
          "name": "loanId",
          "type": "uint256"
        },
        {
          "indexed": true,
          "internalType": "address",
          "name": "borrower",
          "type": "address"
        },
        {
          "indexed": false,
          "internalType": "uint256",
          "name": "amount",
          "type": "uint256"
        }
      ],
      "name": "LoanApproved",
      "type": "event"
    },
    {
      "anonymous": false,
      "inputs": [
        {
          "indexed": true,
          "internalType": "uint256",
          "name": "loanId",
          "type": "uint256"
        },
        {
          "indexed": true,
          "internalType": "uint256",
          "name": "escrowId",
          "type": "uint256"
        }
      ],
      "name": "LoanDisbursed",
      "type": "event"
    },
    {
      "anonymous": false,
      "inputs": [
        {
          "indexed": true,
          "internalType": "bytes32",
          "name": "role",
          "type": "bytes32"
        },
        {
          "indexed": true,
          "internalType": "bytes32",
          "name": "previousAdminRole",
          "type": "bytes32"
        },
        {
          "indexed": true,
          "internalType": "bytes32",
          "name": "newAdminRole",
          "type": "bytes32"
        }
      ],
      "name": "RoleAdminChanged",
      "type": "event"
    },
    {
      "anonymous": false,
      "inputs": [
        {
          "indexed": true,
          "internalType": "bytes32",
          "name": "role",
          "type": "bytes32"
        },
        {
          "indexed": true,
          "internalType": "address",
          "name": "account",
          "type": "address"
        },
        {
          "indexed": true,
          "internalType": "address",
          "name": "sender",
          "type": "address"
        }
      ],
      "name": "RoleGranted",
      "type": "event"
    },
    {
      "anonymous": false,
      "inputs": [
        {
          "indexed": true,
          "internalType": "bytes32",
          "name": "role",
          "type": "bytes32"
        },
        {
          "indexed": true,
          "internalType": "address",
          "name": "account",
          "type": "address"
        },
        {
          "indexed": true,
          "internalType": "address",
          "name": "sender",
          "type": "address"
        }
      ],
      "name": "RoleRevoked",
      "type": "event"
    },
    {
      "inputs": [],
      "name": "DEFAULT_ADMIN_ROLE",
      "outputs": [
        {
          "internalType": "bytes32",
          "name": "",
          "type": "bytes32"
        }
      ],
      "stateMutability": "view",
      "type": "function"
    },
    {
      "inputs": [],
      "name": "LENDER_ROLE",
      "outputs": [
        {
          "internalType": "bytes32",
          "name": "",
          "type": "bytes32"
        }
      ],
      "stateMutability": "view",
      "type": "function"
    },
    {
      "inputs": [
        {
          "internalType": "address",
          "name": "_borrower",
          "type": "address"
        },
        {
          "internalType": "uint256",
          "name": "_amount",
          "type": "uint256"
        },
        {
          "internalType": "uint256",
          "name": "_appraisalTokenId",
          "type": "uint256"
        }
      ],
      "name": "approveLoan",
      "outputs": [
        {
          "internalType": "uint256",
          "name": "",
          "type": "uint256"
        }
      ],
      "stateMutability": "nonpayable",
      "type": "function"
    },
    {
      "inputs": [
        {
          "internalType": "uint256",
          "name": "_loanId",
          "type": "uint256"
        },
        {
          "internalType": "uint256",
          "name": "_escrowId",
          "type": "uint256"
        }
      ],
      "name": "disburseToEscrow",
      "outputs": [],
      "stateMutability": "nonpayable",
      "type": "function"
    },
    {
      "inputs": [],
      "name": "escrowContract",
      "outputs": [
        {
          "internalType": "address",
          "name": "",
          "type": "address"
        }
      ],
      "stateMutability": "view",
      "type": "function"
    },
    {
      "inputs": [
        {
          "internalType": "uint256",
          "name": "",
          "type": "uint256"
        }
      ],
      "name": "escrowToLoan",
      "outputs": [
        {
          "internalType": "uint256",
          "name": "",
          "type": "uint256"
        }
      ],
      "stateMutability": "view",
      "type": "function"
    },
    {
      "inputs": [
        {
          "internalType": "bytes32",
          "name": "role",
          "type": "bytes32"
        }
      ],
      "name": "getRoleAdmin",
      "outputs": [
        {
          "internalType": "bytes32",
          "name": "",
          "type": "bytes32"
        }
      ],
      "stateMutability": "view",
      "type": "function"
    },
    {
      "inputs": [
        {
          "internalType": "bytes32",
          "name": "role",
          "type": "bytes32"
        },
        {
          "internalType": "address",
          "name": "account",
          "type": "address"
        }
      ],
      "name": "grantRole",
      "outputs": [],
      "stateMutability": "nonpayable",
      "type": "function"
    },
    {
      "inputs": [
        {
          "internalType": "bytes32",
          "name": "role",
          "type": "bytes32"
        },
        {
          "internalType": "address",
          "name": "account",
          "type": "address"
        }
      ],
      "name": "hasRole",
      "outputs": [
        {
          "internalType": "bool",
          "name": "",
          "type": "bool"
        }
      ],
      "stateMutability": "view",
      "type": "function"
    },
    {
      "inputs": [
        {
          "internalType": "uint256",
          "name": "",
          "type": "uint256"
        }
      ],
      "name": "loans",
      "outputs": [
        {
          "internalType": "uint256",
          "name": "loanId",
          "type": "uint256"
        },
        {
          "internalType": "address",
          "name": "borrower",
          "type": "address"
        },
        {
          "internalType": "uint256",
          "name": "amount",
          "type": "uint256"
        },
        {
          "internalType": "uint256",
          "name": "appraisalTokenId",
          "type": "uint256"
        },
        {
          "internalType": "bool",
          "name": "disbursed",
          "type": "bool"
        },
        {
          "internalType": "uint256",
          "name": "escrowId",
          "type": "uint256"
        }
      ],
      "stateMutability": "view",
      "type": "function"
    },
    {
      "inputs": [],
      "name": "paymentToken",
      "outputs": [
        {
          "internalType": "contract IERC20",
          "name": "",
          "type": "address"
        }
      ],
      "stateMutability": "view",
      "type": "function"
    },
    {
      "inputs": [
        {
          "internalType": "bytes32",
          "name": "role",
          "type": "bytes32"
        },
        {
          "internalType": "address",
          "name": "callerConfirmation",
          "type": "address"
        }
      ],
      "name": "renounceRole",
      "outputs": [],
      "stateMutability": "nonpayable",
      "type": "function"
    },
    {
      "inputs": [
        {
          "internalType": "bytes32",
          "name": "role",
          "type": "bytes32"
        },
        {
          "internalType": "address",
          "name": "account",
          "type": "address"
        }
      ],
      "name": "revokeRole",
      "outputs": [],
      "stateMutability": "nonpayable",
      "type": "function"
    },
    {
      "inputs": [
        {
          "internalType": "bytes4",
          "name": "interfaceId",
          "type": "bytes4"
        }
      ],
      "name": "supportsInterface",
      "outputs": [
        {
          "internalType": "bool",
          "name": "",
          "type": "bool"
        }
      ],
      "stateMutability": "view",
      "type": "function"
    },
    {
      "inputs": [
        {
          "internalType": "address",
          "name": "_newEscrow",
          "type": "address"
        }
      ],
      "name": "updateEscrow",
      "outputs": [],
      "stateMutability": "nonpayable",
      "type": "function"
    }
  ],
  "bytecode": "0x60806040523480156200001157600080fd5b5060405162001913380380620019138339818101604052810190620000379190620002b6565b6200004c6000801b33620000d760201b60201c565b5081600160006101000a81548173ffffffffffffffffffffffffffffffffffffffff021916908373ffffffffffffffffffffffffffffffffffffffff16021790555080600260006101000a81548173ffffffffffffffffffffffffffffffffffffffff021916908373ffffffffffffffffffffffffffffffffffffffff1602179055505050620002fd565b6000620000eb8383620001da60201b60201c565b620001cf57600160008085815260200190815260200160002060000160008473ffffffffffffffffffffffffffffffffffffffff1673ffffffffffffffffffffffffffffffffffffffff16815260200190815260200160002060006101000a81548160ff0219169083151502179055506200016b6200024460201b60201c565b73ffffffffffffffffffffffffffffffffffffffff168273ffffffffffffffffffffffffffffffffffffffff16847f2f8788117e7eff1d82e926ec794901d17c78024a50270940304540a733656f0d60405160405180910390a460019050620001d4565b600090505b92915050565b600080600084815260200190815260200160002060000160008373ffffffffffffffffffffffffffffffffffffffff1673ffffffffffffffffffffffffffffffffffffffff16815260200190815260200160002060009054906101000a900460ff16905092915050565b600033905090565b600080fd5b600073ffffffffffffffffffffffffffffffffffffffff82169050919050565b60006200027e8262000251565b9050919050565b620002908162000271565b81146200029c57600080fd5b50565b600081519050620002b08162000285565b92915050565b60008060408385031215620002d057620002cf6200024c565b5b6000620002e0858286016200029f565b9250506020620002f3858286016200029f565b9150509250929050565b611606806200030d6000396000f3fe608060405234801561001057600080fd5b50600436106100f45760003560e01c80638b6a101a11610097578063d547741f11610066578063d547741f14610283578063e08d85731461029f578063e1ec3c68146102cf578063e42a96e714610304576100f4565b80638b6a101a146101e957806391d1485414610205578063a217fddf14610235578063ae0c9a4f14610253576100f4565b80632f2ff15d116100d35780632f2ff15d146101775780633013ce291461019357806336568abe146101b15780637044d098146101cd576100f4565b8062abafe1146100f957806301ffc9a714610117578063248a9ca314610147575b600080fd5b610101610322565b60405161010e9190610df6565b60405180910390f35b610131600480360381019061012c9190610e6e565b610346565b60405161013e9190610eb6565b60405180910390f35b610161600480360381019061015c9190610efd565b6103c0565b60405161016e9190610df6565b60405180910390f35b610191600480360381019061018c9190610f88565b6103df565b005b61019b610401565b6040516101a89190611027565b60405180910390f35b6101cb60048036038101906101c69190610f88565b610427565b005b6101e760048036038101906101e29190611078565b6104a2565b005b61020360048036038101906101fe91906110b8565b610809565b005b61021f600480360381019061021a9190610f88565b61085b565b60405161022c9190610eb6565b60405180910390f35b61023d6108c5565b60405161024a9190610df6565b60405180910390f35b61026d600480360381019061026891906110e5565b6108cc565b60405161027a9190611121565b60405180910390f35b61029d60048036038101906102989190610f88565b6108e4565b005b6102b960048036038101906102b4919061113c565b610906565b6040516102c69190611121565b60405180910390f35b6102e960048036038101906102e491906110e5565b610a94565b6040516102fb9695949392919061119e565b60405180910390f35b61030c610afd565b60405161031991906111ff565b60405180910390f35b7fc60d7a62d8843f2b14bc63f2a5240b187980481ad8c001a3caf4916aef3f667e81565b60007f7965db0b000000000000000000000000000000000000000000000000000000007bffffffffffffffffffffffffffffffffffffffffffffffffffffffff1916827bffffffffffffffffffffffffffffffffffffffffffffffffffffffff191614806103b957506103b882610b23565b5b9050919050565b6000806000838152602001908152602001600020600101549050919050565b6103e8826103c0565b6103f181610b8d565b6103fb8383610ba1565b50505050565b600160009054906101000a900473ffffffffffffffffffffffffffffffffffffffff1681565b61042f610c92565b73ffffffffffffffffffffffffffffffffffffffff168173ffffffffffffffffffffffffffffffffffffffff1614610493576040517f6697b23200000000000000000000000000000000000000000000000000000000815260040160405180910390fd5b61049d8282610c9a565b505050565b7fc60d7a62d8843f2b14bc63f2a5240b187980481ad8c001a3caf4916aef3f667e6104cc81610b8d565b60006004600085815260200190815260200160002090508060040160009054906101000a900460ff1615610535576040517f08c379a000000000000000000000000000000000000000000000000000000000815260040161052c90611277565b60405180910390fd5b6000600260009054906101000a900473ffffffffffffffffffffffffffffffffffffffff16905060008173ffffffffffffffffffffffffffffffffffffffff1663012f52ee866040518263ffffffff1660e01b81526004016105979190611121565b61010060405180830381865afa1580156105b5573d6000803e3d6000fd5b505050506040513d601f19601f820116820180604052508101906105d99190611326565b5050955050505050508083600201541015610629576040517f08c379a00000000000000000000000000000000000000000000000000000000081526004016106209061144e565b60405180910390fd5b60018360040160006101000a81548160ff021916908315150217905550848360050181905550856005600087815260200190815260200160002081905550600160009054906101000a900473ffffffffffffffffffffffffffffffffffffffff1673ffffffffffffffffffffffffffffffffffffffff1663095ea7b3600260009054906101000a900473ffffffffffffffffffffffffffffffffffffffff16836040518363ffffffff1660e01b81526004016106e692919061146e565b6020604051808303816000875af1158015610705573d6000803e3d6000fd5b505050506040513d601f19601f820116820180604052508101906107299190611497565b610768576040517f08c379a000000000000000000000000000000000000000000000000000000000815260040161075f90611510565b60405180910390fd5b8173ffffffffffffffffffffffffffffffffffffffff1663b6b55f25866040518263ffffffff1660e01b81526004016107a19190611121565b600060405180830381600087803b1580156107bb57600080fd5b505af11580156107cf573d6000803e3d6000fd5b5050505084867fb2e7e42df3fc0061410ecdbb2644b7b36cd803c2c7d9f20515593b59d98b988c60405160405180910390a3505050505050565b6000801b61081681610b8d565b81600260006101000a81548173ffffffffffffffffffffffffffffffffffffffff021916908373ffffffffffffffffffffffffffffffffffffffff1602179055505050565b600080600084815260200190815260200160002060000160008373ffffffffffffffffffffffffffffffffffffffff1673ffffffffffffffffffffffffffffffffffffffff16815260200190815260200160002060009054906101000a900460ff16905092915050565b6000801b81565b60056020528060005260406000206000915090505481565b6108ed826103c0565b6108f681610b8d565b6109008383610c9a565b50505050565b60007fc60d7a62d8843f2b14bc63f2a5240b187980481ad8c001a3caf4916aef3f667e61093281610b8d565b6000600360008154809291906109479061155f565b9190505590506040518060c001604052808281526020018773ffffffffffffffffffffffffffffffffffffffff1681526020018681526020018581526020016000151581526020016000815250600460008381526020019081526020016000206000820151816000015560208201518160010160006101000a81548173ffffffffffffffffffffffffffffffffffffffff021916908373ffffffffffffffffffffffffffffffffffffffff160217905550604082015181600201556060820151816003015560808201518160040160006101000a81548160ff02191690831515021790555060a082015181600501559050508573ffffffffffffffffffffffffffffffffffffffff16817f2b993938baa27c88e77a207903d275c96fa30ae5949a3ea5cd56e466e4f5c89187604051610a809190611121565b60405180910390a380925050509392505050565b60046020528060005260406000206000915090508060000154908060010160009054906101000a900473ffffffffffffffffffffffffffffffffffffffff16908060020154908060030154908060040160009054906101000a900460ff16908060050154905086565b600260009054906101000a900473ffffffffffffffffffffffffffffffffffffffff1681565b60007f01ffc9a7000000000000000000000000000000000000000000000000000000007bffffffffffffffffffffffffffffffffffffffffffffffffffffffff1916827bffffffffffffffffffffffffffffffffffffffffffffffffffffffff1916149050919050565b610b9e81610b99610c92565b610d8c565b50565b6000610bad838361085b565b610c8757600160008085815260200190815260200160002060000160008473ffffffffffffffffffffffffffffffffffffffff1673ffffffffffffffffffffffffffffffffffffffff16815260200190815260200160002060006101000a81548160ff021916908315150217905550610c24610c92565b73ffffffffffffffffffffffffffffffffffffffff168273ffffffffffffffffffffffffffffffffffffffff16847f2f8788117e7eff1d82e926ec794901d17c78024a50270940304540a733656f0d60405160405180910390a460019050610c8c565b600090505b92915050565b600033905090565b6000610ca6838361085b565b15610d8157600080600085815260200190815260200160002060000160008473ffffffffffffffffffffffffffffffffffffffff1673ffffffffffffffffffffffffffffffffffffffff16815260200190815260200160002060006101000a81548160ff021916908315150217905550610d1e610c92565b73ffffffffffffffffffffffffffffffffffffffff168273ffffffffffffffffffffffffffffffffffffffff16847ff6391f5c32d9c69d2a47ea670b442974b53935d1edc7fd64eb21e047a839171b60405160405180910390a460019050610d86565b600090505b92915050565b610d96828261085b565b610dd95780826040517fe2517d3f000000000000000000000000000000000000000000000000000000008152600401610dd09291906115a7565b60405180910390fd5b5050565b6000819050919050565b610df081610ddd565b82525050565b6000602082019050610e0b6000830184610de7565b92915050565b600080fd5b60007fffffffff0000000000000000000000000000000000000000000000000000000082169050919050565b610e4b81610e16565b8114610e5657600080fd5b50565b600081359050610e6881610e42565b92915050565b600060208284031215610e8457610e83610e11565b5b6000610e9284828501610e59565b91505092915050565b60008115159050919050565b610eb081610e9b565b82525050565b6000602082019050610ecb6000830184610ea7565b92915050565b610eda81610ddd565b8114610ee557600080fd5b50565b600081359050610ef781610ed1565b92915050565b600060208284031215610f1357610f12610e11565b5b6000610f2184828501610ee8565b91505092915050565b600073ffffffffffffffffffffffffffffffffffffffff82169050919050565b6000610f5582610f2a565b9050919050565b610f6581610f4a565b8114610f7057600080fd5b50565b600081359050610f8281610f5c565b92915050565b60008060408385031215610f9f57610f9e610e11565b5b6000610fad85828601610ee8565b9250506020610fbe85828601610f73565b9150509250929050565b6000819050919050565b6000610fed610fe8610fe384610f2a565b610fc8565b610f2a565b9050919050565b6000610fff82610fd2565b9050919050565b600061101182610ff4565b9050919050565b61102181611006565b82525050565b600060208201905061103c6000830184611018565b92915050565b6000819050919050565b61105581611042565b811461106057600080fd5b50565b6000813590506110728161104c565b92915050565b6000806040838503121561108f5761108e610e11565b5b600061109d85828601611063565b92505060206110ae85828601611063565b9150509250929050565b6000602082840312156110ce576110cd610e11565b5b60006110dc84828501610f73565b91505092915050565b6000602082840312156110fb576110fa610e11565b5b600061110984828501611063565b91505092915050565b61111b81611042565b82525050565b60006020820190506111366000830184611112565b92915050565b60008060006060848603121561115557611154610e11565b5b600061116386828701610f73565b935050602061117486828701611063565b925050604061118586828701611063565b9150509250925092565b61119881610f4a565b82525050565b600060c0820190506111b36000830189611112565b6111c0602083018861118f565b6111cd6040830187611112565b6111da6060830186611112565b6111e76080830185610ea7565b6111f460a0830184611112565b979650505050505050565b6000602082019050611214600083018461118f565b92915050565b600082825260208201905092915050565b7f4c6f616e20616c72656164792064697362757273656400000000000000000000600082015250565b600061126160168361121a565b915061126c8261122b565b602082019050919050565b6000602082019050818103600083015261129081611254565b9050919050565b6000815190506112a68161104c565b92915050565b6000815190506112bb81610f5c565b92915050565b600060ff82169050919050565b6112d7816112c1565b81146112e257600080fd5b50565b6000815190506112f4816112ce565b92915050565b61130381610e9b565b811461130e57600080fd5b50565b600081519050611320816112fa565b92915050565b600080600080600080600080610100898b03121561134757611346610e11565b5b60006113558b828c01611297565b98505060206113668b828c016112ac565b97505060406113778b828c016112ac565b96505060606113888b828c016112ac565b95505060806113998b828c01611297565b94505060a06113aa8b828c01611297565b93505060c06113bb8b828c016112e5565b92505060e06113cc8b828c01611311565b9150509295985092959890939650565b7f4c6f616e20696e73756666696369656e7420666f72207472616e73616374696f60008201527f6e00000000000000000000000000000000000000000000000000000000000000602082015250565b600061143860218361121a565b9150611443826113dc565b604082019050919050565b600060208201905081810360008301526114678161142b565b9050919050565b6000604082019050611483600083018561118f565b6114906020830184611112565b9392505050565b6000602082840312156114ad576114ac610e11565b5b60006114bb84828501611311565b91505092915050565b7f417070726f76616c206661696c65640000000000000000000000000000000000600082015250565b60006114fa600f8361121a565b9150611505826114c4565b602082019050919050565b60006020820190508181036000830152611529816114ed565b9050919050565b7f4e487b7100000000000000000000000000000000000000000000000000000000600052601160045260246000fd5b600061156a82611042565b91507fffffffffffffffffffffffffffffffffffffffffffffffffffffffffffffffff820361159c5761159b611530565b5b600182019050919050565b60006040820190506115bc600083018561118f565b6115c96020830184610de7565b939250505056fea26469706673582212209675ae12d1dd98a4809f1c086fd12d4e99a809199cd06ac80e80d642ff5246a264736f6c63430008140033",
  "linkReferences": {},
  "deployedLinkReferences": {}
}